{
	"contracts/RealEstate.sol": {
		"KiralamaSozlesmesi": {
			"abi": [
				{
					"inputs": [],
					"stateMutability": "nonpayable",
					"type": "constructor"
				},
				{
					"anonymous": false,
					"inputs": [
						{
							"indexed": true,
							"internalType": "address",
							"name": "kiraci",
							"type": "address"
						},
						{
							"indexed": true,
							"internalType": "address",
							"name": "sahip",
							"type": "address"
						},
						{
							"indexed": false,
							"internalType": "string",
							"name": "sehir",
							"type": "string"
						},
						{
							"indexed": false,
							"internalType": "string",
							"name": "ilce",
							"type": "string"
						},
						{
							"indexed": false,
							"internalType": "string",
							"name": "mahalle",
							"type": "string"
						},
						{
							"indexed": false,
							"internalType": "string",
							"name": "sokak",
							"type": "string"
						},
						{
							"indexed": false,
							"internalType": "uint256",
							"name": "binaNo",
							"type": "uint256"
						},
						{
							"indexed": false,
							"internalType": "uint256",
							"name": "daireNo",
							"type": "uint256"
						},
						{
							"indexed": false,
							"internalType": "string",
							"name": "baslangicTarihi",
							"type": "string"
						},
						{
							"indexed": false,
							"internalType": "string",
							"name": "bitisTarihi",
							"type": "string"
						}
					],
					"name": "Kiralama",
					"type": "event"
				},
				{
					"anonymous": false,
					"inputs": [
						{
							"indexed": true,
							"internalType": "address",
							"name": "kiraci",
							"type": "address"
						},
						{
							"indexed": true,
							"internalType": "address",
							"name": "sahip",
							"type": "address"
						},
						{
							"indexed": false,
							"internalType": "string",
							"name": "sehir",
							"type": "string"
						},
						{
							"indexed": false,
							"internalType": "string",
							"name": "ilce",
							"type": "string"
						},
						{
							"indexed": false,
							"internalType": "string",
							"name": "mahalle",
							"type": "string"
						},
						{
							"indexed": false,
							"internalType": "string",
							"name": "sokak",
							"type": "string"
						},
						{
							"indexed": false,
							"internalType": "uint256",
							"name": "binaNo",
							"type": "uint256"
						},
						{
							"indexed": false,
							"internalType": "uint256",
							"name": "daireNo",
							"type": "uint256"
						}
					],
					"name": "Sonlandir",
					"type": "event"
				},
				{
					"inputs": [
						{
							"internalType": "address",
							"name": "_kiraci",
							"type": "address"
						},
						{
							"internalType": "string",
							"name": "_sehir",
							"type": "string"
						},
						{
							"internalType": "string",
							"name": "_ilce",
							"type": "string"
						},
						{
							"internalType": "string",
							"name": "_mahalle",
							"type": "string"
						},
						{
							"internalType": "string",
							"name": "_sokak",
							"type": "string"
						},
						{
							"internalType": "uint256",
							"name": "_binaNo",
							"type": "uint256"
						},
						{
							"internalType": "uint256",
							"name": "_daireNo",
							"type": "uint256"
						},
						{
							"internalType": "address",
							"name": "_sahip",
							"type": "address"
						}
					],
					"name": "hataBildir",
					"outputs": [],
					"stateMutability": "view",
					"type": "function"
				},
				{
					"inputs": [
						{
							"internalType": "address",
							"name": "_kiraci",
							"type": "address"
						},
						{
							"internalType": "string",
							"name": "_sehir",
							"type": "string"
						},
						{
							"internalType": "string",
							"name": "_ilce",
							"type": "string"
						},
						{
							"internalType": "string",
							"name": "_mahalle",
							"type": "string"
						},
						{
							"internalType": "string",
							"name": "_sokak",
							"type": "string"
						},
						{
							"internalType": "uint256",
							"name": "_binaNo",
							"type": "uint256"
						},
						{
							"internalType": "uint256",
							"name": "_daireNo",
							"type": "uint256"
						},
						{
							"internalType": "address",
							"name": "_sahip",
							"type": "address"
						},
						{
							"internalType": "string",
							"name": "_baslangicTarihi",
							"type": "string"
						},
						{
							"internalType": "string",
							"name": "_bitisTarihi",
							"type": "string"
						}
					],
					"name": "kirala",
					"outputs": [],
					"stateMutability": "nonpayable",
					"type": "function"
				},
				{
					"inputs": [],
					"name": "kiralikSayisi",
					"outputs": [
						{
							"internalType": "uint256",
							"name": "",
							"type": "uint256"
						}
					],
					"stateMutability": "view",
					"type": "function"
				},
				{
					"inputs": [
						{
							"internalType": "uint256",
							"name": "",
							"type": "uint256"
						}
					],
					"name": "kiralikYerler",
					"outputs": [
						{
							"internalType": "address",
							"name": "kiraci",
							"type": "address"
						},
						{
							"internalType": "string",
							"name": "sehir",
							"type": "string"
						},
						{
							"internalType": "string",
							"name": "ilce",
							"type": "string"
						},
						{
							"internalType": "string",
							"name": "mahalle",
							"type": "string"
						},
						{
							"internalType": "string",
							"name": "sokak",
							"type": "string"
						},
						{
							"internalType": "uint256",
							"name": "binaNo",
							"type": "uint256"
						},
						{
							"internalType": "uint256",
							"name": "daireNo",
							"type": "uint256"
						},
						{
							"internalType": "address",
							"name": "sahip",
							"type": "address"
						}
					],
					"stateMutability": "view",
					"type": "function"
				},
				{
					"inputs": [],
					"name": "kontratSahibi",
					"outputs": [
						{
							"internalType": "address",
							"name": "",
							"type": "address"
						}
					],
					"stateMutability": "view",
					"type": "function"
				},
				{
					"inputs": [
						{
							"internalType": "address",
							"name": "_kiraci",
							"type": "address"
						},
						{
							"internalType": "string",
							"name": "_sehir",
							"type": "string"
						},
						{
							"internalType": "string",
							"name": "_ilce",
							"type": "string"
						},
						{
							"internalType": "string",
							"name": "_mahalle",
							"type": "string"
						},
						{
							"internalType": "string",
							"name": "_sokak",
							"type": "string"
						},
						{
							"internalType": "uint256",
							"name": "_binaNo",
							"type": "uint256"
						},
						{
							"internalType": "uint256",
							"name": "_daireNo",
							"type": "uint256"
						},
						{
							"internalType": "address",
							"name": "_sahip",
							"type": "address"
						}
					],
					"name": "sonlandir",
					"outputs": [],
					"stateMutability": "nonpayable",
					"type": "function"
				},
				{
					"inputs": [
						{
							"internalType": "uint256",
							"name": "",
							"type": "uint256"
						}
					],
					"name": "sozlesmeler",
					"outputs": [
						{
							"components": [
								{
									"internalType": "address",
									"name": "kiraci",
									"type": "address"
								},
								{
									"internalType": "string",
									"name": "sehir",
									"type": "string"
								},
								{
									"internalType": "string",
									"name": "ilce",
									"type": "string"
								},
								{
									"internalType": "string",
									"name": "mahalle",
									"type": "string"
								},
								{
									"internalType": "string",
									"name": "sokak",
									"type": "string"
								},
								{
									"internalType": "uint256",
									"name": "binaNo",
									"type": "uint256"
								},
								{
									"internalType": "uint256",
									"name": "daireNo",
									"type": "uint256"
								},
								{
									"internalType": "address",
									"name": "sahip",
									"type": "address"
								}
							],
							"internalType": "struct Kiralik",
							"name": "kiralik",
							"type": "tuple"
						},
						{
							"internalType": "string",
							"name": "baslangicTarihi",
							"type": "string"
						},
						{
							"internalType": "string",
							"name": "bitisTarihi",
							"type": "string"
						}
					],
					"stateMutability": "view",
					"type": "function"
				}
			],
			"devdoc": {
				"kind": "dev",
				"methods": {},
				"version": 1
			},
			"evm": {
				"assembly": "    /* \"contracts/RealEstate.sol\":335:4765  contract KiralamaSozlesmesi {... */\n  mstore(0x40, 0x80)\n    /* \"contracts/RealEstate.sol\":995:1079  constructor() {... */\n  callvalue\n  dup1\n  iszero\n  tag_1\n  jumpi\n  0x00\n  dup1\n  revert\ntag_1:\n  pop\n    /* \"contracts/RealEstate.sol\":1035:1045  msg.sender */\n  caller\n    /* \"contracts/RealEstate.sol\":1019:1032  kontratSahibi */\n  0x00\n  dup1\n    /* \"contracts/RealEstate.sol\":1019:1045  kontratSahibi = msg.sender */\n  0x0100\n  exp\n  dup2\n  sload\n  dup2\n  0xffffffffffffffffffffffffffffffffffffffff\n  mul\n  not\n  and\n  swap1\n  dup4\n  0xffffffffffffffffffffffffffffffffffffffff\n  and\n  mul\n  or\n  swap1\n  sstore\n  pop\n    /* \"contracts/RealEstate.sol\":1071:1072  0 */\n  0x00\n    /* \"contracts/RealEstate.sol\":1055:1068  kiralikSayisi */\n  0x01\n    /* \"contracts/RealEstate.sol\":1055:1072  kiralikSayisi = 0 */\n  dup2\n  swap1\n  sstore\n  pop\n    /* \"contracts/RealEstate.sol\":335:4765  contract KiralamaSozlesmesi {... */\n  dataSize(sub_0)\n  dup1\n  dataOffset(sub_0)\n  0x00\n  codecopy\n  0x00\n  return\nstop\n\nsub_0: assembly {\n        /* \"contracts/RealEstate.sol\":335:4765  contract KiralamaSozlesmesi {... */\n      mstore(0x40, 0x80)\n      callvalue\n      dup1\n      iszero\n      tag_1\n      jumpi\n      0x00\n      dup1\n      revert\n    tag_1:\n      pop\n      jumpi(tag_2, lt(calldatasize, 0x04))\n      shr(0xe0, calldataload(0x00))\n      dup1\n      0xd017c632\n      gt\n      tag_10\n      jumpi\n      dup1\n      0xd017c632\n      eq\n      tag_6\n      jumpi\n      dup1\n      0xeb6822cd\n      eq\n      tag_7\n      jumpi\n      dup1\n      0xecaac378\n      eq\n      tag_8\n      jumpi\n      dup1\n      0xf2f9d555\n      eq\n      tag_9\n      jumpi\n      jump(tag_2)\n    tag_10:\n      dup1\n      0x4748fbc0\n      eq\n      tag_3\n      jumpi\n      dup1\n      0x644486b8\n      eq\n      tag_4\n      jumpi\n      dup1\n      0x6f33506b\n      eq\n      tag_5\n      jumpi\n    tag_2:\n      0x00\n      dup1\n      revert\n        /* \"contracts/RealEstate.sol\":439:469  Kiralik[] public kiralikYerler */\n    tag_3:\n      tag_11\n      0x04\n      dup1\n      calldatasize\n      sub\n      dup2\n      add\n      swap1\n      tag_12\n      swap2\n      swap1\n      tag_13\n      jump\t// in\n    tag_12:\n      tag_14\n      jump\t// in\n    tag_11:\n      mload(0x40)\n      tag_15\n      swap9\n      swap8\n      swap7\n      swap6\n      swap5\n      swap4\n      swap3\n      swap2\n      swap1\n      tag_16\n      jump\t// in\n    tag_15:\n      mload(0x40)\n      dup1\n      swap2\n      sub\n      swap1\n      return\n        /* \"contracts/RealEstate.sol\":3487:4763  function hataBildir(address _kiraci, string memory _sehir, string memory _ilce, string memory _mahalle, string memory _sokak, uint256 _binaNo, uint256 _daireNo, address _sahip) public view {... */\n    tag_4:\n      tag_17\n      0x04\n      dup1\n      calldatasize\n      sub\n      dup2\n      add\n      swap1\n      tag_18\n      swap2\n      swap1\n      tag_19\n      jump\t// in\n    tag_18:\n      tag_20\n      jump\t// in\n    tag_17:\n      stop\n        /* \"contracts/RealEstate.sol\":370:398  address public kontratSahibi */\n    tag_5:\n      tag_21\n      tag_22\n      jump\t// in\n    tag_21:\n      mload(0x40)\n      tag_23\n      swap2\n      swap1\n      tag_24\n      jump\t// in\n    tag_23:\n      mload(0x40)\n      dup1\n      swap2\n      sub\n      swap1\n      return\n        /* \"contracts/RealEstate.sol\":1085:1995  function kirala(... */\n    tag_6:\n      tag_25\n      0x04\n      dup1\n      calldatasize\n      sub\n      dup2\n      add\n      swap1\n      tag_26\n      swap2\n      swap1\n      tag_27\n      jump\t// in\n    tag_26:\n      tag_28\n      jump\t// in\n    tag_25:\n      stop\n        /* \"contracts/RealEstate.sol\":475:504  Sozlesme[] public sozlesmeler */\n    tag_7:\n      tag_29\n      0x04\n      dup1\n      calldatasize\n      sub\n      dup2\n      add\n      swap1\n      tag_30\n      swap2\n      swap1\n      tag_13\n      jump\t// in\n    tag_30:\n      tag_31\n      jump\t// in\n    tag_29:\n      mload(0x40)\n      tag_32\n      swap4\n      swap3\n      swap2\n      swap1\n      tag_33\n      jump\t// in\n    tag_32:\n      mload(0x40)\n      dup1\n      swap2\n      sub\n      swap1\n      return\n        /* \"contracts/RealEstate.sol\":2001:3481  function sonlandir(address _kiraci, string memory _sehir, string memory _ilce, string memory _mahalle, string memory _sokak, uint256 _binaNo, uint256 _daireNo, address _sahip) public sadeceKontratSahibi {... */\n    tag_8:\n      tag_34\n      0x04\n      dup1\n      calldatasize\n      sub\n      dup2\n      add\n      swap1\n      tag_35\n      swap2\n      swap1\n      tag_19\n      jump\t// in\n    tag_35:\n      tag_36\n      jump\t// in\n    tag_34:\n      stop\n        /* \"contracts/RealEstate.sol\":404:432  uint256 public kiralikSayisi */\n    tag_9:\n      tag_37\n      tag_38\n      jump\t// in\n    tag_37:\n      mload(0x40)\n      tag_39\n      swap2\n      swap1\n      tag_40\n      jump\t// in\n    tag_39:\n      mload(0x40)\n      dup1\n      swap2\n      sub\n      swap1\n      return\n        /* \"contracts/RealEstate.sol\":439:469  Kiralik[] public kiralikYerler */\n    tag_14:\n      0x02\n      dup2\n      dup2\n      sload\n      dup2\n      lt\n      tag_41\n      jumpi\n      0x00\n      dup1\n      revert\n    tag_41:\n      swap1\n      0x00\n      mstore\n      keccak256(0x00, 0x20)\n      swap1\n      0x08\n      mul\n      add\n      0x00\n      swap2\n      pop\n      swap1\n      pop\n      dup1\n      0x00\n      add\n      0x00\n      swap1\n      sload\n      swap1\n      0x0100\n      exp\n      swap1\n      div\n      0xffffffffffffffffffffffffffffffffffffffff\n      and\n      swap1\n      dup1\n      0x01\n      add\n      dup1\n      sload\n      tag_43\n      swap1\n      tag_44\n      jump\t// in\n    tag_43:\n      dup1\n      0x1f\n      add\n      0x20\n      dup1\n      swap2\n      div\n      mul\n      0x20\n      add\n      mload(0x40)\n      swap1\n      dup2\n      add\n      0x40\n      mstore\n      dup1\n      swap3\n      swap2\n      swap1\n      dup2\n      dup2\n      mstore\n      0x20\n      add\n      dup3\n      dup1\n      sload\n      tag_45\n      swap1\n      tag_44\n      jump\t// in\n    tag_45:\n      dup1\n      iszero\n      tag_46\n      jumpi\n      dup1\n      0x1f\n      lt\n      tag_47\n      jumpi\n      0x0100\n      dup1\n      dup4\n      sload\n      div\n      mul\n      dup4\n      mstore\n      swap2\n      0x20\n      add\n      swap2\n      jump(tag_46)\n    tag_47:\n      dup3\n      add\n      swap2\n      swap1\n      0x00\n      mstore\n      keccak256(0x00, 0x20)\n      swap1\n    tag_48:\n      dup2\n      sload\n      dup2\n      mstore\n      swap1\n      0x01\n      add\n      swap1\n      0x20\n      add\n      dup1\n      dup4\n      gt\n      tag_48\n      jumpi\n      dup3\n      swap1\n      sub\n      0x1f\n      and\n      dup3\n      add\n      swap2\n    tag_46:\n      pop\n      pop\n      pop\n      pop\n      pop\n      swap1\n      dup1\n      0x02\n      add\n      dup1\n      sload\n      tag_49\n      swap1\n      tag_44\n      jump\t// in\n    tag_49:\n      dup1\n      0x1f\n      add\n      0x20\n      dup1\n      swap2\n      div\n      mul\n      0x20\n      add\n      mload(0x40)\n      swap1\n      dup2\n      add\n      0x40\n      mstore\n      dup1\n      swap3\n      swap2\n      swap1\n      dup2\n      dup2\n      mstore\n      0x20\n      add\n      dup3\n      dup1\n      sload\n      tag_50\n      swap1\n      tag_44\n      jump\t// in\n    tag_50:\n      dup1\n      iszero\n      tag_51\n      jumpi\n      dup1\n      0x1f\n      lt\n      tag_52\n      jumpi\n      0x0100\n      dup1\n      dup4\n      sload\n      div\n      mul\n      dup4\n      mstore\n      swap2\n      0x20\n      add\n      swap2\n      jump(tag_51)\n    tag_52:\n      dup3\n      add\n      swap2\n      swap1\n      0x00\n      mstore\n      keccak256(0x00, 0x20)\n      swap1\n    tag_53:\n      dup2\n      sload\n      dup2\n      mstore\n      swap1\n      0x01\n      add\n      swap1\n      0x20\n      add\n      dup1\n      dup4\n      gt\n      tag_53\n      jumpi\n      dup3\n      swap1\n      sub\n      0x1f\n      and\n      dup3\n      add\n      swap2\n    tag_51:\n      pop\n      pop\n      pop\n      pop\n      pop\n      swap1\n      dup1\n      0x03\n      add\n      dup1\n      sload\n      tag_54\n      swap1\n      tag_44\n      jump\t// in\n    tag_54:\n      dup1\n      0x1f\n      add\n      0x20\n      dup1\n      swap2\n      div\n      mul\n      0x20\n      add\n      mload(0x40)\n      swap1\n      dup2\n      add\n      0x40\n      mstore\n      dup1\n      swap3\n      swap2\n      swap1\n      dup2\n      dup2\n      mstore\n      0x20\n      add\n      dup3\n      dup1\n      sload\n      tag_55\n      swap1\n      tag_44\n      jump\t// in\n    tag_55:\n      dup1\n      iszero\n      tag_56\n      jumpi\n      dup1\n      0x1f\n      lt\n      tag_57\n      jumpi\n      0x0100\n      dup1\n      dup4\n      sload\n      div\n      mul\n      dup4\n      mstore\n      swap2\n      0x20\n      add\n      swap2\n      jump(tag_56)\n    tag_57:\n      dup3\n      add\n      swap2\n      swap1\n      0x00\n      mstore\n      keccak256(0x00, 0x20)\n      swap1\n    tag_58:\n      dup2\n      sload\n      dup2\n      mstore\n      swap1\n      0x01\n      add\n      swap1\n      0x20\n      add\n      dup1\n      dup4\n      gt\n      tag_58\n      jumpi\n      dup3\n      swap1\n      sub\n      0x1f\n      and\n      dup3\n      add\n      swap2\n    tag_56:\n      pop\n      pop\n      pop\n      pop\n      pop\n      swap1\n      dup1\n      0x04\n      add\n      dup1\n      sload\n      tag_59\n      swap1\n      tag_44\n      jump\t// in\n    tag_59:\n      dup1\n      0x1f\n      add\n      0x20\n      dup1\n      swap2\n      div\n      mul\n      0x20\n      add\n      mload(0x40)\n      swap1\n      dup2\n      add\n      0x40\n      mstore\n      dup1\n      swap3\n      swap2\n      swap1\n      dup2\n      dup2\n      mstore\n      0x20\n      add\n      dup3\n      dup1\n      sload\n      tag_60\n      swap1\n      tag_44\n      jump\t// in\n    tag_60:\n      dup1\n      iszero\n      tag_61\n      jumpi\n      dup1\n      0x1f\n      lt\n      tag_62\n      jumpi\n      0x0100\n      dup1\n      dup4\n      sload\n      div\n      mul\n      dup4\n      mstore\n      swap2\n      0x20\n      add\n      swap2\n      jump(tag_61)\n    tag_62:\n      dup3\n      add\n      swap2\n      swap1\n      0x00\n      mstore\n      keccak256(0x00, 0x20)\n      swap1\n    tag_63:\n      dup2\n      sload\n      dup2\n      mstore\n      swap1\n      0x01\n      add\n      swap1\n      0x20\n      add\n      dup1\n      dup4\n      gt\n      tag_63\n      jumpi\n      dup3\n      swap1\n      sub\n      0x1f\n      and\n      dup3\n      add\n      swap2\n    tag_61:\n      pop\n      pop\n      pop\n      pop\n      pop\n      swap1\n      dup1\n      0x05\n      add\n      sload\n      swap1\n      dup1\n      0x06\n      add\n      sload\n      swap1\n      dup1\n      0x07\n      add\n      0x00\n      swap1\n      sload\n      swap1\n      0x0100\n      exp\n      swap1\n      div\n      0xffffffffffffffffffffffffffffffffffffffff\n      and\n      swap1\n      pop\n      dup9\n      jump\t// out\n        /* \"contracts/RealEstate.sol\":3487:4763  function hataBildir(address _kiraci, string memory _sehir, string memory _ilce, string memory _mahalle, string memory _sokak, uint256 _binaNo, uint256 _daireNo, address _sahip) public view {... */\n    tag_20:\n        /* \"contracts/RealEstate.sol\":3708:3715  _kiraci */\n      dup8\n        /* \"contracts/RealEstate.sol\":3694:3715  msg.sender == _kiraci */\n      0xffffffffffffffffffffffffffffffffffffffff\n      and\n        /* \"contracts/RealEstate.sol\":3694:3704  msg.sender */\n      caller\n        /* \"contracts/RealEstate.sol\":3694:3715  msg.sender == _kiraci */\n      0xffffffffffffffffffffffffffffffffffffffff\n      and\n      eq\n        /* \"contracts/RealEstate.sol\":3686:3739  require(msg.sender == _kiraci, \"Only contract owner\") */\n      tag_65\n      jumpi\n      mload(0x40)\n      0x08c379a000000000000000000000000000000000000000000000000000000000\n      dup2\n      mstore\n      0x04\n      add\n      tag_66\n      swap1\n      tag_67\n      jump\t// in\n    tag_66:\n      mload(0x40)\n      dup1\n      swap2\n      sub\n      swap1\n      revert\n    tag_65:\n        /* \"contracts/RealEstate.sol\":3776:3777  0 */\n      0x00\n        /* \"contracts/RealEstate.sol\":3757:3778  _kiraci != address(0) */\n      0xffffffffffffffffffffffffffffffffffffffff\n      and\n        /* \"contracts/RealEstate.sol\":3757:3764  _kiraci */\n      dup9\n        /* \"contracts/RealEstate.sol\":3757:3778  _kiraci != address(0) */\n      0xffffffffffffffffffffffffffffffffffffffff\n      and\n      sub\n        /* \"contracts/RealEstate.sol\":3749:3805  require(_kiraci != address(0), \"Gecersiz kiraci adresi\") */\n      tag_68\n      jumpi\n      mload(0x40)\n      0x08c379a000000000000000000000000000000000000000000000000000000000\n      dup2\n      mstore\n      0x04\n      add\n      tag_69\n      swap1\n      tag_70\n      jump\t// in\n    tag_69:\n      mload(0x40)\n      dup1\n      swap2\n      sub\n      swap1\n      revert\n    tag_68:\n        /* \"contracts/RealEstate.sol\":3842:3843  0 */\n      0x00\n        /* \"contracts/RealEstate.sol\":3824:3844  _sahip != address(0) */\n      0xffffffffffffffffffffffffffffffffffffffff\n      and\n        /* \"contracts/RealEstate.sol\":3824:3830  _sahip */\n      dup2\n        /* \"contracts/RealEstate.sol\":3824:3844  _sahip != address(0) */\n      0xffffffffffffffffffffffffffffffffffffffff\n      and\n      sub\n        /* \"contracts/RealEstate.sol\":3816:3870  require(_sahip != address(0), \"Gecersiz sahip adresi\") */\n      tag_71\n      jumpi\n      mload(0x40)\n      0x08c379a000000000000000000000000000000000000000000000000000000000\n      dup2\n      mstore\n      0x04\n      add\n      tag_72\n      swap1\n      tag_73\n      jump\t// in\n    tag_72:\n      mload(0x40)\n      dup1\n      swap2\n      sub\n      swap1\n      revert\n    tag_71:\n        /* \"contracts/RealEstate.sol\":3881:3893  bool bulundu */\n      0x00\n        /* \"contracts/RealEstate.sol\":3917:3926  uint256 i */\n      dup1\n        /* \"contracts/RealEstate.sol\":3912:4707  for (uint256 i = 0; i < kiralikSayisi; i++) {... */\n    tag_74:\n        /* \"contracts/RealEstate.sol\":3936:3949  kiralikSayisi */\n      sload(0x01)\n        /* \"contracts/RealEstate.sol\":3932:3933  i */\n      dup2\n        /* \"contracts/RealEstate.sol\":3932:3949  i < kiralikSayisi */\n      lt\n        /* \"contracts/RealEstate.sol\":3912:4707  for (uint256 i = 0; i < kiralikSayisi; i++) {... */\n      iszero\n      tag_75\n      jumpi\n        /* \"contracts/RealEstate.sol\":3970:3992  Kiralik memory kiralik */\n      0x00\n        /* \"contracts/RealEstate.sol\":3995:4008  kiralikYerler */\n      0x02\n        /* \"contracts/RealEstate.sol\":4009:4010  i */\n      dup3\n        /* \"contracts/RealEstate.sol\":3995:4011  kiralikYerler[i] */\n      dup2\n      sload\n      dup2\n      lt\n      tag_77\n      jumpi\n      tag_78\n      tag_79\n      jump\t// in\n    tag_78:\n    tag_77:\n      swap1\n      0x00\n      mstore\n      keccak256(0x00, 0x20)\n      swap1\n      0x08\n      mul\n      add\n        /* \"contracts/RealEstate.sol\":3970:4011  Kiralik memory kiralik = kiralikYerler[i] */\n      mload(0x40)\n      dup1\n      0x0100\n      add\n      0x40\n      mstore\n      swap1\n      dup2\n      0x00\n      dup3\n      add\n      0x00\n      swap1\n      sload\n      swap1\n      0x0100\n      exp\n      swap1\n      div\n      0xffffffffffffffffffffffffffffffffffffffff\n      and\n      0xffffffffffffffffffffffffffffffffffffffff\n      and\n      0xffffffffffffffffffffffffffffffffffffffff\n      and\n      dup2\n      mstore\n      0x20\n      add\n      0x01\n      dup3\n      add\n      dup1\n      sload\n      tag_81\n      swap1\n      tag_44\n      jump\t// in\n    tag_81:\n      dup1\n      0x1f\n      add\n      0x20\n      dup1\n      swap2\n      div\n      mul\n      0x20\n      add\n      mload(0x40)\n      swap1\n      dup2\n      add\n      0x40\n      mstore\n      dup1\n      swap3\n      swap2\n      swap1\n      dup2\n      dup2\n      mstore\n      0x20\n      add\n      dup3\n      dup1\n      sload\n      tag_82\n      swap1\n      tag_44\n      jump\t// in\n    tag_82:\n      dup1\n      iszero\n      tag_83\n      jumpi\n      dup1\n      0x1f\n      lt\n      tag_84\n      jumpi\n      0x0100\n      dup1\n      dup4\n      sload\n      div\n      mul\n      dup4\n      mstore\n      swap2\n      0x20\n      add\n      swap2\n      jump(tag_83)\n    tag_84:\n      dup3\n      add\n      swap2\n      swap1\n      0x00\n      mstore\n      keccak256(0x00, 0x20)\n      swap1\n    tag_85:\n      dup2\n      sload\n      dup2\n      mstore\n      swap1\n      0x01\n      add\n      swap1\n      0x20\n      add\n      dup1\n      dup4\n      gt\n      tag_85\n      jumpi\n      dup3\n      swap1\n      sub\n      0x1f\n      and\n      dup3\n      add\n      swap2\n    tag_83:\n      pop\n      pop\n      pop\n      pop\n      pop\n      dup2\n      mstore\n      0x20\n      add\n      0x02\n      dup3\n      add\n      dup1\n      sload\n      tag_86\n      swap1\n      tag_44\n      jump\t// in\n    tag_86:\n      dup1\n      0x1f\n      add\n      0x20\n      dup1\n      swap2\n      div\n      mul\n      0x20\n      add\n      mload(0x40)\n      swap1\n      dup2\n      add\n      0x40\n      mstore\n      dup1\n      swap3\n      swap2\n      swap1\n      dup2\n      dup2\n      mstore\n      0x20\n      add\n      dup3\n      dup1\n      sload\n      tag_87\n      swap1\n      tag_44\n      jump\t// in\n    tag_87:\n      dup1\n      iszero\n      tag_88\n      jumpi\n      dup1\n      0x1f\n      lt\n      tag_89\n      jumpi\n      0x0100\n      dup1\n      dup4\n      sload\n      div\n      mul\n      dup4\n      mstore\n      swap2\n      0x20\n      add\n      swap2\n      jump(tag_88)\n    tag_89:\n      dup3\n      add\n      swap2\n      swap1\n      0x00\n      mstore\n      keccak256(0x00, 0x20)\n      swap1\n    tag_90:\n      dup2\n      sload\n      dup2\n      mstore\n      swap1\n      0x01\n      add\n      swap1\n      0x20\n      add\n      dup1\n      dup4\n      gt\n      tag_90\n      jumpi\n      dup3\n      swap1\n      sub\n      0x1f\n      and\n      dup3\n      add\n      swap2\n    tag_88:\n      pop\n      pop\n      pop\n      pop\n      pop\n      dup2\n      mstore\n      0x20\n      add\n      0x03\n      dup3\n      add\n      dup1\n      sload\n      tag_91\n      swap1\n      tag_44\n      jump\t// in\n    tag_91:\n      dup1\n      0x1f\n      add\n      0x20\n      dup1\n      swap2\n      div\n      mul\n      0x20\n      add\n      mload(0x40)\n      swap1\n      dup2\n      add\n      0x40\n      mstore\n      dup1\n      swap3\n      swap2\n      swap1\n      dup2\n      dup2\n      mstore\n      0x20\n      add\n      dup3\n      dup1\n      sload\n      tag_92\n      swap1\n      tag_44\n      jump\t// in\n    tag_92:\n      dup1\n      iszero\n      tag_93\n      jumpi\n      dup1\n      0x1f\n      lt\n      tag_94\n      jumpi\n      0x0100\n      dup1\n      dup4\n      sload\n      div\n      mul\n      dup4\n      mstore\n      swap2\n      0x20\n      add\n      swap2\n      jump(tag_93)\n    tag_94:\n      dup3\n      add\n      swap2\n      swap1\n      0x00\n      mstore\n      keccak256(0x00, 0x20)\n      swap1\n    tag_95:\n      dup2\n      sload\n      dup2\n      mstore\n      swap1\n      0x01\n      add\n      swap1\n      0x20\n      add\n      dup1\n      dup4\n      gt\n      tag_95\n      jumpi\n      dup3\n      swap1\n      sub\n      0x1f\n      and\n      dup3\n      add\n      swap2\n    tag_93:\n      pop\n      pop\n      pop\n      pop\n      pop\n      dup2\n      mstore\n      0x20\n      add\n      0x04\n      dup3\n      add\n      dup1\n      sload\n      tag_96\n      swap1\n      tag_44\n      jump\t// in\n    tag_96:\n      dup1\n      0x1f\n      add\n      0x20\n      dup1\n      swap2\n      div\n      mul\n      0x20\n      add\n      mload(0x40)\n      swap1\n      dup2\n      add\n      0x40\n      mstore\n      dup1\n      swap3\n      swap2\n      swap1\n      dup2\n      dup2\n      mstore\n      0x20\n      add\n      dup3\n      dup1\n      sload\n      tag_97\n      swap1\n      tag_44\n      jump\t// in\n    tag_97:\n      dup1\n      iszero\n      tag_98\n      jumpi\n      dup1\n      0x1f\n      lt\n      tag_99\n      jumpi\n      0x0100\n      dup1\n      dup4\n      sload\n      div\n      mul\n      dup4\n      mstore\n      swap2\n      0x20\n      add\n      swap2\n      jump(tag_98)\n    tag_99:\n      dup3\n      add\n      swap2\n      swap1\n      0x00\n      mstore\n      keccak256(0x00, 0x20)\n      swap1\n    tag_100:\n      dup2\n      sload\n      dup2\n      mstore\n      swap1\n      0x01\n      add\n      swap1\n      0x20\n      add\n      dup1\n      dup4\n      gt\n      tag_100\n      jumpi\n      dup3\n      swap1\n      sub\n      0x1f\n      and\n      dup3\n      add\n      swap2\n    tag_98:\n      pop\n      pop\n      pop\n      pop\n      pop\n      dup2\n      mstore\n      0x20\n      add\n      0x05\n      dup3\n      add\n      sload\n      dup2\n      mstore\n      0x20\n      add\n      0x06\n      dup3\n      add\n      sload\n      dup2\n      mstore\n      0x20\n      add\n      0x07\n      dup3\n      add\n      0x00\n      swap1\n      sload\n      swap1\n      0x0100\n      exp\n      swap1\n      div\n      0xffffffffffffffffffffffffffffffffffffffff\n      and\n      0xffffffffffffffffffffffffffffffffffffffff\n      and\n      0xffffffffffffffffffffffffffffffffffffffff\n      and\n      dup2\n      mstore\n      pop\n      pop\n      swap1\n      pop\n        /* \"contracts/RealEstate.sol\":4064:4071  _kiraci */\n      dup11\n        /* \"contracts/RealEstate.sol\":4046:4071  kiralik.kiraci == _kiraci */\n      0xffffffffffffffffffffffffffffffffffffffff\n      and\n        /* \"contracts/RealEstate.sol\":4046:4053  kiralik */\n      dup2\n        /* \"contracts/RealEstate.sol\":4046:4060  kiralik.kiraci */\n      0x00\n      add\n      mload\n        /* \"contracts/RealEstate.sol\":4046:4071  kiralik.kiraci == _kiraci */\n      0xffffffffffffffffffffffffffffffffffffffff\n      and\n      eq\n        /* \"contracts/RealEstate.sol\":4046:4172  kiralik.kiraci == _kiraci &&... */\n      dup1\n      iszero\n      tag_101\n      jumpi\n      pop\n        /* \"contracts/RealEstate.sol\":4164:4170  _sehir */\n      dup10\n        /* \"contracts/RealEstate.sol\":4147:4171  abi.encodePacked(_sehir) */\n      add(0x20, mload(0x40))\n      tag_102\n      swap2\n      swap1\n      tag_103\n      jump\t// in\n    tag_102:\n      mload(0x40)\n      0x20\n      dup2\n      dup4\n      sub\n      sub\n      dup2\n      mstore\n      swap1\n      0x40\n      mstore\n        /* \"contracts/RealEstate.sol\":4137:4172  keccak256(abi.encodePacked(_sehir)) */\n      dup1\n      mload\n      swap1\n      0x20\n      add\n      keccak256\n        /* \"contracts/RealEstate.sol\":4118:4125  kiralik */\n      dup2\n        /* \"contracts/RealEstate.sol\":4118:4131  kiralik.sehir */\n      0x20\n      add\n      mload\n        /* \"contracts/RealEstate.sol\":4101:4132  abi.encodePacked(kiralik.sehir) */\n      add(0x20, mload(0x40))\n      tag_104\n      swap2\n      swap1\n      tag_103\n      jump\t// in\n    tag_104:\n      mload(0x40)\n      0x20\n      dup2\n      dup4\n      sub\n      sub\n      dup2\n      mstore\n      swap1\n      0x40\n      mstore\n        /* \"contracts/RealEstate.sol\":4091:4133  keccak256(abi.encodePacked(kiralik.sehir)) */\n      dup1\n      mload\n      swap1\n      0x20\n      add\n      keccak256\n        /* \"contracts/RealEstate.sol\":4091:4172  keccak256(abi.encodePacked(kiralik.sehir)) == keccak256(abi.encodePacked(_sehir)) */\n      eq\n        /* \"contracts/RealEstate.sol\":4046:4172  kiralik.kiraci == _kiraci &&... */\n    tag_101:\n        /* \"contracts/RealEstate.sol\":4046:4271  kiralik.kiraci == _kiraci &&... */\n      dup1\n      iszero\n      tag_105\n      jumpi\n      pop\n        /* \"contracts/RealEstate.sol\":4264:4269  _ilce */\n      dup9\n        /* \"contracts/RealEstate.sol\":4247:4270  abi.encodePacked(_ilce) */\n      add(0x20, mload(0x40))\n      tag_106\n      swap2\n      swap1\n      tag_103\n      jump\t// in\n    tag_106:\n      mload(0x40)\n      0x20\n      dup2\n      dup4\n      sub\n      sub\n      dup2\n      mstore\n      swap1\n      0x40\n      mstore\n        /* \"contracts/RealEstate.sol\":4237:4271  keccak256(abi.encodePacked(_ilce)) */\n      dup1\n      mload\n      swap1\n      0x20\n      add\n      keccak256\n        /* \"contracts/RealEstate.sol\":4219:4226  kiralik */\n      dup2\n        /* \"contracts/RealEstate.sol\":4219:4231  kiralik.ilce */\n      0x40\n      add\n      mload\n        /* \"contracts/RealEstate.sol\":4202:4232  abi.encodePacked(kiralik.ilce) */\n      add(0x20, mload(0x40))\n      tag_107\n      swap2\n      swap1\n      tag_103\n      jump\t// in\n    tag_107:\n      mload(0x40)\n      0x20\n      dup2\n      dup4\n      sub\n      sub\n      dup2\n      mstore\n      swap1\n      0x40\n      mstore\n        /* \"contracts/RealEstate.sol\":4192:4233  keccak256(abi.encodePacked(kiralik.ilce)) */\n      dup1\n      mload\n      swap1\n      0x20\n      add\n      keccak256\n        /* \"contracts/RealEstate.sol\":4192:4271  keccak256(abi.encodePacked(kiralik.ilce)) == keccak256(abi.encodePacked(_ilce)) */\n      eq\n        /* \"contracts/RealEstate.sol\":4046:4271  kiralik.kiraci == _kiraci &&... */\n    tag_105:\n        /* \"contracts/RealEstate.sol\":4046:4376  kiralik.kiraci == _kiraci &&... */\n      dup1\n      iszero\n      tag_108\n      jumpi\n      pop\n        /* \"contracts/RealEstate.sol\":4366:4374  _mahalle */\n      dup8\n        /* \"contracts/RealEstate.sol\":4349:4375  abi.encodePacked(_mahalle) */\n      add(0x20, mload(0x40))\n      tag_109\n      swap2\n      swap1\n      tag_103\n      jump\t// in\n    tag_109:\n      mload(0x40)\n      0x20\n      dup2\n      dup4\n      sub\n      sub\n      dup2\n      mstore\n      swap1\n      0x40\n      mstore\n        /* \"contracts/RealEstate.sol\":4339:4376  keccak256(abi.encodePacked(_mahalle)) */\n      dup1\n      mload\n      swap1\n      0x20\n      add\n      keccak256\n        /* \"contracts/RealEstate.sol\":4318:4325  kiralik */\n      dup2\n        /* \"contracts/RealEstate.sol\":4318:4333  kiralik.mahalle */\n      0x60\n      add\n      mload\n        /* \"contracts/RealEstate.sol\":4301:4334  abi.encodePacked(kiralik.mahalle) */\n      add(0x20, mload(0x40))\n      tag_110\n      swap2\n      swap1\n      tag_103\n      jump\t// in\n    tag_110:\n      mload(0x40)\n      0x20\n      dup2\n      dup4\n      sub\n      sub\n      dup2\n      mstore\n      swap1\n      0x40\n      mstore\n        /* \"contracts/RealEstate.sol\":4291:4335  keccak256(abi.encodePacked(kiralik.mahalle)) */\n      dup1\n      mload\n      swap1\n      0x20\n      add\n      keccak256\n        /* \"contracts/RealEstate.sol\":4291:4376  keccak256(abi.encodePacked(kiralik.mahalle)) == keccak256(abi.encodePacked(_mahalle)) */\n      eq\n        /* \"contracts/RealEstate.sol\":4046:4376  kiralik.kiraci == _kiraci &&... */\n    tag_108:\n        /* \"contracts/RealEstate.sol\":4046:4477  kiralik.kiraci == _kiraci &&... */\n      dup1\n      iszero\n      tag_111\n      jumpi\n      pop\n        /* \"contracts/RealEstate.sol\":4469:4475  _sokak */\n      dup7\n        /* \"contracts/RealEstate.sol\":4452:4476  abi.encodePacked(_sokak) */\n      add(0x20, mload(0x40))\n      tag_112\n      swap2\n      swap1\n      tag_103\n      jump\t// in\n    tag_112:\n      mload(0x40)\n      0x20\n      dup2\n      dup4\n      sub\n      sub\n      dup2\n      mstore\n      swap1\n      0x40\n      mstore\n        /* \"contracts/RealEstate.sol\":4442:4477  keccak256(abi.encodePacked(_sokak)) */\n      dup1\n      mload\n      swap1\n      0x20\n      add\n      keccak256\n        /* \"contracts/RealEstate.sol\":4423:4430  kiralik */\n      dup2\n        /* \"contracts/RealEstate.sol\":4423:4436  kiralik.sokak */\n      0x80\n      add\n      mload\n        /* \"contracts/RealEstate.sol\":4406:4437  abi.encodePacked(kiralik.sokak) */\n      add(0x20, mload(0x40))\n      tag_113\n      swap2\n      swap1\n      tag_103\n      jump\t// in\n    tag_113:\n      mload(0x40)\n      0x20\n      dup2\n      dup4\n      sub\n      sub\n      dup2\n      mstore\n      swap1\n      0x40\n      mstore\n        /* \"contracts/RealEstate.sol\":4396:4438  keccak256(abi.encodePacked(kiralik.sokak)) */\n      dup1\n      mload\n      swap1\n      0x20\n      add\n      keccak256\n        /* \"contracts/RealEstate.sol\":4396:4477  keccak256(abi.encodePacked(kiralik.sokak)) == keccak256(abi.encodePacked(_sokak)) */\n      eq\n        /* \"contracts/RealEstate.sol\":4046:4477  kiralik.kiraci == _kiraci &&... */\n    tag_111:\n        /* \"contracts/RealEstate.sol\":4046:4522  kiralik.kiraci == _kiraci &&... */\n      dup1\n      iszero\n      tag_114\n      jumpi\n      pop\n        /* \"contracts/RealEstate.sol\":4515:4522  _binaNo */\n      dup6\n        /* \"contracts/RealEstate.sol\":4497:4504  kiralik */\n      dup2\n        /* \"contracts/RealEstate.sol\":4497:4511  kiralik.binaNo */\n      0xa0\n      add\n      mload\n        /* \"contracts/RealEstate.sol\":4497:4522  kiralik.binaNo == _binaNo */\n      eq\n        /* \"contracts/RealEstate.sol\":4046:4522  kiralik.kiraci == _kiraci &&... */\n    tag_114:\n        /* \"contracts/RealEstate.sol\":4046:4569  kiralik.kiraci == _kiraci &&... */\n      dup1\n      iszero\n      tag_115\n      jumpi\n      pop\n        /* \"contracts/RealEstate.sol\":4561:4569  _daireNo */\n      dup5\n        /* \"contracts/RealEstate.sol\":4542:4549  kiralik */\n      dup2\n        /* \"contracts/RealEstate.sol\":4542:4557  kiralik.daireNo */\n      0xc0\n      add\n      mload\n        /* \"contracts/RealEstate.sol\":4542:4569  kiralik.daireNo == _daireNo */\n      eq\n        /* \"contracts/RealEstate.sol\":4046:4569  kiralik.kiraci == _kiraci &&... */\n    tag_115:\n        /* \"contracts/RealEstate.sol\":4046:4612  kiralik.kiraci == _kiraci &&... */\n      dup1\n      iszero\n      tag_116\n      jumpi\n      pop\n        /* \"contracts/RealEstate.sol\":4606:4612  _sahip */\n      dup4\n        /* \"contracts/RealEstate.sol\":4589:4612  kiralik.sahip == _sahip */\n      0xffffffffffffffffffffffffffffffffffffffff\n      and\n        /* \"contracts/RealEstate.sol\":4589:4596  kiralik */\n      dup2\n        /* \"contracts/RealEstate.sol\":4589:4602  kiralik.sahip */\n      0xe0\n      add\n      mload\n        /* \"contracts/RealEstate.sol\":4589:4612  kiralik.sahip == _sahip */\n      0xffffffffffffffffffffffffffffffffffffffff\n      and\n      eq\n        /* \"contracts/RealEstate.sol\":4046:4612  kiralik.kiraci == _kiraci &&... */\n    tag_116:\n        /* \"contracts/RealEstate.sol\":4025:4697  if (... */\n      iszero\n      tag_117\n      jumpi\n        /* \"contracts/RealEstate.sol\":4655:4659  true */\n      0x01\n        /* \"contracts/RealEstate.sol\":4645:4659  bulundu = true */\n      swap3\n      pop\n        /* \"contracts/RealEstate.sol\":4677:4682  break */\n      pop\n      jump(tag_75)\n        /* \"contracts/RealEstate.sol\":4025:4697  if (... */\n    tag_117:\n        /* \"contracts/RealEstate.sol\":3956:4707  {... */\n      pop\n        /* \"contracts/RealEstate.sol\":3951:3954  i++ */\n      dup1\n      dup1\n      tag_118\n      swap1\n      tag_119\n      jump\t// in\n    tag_118:\n      swap2\n      pop\n      pop\n        /* \"contracts/RealEstate.sol\":3912:4707  for (uint256 i = 0; i < kiralikSayisi; i++) {... */\n      jump(tag_74)\n    tag_75:\n      pop\n        /* \"contracts/RealEstate.sol\":4725:4732  bulundu */\n      dup1\n        /* \"contracts/RealEstate.sol\":4717:4756  require(bulundu, \"Kiralama bulunamadi\") */\n      tag_120\n      jumpi\n      mload(0x40)\n      0x08c379a000000000000000000000000000000000000000000000000000000000\n      dup2\n      mstore\n      0x04\n      add\n      tag_121\n      swap1\n      tag_122\n      jump\t// in\n    tag_121:\n      mload(0x40)\n      dup1\n      swap2\n      sub\n      swap1\n      revert\n    tag_120:\n        /* \"contracts/RealEstate.sol\":3676:4763  {... */\n      pop\n        /* \"contracts/RealEstate.sol\":3487:4763  function hataBildir(address _kiraci, string memory _sehir, string memory _ilce, string memory _mahalle, string memory _sokak, uint256 _binaNo, uint256 _daireNo, address _sahip) public view {... */\n      pop\n      pop\n      pop\n      pop\n      pop\n      pop\n      pop\n      pop\n      jump\t// out\n        /* \"contracts/RealEstate.sol\":370:398  address public kontratSahibi */\n    tag_22:\n      0x00\n      dup1\n      sload\n      swap1\n      0x0100\n      exp\n      swap1\n      div\n      0xffffffffffffffffffffffffffffffffffffffff\n      and\n      dup2\n      jump\t// out\n        /* \"contracts/RealEstate.sol\":1085:1995  function kirala(... */\n    tag_28:\n        /* \"contracts/RealEstate.sol\":934:947  kontratSahibi */\n      0x00\n      dup1\n      sload\n      swap1\n      0x0100\n      exp\n      swap1\n      div\n      0xffffffffffffffffffffffffffffffffffffffff\n      and\n        /* \"contracts/RealEstate.sol\":920:947  msg.sender == kontratSahibi */\n      0xffffffffffffffffffffffffffffffffffffffff\n      and\n        /* \"contracts/RealEstate.sol\":920:930  msg.sender */\n      caller\n        /* \"contracts/RealEstate.sol\":920:947  msg.sender == kontratSahibi */\n      0xffffffffffffffffffffffffffffffffffffffff\n      and\n      eq\n        /* \"contracts/RealEstate.sol\":912:971  require(msg.sender == kontratSahibi, \"Only contract owner\") */\n      tag_124\n      jumpi\n      mload(0x40)\n      0x08c379a000000000000000000000000000000000000000000000000000000000\n      dup2\n      mstore\n      0x04\n      add\n      tag_125\n      swap1\n      tag_67\n      jump\t// in\n    tag_125:\n      mload(0x40)\n      dup1\n      swap2\n      sub\n      swap1\n      revert\n    tag_124:\n        /* \"contracts/RealEstate.sol\":1468:1469  0 */\n      0x00\n        /* \"contracts/RealEstate.sol\":1449:1470  _kiraci != address(0) */\n      0xffffffffffffffffffffffffffffffffffffffff\n      and\n        /* \"contracts/RealEstate.sol\":1449:1456  _kiraci */\n      dup11\n        /* \"contracts/RealEstate.sol\":1449:1470  _kiraci != address(0) */\n      0xffffffffffffffffffffffffffffffffffffffff\n      and\n      sub\n        /* \"contracts/RealEstate.sol\":1441:1497  require(_kiraci != address(0), \"Gecersiz kiraci adresi\") */\n      tag_127\n      jumpi\n      mload(0x40)\n      0x08c379a000000000000000000000000000000000000000000000000000000000\n      dup2\n      mstore\n      0x04\n      add\n      tag_128\n      swap1\n      tag_70\n      jump\t// in\n    tag_128:\n      mload(0x40)\n      dup1\n      swap2\n      sub\n      swap1\n      revert\n    tag_127:\n        /* \"contracts/RealEstate.sol\":1533:1534  0 */\n      0x00\n        /* \"contracts/RealEstate.sol\":1515:1535  _sahip != address(0) */\n      0xffffffffffffffffffffffffffffffffffffffff\n      and\n        /* \"contracts/RealEstate.sol\":1515:1521  _sahip */\n      dup4\n        /* \"contracts/RealEstate.sol\":1515:1535  _sahip != address(0) */\n      0xffffffffffffffffffffffffffffffffffffffff\n      and\n      sub\n        /* \"contracts/RealEstate.sol\":1507:1561  require(_sahip != address(0), \"Gecersiz sahip adresi\") */\n      tag_129\n      jumpi\n      mload(0x40)\n      0x08c379a000000000000000000000000000000000000000000000000000000000\n      dup2\n      mstore\n      0x04\n      add\n      tag_130\n      swap1\n      tag_73\n      jump\t// in\n    tag_130:\n      mload(0x40)\n      dup1\n      swap2\n      sub\n      swap1\n      revert\n    tag_129:\n        /* \"contracts/RealEstate.sol\":1573:1595  Kiralik memory kiralik */\n      0x00\n        /* \"contracts/RealEstate.sol\":1598:1674  Kiralik(_kiraci, _sehir, _ilce, _mahalle, _sokak, _binaNo, _daireNo, _sahip) */\n      mload(0x40)\n      dup1\n      0x0100\n      add\n      0x40\n      mstore\n      dup1\n        /* \"contracts/RealEstate.sol\":1606:1613  _kiraci */\n      dup13\n        /* \"contracts/RealEstate.sol\":1598:1674  Kiralik(_kiraci, _sehir, _ilce, _mahalle, _sokak, _binaNo, _daireNo, _sahip) */\n      0xffffffffffffffffffffffffffffffffffffffff\n      and\n      dup2\n      mstore\n      0x20\n      add\n        /* \"contracts/RealEstate.sol\":1615:1621  _sehir */\n      dup12\n        /* \"contracts/RealEstate.sol\":1598:1674  Kiralik(_kiraci, _sehir, _ilce, _mahalle, _sokak, _binaNo, _daireNo, _sahip) */\n      dup2\n      mstore\n      0x20\n      add\n        /* \"contracts/RealEstate.sol\":1623:1628  _ilce */\n      dup11\n        /* \"contracts/RealEstate.sol\":1598:1674  Kiralik(_kiraci, _sehir, _ilce, _mahalle, _sokak, _binaNo, _daireNo, _sahip) */\n      dup2\n      mstore\n      0x20\n      add\n        /* \"contracts/RealEstate.sol\":1630:1638  _mahalle */\n      dup10\n        /* \"contracts/RealEstate.sol\":1598:1674  Kiralik(_kiraci, _sehir, _ilce, _mahalle, _sokak, _binaNo, _daireNo, _sahip) */\n      dup2\n      mstore\n      0x20\n      add\n        /* \"contracts/RealEstate.sol\":1640:1646  _sokak */\n      dup9\n        /* \"contracts/RealEstate.sol\":1598:1674  Kiralik(_kiraci, _sehir, _ilce, _mahalle, _sokak, _binaNo, _daireNo, _sahip) */\n      dup2\n      mstore\n      0x20\n      add\n        /* \"contracts/RealEstate.sol\":1648:1655  _binaNo */\n      dup8\n        /* \"contracts/RealEstate.sol\":1598:1674  Kiralik(_kiraci, _sehir, _ilce, _mahalle, _sokak, _binaNo, _daireNo, _sahip) */\n      dup2\n      mstore\n      0x20\n      add\n        /* \"contracts/RealEstate.sol\":1657:1665  _daireNo */\n      dup7\n        /* \"contracts/RealEstate.sol\":1598:1674  Kiralik(_kiraci, _sehir, _ilce, _mahalle, _sokak, _binaNo, _daireNo, _sahip) */\n      dup2\n      mstore\n      0x20\n      add\n        /* \"contracts/RealEstate.sol\":1667:1673  _sahip */\n      dup6\n        /* \"contracts/RealEstate.sol\":1598:1674  Kiralik(_kiraci, _sehir, _ilce, _mahalle, _sokak, _binaNo, _daireNo, _sahip) */\n      0xffffffffffffffffffffffffffffffffffffffff\n      and\n      dup2\n      mstore\n      pop\n        /* \"contracts/RealEstate.sol\":1573:1674  Kiralik memory kiralik = Kiralik(_kiraci, _sehir, _ilce, _mahalle, _sokak, _binaNo, _daireNo, _sahip) */\n      swap1\n      pop\n        /* \"contracts/RealEstate.sol\":1684:1697  kiralikYerler */\n      0x02\n        /* \"contracts/RealEstate.sol\":1703:1710  kiralik */\n      dup2\n        /* \"contracts/RealEstate.sol\":1684:1711  kiralikYerler.push(kiralik) */\n      swap1\n      dup1\n      0x01\n      dup2\n      sload\n      add\n      dup1\n      dup3\n      sstore\n      dup1\n      swap2\n      pop\n      pop\n      0x01\n      swap1\n      sub\n      swap1\n      0x00\n      mstore\n      keccak256(0x00, 0x20)\n      swap1\n      0x08\n      mul\n      add\n      0x00\n      swap1\n      swap2\n      swap1\n      swap2\n      swap1\n      swap2\n      pop\n      0x00\n      dup3\n      add\n      mload\n      dup2\n      0x00\n      add\n      exp(0x0100, 0x00)\n      dup2\n      sload\n      dup2\n      0xffffffffffffffffffffffffffffffffffffffff\n      mul\n      not\n      and\n      swap1\n      dup4\n      0xffffffffffffffffffffffffffffffffffffffff\n      and\n      mul\n      or\n      swap1\n      sstore\n      pop\n      0x20\n      dup3\n      add\n      mload\n      dup2\n      0x01\n      add\n      swap1\n      dup2\n      tag_132\n      swap2\n      swap1\n      tag_133\n      jump\t// in\n    tag_132:\n      pop\n      0x40\n      dup3\n      add\n      mload\n      dup2\n      0x02\n      add\n      swap1\n      dup2\n      tag_134\n      swap2\n      swap1\n      tag_133\n      jump\t// in\n    tag_134:\n      pop\n      0x60\n      dup3\n      add\n      mload\n      dup2\n      0x03\n      add\n      swap1\n      dup2\n      tag_135\n      swap2\n      swap1\n      tag_133\n      jump\t// in\n    tag_135:\n      pop\n      0x80\n      dup3\n      add\n      mload\n      dup2\n      0x04\n      add\n      swap1\n      dup2\n      tag_136\n      swap2\n      swap1\n      tag_133\n      jump\t// in\n    tag_136:\n      pop\n      0xa0\n      dup3\n      add\n      mload\n      dup2\n      0x05\n      add\n      sstore\n      0xc0\n      dup3\n      add\n      mload\n      dup2\n      0x06\n      add\n      sstore\n      0xe0\n      dup3\n      add\n      mload\n      dup2\n      0x07\n      add\n      exp(0x0100, 0x00)\n      dup2\n      sload\n      dup2\n      0xffffffffffffffffffffffffffffffffffffffff\n      mul\n      not\n      and\n      swap1\n      dup4\n      0xffffffffffffffffffffffffffffffffffffffff\n      and\n      mul\n      or\n      swap1\n      sstore\n      pop\n      pop\n      pop\n        /* \"contracts/RealEstate.sol\":1723:1747  Sozlesme memory sozlesme */\n      0x00\n        /* \"contracts/RealEstate.sol\":1750:1799  Sozlesme(kiralik, _baslangicTarihi, _bitisTarihi) */\n      mload(0x40)\n      dup1\n      0x60\n      add\n      0x40\n      mstore\n      dup1\n        /* \"contracts/RealEstate.sol\":1759:1766  kiralik */\n      dup4\n        /* \"contracts/RealEstate.sol\":1750:1799  Sozlesme(kiralik, _baslangicTarihi, _bitisTarihi) */\n      dup2\n      mstore\n      0x20\n      add\n        /* \"contracts/RealEstate.sol\":1768:1784  _baslangicTarihi */\n      dup6\n        /* \"contracts/RealEstate.sol\":1750:1799  Sozlesme(kiralik, _baslangicTarihi, _bitisTarihi) */\n      dup2\n      mstore\n      0x20\n      add\n        /* \"contracts/RealEstate.sol\":1786:1798  _bitisTarihi */\n      dup5\n        /* \"contracts/RealEstate.sol\":1750:1799  Sozlesme(kiralik, _baslangicTarihi, _bitisTarihi) */\n      dup2\n      mstore\n      pop\n        /* \"contracts/RealEstate.sol\":1723:1799  Sozlesme memory sozlesme = Sozlesme(kiralik, _baslangicTarihi, _bitisTarihi) */\n      swap1\n      pop\n        /* \"contracts/RealEstate.sol\":1809:1820  sozlesmeler */\n      0x03\n        /* \"contracts/RealEstate.sol\":1826:1834  sozlesme */\n      dup2\n        /* \"contracts/RealEstate.sol\":1809:1835  sozlesmeler.push(sozlesme) */\n      swap1\n      dup1\n      0x01\n      dup2\n      sload\n      add\n      dup1\n      dup3\n      sstore\n      dup1\n      swap2\n      pop\n      pop\n      0x01\n      swap1\n      sub\n      swap1\n      0x00\n      mstore\n      keccak256(0x00, 0x20)\n      swap1\n      0x0a\n      mul\n      add\n      0x00\n      swap1\n      swap2\n      swap1\n      swap2\n      swap1\n      swap2\n      pop\n      0x00\n      dup3\n      add\n      mload\n      dup2\n      0x00\n      add\n      0x00\n      dup3\n      add\n      mload\n      dup2\n      0x00\n      add\n      exp(0x0100, 0x00)\n      dup2\n      sload\n      dup2\n      0xffffffffffffffffffffffffffffffffffffffff\n      mul\n      not\n      and\n      swap1\n      dup4\n      0xffffffffffffffffffffffffffffffffffffffff\n      and\n      mul\n      or\n      swap1\n      sstore\n      pop\n      0x20\n      dup3\n      add\n      mload\n      dup2\n      0x01\n      add\n      swap1\n      dup2\n      tag_138\n      swap2\n      swap1\n      tag_133\n      jump\t// in\n    tag_138:\n      pop\n      0x40\n      dup3\n      add\n      mload\n      dup2\n      0x02\n      add\n      swap1\n      dup2\n      tag_139\n      swap2\n      swap1\n      tag_133\n      jump\t// in\n    tag_139:\n      pop\n      0x60\n      dup3\n      add\n      mload\n      dup2\n      0x03\n      add\n      swap1\n      dup2\n      tag_140\n      swap2\n      swap1\n      tag_133\n      jump\t// in\n    tag_140:\n      pop\n      0x80\n      dup3\n      add\n      mload\n      dup2\n      0x04\n      add\n      swap1\n      dup2\n      tag_141\n      swap2\n      swap1\n      tag_133\n      jump\t// in\n    tag_141:\n      pop\n      0xa0\n      dup3\n      add\n      mload\n      dup2\n      0x05\n      add\n      sstore\n      0xc0\n      dup3\n      add\n      mload\n      dup2\n      0x06\n      add\n      sstore\n      0xe0\n      dup3\n      add\n      mload\n      dup2\n      0x07\n      add\n      exp(0x0100, 0x00)\n      dup2\n      sload\n      dup2\n      0xffffffffffffffffffffffffffffffffffffffff\n      mul\n      not\n      and\n      swap1\n      dup4\n      0xffffffffffffffffffffffffffffffffffffffff\n      and\n      mul\n      or\n      swap1\n      sstore\n      pop\n      pop\n      pop\n      0x20\n      dup3\n      add\n      mload\n      dup2\n      0x08\n      add\n      swap1\n      dup2\n      tag_142\n      swap2\n      swap1\n      tag_133\n      jump\t// in\n    tag_142:\n      pop\n      0x40\n      dup3\n      add\n      mload\n      dup2\n      0x09\n      add\n      swap1\n      dup2\n      tag_143\n      swap2\n      swap1\n      tag_133\n      jump\t// in\n    tag_143:\n      pop\n      pop\n      pop\n        /* \"contracts/RealEstate.sol\":1847:1860  kiralikSayisi */\n      0x01\n      0x00\n        /* \"contracts/RealEstate.sol\":1847:1862  kiralikSayisi++ */\n      dup2\n      sload\n      dup1\n      swap3\n      swap2\n      swap1\n      tag_144\n      swap1\n      tag_119\n      jump\t// in\n    tag_144:\n      swap2\n      swap1\n      pop\n      sstore\n      pop\n        /* \"contracts/RealEstate.sol\":1897:1903  _sahip */\n      dup5\n        /* \"contracts/RealEstate.sol\":1879:1988  Kiralama(_kiraci, _sahip, _sehir, _ilce, _mahalle, _sokak, _binaNo, _daireNo, _baslangicTarihi, _bitisTarihi) */\n      0xffffffffffffffffffffffffffffffffffffffff\n      and\n        /* \"contracts/RealEstate.sol\":1888:1895  _kiraci */\n      dup13\n        /* \"contracts/RealEstate.sol\":1879:1988  Kiralama(_kiraci, _sahip, _sehir, _ilce, _mahalle, _sokak, _binaNo, _daireNo, _baslangicTarihi, _bitisTarihi) */\n      0xffffffffffffffffffffffffffffffffffffffff\n      and\n      0xafe54aa3928951031e66a6806ef128be28612b381c2ba48f14b6e9f1cddbf665\n        /* \"contracts/RealEstate.sol\":1905:1911  _sehir */\n      dup14\n        /* \"contracts/RealEstate.sol\":1913:1918  _ilce */\n      dup14\n        /* \"contracts/RealEstate.sol\":1920:1928  _mahalle */\n      dup14\n        /* \"contracts/RealEstate.sol\":1930:1936  _sokak */\n      dup14\n        /* \"contracts/RealEstate.sol\":1938:1945  _binaNo */\n      dup14\n        /* \"contracts/RealEstate.sol\":1947:1955  _daireNo */\n      dup14\n        /* \"contracts/RealEstate.sol\":1957:1973  _baslangicTarihi */\n      dup13\n        /* \"contracts/RealEstate.sol\":1975:1987  _bitisTarihi */\n      dup13\n        /* \"contracts/RealEstate.sol\":1879:1988  Kiralama(_kiraci, _sahip, _sehir, _ilce, _mahalle, _sokak, _binaNo, _daireNo, _baslangicTarihi, _bitisTarihi) */\n      mload(0x40)\n      tag_145\n      swap9\n      swap8\n      swap7\n      swap6\n      swap5\n      swap4\n      swap3\n      swap2\n      swap1\n      tag_146\n      jump\t// in\n    tag_145:\n      mload(0x40)\n      dup1\n      swap2\n      sub\n      swap1\n      log3\n        /* \"contracts/RealEstate.sol\":1431:1995  {... */\n      pop\n      pop\n        /* \"contracts/RealEstate.sol\":1085:1995  function kirala(... */\n      pop\n      pop\n      pop\n      pop\n      pop\n      pop\n      pop\n      pop\n      pop\n      pop\n      jump\t// out\n        /* \"contracts/RealEstate.sol\":475:504  Sozlesme[] public sozlesmeler */\n    tag_31:\n      0x03\n      dup2\n      dup2\n      sload\n      dup2\n      lt\n      tag_147\n      jumpi\n      0x00\n      dup1\n      revert\n    tag_147:\n      swap1\n      0x00\n      mstore\n      keccak256(0x00, 0x20)\n      swap1\n      0x0a\n      mul\n      add\n      0x00\n      swap2\n      pop\n      swap1\n      pop\n      dup1\n      0x00\n      add\n      mload(0x40)\n      dup1\n      0x0100\n      add\n      0x40\n      mstore\n      swap1\n      dup2\n      0x00\n      dup3\n      add\n      0x00\n      swap1\n      sload\n      swap1\n      0x0100\n      exp\n      swap1\n      div\n      0xffffffffffffffffffffffffffffffffffffffff\n      and\n      0xffffffffffffffffffffffffffffffffffffffff\n      and\n      0xffffffffffffffffffffffffffffffffffffffff\n      and\n      dup2\n      mstore\n      0x20\n      add\n      0x01\n      dup3\n      add\n      dup1\n      sload\n      tag_149\n      swap1\n      tag_44\n      jump\t// in\n    tag_149:\n      dup1\n      0x1f\n      add\n      0x20\n      dup1\n      swap2\n      div\n      mul\n      0x20\n      add\n      mload(0x40)\n      swap1\n      dup2\n      add\n      0x40\n      mstore\n      dup1\n      swap3\n      swap2\n      swap1\n      dup2\n      dup2\n      mstore\n      0x20\n      add\n      dup3\n      dup1\n      sload\n      tag_150\n      swap1\n      tag_44\n      jump\t// in\n    tag_150:\n      dup1\n      iszero\n      tag_151\n      jumpi\n      dup1\n      0x1f\n      lt\n      tag_152\n      jumpi\n      0x0100\n      dup1\n      dup4\n      sload\n      div\n      mul\n      dup4\n      mstore\n      swap2\n      0x20\n      add\n      swap2\n      jump(tag_151)\n    tag_152:\n      dup3\n      add\n      swap2\n      swap1\n      0x00\n      mstore\n      keccak256(0x00, 0x20)\n      swap1\n    tag_153:\n      dup2\n      sload\n      dup2\n      mstore\n      swap1\n      0x01\n      add\n      swap1\n      0x20\n      add\n      dup1\n      dup4\n      gt\n      tag_153\n      jumpi\n      dup3\n      swap1\n      sub\n      0x1f\n      and\n      dup3\n      add\n      swap2\n    tag_151:\n      pop\n      pop\n      pop\n      pop\n      pop\n      dup2\n      mstore\n      0x20\n      add\n      0x02\n      dup3\n      add\n      dup1\n      sload\n      tag_154\n      swap1\n      tag_44\n      jump\t// in\n    tag_154:\n      dup1\n      0x1f\n      add\n      0x20\n      dup1\n      swap2\n      div\n      mul\n      0x20\n      add\n      mload(0x40)\n      swap1\n      dup2\n      add\n      0x40\n      mstore\n      dup1\n      swap3\n      swap2\n      swap1\n      dup2\n      dup2\n      mstore\n      0x20\n      add\n      dup3\n      dup1\n      sload\n      tag_155\n      swap1\n      tag_44\n      jump\t// in\n    tag_155:\n      dup1\n      iszero\n      tag_156\n      jumpi\n      dup1\n      0x1f\n      lt\n      tag_157\n      jumpi\n      0x0100\n      dup1\n      dup4\n      sload\n      div\n      mul\n      dup4\n      mstore\n      swap2\n      0x20\n      add\n      swap2\n      jump(tag_156)\n    tag_157:\n      dup3\n      add\n      swap2\n      swap1\n      0x00\n      mstore\n      keccak256(0x00, 0x20)\n      swap1\n    tag_158:\n      dup2\n      sload\n      dup2\n      mstore\n      swap1\n      0x01\n      add\n      swap1\n      0x20\n      add\n      dup1\n      dup4\n      gt\n      tag_158\n      jumpi\n      dup3\n      swap1\n      sub\n      0x1f\n      and\n      dup3\n      add\n      swap2\n    tag_156:\n      pop\n      pop\n      pop\n      pop\n      pop\n      dup2\n      mstore\n      0x20\n      add\n      0x03\n      dup3\n      add\n      dup1\n      sload\n      tag_159\n      swap1\n      tag_44\n      jump\t// in\n    tag_159:\n      dup1\n      0x1f\n      add\n      0x20\n      dup1\n      swap2\n      div\n      mul\n      0x20\n      add\n      mload(0x40)\n      swap1\n      dup2\n      add\n      0x40\n      mstore\n      dup1\n      swap3\n      swap2\n      swap1\n      dup2\n      dup2\n      mstore\n      0x20\n      add\n      dup3\n      dup1\n      sload\n      tag_160\n      swap1\n      tag_44\n      jump\t// in\n    tag_160:\n      dup1\n      iszero\n      tag_161\n      jumpi\n      dup1\n      0x1f\n      lt\n      tag_162\n      jumpi\n      0x0100\n      dup1\n      dup4\n      sload\n      div\n      mul\n      dup4\n      mstore\n      swap2\n      0x20\n      add\n      swap2\n      jump(tag_161)\n    tag_162:\n      dup3\n      add\n      swap2\n      swap1\n      0x00\n      mstore\n      keccak256(0x00, 0x20)\n      swap1\n    tag_163:\n      dup2\n      sload\n      dup2\n      mstore\n      swap1\n      0x01\n      add\n      swap1\n      0x20\n      add\n      dup1\n      dup4\n      gt\n      tag_163\n      jumpi\n      dup3\n      swap1\n      sub\n      0x1f\n      and\n      dup3\n      add\n      swap2\n    tag_161:\n      pop\n      pop\n      pop\n      pop\n      pop\n      dup2\n      mstore\n      0x20\n      add\n      0x04\n      dup3\n      add\n      dup1\n      sload\n      tag_164\n      swap1\n      tag_44\n      jump\t// in\n    tag_164:\n      dup1\n      0x1f\n      add\n      0x20\n      dup1\n      swap2\n      div\n      mul\n      0x20\n      add\n      mload(0x40)\n      swap1\n      dup2\n      add\n      0x40\n      mstore\n      dup1\n      swap3\n      swap2\n      swap1\n      dup2\n      dup2\n      mstore\n      0x20\n      add\n      dup3\n      dup1\n      sload\n      tag_165\n      swap1\n      tag_44\n      jump\t// in\n    tag_165:\n      dup1\n      iszero\n      tag_166\n      jumpi\n      dup1\n      0x1f\n      lt\n      tag_167\n      jumpi\n      0x0100\n      dup1\n      dup4\n      sload\n      div\n      mul\n      dup4\n      mstore\n      swap2\n      0x20\n      add\n      swap2\n      jump(tag_166)\n    tag_167:\n      dup3\n      add\n      swap2\n      swap1\n      0x00\n      mstore\n      keccak256(0x00, 0x20)\n      swap1\n    tag_168:\n      dup2\n      sload\n      dup2\n      mstore\n      swap1\n      0x01\n      add\n      swap1\n      0x20\n      add\n      dup1\n      dup4\n      gt\n      tag_168\n      jumpi\n      dup3\n      swap1\n      sub\n      0x1f\n      and\n      dup3\n      add\n      swap2\n    tag_166:\n      pop\n      pop\n      pop\n      pop\n      pop\n      dup2\n      mstore\n      0x20\n      add\n      0x05\n      dup3\n      add\n      sload\n      dup2\n      mstore\n      0x20\n      add\n      0x06\n      dup3\n      add\n      sload\n      dup2\n      mstore\n      0x20\n      add\n      0x07\n      dup3\n      add\n      0x00\n      swap1\n      sload\n      swap1\n      0x0100\n      exp\n      swap1\n      div\n      0xffffffffffffffffffffffffffffffffffffffff\n      and\n      0xffffffffffffffffffffffffffffffffffffffff\n      and\n      0xffffffffffffffffffffffffffffffffffffffff\n      and\n      dup2\n      mstore\n      pop\n      pop\n      swap1\n      dup1\n      0x08\n      add\n      dup1\n      sload\n      tag_169\n      swap1\n      tag_44\n      jump\t// in\n    tag_169:\n      dup1\n      0x1f\n      add\n      0x20\n      dup1\n      swap2\n      div\n      mul\n      0x20\n      add\n      mload(0x40)\n      swap1\n      dup2\n      add\n      0x40\n      mstore\n      dup1\n      swap3\n      swap2\n      swap1\n      dup2\n      dup2\n      mstore\n      0x20\n      add\n      dup3\n      dup1\n      sload\n      tag_170\n      swap1\n      tag_44\n      jump\t// in\n    tag_170:\n      dup1\n      iszero\n      tag_171\n      jumpi\n      dup1\n      0x1f\n      lt\n      tag_172\n      jumpi\n      0x0100\n      dup1\n      dup4\n      sload\n      div\n      mul\n      dup4\n      mstore\n      swap2\n      0x20\n      add\n      swap2\n      jump(tag_171)\n    tag_172:\n      dup3\n      add\n      swap2\n      swap1\n      0x00\n      mstore\n      keccak256(0x00, 0x20)\n      swap1\n    tag_173:\n      dup2\n      sload\n      dup2\n      mstore\n      swap1\n      0x01\n      add\n      swap1\n      0x20\n      add\n      dup1\n      dup4\n      gt\n      tag_173\n      jumpi\n      dup3\n      swap1\n      sub\n      0x1f\n      and\n      dup3\n      add\n      swap2\n    tag_171:\n      pop\n      pop\n      pop\n      pop\n      pop\n      swap1\n      dup1\n      0x09\n      add\n      dup1\n      sload\n      tag_174\n      swap1\n      tag_44\n      jump\t// in\n    tag_174:\n      dup1\n      0x1f\n      add\n      0x20\n      dup1\n      swap2\n      div\n      mul\n      0x20\n      add\n      mload(0x40)\n      swap1\n      dup2\n      add\n      0x40\n      mstore\n      dup1\n      swap3\n      swap2\n      swap1\n      dup2\n      dup2\n      mstore\n      0x20\n      add\n      dup3\n      dup1\n      sload\n      tag_175\n      swap1\n      tag_44\n      jump\t// in\n    tag_175:\n      dup1\n      iszero\n      tag_176\n      jumpi\n      dup1\n      0x1f\n      lt\n      tag_177\n      jumpi\n      0x0100\n      dup1\n      dup4\n      sload\n      div\n      mul\n      dup4\n      mstore\n      swap2\n      0x20\n      add\n      swap2\n      jump(tag_176)\n    tag_177:\n      dup3\n      add\n      swap2\n      swap1\n      0x00\n      mstore\n      keccak256(0x00, 0x20)\n      swap1\n    tag_178:\n      dup2\n      sload\n      dup2\n      mstore\n      swap1\n      0x01\n      add\n      swap1\n      0x20\n      add\n      dup1\n      dup4\n      gt\n      tag_178\n      jumpi\n      dup3\n      swap1\n      sub\n      0x1f\n      and\n      dup3\n      add\n      swap2\n    tag_176:\n      pop\n      pop\n      pop\n      pop\n      pop\n      swap1\n      pop\n      dup4\n      jump\t// out\n        /* \"contracts/RealEstate.sol\":2001:3481  function sonlandir(address _kiraci, string memory _sehir, string memory _ilce, string memory _mahalle, string memory _sokak, uint256 _binaNo, uint256 _daireNo, address _sahip) public sadeceKontratSahibi {... */\n    tag_36:\n        /* \"contracts/RealEstate.sol\":934:947  kontratSahibi */\n      0x00\n      dup1\n      sload\n      swap1\n      0x0100\n      exp\n      swap1\n      div\n      0xffffffffffffffffffffffffffffffffffffffff\n      and\n        /* \"contracts/RealEstate.sol\":920:947  msg.sender == kontratSahibi */\n      0xffffffffffffffffffffffffffffffffffffffff\n      and\n        /* \"contracts/RealEstate.sol\":920:930  msg.sender */\n      caller\n        /* \"contracts/RealEstate.sol\":920:947  msg.sender == kontratSahibi */\n      0xffffffffffffffffffffffffffffffffffffffff\n      and\n      eq\n        /* \"contracts/RealEstate.sol\":912:971  require(msg.sender == kontratSahibi, \"Only contract owner\") */\n      tag_180\n      jumpi\n      mload(0x40)\n      0x08c379a000000000000000000000000000000000000000000000000000000000\n      dup2\n      mstore\n      0x04\n      add\n      tag_181\n      swap1\n      tag_67\n      jump\t// in\n    tag_181:\n      mload(0x40)\n      dup1\n      swap2\n      sub\n      swap1\n      revert\n    tag_180:\n        /* \"contracts/RealEstate.sol\":2241:2242  0 */\n      0x00\n        /* \"contracts/RealEstate.sol\":2222:2243  _kiraci != address(0) */\n      0xffffffffffffffffffffffffffffffffffffffff\n      and\n        /* \"contracts/RealEstate.sol\":2222:2229  _kiraci */\n      dup9\n        /* \"contracts/RealEstate.sol\":2222:2243  _kiraci != address(0) */\n      0xffffffffffffffffffffffffffffffffffffffff\n      and\n      sub\n        /* \"contracts/RealEstate.sol\":2214:2270  require(_kiraci != address(0), \"Gecersiz kiraci adresi\") */\n      tag_183\n      jumpi\n      mload(0x40)\n      0x08c379a000000000000000000000000000000000000000000000000000000000\n      dup2\n      mstore\n      0x04\n      add\n      tag_184\n      swap1\n      tag_70\n      jump\t// in\n    tag_184:\n      mload(0x40)\n      dup1\n      swap2\n      sub\n      swap1\n      revert\n    tag_183:\n        /* \"contracts/RealEstate.sol\":2307:2308  0 */\n      0x00\n        /* \"contracts/RealEstate.sol\":2289:2309  _sahip != address(0) */\n      0xffffffffffffffffffffffffffffffffffffffff\n      and\n        /* \"contracts/RealEstate.sol\":2289:2295  _sahip */\n      dup2\n        /* \"contracts/RealEstate.sol\":2289:2309  _sahip != address(0) */\n      0xffffffffffffffffffffffffffffffffffffffff\n      and\n      sub\n        /* \"contracts/RealEstate.sol\":2281:2335  require(_sahip != address(0), \"Gecersiz sahip adresi\") */\n      tag_185\n      jumpi\n      mload(0x40)\n      0x08c379a000000000000000000000000000000000000000000000000000000000\n      dup2\n      mstore\n      0x04\n      add\n      tag_186\n      swap1\n      tag_73\n      jump\t// in\n    tag_186:\n      mload(0x40)\n      dup1\n      swap2\n      sub\n      swap1\n      revert\n    tag_185:\n        /* \"contracts/RealEstate.sol\":2346:2358  bool bulundu */\n      0x00\n        /* \"contracts/RealEstate.sol\":2376:2390  uint256 indeks */\n      dup1\n        /* \"contracts/RealEstate.sol\":2411:2420  uint256 i */\n      0x00\n        /* \"contracts/RealEstate.sol\":2406:3230  for (uint256 i = 0; i < kiralikSayisi; i++) {... */\n    tag_187:\n        /* \"contracts/RealEstate.sol\":2430:2443  kiralikSayisi */\n      sload(0x01)\n        /* \"contracts/RealEstate.sol\":2426:2427  i */\n      dup2\n        /* \"contracts/RealEstate.sol\":2426:2443  i < kiralikSayisi */\n      lt\n        /* \"contracts/RealEstate.sol\":2406:3230  for (uint256 i = 0; i < kiralikSayisi; i++) {... */\n      iszero\n      tag_188\n      jumpi\n        /* \"contracts/RealEstate.sol\":2464:2486  Kiralik memory kiralik */\n      0x00\n        /* \"contracts/RealEstate.sol\":2489:2502  kiralikYerler */\n      0x02\n        /* \"contracts/RealEstate.sol\":2503:2504  i */\n      dup3\n        /* \"contracts/RealEstate.sol\":2489:2505  kiralikYerler[i] */\n      dup2\n      sload\n      dup2\n      lt\n      tag_190\n      jumpi\n      tag_191\n      tag_79\n      jump\t// in\n    tag_191:\n    tag_190:\n      swap1\n      0x00\n      mstore\n      keccak256(0x00, 0x20)\n      swap1\n      0x08\n      mul\n      add\n        /* \"contracts/RealEstate.sol\":2464:2505  Kiralik memory kiralik = kiralikYerler[i] */\n      mload(0x40)\n      dup1\n      0x0100\n      add\n      0x40\n      mstore\n      swap1\n      dup2\n      0x00\n      dup3\n      add\n      0x00\n      swap1\n      sload\n      swap1\n      0x0100\n      exp\n      swap1\n      div\n      0xffffffffffffffffffffffffffffffffffffffff\n      and\n      0xffffffffffffffffffffffffffffffffffffffff\n      and\n      0xffffffffffffffffffffffffffffffffffffffff\n      and\n      dup2\n      mstore\n      0x20\n      add\n      0x01\n      dup3\n      add\n      dup1\n      sload\n      tag_193\n      swap1\n      tag_44\n      jump\t// in\n    tag_193:\n      dup1\n      0x1f\n      add\n      0x20\n      dup1\n      swap2\n      div\n      mul\n      0x20\n      add\n      mload(0x40)\n      swap1\n      dup2\n      add\n      0x40\n      mstore\n      dup1\n      swap3\n      swap2\n      swap1\n      dup2\n      dup2\n      mstore\n      0x20\n      add\n      dup3\n      dup1\n      sload\n      tag_194\n      swap1\n      tag_44\n      jump\t// in\n    tag_194:\n      dup1\n      iszero\n      tag_195\n      jumpi\n      dup1\n      0x1f\n      lt\n      tag_196\n      jumpi\n      0x0100\n      dup1\n      dup4\n      sload\n      div\n      mul\n      dup4\n      mstore\n      swap2\n      0x20\n      add\n      swap2\n      jump(tag_195)\n    tag_196:\n      dup3\n      add\n      swap2\n      swap1\n      0x00\n      mstore\n      keccak256(0x00, 0x20)\n      swap1\n    tag_197:\n      dup2\n      sload\n      dup2\n      mstore\n      swap1\n      0x01\n      add\n      swap1\n      0x20\n      add\n      dup1\n      dup4\n      gt\n      tag_197\n      jumpi\n      dup3\n      swap1\n      sub\n      0x1f\n      and\n      dup3\n      add\n      swap2\n    tag_195:\n      pop\n      pop\n      pop\n      pop\n      pop\n      dup2\n      mstore\n      0x20\n      add\n      0x02\n      dup3\n      add\n      dup1\n      sload\n      tag_198\n      swap1\n      tag_44\n      jump\t// in\n    tag_198:\n      dup1\n      0x1f\n      add\n      0x20\n      dup1\n      swap2\n      div\n      mul\n      0x20\n      add\n      mload(0x40)\n      swap1\n      dup2\n      add\n      0x40\n      mstore\n      dup1\n      swap3\n      swap2\n      swap1\n      dup2\n      dup2\n      mstore\n      0x20\n      add\n      dup3\n      dup1\n      sload\n      tag_199\n      swap1\n      tag_44\n      jump\t// in\n    tag_199:\n      dup1\n      iszero\n      tag_200\n      jumpi\n      dup1\n      0x1f\n      lt\n      tag_201\n      jumpi\n      0x0100\n      dup1\n      dup4\n      sload\n      div\n      mul\n      dup4\n      mstore\n      swap2\n      0x20\n      add\n      swap2\n      jump(tag_200)\n    tag_201:\n      dup3\n      add\n      swap2\n      swap1\n      0x00\n      mstore\n      keccak256(0x00, 0x20)\n      swap1\n    tag_202:\n      dup2\n      sload\n      dup2\n      mstore\n      swap1\n      0x01\n      add\n      swap1\n      0x20\n      add\n      dup1\n      dup4\n      gt\n      tag_202\n      jumpi\n      dup3\n      swap1\n      sub\n      0x1f\n      and\n      dup3\n      add\n      swap2\n    tag_200:\n      pop\n      pop\n      pop\n      pop\n      pop\n      dup2\n      mstore\n      0x20\n      add\n      0x03\n      dup3\n      add\n      dup1\n      sload\n      tag_203\n      swap1\n      tag_44\n      jump\t// in\n    tag_203:\n      dup1\n      0x1f\n      add\n      0x20\n      dup1\n      swap2\n      div\n      mul\n      0x20\n      add\n      mload(0x40)\n      swap1\n      dup2\n      add\n      0x40\n      mstore\n      dup1\n      swap3\n      swap2\n      swap1\n      dup2\n      dup2\n      mstore\n      0x20\n      add\n      dup3\n      dup1\n      sload\n      tag_204\n      swap1\n      tag_44\n      jump\t// in\n    tag_204:\n      dup1\n      iszero\n      tag_205\n      jumpi\n      dup1\n      0x1f\n      lt\n      tag_206\n      jumpi\n      0x0100\n      dup1\n      dup4\n      sload\n      div\n      mul\n      dup4\n      mstore\n      swap2\n      0x20\n      add\n      swap2\n      jump(tag_205)\n    tag_206:\n      dup3\n      add\n      swap2\n      swap1\n      0x00\n      mstore\n      keccak256(0x00, 0x20)\n      swap1\n    tag_207:\n      dup2\n      sload\n      dup2\n      mstore\n      swap1\n      0x01\n      add\n      swap1\n      0x20\n      add\n      dup1\n      dup4\n      gt\n      tag_207\n      jumpi\n      dup3\n      swap1\n      sub\n      0x1f\n      and\n      dup3\n      add\n      swap2\n    tag_205:\n      pop\n      pop\n      pop\n      pop\n      pop\n      dup2\n      mstore\n      0x20\n      add\n      0x04\n      dup3\n      add\n      dup1\n      sload\n      tag_208\n      swap1\n      tag_44\n      jump\t// in\n    tag_208:\n      dup1\n      0x1f\n      add\n      0x20\n      dup1\n      swap2\n      div\n      mul\n      0x20\n      add\n      mload(0x40)\n      swap1\n      dup2\n      add\n      0x40\n      mstore\n      dup1\n      swap3\n      swap2\n      swap1\n      dup2\n      dup2\n      mstore\n      0x20\n      add\n      dup3\n      dup1\n      sload\n      tag_209\n      swap1\n      tag_44\n      jump\t// in\n    tag_209:\n      dup1\n      iszero\n      tag_210\n      jumpi\n      dup1\n      0x1f\n      lt\n      tag_211\n      jumpi\n      0x0100\n      dup1\n      dup4\n      sload\n      div\n      mul\n      dup4\n      mstore\n      swap2\n      0x20\n      add\n      swap2\n      jump(tag_210)\n    tag_211:\n      dup3\n      add\n      swap2\n      swap1\n      0x00\n      mstore\n      keccak256(0x00, 0x20)\n      swap1\n    tag_212:\n      dup2\n      sload\n      dup2\n      mstore\n      swap1\n      0x01\n      add\n      swap1\n      0x20\n      add\n      dup1\n      dup4\n      gt\n      tag_212\n      jumpi\n      dup3\n      swap1\n      sub\n      0x1f\n      and\n      dup3\n      add\n      swap2\n    tag_210:\n      pop\n      pop\n      pop\n      pop\n      pop\n      dup2\n      mstore\n      0x20\n      add\n      0x05\n      dup3\n      add\n      sload\n      dup2\n      mstore\n      0x20\n      add\n      0x06\n      dup3\n      add\n      sload\n      dup2\n      mstore\n      0x20\n      add\n      0x07\n      dup3\n      add\n      0x00\n      swap1\n      sload\n      swap1\n      0x0100\n      exp\n      swap1\n      div\n      0xffffffffffffffffffffffffffffffffffffffff\n      and\n      0xffffffffffffffffffffffffffffffffffffffff\n      and\n      0xffffffffffffffffffffffffffffffffffffffff\n      and\n      dup2\n      mstore\n      pop\n      pop\n      swap1\n      pop\n        /* \"contracts/RealEstate.sol\":2558:2565  _kiraci */\n      dup12\n        /* \"contracts/RealEstate.sol\":2540:2565  kiralik.kiraci == _kiraci */\n      0xffffffffffffffffffffffffffffffffffffffff\n      and\n        /* \"contracts/RealEstate.sol\":2540:2547  kiralik */\n      dup2\n        /* \"contracts/RealEstate.sol\":2540:2554  kiralik.kiraci */\n      0x00\n      add\n      mload\n        /* \"contracts/RealEstate.sol\":2540:2565  kiralik.kiraci == _kiraci */\n      0xffffffffffffffffffffffffffffffffffffffff\n      and\n      eq\n        /* \"contracts/RealEstate.sol\":2540:2666  kiralik.kiraci == _kiraci &&... */\n      dup1\n      iszero\n      tag_213\n      jumpi\n      pop\n        /* \"contracts/RealEstate.sol\":2658:2664  _sehir */\n      dup11\n        /* \"contracts/RealEstate.sol\":2641:2665  abi.encodePacked(_sehir) */\n      add(0x20, mload(0x40))\n      tag_214\n      swap2\n      swap1\n      tag_103\n      jump\t// in\n    tag_214:\n      mload(0x40)\n      0x20\n      dup2\n      dup4\n      sub\n      sub\n      dup2\n      mstore\n      swap1\n      0x40\n      mstore\n        /* \"contracts/RealEstate.sol\":2631:2666  keccak256(abi.encodePacked(_sehir)) */\n      dup1\n      mload\n      swap1\n      0x20\n      add\n      keccak256\n        /* \"contracts/RealEstate.sol\":2612:2619  kiralik */\n      dup2\n        /* \"contracts/RealEstate.sol\":2612:2625  kiralik.sehir */\n      0x20\n      add\n      mload\n        /* \"contracts/RealEstate.sol\":2595:2626  abi.encodePacked(kiralik.sehir) */\n      add(0x20, mload(0x40))\n      tag_215\n      swap2\n      swap1\n      tag_103\n      jump\t// in\n    tag_215:\n      mload(0x40)\n      0x20\n      dup2\n      dup4\n      sub\n      sub\n      dup2\n      mstore\n      swap1\n      0x40\n      mstore\n        /* \"contracts/RealEstate.sol\":2585:2627  keccak256(abi.encodePacked(kiralik.sehir)) */\n      dup1\n      mload\n      swap1\n      0x20\n      add\n      keccak256\n        /* \"contracts/RealEstate.sol\":2585:2666  keccak256(abi.encodePacked(kiralik.sehir)) == keccak256(abi.encodePacked(_sehir)) */\n      eq\n        /* \"contracts/RealEstate.sol\":2540:2666  kiralik.kiraci == _kiraci &&... */\n    tag_213:\n        /* \"contracts/RealEstate.sol\":2540:2765  kiralik.kiraci == _kiraci &&... */\n      dup1\n      iszero\n      tag_216\n      jumpi\n      pop\n        /* \"contracts/RealEstate.sol\":2758:2763  _ilce */\n      dup10\n        /* \"contracts/RealEstate.sol\":2741:2764  abi.encodePacked(_ilce) */\n      add(0x20, mload(0x40))\n      tag_217\n      swap2\n      swap1\n      tag_103\n      jump\t// in\n    tag_217:\n      mload(0x40)\n      0x20\n      dup2\n      dup4\n      sub\n      sub\n      dup2\n      mstore\n      swap1\n      0x40\n      mstore\n        /* \"contracts/RealEstate.sol\":2731:2765  keccak256(abi.encodePacked(_ilce)) */\n      dup1\n      mload\n      swap1\n      0x20\n      add\n      keccak256\n        /* \"contracts/RealEstate.sol\":2713:2720  kiralik */\n      dup2\n        /* \"contracts/RealEstate.sol\":2713:2725  kiralik.ilce */\n      0x40\n      add\n      mload\n        /* \"contracts/RealEstate.sol\":2696:2726  abi.encodePacked(kiralik.ilce) */\n      add(0x20, mload(0x40))\n      tag_218\n      swap2\n      swap1\n      tag_103\n      jump\t// in\n    tag_218:\n      mload(0x40)\n      0x20\n      dup2\n      dup4\n      sub\n      sub\n      dup2\n      mstore\n      swap1\n      0x40\n      mstore\n        /* \"contracts/RealEstate.sol\":2686:2727  keccak256(abi.encodePacked(kiralik.ilce)) */\n      dup1\n      mload\n      swap1\n      0x20\n      add\n      keccak256\n        /* \"contracts/RealEstate.sol\":2686:2765  keccak256(abi.encodePacked(kiralik.ilce)) == keccak256(abi.encodePacked(_ilce)) */\n      eq\n        /* \"contracts/RealEstate.sol\":2540:2765  kiralik.kiraci == _kiraci &&... */\n    tag_216:\n        /* \"contracts/RealEstate.sol\":2540:2870  kiralik.kiraci == _kiraci &&... */\n      dup1\n      iszero\n      tag_219\n      jumpi\n      pop\n        /* \"contracts/RealEstate.sol\":2860:2868  _mahalle */\n      dup9\n        /* \"contracts/RealEstate.sol\":2843:2869  abi.encodePacked(_mahalle) */\n      add(0x20, mload(0x40))\n      tag_220\n      swap2\n      swap1\n      tag_103\n      jump\t// in\n    tag_220:\n      mload(0x40)\n      0x20\n      dup2\n      dup4\n      sub\n      sub\n      dup2\n      mstore\n      swap1\n      0x40\n      mstore\n        /* \"contracts/RealEstate.sol\":2833:2870  keccak256(abi.encodePacked(_mahalle)) */\n      dup1\n      mload\n      swap1\n      0x20\n      add\n      keccak256\n        /* \"contracts/RealEstate.sol\":2812:2819  kiralik */\n      dup2\n        /* \"contracts/RealEstate.sol\":2812:2827  kiralik.mahalle */\n      0x60\n      add\n      mload\n        /* \"contracts/RealEstate.sol\":2795:2828  abi.encodePacked(kiralik.mahalle) */\n      add(0x20, mload(0x40))\n      tag_221\n      swap2\n      swap1\n      tag_103\n      jump\t// in\n    tag_221:\n      mload(0x40)\n      0x20\n      dup2\n      dup4\n      sub\n      sub\n      dup2\n      mstore\n      swap1\n      0x40\n      mstore\n        /* \"contracts/RealEstate.sol\":2785:2829  keccak256(abi.encodePacked(kiralik.mahalle)) */\n      dup1\n      mload\n      swap1\n      0x20\n      add\n      keccak256\n        /* \"contracts/RealEstate.sol\":2785:2870  keccak256(abi.encodePacked(kiralik.mahalle)) == keccak256(abi.encodePacked(_mahalle)) */\n      eq\n        /* \"contracts/RealEstate.sol\":2540:2870  kiralik.kiraci == _kiraci &&... */\n    tag_219:\n        /* \"contracts/RealEstate.sol\":2540:2971  kiralik.kiraci == _kiraci &&... */\n      dup1\n      iszero\n      tag_222\n      jumpi\n      pop\n        /* \"contracts/RealEstate.sol\":2963:2969  _sokak */\n      dup8\n        /* \"contracts/RealEstate.sol\":2946:2970  abi.encodePacked(_sokak) */\n      add(0x20, mload(0x40))\n      tag_223\n      swap2\n      swap1\n      tag_103\n      jump\t// in\n    tag_223:\n      mload(0x40)\n      0x20\n      dup2\n      dup4\n      sub\n      sub\n      dup2\n      mstore\n      swap1\n      0x40\n      mstore\n        /* \"contracts/RealEstate.sol\":2936:2971  keccak256(abi.encodePacked(_sokak)) */\n      dup1\n      mload\n      swap1\n      0x20\n      add\n      keccak256\n        /* \"contracts/RealEstate.sol\":2917:2924  kiralik */\n      dup2\n        /* \"contracts/RealEstate.sol\":2917:2930  kiralik.sokak */\n      0x80\n      add\n      mload\n        /* \"contracts/RealEstate.sol\":2900:2931  abi.encodePacked(kiralik.sokak) */\n      add(0x20, mload(0x40))\n      tag_224\n      swap2\n      swap1\n      tag_103\n      jump\t// in\n    tag_224:\n      mload(0x40)\n      0x20\n      dup2\n      dup4\n      sub\n      sub\n      dup2\n      mstore\n      swap1\n      0x40\n      mstore\n        /* \"contracts/RealEstate.sol\":2890:2932  keccak256(abi.encodePacked(kiralik.sokak)) */\n      dup1\n      mload\n      swap1\n      0x20\n      add\n      keccak256\n        /* \"contracts/RealEstate.sol\":2890:2971  keccak256(abi.encodePacked(kiralik.sokak)) == keccak256(abi.encodePacked(_sokak)) */\n      eq\n        /* \"contracts/RealEstate.sol\":2540:2971  kiralik.kiraci == _kiraci &&... */\n    tag_222:\n        /* \"contracts/RealEstate.sol\":2540:3016  kiralik.kiraci == _kiraci &&... */\n      dup1\n      iszero\n      tag_225\n      jumpi\n      pop\n        /* \"contracts/RealEstate.sol\":3009:3016  _binaNo */\n      dup7\n        /* \"contracts/RealEstate.sol\":2991:2998  kiralik */\n      dup2\n        /* \"contracts/RealEstate.sol\":2991:3005  kiralik.binaNo */\n      0xa0\n      add\n      mload\n        /* \"contracts/RealEstate.sol\":2991:3016  kiralik.binaNo == _binaNo */\n      eq\n        /* \"contracts/RealEstate.sol\":2540:3016  kiralik.kiraci == _kiraci &&... */\n    tag_225:\n        /* \"contracts/RealEstate.sol\":2540:3063  kiralik.kiraci == _kiraci &&... */\n      dup1\n      iszero\n      tag_226\n      jumpi\n      pop\n        /* \"contracts/RealEstate.sol\":3055:3063  _daireNo */\n      dup6\n        /* \"contracts/RealEstate.sol\":3036:3043  kiralik */\n      dup2\n        /* \"contracts/RealEstate.sol\":3036:3051  kiralik.daireNo */\n      0xc0\n      add\n      mload\n        /* \"contracts/RealEstate.sol\":3036:3063  kiralik.daireNo == _daireNo */\n      eq\n        /* \"contracts/RealEstate.sol\":2540:3063  kiralik.kiraci == _kiraci &&... */\n    tag_226:\n        /* \"contracts/RealEstate.sol\":2540:3106  kiralik.kiraci == _kiraci &&... */\n      dup1\n      iszero\n      tag_227\n      jumpi\n      pop\n        /* \"contracts/RealEstate.sol\":3100:3106  _sahip */\n      dup5\n        /* \"contracts/RealEstate.sol\":3083:3106  kiralik.sahip == _sahip */\n      0xffffffffffffffffffffffffffffffffffffffff\n      and\n        /* \"contracts/RealEstate.sol\":3083:3090  kiralik */\n      dup2\n        /* \"contracts/RealEstate.sol\":3083:3096  kiralik.sahip */\n      0xe0\n      add\n      mload\n        /* \"contracts/RealEstate.sol\":3083:3106  kiralik.sahip == _sahip */\n      0xffffffffffffffffffffffffffffffffffffffff\n      and\n      eq\n        /* \"contracts/RealEstate.sol\":2540:3106  kiralik.kiraci == _kiraci &&... */\n    tag_227:\n        /* \"contracts/RealEstate.sol\":2519:3220  if (... */\n      iszero\n      tag_228\n      jumpi\n        /* \"contracts/RealEstate.sol\":3149:3153  true */\n      0x01\n        /* \"contracts/RealEstate.sol\":3139:3153  bulundu = true */\n      swap4\n      pop\n        /* \"contracts/RealEstate.sol\":3180:3181  i */\n      dup2\n        /* \"contracts/RealEstate.sol\":3171:3181  indeks = i */\n      swap3\n      pop\n        /* \"contracts/RealEstate.sol\":3200:3205  break */\n      pop\n      jump(tag_188)\n        /* \"contracts/RealEstate.sol\":2519:3220  if (... */\n    tag_228:\n        /* \"contracts/RealEstate.sol\":2450:3230  {... */\n      pop\n        /* \"contracts/RealEstate.sol\":2445:2448  i++ */\n      dup1\n      dup1\n      tag_229\n      swap1\n      tag_119\n      jump\t// in\n    tag_229:\n      swap2\n      pop\n      pop\n        /* \"contracts/RealEstate.sol\":2406:3230  for (uint256 i = 0; i < kiralikSayisi; i++) {... */\n      jump(tag_187)\n    tag_188:\n      pop\n        /* \"contracts/RealEstate.sol\":3248:3255  bulundu */\n      dup2\n        /* \"contracts/RealEstate.sol\":3240:3279  require(bulundu, \"Kiralama bulunamadi\") */\n      tag_230\n      jumpi\n      mload(0x40)\n      0x08c379a000000000000000000000000000000000000000000000000000000000\n      dup2\n      mstore\n      0x04\n      add\n      tag_231\n      swap1\n      tag_122\n      jump\t// in\n    tag_231:\n      mload(0x40)\n      dup1\n      swap2\n      sub\n      swap1\n      revert\n    tag_230:\n        /* \"contracts/RealEstate.sol\":3297:3310  kiralikYerler */\n      0x02\n        /* \"contracts/RealEstate.sol\":3311:3317  indeks */\n      dup2\n        /* \"contracts/RealEstate.sol\":3297:3318  kiralikYerler[indeks] */\n      dup2\n      sload\n      dup2\n      lt\n      tag_232\n      jumpi\n      tag_233\n      tag_79\n      jump\t// in\n    tag_233:\n    tag_232:\n      swap1\n      0x00\n      mstore\n      keccak256(0x00, 0x20)\n      swap1\n      0x08\n      mul\n      add\n      0x00\n        /* \"contracts/RealEstate.sol\":3290:3318  delete kiralikYerler[indeks] */\n      dup1\n      dup3\n      add\n      exp(0x0100, 0x00)\n      dup2\n      sload\n      swap1\n      0xffffffffffffffffffffffffffffffffffffffff\n      mul\n      not\n      and\n      swap1\n      sstore\n      0x01\n      dup3\n      add\n      0x00\n      tag_235\n      swap2\n      swap1\n      tag_236\n      jump\t// in\n    tag_235:\n      0x02\n      dup3\n      add\n      0x00\n      tag_237\n      swap2\n      swap1\n      tag_236\n      jump\t// in\n    tag_237:\n      0x03\n      dup3\n      add\n      0x00\n      tag_238\n      swap2\n      swap1\n      tag_236\n      jump\t// in\n    tag_238:\n      0x04\n      dup3\n      add\n      0x00\n      tag_239\n      swap2\n      swap1\n      tag_236\n      jump\t// in\n    tag_239:\n      0x05\n      dup3\n      add\n      0x00\n      swap1\n      sstore\n      0x06\n      dup3\n      add\n      0x00\n      swap1\n      sstore\n      0x07\n      dup3\n      add\n      exp(0x0100, 0x00)\n      dup2\n      sload\n      swap1\n      0xffffffffffffffffffffffffffffffffffffffff\n      mul\n      not\n      and\n      swap1\n      sstore\n      pop\n      pop\n        /* \"contracts/RealEstate.sol\":3335:3346  sozlesmeler */\n      0x03\n        /* \"contracts/RealEstate.sol\":3347:3353  indeks */\n      dup2\n        /* \"contracts/RealEstate.sol\":3335:3354  sozlesmeler[indeks] */\n      dup2\n      sload\n      dup2\n      lt\n      tag_240\n      jumpi\n      tag_241\n      tag_79\n      jump\t// in\n    tag_241:\n    tag_240:\n      swap1\n      0x00\n      mstore\n      keccak256(0x00, 0x20)\n      swap1\n      0x0a\n      mul\n      add\n      0x00\n        /* \"contracts/RealEstate.sol\":3328:3354  delete sozlesmeler[indeks] */\n      dup1\n      dup3\n      add\n      0x00\n      dup1\n      dup3\n      add\n      exp(0x0100, 0x00)\n      dup2\n      sload\n      swap1\n      0xffffffffffffffffffffffffffffffffffffffff\n      mul\n      not\n      and\n      swap1\n      sstore\n      0x01\n      dup3\n      add\n      0x00\n      tag_243\n      swap2\n      swap1\n      tag_236\n      jump\t// in\n    tag_243:\n      0x02\n      dup3\n      add\n      0x00\n      tag_244\n      swap2\n      swap1\n      tag_236\n      jump\t// in\n    tag_244:\n      0x03\n      dup3\n      add\n      0x00\n      tag_245\n      swap2\n      swap1\n      tag_236\n      jump\t// in\n    tag_245:\n      0x04\n      dup3\n      add\n      0x00\n      tag_246\n      swap2\n      swap1\n      tag_236\n      jump\t// in\n    tag_246:\n      0x05\n      dup3\n      add\n      0x00\n      swap1\n      sstore\n      0x06\n      dup3\n      add\n      0x00\n      swap1\n      sstore\n      0x07\n      dup3\n      add\n      exp(0x0100, 0x00)\n      dup2\n      sload\n      swap1\n      0xffffffffffffffffffffffffffffffffffffffff\n      mul\n      not\n      and\n      swap1\n      sstore\n      pop\n      pop\n      0x08\n      dup3\n      add\n      0x00\n      tag_247\n      swap2\n      swap1\n      tag_236\n      jump\t// in\n    tag_247:\n      0x09\n      dup3\n      add\n      0x00\n      tag_248\n      swap2\n      swap1\n      tag_236\n      jump\t// in\n    tag_248:\n      pop\n      pop\n        /* \"contracts/RealEstate.sol\":3365:3378  kiralikSayisi */\n      0x01\n      0x00\n        /* \"contracts/RealEstate.sol\":3365:3380  kiralikSayisi-- */\n      dup2\n      sload\n      dup1\n      swap3\n      swap2\n      swap1\n      tag_249\n      swap1\n      tag_250\n      jump\t// in\n    tag_249:\n      swap2\n      swap1\n      pop\n      sstore\n      pop\n        /* \"contracts/RealEstate.sol\":3415:3421  _sahip */\n      dup3\n        /* \"contracts/RealEstate.sol\":3396:3474  Sonlandir(_kiraci, _sahip, _sehir, _ilce, _mahalle, _sokak, _binaNo, _daireNo) */\n      0xffffffffffffffffffffffffffffffffffffffff\n      and\n        /* \"contracts/RealEstate.sol\":3406:3413  _kiraci */\n      dup11\n        /* \"contracts/RealEstate.sol\":3396:3474  Sonlandir(_kiraci, _sahip, _sehir, _ilce, _mahalle, _sokak, _binaNo, _daireNo) */\n      0xffffffffffffffffffffffffffffffffffffffff\n      and\n      0x4976c9ce64a3a8c13959eded5a8a9a089ea50ba8c6a1f0adda6585a1e13489b8\n        /* \"contracts/RealEstate.sol\":3423:3429  _sehir */\n      dup12\n        /* \"contracts/RealEstate.sol\":3431:3436  _ilce */\n      dup12\n        /* \"contracts/RealEstate.sol\":3438:3446  _mahalle */\n      dup12\n        /* \"contracts/RealEstate.sol\":3448:3454  _sokak */\n      dup12\n        /* \"contracts/RealEstate.sol\":3456:3463  _binaNo */\n      dup12\n        /* \"contracts/RealEstate.sol\":3465:3473  _daireNo */\n      dup12\n        /* \"contracts/RealEstate.sol\":3396:3474  Sonlandir(_kiraci, _sahip, _sehir, _ilce, _mahalle, _sokak, _binaNo, _daireNo) */\n      mload(0x40)\n      tag_251\n      swap7\n      swap6\n      swap5\n      swap4\n      swap3\n      swap2\n      swap1\n      tag_252\n      jump\t// in\n    tag_251:\n      mload(0x40)\n      dup1\n      swap2\n      sub\n      swap1\n      log3\n        /* \"contracts/RealEstate.sol\":2204:3481  {... */\n      pop\n      pop\n        /* \"contracts/RealEstate.sol\":2001:3481  function sonlandir(address _kiraci, string memory _sehir, string memory _ilce, string memory _mahalle, string memory _sokak, uint256 _binaNo, uint256 _daireNo, address _sahip) public sadeceKontratSahibi {... */\n      pop\n      pop\n      pop\n      pop\n      pop\n      pop\n      pop\n      pop\n      jump\t// out\n        /* \"contracts/RealEstate.sol\":404:432  uint256 public kiralikSayisi */\n    tag_38:\n      sload(0x01)\n      dup2\n      jump\t// out\n    tag_236:\n      pop\n      dup1\n      sload\n      tag_253\n      swap1\n      tag_44\n      jump\t// in\n    tag_253:\n      0x00\n      dup3\n      sstore\n      dup1\n      0x1f\n      lt\n      tag_255\n      jumpi\n      pop\n      jump(tag_254)\n    tag_255:\n      0x1f\n      add\n      0x20\n      swap1\n      div\n      swap1\n      0x00\n      mstore\n      keccak256(0x00, 0x20)\n      swap1\n      dup2\n      add\n      swap1\n      tag_256\n      swap2\n      swap1\n      tag_257\n      jump\t// in\n    tag_256:\n    tag_254:\n      pop\n      jump\t// out\n    tag_257:\n    tag_258:\n      dup1\n      dup3\n      gt\n      iszero\n      tag_259\n      jumpi\n      0x00\n      dup2\n      0x00\n      swap1\n      sstore\n      pop\n      0x01\n      add\n      jump(tag_258)\n    tag_259:\n      pop\n      swap1\n      jump\t// out\n        /* \"#utility.yul\":7:82   */\n    tag_260:\n        /* \"#utility.yul\":40:46   */\n      0x00\n        /* \"#utility.yul\":73:75   */\n      0x40\n        /* \"#utility.yul\":67:76   */\n      mload\n        /* \"#utility.yul\":57:76   */\n      swap1\n      pop\n        /* \"#utility.yul\":7:82   */\n      swap1\n      jump\t// out\n        /* \"#utility.yul\":88:205   */\n    tag_261:\n        /* \"#utility.yul\":197:198   */\n      0x00\n        /* \"#utility.yul\":194:195   */\n      dup1\n        /* \"#utility.yul\":187:199   */\n      revert\n        /* \"#utility.yul\":211:328   */\n    tag_262:\n        /* \"#utility.yul\":320:321   */\n      0x00\n        /* \"#utility.yul\":317:318   */\n      dup1\n        /* \"#utility.yul\":310:322   */\n      revert\n        /* \"#utility.yul\":334:411   */\n    tag_263:\n        /* \"#utility.yul\":371:378   */\n      0x00\n        /* \"#utility.yul\":400:405   */\n      dup2\n        /* \"#utility.yul\":389:405   */\n      swap1\n      pop\n        /* \"#utility.yul\":334:411   */\n      swap2\n      swap1\n      pop\n      jump\t// out\n        /* \"#utility.yul\":417:539   */\n    tag_264:\n        /* \"#utility.yul\":490:514   */\n      tag_324\n        /* \"#utility.yul\":508:513   */\n      dup2\n        /* \"#utility.yul\":490:514   */\n      tag_263\n      jump\t// in\n    tag_324:\n        /* \"#utility.yul\":483:488   */\n      dup2\n        /* \"#utility.yul\":480:515   */\n      eq\n        /* \"#utility.yul\":470:533   */\n      tag_325\n      jumpi\n        /* \"#utility.yul\":529:530   */\n      0x00\n        /* \"#utility.yul\":526:527   */\n      dup1\n        /* \"#utility.yul\":519:531   */\n      revert\n        /* \"#utility.yul\":470:533   */\n    tag_325:\n        /* \"#utility.yul\":417:539   */\n      pop\n      jump\t// out\n        /* \"#utility.yul\":545:684   */\n    tag_265:\n        /* \"#utility.yul\":591:596   */\n      0x00\n        /* \"#utility.yul\":629:635   */\n      dup2\n        /* \"#utility.yul\":616:636   */\n      calldataload\n        /* \"#utility.yul\":607:636   */\n      swap1\n      pop\n        /* \"#utility.yul\":645:678   */\n      tag_327\n        /* \"#utility.yul\":672:677   */\n      dup2\n        /* \"#utility.yul\":645:678   */\n      tag_264\n      jump\t// in\n    tag_327:\n        /* \"#utility.yul\":545:684   */\n      swap3\n      swap2\n      pop\n      pop\n      jump\t// out\n        /* \"#utility.yul\":690:1019   */\n    tag_13:\n        /* \"#utility.yul\":749:755   */\n      0x00\n        /* \"#utility.yul\":798:800   */\n      0x20\n        /* \"#utility.yul\":786:795   */\n      dup3\n        /* \"#utility.yul\":777:784   */\n      dup5\n        /* \"#utility.yul\":773:796   */\n      sub\n        /* \"#utility.yul\":769:801   */\n      slt\n        /* \"#utility.yul\":766:885   */\n      iszero\n      tag_329\n      jumpi\n        /* \"#utility.yul\":804:883   */\n      tag_330\n      tag_261\n      jump\t// in\n    tag_330:\n        /* \"#utility.yul\":766:885   */\n    tag_329:\n        /* \"#utility.yul\":924:925   */\n      0x00\n        /* \"#utility.yul\":949:1002   */\n      tag_331\n        /* \"#utility.yul\":994:1001   */\n      dup5\n        /* \"#utility.yul\":985:991   */\n      dup3\n        /* \"#utility.yul\":974:983   */\n      dup6\n        /* \"#utility.yul\":970:992   */\n      add\n        /* \"#utility.yul\":949:1002   */\n      tag_265\n      jump\t// in\n    tag_331:\n        /* \"#utility.yul\":939:1002   */\n      swap2\n      pop\n        /* \"#utility.yul\":895:1012   */\n      pop\n        /* \"#utility.yul\":690:1019   */\n      swap3\n      swap2\n      pop\n      pop\n      jump\t// out\n        /* \"#utility.yul\":1025:1151   */\n    tag_266:\n        /* \"#utility.yul\":1062:1069   */\n      0x00\n        /* \"#utility.yul\":1102:1144   */\n      0xffffffffffffffffffffffffffffffffffffffff\n        /* \"#utility.yul\":1095:1100   */\n      dup3\n        /* \"#utility.yul\":1091:1145   */\n      and\n        /* \"#utility.yul\":1080:1145   */\n      swap1\n      pop\n        /* \"#utility.yul\":1025:1151   */\n      swap2\n      swap1\n      pop\n      jump\t// out\n        /* \"#utility.yul\":1157:1253   */\n    tag_267:\n        /* \"#utility.yul\":1194:1201   */\n      0x00\n        /* \"#utility.yul\":1223:1247   */\n      tag_334\n        /* \"#utility.yul\":1241:1246   */\n      dup3\n        /* \"#utility.yul\":1223:1247   */\n      tag_266\n      jump\t// in\n    tag_334:\n        /* \"#utility.yul\":1212:1247   */\n      swap1\n      pop\n        /* \"#utility.yul\":1157:1253   */\n      swap2\n      swap1\n      pop\n      jump\t// out\n        /* \"#utility.yul\":1259:1377   */\n    tag_268:\n        /* \"#utility.yul\":1346:1370   */\n      tag_336\n        /* \"#utility.yul\":1364:1369   */\n      dup2\n        /* \"#utility.yul\":1346:1370   */\n      tag_267\n      jump\t// in\n    tag_336:\n        /* \"#utility.yul\":1341:1344   */\n      dup3\n        /* \"#utility.yul\":1334:1371   */\n      mstore\n        /* \"#utility.yul\":1259:1377   */\n      pop\n      pop\n      jump\t// out\n        /* \"#utility.yul\":1383:1482   */\n    tag_269:\n        /* \"#utility.yul\":1435:1441   */\n      0x00\n        /* \"#utility.yul\":1469:1474   */\n      dup2\n        /* \"#utility.yul\":1463:1475   */\n      mload\n        /* \"#utility.yul\":1453:1475   */\n      swap1\n      pop\n        /* \"#utility.yul\":1383:1482   */\n      swap2\n      swap1\n      pop\n      jump\t// out\n        /* \"#utility.yul\":1488:1657   */\n    tag_270:\n        /* \"#utility.yul\":1572:1583   */\n      0x00\n        /* \"#utility.yul\":1606:1612   */\n      dup3\n        /* \"#utility.yul\":1601:1604   */\n      dup3\n        /* \"#utility.yul\":1594:1613   */\n      mstore\n        /* \"#utility.yul\":1646:1650   */\n      0x20\n        /* \"#utility.yul\":1641:1644   */\n      dup3\n        /* \"#utility.yul\":1637:1651   */\n      add\n        /* \"#utility.yul\":1622:1651   */\n      swap1\n      pop\n        /* \"#utility.yul\":1488:1657   */\n      swap3\n      swap2\n      pop\n      pop\n      jump\t// out\n        /* \"#utility.yul\":1663:1909   */\n    tag_271:\n        /* \"#utility.yul\":1744:1745   */\n      0x00\n        /* \"#utility.yul\":1754:1867   */\n    tag_340:\n        /* \"#utility.yul\":1768:1774   */\n      dup4\n        /* \"#utility.yul\":1765:1766   */\n      dup2\n        /* \"#utility.yul\":1762:1775   */\n      lt\n        /* \"#utility.yul\":1754:1867   */\n      iszero\n      tag_342\n      jumpi\n        /* \"#utility.yul\":1853:1854   */\n      dup1\n        /* \"#utility.yul\":1848:1851   */\n      dup3\n        /* \"#utility.yul\":1844:1855   */\n      add\n        /* \"#utility.yul\":1838:1856   */\n      mload\n        /* \"#utility.yul\":1834:1835   */\n      dup2\n        /* \"#utility.yul\":1829:1832   */\n      dup5\n        /* \"#utility.yul\":1825:1836   */\n      add\n        /* \"#utility.yul\":1818:1857   */\n      mstore\n        /* \"#utility.yul\":1790:1792   */\n      0x20\n        /* \"#utility.yul\":1787:1788   */\n      dup2\n        /* \"#utility.yul\":1783:1793   */\n      add\n        /* \"#utility.yul\":1778:1793   */\n      swap1\n      pop\n        /* \"#utility.yul\":1754:1867   */\n      jump(tag_340)\n    tag_342:\n        /* \"#utility.yul\":1901:1902   */\n      0x00\n        /* \"#utility.yul\":1892:1898   */\n      dup5\n        /* \"#utility.yul\":1887:1890   */\n      dup5\n        /* \"#utility.yul\":1883:1899   */\n      add\n        /* \"#utility.yul\":1876:1903   */\n      mstore\n        /* \"#utility.yul\":1725:1909   */\n      pop\n        /* \"#utility.yul\":1663:1909   */\n      pop\n      pop\n      pop\n      jump\t// out\n        /* \"#utility.yul\":1915:2017   */\n    tag_272:\n        /* \"#utility.yul\":1956:1962   */\n      0x00\n        /* \"#utility.yul\":2007:2009   */\n      0x1f\n        /* \"#utility.yul\":2003:2010   */\n      not\n        /* \"#utility.yul\":1998:2000   */\n      0x1f\n        /* \"#utility.yul\":1991:1996   */\n      dup4\n        /* \"#utility.yul\":1987:2001   */\n      add\n        /* \"#utility.yul\":1983:2011   */\n      and\n        /* \"#utility.yul\":1973:2011   */\n      swap1\n      pop\n        /* \"#utility.yul\":1915:2017   */\n      swap2\n      swap1\n      pop\n      jump\t// out\n        /* \"#utility.yul\":2023:2400   */\n    tag_273:\n        /* \"#utility.yul\":2111:2114   */\n      0x00\n        /* \"#utility.yul\":2139:2178   */\n      tag_345\n        /* \"#utility.yul\":2172:2177   */\n      dup3\n        /* \"#utility.yul\":2139:2178   */\n      tag_269\n      jump\t// in\n    tag_345:\n        /* \"#utility.yul\":2194:2265   */\n      tag_346\n        /* \"#utility.yul\":2258:2264   */\n      dup2\n        /* \"#utility.yul\":2253:2256   */\n      dup6\n        /* \"#utility.yul\":2194:2265   */\n      tag_270\n      jump\t// in\n    tag_346:\n        /* \"#utility.yul\":2187:2265   */\n      swap4\n      pop\n        /* \"#utility.yul\":2274:2339   */\n      tag_347\n        /* \"#utility.yul\":2332:2338   */\n      dup2\n        /* \"#utility.yul\":2327:2330   */\n      dup6\n        /* \"#utility.yul\":2320:2324   */\n      0x20\n        /* \"#utility.yul\":2313:2318   */\n      dup7\n        /* \"#utility.yul\":2309:2325   */\n      add\n        /* \"#utility.yul\":2274:2339   */\n      tag_271\n      jump\t// in\n    tag_347:\n        /* \"#utility.yul\":2364:2393   */\n      tag_348\n        /* \"#utility.yul\":2386:2392   */\n      dup2\n        /* \"#utility.yul\":2364:2393   */\n      tag_272\n      jump\t// in\n    tag_348:\n        /* \"#utility.yul\":2359:2362   */\n      dup5\n        /* \"#utility.yul\":2355:2394   */\n      add\n        /* \"#utility.yul\":2348:2394   */\n      swap2\n      pop\n        /* \"#utility.yul\":2115:2400   */\n      pop\n        /* \"#utility.yul\":2023:2400   */\n      swap3\n      swap2\n      pop\n      pop\n      jump\t// out\n        /* \"#utility.yul\":2406:2524   */\n    tag_274:\n        /* \"#utility.yul\":2493:2517   */\n      tag_350\n        /* \"#utility.yul\":2511:2516   */\n      dup2\n        /* \"#utility.yul\":2493:2517   */\n      tag_263\n      jump\t// in\n    tag_350:\n        /* \"#utility.yul\":2488:2491   */\n      dup3\n        /* \"#utility.yul\":2481:2518   */\n      mstore\n        /* \"#utility.yul\":2406:2524   */\n      pop\n      pop\n      jump\t// out\n        /* \"#utility.yul\":2530:3891   */\n    tag_16:\n        /* \"#utility.yul\":2899:2903   */\n      0x00\n        /* \"#utility.yul\":2937:2940   */\n      0x0100\n        /* \"#utility.yul\":2926:2935   */\n      dup3\n        /* \"#utility.yul\":2922:2941   */\n      add\n        /* \"#utility.yul\":2914:2941   */\n      swap1\n      pop\n        /* \"#utility.yul\":2951:3022   */\n      tag_352\n        /* \"#utility.yul\":3019:3020   */\n      0x00\n        /* \"#utility.yul\":3008:3017   */\n      dup4\n        /* \"#utility.yul\":3004:3021   */\n      add\n        /* \"#utility.yul\":2995:3001   */\n      dup12\n        /* \"#utility.yul\":2951:3022   */\n      tag_268\n      jump\t// in\n    tag_352:\n        /* \"#utility.yul\":3069:3078   */\n      dup2\n        /* \"#utility.yul\":3063:3067   */\n      dup2\n        /* \"#utility.yul\":3059:3079   */\n      sub\n        /* \"#utility.yul\":3054:3056   */\n      0x20\n        /* \"#utility.yul\":3043:3052   */\n      dup4\n        /* \"#utility.yul\":3039:3057   */\n      add\n        /* \"#utility.yul\":3032:3080   */\n      mstore\n        /* \"#utility.yul\":3097:3175   */\n      tag_353\n        /* \"#utility.yul\":3170:3174   */\n      dup2\n        /* \"#utility.yul\":3161:3167   */\n      dup11\n        /* \"#utility.yul\":3097:3175   */\n      tag_273\n      jump\t// in\n    tag_353:\n        /* \"#utility.yul\":3089:3175   */\n      swap1\n      pop\n        /* \"#utility.yul\":3222:3231   */\n      dup2\n        /* \"#utility.yul\":3216:3220   */\n      dup2\n        /* \"#utility.yul\":3212:3232   */\n      sub\n        /* \"#utility.yul\":3207:3209   */\n      0x40\n        /* \"#utility.yul\":3196:3205   */\n      dup4\n        /* \"#utility.yul\":3192:3210   */\n      add\n        /* \"#utility.yul\":3185:3233   */\n      mstore\n        /* \"#utility.yul\":3250:3328   */\n      tag_354\n        /* \"#utility.yul\":3323:3327   */\n      dup2\n        /* \"#utility.yul\":3314:3320   */\n      dup10\n        /* \"#utility.yul\":3250:3328   */\n      tag_273\n      jump\t// in\n    tag_354:\n        /* \"#utility.yul\":3242:3328   */\n      swap1\n      pop\n        /* \"#utility.yul\":3375:3384   */\n      dup2\n        /* \"#utility.yul\":3369:3373   */\n      dup2\n        /* \"#utility.yul\":3365:3385   */\n      sub\n        /* \"#utility.yul\":3360:3362   */\n      0x60\n        /* \"#utility.yul\":3349:3358   */\n      dup4\n        /* \"#utility.yul\":3345:3363   */\n      add\n        /* \"#utility.yul\":3338:3386   */\n      mstore\n        /* \"#utility.yul\":3403:3481   */\n      tag_355\n        /* \"#utility.yul\":3476:3480   */\n      dup2\n        /* \"#utility.yul\":3467:3473   */\n      dup9\n        /* \"#utility.yul\":3403:3481   */\n      tag_273\n      jump\t// in\n    tag_355:\n        /* \"#utility.yul\":3395:3481   */\n      swap1\n      pop\n        /* \"#utility.yul\":3529:3538   */\n      dup2\n        /* \"#utility.yul\":3523:3527   */\n      dup2\n        /* \"#utility.yul\":3519:3539   */\n      sub\n        /* \"#utility.yul\":3513:3516   */\n      0x80\n        /* \"#utility.yul\":3502:3511   */\n      dup4\n        /* \"#utility.yul\":3498:3517   */\n      add\n        /* \"#utility.yul\":3491:3540   */\n      mstore\n        /* \"#utility.yul\":3557:3635   */\n      tag_356\n        /* \"#utility.yul\":3630:3634   */\n      dup2\n        /* \"#utility.yul\":3621:3627   */\n      dup8\n        /* \"#utility.yul\":3557:3635   */\n      tag_273\n      jump\t// in\n    tag_356:\n        /* \"#utility.yul\":3549:3635   */\n      swap1\n      pop\n        /* \"#utility.yul\":3645:3718   */\n      tag_357\n        /* \"#utility.yul\":3713:3716   */\n      0xa0\n        /* \"#utility.yul\":3702:3711   */\n      dup4\n        /* \"#utility.yul\":3698:3717   */\n      add\n        /* \"#utility.yul\":3689:3695   */\n      dup7\n        /* \"#utility.yul\":3645:3718   */\n      tag_274\n      jump\t// in\n    tag_357:\n        /* \"#utility.yul\":3728:3801   */\n      tag_358\n        /* \"#utility.yul\":3796:3799   */\n      0xc0\n        /* \"#utility.yul\":3785:3794   */\n      dup4\n        /* \"#utility.yul\":3781:3800   */\n      add\n        /* \"#utility.yul\":3772:3778   */\n      dup6\n        /* \"#utility.yul\":3728:3801   */\n      tag_274\n      jump\t// in\n    tag_358:\n        /* \"#utility.yul\":3811:3884   */\n      tag_359\n        /* \"#utility.yul\":3879:3882   */\n      0xe0\n        /* \"#utility.yul\":3868:3877   */\n      dup4\n        /* \"#utility.yul\":3864:3883   */\n      add\n        /* \"#utility.yul\":3855:3861   */\n      dup5\n        /* \"#utility.yul\":3811:3884   */\n      tag_268\n      jump\t// in\n    tag_359:\n        /* \"#utility.yul\":2530:3891   */\n      swap10\n      swap9\n      pop\n      pop\n      pop\n      pop\n      pop\n      pop\n      pop\n      pop\n      pop\n      jump\t// out\n        /* \"#utility.yul\":3897:4019   */\n    tag_275:\n        /* \"#utility.yul\":3970:3994   */\n      tag_361\n        /* \"#utility.yul\":3988:3993   */\n      dup2\n        /* \"#utility.yul\":3970:3994   */\n      tag_267\n      jump\t// in\n    tag_361:\n        /* \"#utility.yul\":3963:3968   */\n      dup2\n        /* \"#utility.yul\":3960:3995   */\n      eq\n        /* \"#utility.yul\":3950:4013   */\n      tag_362\n      jumpi\n        /* \"#utility.yul\":4009:4010   */\n      0x00\n        /* \"#utility.yul\":4006:4007   */\n      dup1\n        /* \"#utility.yul\":3999:4011   */\n      revert\n        /* \"#utility.yul\":3950:4013   */\n    tag_362:\n        /* \"#utility.yul\":3897:4019   */\n      pop\n      jump\t// out\n        /* \"#utility.yul\":4025:4164   */\n    tag_276:\n        /* \"#utility.yul\":4071:4076   */\n      0x00\n        /* \"#utility.yul\":4109:4115   */\n      dup2\n        /* \"#utility.yul\":4096:4116   */\n      calldataload\n        /* \"#utility.yul\":4087:4116   */\n      swap1\n      pop\n        /* \"#utility.yul\":4125:4158   */\n      tag_364\n        /* \"#utility.yul\":4152:4157   */\n      dup2\n        /* \"#utility.yul\":4125:4158   */\n      tag_275\n      jump\t// in\n    tag_364:\n        /* \"#utility.yul\":4025:4164   */\n      swap3\n      swap2\n      pop\n      pop\n      jump\t// out\n        /* \"#utility.yul\":4170:4287   */\n    tag_277:\n        /* \"#utility.yul\":4279:4280   */\n      0x00\n        /* \"#utility.yul\":4276:4277   */\n      dup1\n        /* \"#utility.yul\":4269:4281   */\n      revert\n        /* \"#utility.yul\":4293:4410   */\n    tag_278:\n        /* \"#utility.yul\":4402:4403   */\n      0x00\n        /* \"#utility.yul\":4399:4400   */\n      dup1\n        /* \"#utility.yul\":4392:4404   */\n      revert\n        /* \"#utility.yul\":4416:4596   */\n    tag_279:\n        /* \"#utility.yul\":4464:4541   */\n      0x4e487b7100000000000000000000000000000000000000000000000000000000\n        /* \"#utility.yul\":4461:4462   */\n      0x00\n        /* \"#utility.yul\":4454:4542   */\n      mstore\n        /* \"#utility.yul\":4561:4565   */\n      0x41\n        /* \"#utility.yul\":4558:4559   */\n      0x04\n        /* \"#utility.yul\":4551:4566   */\n      mstore\n        /* \"#utility.yul\":4585:4589   */\n      0x24\n        /* \"#utility.yul\":4582:4583   */\n      0x00\n        /* \"#utility.yul\":4575:4590   */\n      revert\n        /* \"#utility.yul\":4602:4883   */\n    tag_280:\n        /* \"#utility.yul\":4685:4712   */\n      tag_369\n        /* \"#utility.yul\":4707:4711   */\n      dup3\n        /* \"#utility.yul\":4685:4712   */\n      tag_272\n      jump\t// in\n    tag_369:\n        /* \"#utility.yul\":4677:4683   */\n      dup2\n        /* \"#utility.yul\":4673:4713   */\n      add\n        /* \"#utility.yul\":4815:4821   */\n      dup2\n        /* \"#utility.yul\":4803:4813   */\n      dup2\n        /* \"#utility.yul\":4800:4822   */\n      lt\n        /* \"#utility.yul\":4779:4797   */\n      0xffffffffffffffff\n        /* \"#utility.yul\":4767:4777   */\n      dup3\n        /* \"#utility.yul\":4764:4798   */\n      gt\n        /* \"#utility.yul\":4761:4823   */\n      or\n        /* \"#utility.yul\":4758:4846   */\n      iszero\n      tag_370\n      jumpi\n        /* \"#utility.yul\":4826:4844   */\n      tag_371\n      tag_279\n      jump\t// in\n    tag_371:\n        /* \"#utility.yul\":4758:4846   */\n    tag_370:\n        /* \"#utility.yul\":4866:4876   */\n      dup1\n        /* \"#utility.yul\":4862:4864   */\n      0x40\n        /* \"#utility.yul\":4855:4877   */\n      mstore\n        /* \"#utility.yul\":4645:4883   */\n      pop\n        /* \"#utility.yul\":4602:4883   */\n      pop\n      pop\n      jump\t// out\n        /* \"#utility.yul\":4889:5018   */\n    tag_281:\n        /* \"#utility.yul\":4923:4929   */\n      0x00\n        /* \"#utility.yul\":4950:4970   */\n      tag_373\n      tag_260\n      jump\t// in\n    tag_373:\n        /* \"#utility.yul\":4940:4970   */\n      swap1\n      pop\n        /* \"#utility.yul\":4979:5012   */\n      tag_374\n        /* \"#utility.yul\":5007:5011   */\n      dup3\n        /* \"#utility.yul\":4999:5005   */\n      dup3\n        /* \"#utility.yul\":4979:5012   */\n      tag_280\n      jump\t// in\n    tag_374:\n        /* \"#utility.yul\":4889:5018   */\n      swap2\n      swap1\n      pop\n      jump\t// out\n        /* \"#utility.yul\":5024:5332   */\n    tag_282:\n        /* \"#utility.yul\":5086:5090   */\n      0x00\n        /* \"#utility.yul\":5176:5194   */\n      0xffffffffffffffff\n        /* \"#utility.yul\":5168:5174   */\n      dup3\n        /* \"#utility.yul\":5165:5195   */\n      gt\n        /* \"#utility.yul\":5162:5218   */\n      iszero\n      tag_376\n      jumpi\n        /* \"#utility.yul\":5198:5216   */\n      tag_377\n      tag_279\n      jump\t// in\n    tag_377:\n        /* \"#utility.yul\":5162:5218   */\n    tag_376:\n        /* \"#utility.yul\":5236:5265   */\n      tag_378\n        /* \"#utility.yul\":5258:5264   */\n      dup3\n        /* \"#utility.yul\":5236:5265   */\n      tag_272\n      jump\t// in\n    tag_378:\n        /* \"#utility.yul\":5228:5265   */\n      swap1\n      pop\n        /* \"#utility.yul\":5320:5324   */\n      0x20\n        /* \"#utility.yul\":5314:5318   */\n      dup2\n        /* \"#utility.yul\":5310:5325   */\n      add\n        /* \"#utility.yul\":5302:5325   */\n      swap1\n      pop\n        /* \"#utility.yul\":5024:5332   */\n      swap2\n      swap1\n      pop\n      jump\t// out\n        /* \"#utility.yul\":5338:5484   */\n    tag_283:\n        /* \"#utility.yul\":5435:5441   */\n      dup3\n        /* \"#utility.yul\":5430:5433   */\n      dup2\n        /* \"#utility.yul\":5425:5428   */\n      dup4\n        /* \"#utility.yul\":5412:5442   */\n      calldatacopy\n        /* \"#utility.yul\":5476:5477   */\n      0x00\n        /* \"#utility.yul\":5467:5473   */\n      dup4\n        /* \"#utility.yul\":5462:5465   */\n      dup4\n        /* \"#utility.yul\":5458:5474   */\n      add\n        /* \"#utility.yul\":5451:5478   */\n      mstore\n        /* \"#utility.yul\":5338:5484   */\n      pop\n      pop\n      pop\n      jump\t// out\n        /* \"#utility.yul\":5490:5915   */\n    tag_284:\n        /* \"#utility.yul\":5568:5573   */\n      0x00\n        /* \"#utility.yul\":5593:5659   */\n      tag_381\n        /* \"#utility.yul\":5609:5658   */\n      tag_382\n        /* \"#utility.yul\":5651:5657   */\n      dup5\n        /* \"#utility.yul\":5609:5658   */\n      tag_282\n      jump\t// in\n    tag_382:\n        /* \"#utility.yul\":5593:5659   */\n      tag_281\n      jump\t// in\n    tag_381:\n        /* \"#utility.yul\":5584:5659   */\n      swap1\n      pop\n        /* \"#utility.yul\":5682:5688   */\n      dup3\n        /* \"#utility.yul\":5675:5680   */\n      dup2\n        /* \"#utility.yul\":5668:5689   */\n      mstore\n        /* \"#utility.yul\":5720:5724   */\n      0x20\n        /* \"#utility.yul\":5713:5718   */\n      dup2\n        /* \"#utility.yul\":5709:5725   */\n      add\n        /* \"#utility.yul\":5758:5761   */\n      dup5\n        /* \"#utility.yul\":5749:5755   */\n      dup5\n        /* \"#utility.yul\":5744:5747   */\n      dup5\n        /* \"#utility.yul\":5740:5756   */\n      add\n        /* \"#utility.yul\":5737:5762   */\n      gt\n        /* \"#utility.yul\":5734:5846   */\n      iszero\n      tag_383\n      jumpi\n        /* \"#utility.yul\":5765:5844   */\n      tag_384\n      tag_278\n      jump\t// in\n    tag_384:\n        /* \"#utility.yul\":5734:5846   */\n    tag_383:\n        /* \"#utility.yul\":5855:5909   */\n      tag_385\n        /* \"#utility.yul\":5902:5908   */\n      dup5\n        /* \"#utility.yul\":5897:5900   */\n      dup3\n        /* \"#utility.yul\":5892:5895   */\n      dup6\n        /* \"#utility.yul\":5855:5909   */\n      tag_283\n      jump\t// in\n    tag_385:\n        /* \"#utility.yul\":5574:5915   */\n      pop\n        /* \"#utility.yul\":5490:5915   */\n      swap4\n      swap3\n      pop\n      pop\n      pop\n      jump\t// out\n        /* \"#utility.yul\":5935:6275   */\n    tag_285:\n        /* \"#utility.yul\":5991:5996   */\n      0x00\n        /* \"#utility.yul\":6040:6043   */\n      dup3\n        /* \"#utility.yul\":6033:6037   */\n      0x1f\n        /* \"#utility.yul\":6025:6031   */\n      dup4\n        /* \"#utility.yul\":6021:6038   */\n      add\n        /* \"#utility.yul\":6017:6044   */\n      slt\n        /* \"#utility.yul\":6007:6129   */\n      tag_387\n      jumpi\n        /* \"#utility.yul\":6048:6127   */\n      tag_388\n      tag_277\n      jump\t// in\n    tag_388:\n        /* \"#utility.yul\":6007:6129   */\n    tag_387:\n        /* \"#utility.yul\":6165:6171   */\n      dup2\n        /* \"#utility.yul\":6152:6172   */\n      calldataload\n        /* \"#utility.yul\":6190:6269   */\n      tag_389\n        /* \"#utility.yul\":6265:6268   */\n      dup5\n        /* \"#utility.yul\":6257:6263   */\n      dup3\n        /* \"#utility.yul\":6250:6254   */\n      0x20\n        /* \"#utility.yul\":6242:6248   */\n      dup7\n        /* \"#utility.yul\":6238:6255   */\n      add\n        /* \"#utility.yul\":6190:6269   */\n      tag_284\n      jump\t// in\n    tag_389:\n        /* \"#utility.yul\":6181:6269   */\n      swap2\n      pop\n        /* \"#utility.yul\":5997:6275   */\n      pop\n        /* \"#utility.yul\":5935:6275   */\n      swap3\n      swap2\n      pop\n      pop\n      jump\t// out\n        /* \"#utility.yul\":6281:8350   */\n    tag_19:\n        /* \"#utility.yul\":6443:6449   */\n      0x00\n        /* \"#utility.yul\":6451:6457   */\n      dup1\n        /* \"#utility.yul\":6459:6465   */\n      0x00\n        /* \"#utility.yul\":6467:6473   */\n      dup1\n        /* \"#utility.yul\":6475:6481   */\n      0x00\n        /* \"#utility.yul\":6483:6489   */\n      dup1\n        /* \"#utility.yul\":6491:6497   */\n      0x00\n        /* \"#utility.yul\":6499:6505   */\n      dup1\n        /* \"#utility.yul\":6548:6551   */\n      0x0100\n        /* \"#utility.yul\":6536:6545   */\n      dup10\n        /* \"#utility.yul\":6527:6534   */\n      dup12\n        /* \"#utility.yul\":6523:6546   */\n      sub\n        /* \"#utility.yul\":6519:6552   */\n      slt\n        /* \"#utility.yul\":6516:6636   */\n      iszero\n      tag_391\n      jumpi\n        /* \"#utility.yul\":6555:6634   */\n      tag_392\n      tag_261\n      jump\t// in\n    tag_392:\n        /* \"#utility.yul\":6516:6636   */\n    tag_391:\n        /* \"#utility.yul\":6675:6676   */\n      0x00\n        /* \"#utility.yul\":6700:6753   */\n      tag_393\n        /* \"#utility.yul\":6745:6752   */\n      dup12\n        /* \"#utility.yul\":6736:6742   */\n      dup3\n        /* \"#utility.yul\":6725:6734   */\n      dup13\n        /* \"#utility.yul\":6721:6743   */\n      add\n        /* \"#utility.yul\":6700:6753   */\n      tag_276\n      jump\t// in\n    tag_393:\n        /* \"#utility.yul\":6690:6753   */\n      swap9\n      pop\n        /* \"#utility.yul\":6646:6763   */\n      pop\n        /* \"#utility.yul\":6830:6832   */\n      0x20\n        /* \"#utility.yul\":6819:6828   */\n      dup10\n        /* \"#utility.yul\":6815:6833   */\n      add\n        /* \"#utility.yul\":6802:6834   */\n      calldataload\n        /* \"#utility.yul\":6861:6879   */\n      0xffffffffffffffff\n        /* \"#utility.yul\":6853:6859   */\n      dup2\n        /* \"#utility.yul\":6850:6880   */\n      gt\n        /* \"#utility.yul\":6847:6964   */\n      iszero\n      tag_394\n      jumpi\n        /* \"#utility.yul\":6883:6962   */\n      tag_395\n      tag_262\n      jump\t// in\n    tag_395:\n        /* \"#utility.yul\":6847:6964   */\n    tag_394:\n        /* \"#utility.yul\":6988:7051   */\n      tag_396\n        /* \"#utility.yul\":7043:7050   */\n      dup12\n        /* \"#utility.yul\":7034:7040   */\n      dup3\n        /* \"#utility.yul\":7023:7032   */\n      dup13\n        /* \"#utility.yul\":7019:7041   */\n      add\n        /* \"#utility.yul\":6988:7051   */\n      tag_285\n      jump\t// in\n    tag_396:\n        /* \"#utility.yul\":6978:7051   */\n      swap8\n      pop\n        /* \"#utility.yul\":6773:7061   */\n      pop\n        /* \"#utility.yul\":7128:7130   */\n      0x40\n        /* \"#utility.yul\":7117:7126   */\n      dup10\n        /* \"#utility.yul\":7113:7131   */\n      add\n        /* \"#utility.yul\":7100:7132   */\n      calldataload\n        /* \"#utility.yul\":7159:7177   */\n      0xffffffffffffffff\n        /* \"#utility.yul\":7151:7157   */\n      dup2\n        /* \"#utility.yul\":7148:7178   */\n      gt\n        /* \"#utility.yul\":7145:7262   */\n      iszero\n      tag_397\n      jumpi\n        /* \"#utility.yul\":7181:7260   */\n      tag_398\n      tag_262\n      jump\t// in\n    tag_398:\n        /* \"#utility.yul\":7145:7262   */\n    tag_397:\n        /* \"#utility.yul\":7286:7349   */\n      tag_399\n        /* \"#utility.yul\":7341:7348   */\n      dup12\n        /* \"#utility.yul\":7332:7338   */\n      dup3\n        /* \"#utility.yul\":7321:7330   */\n      dup13\n        /* \"#utility.yul\":7317:7339   */\n      add\n        /* \"#utility.yul\":7286:7349   */\n      tag_285\n      jump\t// in\n    tag_399:\n        /* \"#utility.yul\":7276:7349   */\n      swap7\n      pop\n        /* \"#utility.yul\":7071:7359   */\n      pop\n        /* \"#utility.yul\":7426:7428   */\n      0x60\n        /* \"#utility.yul\":7415:7424   */\n      dup10\n        /* \"#utility.yul\":7411:7429   */\n      add\n        /* \"#utility.yul\":7398:7430   */\n      calldataload\n        /* \"#utility.yul\":7457:7475   */\n      0xffffffffffffffff\n        /* \"#utility.yul\":7449:7455   */\n      dup2\n        /* \"#utility.yul\":7446:7476   */\n      gt\n        /* \"#utility.yul\":7443:7560   */\n      iszero\n      tag_400\n      jumpi\n        /* \"#utility.yul\":7479:7558   */\n      tag_401\n      tag_262\n      jump\t// in\n    tag_401:\n        /* \"#utility.yul\":7443:7560   */\n    tag_400:\n        /* \"#utility.yul\":7584:7647   */\n      tag_402\n        /* \"#utility.yul\":7639:7646   */\n      dup12\n        /* \"#utility.yul\":7630:7636   */\n      dup3\n        /* \"#utility.yul\":7619:7628   */\n      dup13\n        /* \"#utility.yul\":7615:7637   */\n      add\n        /* \"#utility.yul\":7584:7647   */\n      tag_285\n      jump\t// in\n    tag_402:\n        /* \"#utility.yul\":7574:7647   */\n      swap6\n      pop\n        /* \"#utility.yul\":7369:7657   */\n      pop\n        /* \"#utility.yul\":7724:7727   */\n      0x80\n        /* \"#utility.yul\":7713:7722   */\n      dup10\n        /* \"#utility.yul\":7709:7728   */\n      add\n        /* \"#utility.yul\":7696:7729   */\n      calldataload\n        /* \"#utility.yul\":7756:7774   */\n      0xffffffffffffffff\n        /* \"#utility.yul\":7748:7754   */\n      dup2\n        /* \"#utility.yul\":7745:7775   */\n      gt\n        /* \"#utility.yul\":7742:7859   */\n      iszero\n      tag_403\n      jumpi\n        /* \"#utility.yul\":7778:7857   */\n      tag_404\n      tag_262\n      jump\t// in\n    tag_404:\n        /* \"#utility.yul\":7742:7859   */\n    tag_403:\n        /* \"#utility.yul\":7883:7946   */\n      tag_405\n        /* \"#utility.yul\":7938:7945   */\n      dup12\n        /* \"#utility.yul\":7929:7935   */\n      dup3\n        /* \"#utility.yul\":7918:7927   */\n      dup13\n        /* \"#utility.yul\":7914:7936   */\n      add\n        /* \"#utility.yul\":7883:7946   */\n      tag_285\n      jump\t// in\n    tag_405:\n        /* \"#utility.yul\":7873:7946   */\n      swap5\n      pop\n        /* \"#utility.yul\":7667:7956   */\n      pop\n        /* \"#utility.yul\":7995:7998   */\n      0xa0\n        /* \"#utility.yul\":8022:8075   */\n      tag_406\n        /* \"#utility.yul\":8067:8074   */\n      dup12\n        /* \"#utility.yul\":8058:8064   */\n      dup3\n        /* \"#utility.yul\":8047:8056   */\n      dup13\n        /* \"#utility.yul\":8043:8065   */\n      add\n        /* \"#utility.yul\":8022:8075   */\n      tag_265\n      jump\t// in\n    tag_406:\n        /* \"#utility.yul\":8012:8075   */\n      swap4\n      pop\n        /* \"#utility.yul\":7966:8085   */\n      pop\n        /* \"#utility.yul\":8124:8127   */\n      0xc0\n        /* \"#utility.yul\":8151:8204   */\n      tag_407\n        /* \"#utility.yul\":8196:8203   */\n      dup12\n        /* \"#utility.yul\":8187:8193   */\n      dup3\n        /* \"#utility.yul\":8176:8185   */\n      dup13\n        /* \"#utility.yul\":8172:8194   */\n      add\n        /* \"#utility.yul\":8151:8204   */\n      tag_265\n      jump\t// in\n    tag_407:\n        /* \"#utility.yul\":8141:8204   */\n      swap3\n      pop\n        /* \"#utility.yul\":8095:8214   */\n      pop\n        /* \"#utility.yul\":8253:8256   */\n      0xe0\n        /* \"#utility.yul\":8280:8333   */\n      tag_408\n        /* \"#utility.yul\":8325:8332   */\n      dup12\n        /* \"#utility.yul\":8316:8322   */\n      dup3\n        /* \"#utility.yul\":8305:8314   */\n      dup13\n        /* \"#utility.yul\":8301:8323   */\n      add\n        /* \"#utility.yul\":8280:8333   */\n      tag_276\n      jump\t// in\n    tag_408:\n        /* \"#utility.yul\":8270:8333   */\n      swap2\n      pop\n        /* \"#utility.yul\":8224:8343   */\n      pop\n        /* \"#utility.yul\":6281:8350   */\n      swap3\n      swap6\n      swap9\n      pop\n      swap3\n      swap6\n      swap9\n      swap1\n      swap4\n      swap7\n      pop\n      jump\t// out\n        /* \"#utility.yul\":8356:8578   */\n    tag_24:\n        /* \"#utility.yul\":8449:8453   */\n      0x00\n        /* \"#utility.yul\":8487:8489   */\n      0x20\n        /* \"#utility.yul\":8476:8485   */\n      dup3\n        /* \"#utility.yul\":8472:8490   */\n      add\n        /* \"#utility.yul\":8464:8490   */\n      swap1\n      pop\n        /* \"#utility.yul\":8500:8571   */\n      tag_410\n        /* \"#utility.yul\":8568:8569   */\n      0x00\n        /* \"#utility.yul\":8557:8566   */\n      dup4\n        /* \"#utility.yul\":8553:8570   */\n      add\n        /* \"#utility.yul\":8544:8550   */\n      dup5\n        /* \"#utility.yul\":8500:8571   */\n      tag_268\n      jump\t// in\n    tag_410:\n        /* \"#utility.yul\":8356:8578   */\n      swap3\n      swap2\n      pop\n      pop\n      jump\t// out\n        /* \"#utility.yul\":8584:11305   */\n    tag_27:\n        /* \"#utility.yul\":8784:8790   */\n      0x00\n        /* \"#utility.yul\":8792:8798   */\n      dup1\n        /* \"#utility.yul\":8800:8806   */\n      0x00\n        /* \"#utility.yul\":8808:8814   */\n      dup1\n        /* \"#utility.yul\":8816:8822   */\n      0x00\n        /* \"#utility.yul\":8824:8830   */\n      dup1\n        /* \"#utility.yul\":8832:8838   */\n      0x00\n        /* \"#utility.yul\":8840:8846   */\n      dup1\n        /* \"#utility.yul\":8848:8854   */\n      0x00\n        /* \"#utility.yul\":8856:8862   */\n      dup1\n        /* \"#utility.yul\":8905:8908   */\n      0x0140\n        /* \"#utility.yul\":8893:8902   */\n      dup12\n        /* \"#utility.yul\":8884:8891   */\n      dup14\n        /* \"#utility.yul\":8880:8903   */\n      sub\n        /* \"#utility.yul\":8876:8909   */\n      slt\n        /* \"#utility.yul\":8873:8993   */\n      iszero\n      tag_412\n      jumpi\n        /* \"#utility.yul\":8912:8991   */\n      tag_413\n      tag_261\n      jump\t// in\n    tag_413:\n        /* \"#utility.yul\":8873:8993   */\n    tag_412:\n        /* \"#utility.yul\":9032:9033   */\n      0x00\n        /* \"#utility.yul\":9057:9110   */\n      tag_414\n        /* \"#utility.yul\":9102:9109   */\n      dup14\n        /* \"#utility.yul\":9093:9099   */\n      dup3\n        /* \"#utility.yul\":9082:9091   */\n      dup15\n        /* \"#utility.yul\":9078:9100   */\n      add\n        /* \"#utility.yul\":9057:9110   */\n      tag_276\n      jump\t// in\n    tag_414:\n        /* \"#utility.yul\":9047:9110   */\n      swap11\n      pop\n        /* \"#utility.yul\":9003:9120   */\n      pop\n        /* \"#utility.yul\":9187:9189   */\n      0x20\n        /* \"#utility.yul\":9176:9185   */\n      dup12\n        /* \"#utility.yul\":9172:9190   */\n      add\n        /* \"#utility.yul\":9159:9191   */\n      calldataload\n        /* \"#utility.yul\":9218:9236   */\n      0xffffffffffffffff\n        /* \"#utility.yul\":9210:9216   */\n      dup2\n        /* \"#utility.yul\":9207:9237   */\n      gt\n        /* \"#utility.yul\":9204:9321   */\n      iszero\n      tag_415\n      jumpi\n        /* \"#utility.yul\":9240:9319   */\n      tag_416\n      tag_262\n      jump\t// in\n    tag_416:\n        /* \"#utility.yul\":9204:9321   */\n    tag_415:\n        /* \"#utility.yul\":9345:9408   */\n      tag_417\n        /* \"#utility.yul\":9400:9407   */\n      dup14\n        /* \"#utility.yul\":9391:9397   */\n      dup3\n        /* \"#utility.yul\":9380:9389   */\n      dup15\n        /* \"#utility.yul\":9376:9398   */\n      add\n        /* \"#utility.yul\":9345:9408   */\n      tag_285\n      jump\t// in\n    tag_417:\n        /* \"#utility.yul\":9335:9408   */\n      swap10\n      pop\n        /* \"#utility.yul\":9130:9418   */\n      pop\n        /* \"#utility.yul\":9485:9487   */\n      0x40\n        /* \"#utility.yul\":9474:9483   */\n      dup12\n        /* \"#utility.yul\":9470:9488   */\n      add\n        /* \"#utility.yul\":9457:9489   */\n      calldataload\n        /* \"#utility.yul\":9516:9534   */\n      0xffffffffffffffff\n        /* \"#utility.yul\":9508:9514   */\n      dup2\n        /* \"#utility.yul\":9505:9535   */\n      gt\n        /* \"#utility.yul\":9502:9619   */\n      iszero\n      tag_418\n      jumpi\n        /* \"#utility.yul\":9538:9617   */\n      tag_419\n      tag_262\n      jump\t// in\n    tag_419:\n        /* \"#utility.yul\":9502:9619   */\n    tag_418:\n        /* \"#utility.yul\":9643:9706   */\n      tag_420\n        /* \"#utility.yul\":9698:9705   */\n      dup14\n        /* \"#utility.yul\":9689:9695   */\n      dup3\n        /* \"#utility.yul\":9678:9687   */\n      dup15\n        /* \"#utility.yul\":9674:9696   */\n      add\n        /* \"#utility.yul\":9643:9706   */\n      tag_285\n      jump\t// in\n    tag_420:\n        /* \"#utility.yul\":9633:9706   */\n      swap9\n      pop\n        /* \"#utility.yul\":9428:9716   */\n      pop\n        /* \"#utility.yul\":9783:9785   */\n      0x60\n        /* \"#utility.yul\":9772:9781   */\n      dup12\n        /* \"#utility.yul\":9768:9786   */\n      add\n        /* \"#utility.yul\":9755:9787   */\n      calldataload\n        /* \"#utility.yul\":9814:9832   */\n      0xffffffffffffffff\n        /* \"#utility.yul\":9806:9812   */\n      dup2\n        /* \"#utility.yul\":9803:9833   */\n      gt\n        /* \"#utility.yul\":9800:9917   */\n      iszero\n      tag_421\n      jumpi\n        /* \"#utility.yul\":9836:9915   */\n      tag_422\n      tag_262\n      jump\t// in\n    tag_422:\n        /* \"#utility.yul\":9800:9917   */\n    tag_421:\n        /* \"#utility.yul\":9941:10004   */\n      tag_423\n        /* \"#utility.yul\":9996:10003   */\n      dup14\n        /* \"#utility.yul\":9987:9993   */\n      dup3\n        /* \"#utility.yul\":9976:9985   */\n      dup15\n        /* \"#utility.yul\":9972:9994   */\n      add\n        /* \"#utility.yul\":9941:10004   */\n      tag_285\n      jump\t// in\n    tag_423:\n        /* \"#utility.yul\":9931:10004   */\n      swap8\n      pop\n        /* \"#utility.yul\":9726:10014   */\n      pop\n        /* \"#utility.yul\":10081:10084   */\n      0x80\n        /* \"#utility.yul\":10070:10079   */\n      dup12\n        /* \"#utility.yul\":10066:10085   */\n      add\n        /* \"#utility.yul\":10053:10086   */\n      calldataload\n        /* \"#utility.yul\":10113:10131   */\n      0xffffffffffffffff\n        /* \"#utility.yul\":10105:10111   */\n      dup2\n        /* \"#utility.yul\":10102:10132   */\n      gt\n        /* \"#utility.yul\":10099:10216   */\n      iszero\n      tag_424\n      jumpi\n        /* \"#utility.yul\":10135:10214   */\n      tag_425\n      tag_262\n      jump\t// in\n    tag_425:\n        /* \"#utility.yul\":10099:10216   */\n    tag_424:\n        /* \"#utility.yul\":10240:10303   */\n      tag_426\n        /* \"#utility.yul\":10295:10302   */\n      dup14\n        /* \"#utility.yul\":10286:10292   */\n      dup3\n        /* \"#utility.yul\":10275:10284   */\n      dup15\n        /* \"#utility.yul\":10271:10293   */\n      add\n        /* \"#utility.yul\":10240:10303   */\n      tag_285\n      jump\t// in\n    tag_426:\n        /* \"#utility.yul\":10230:10303   */\n      swap7\n      pop\n        /* \"#utility.yul\":10024:10313   */\n      pop\n        /* \"#utility.yul\":10352:10355   */\n      0xa0\n        /* \"#utility.yul\":10379:10432   */\n      tag_427\n        /* \"#utility.yul\":10424:10431   */\n      dup14\n        /* \"#utility.yul\":10415:10421   */\n      dup3\n        /* \"#utility.yul\":10404:10413   */\n      dup15\n        /* \"#utility.yul\":10400:10422   */\n      add\n        /* \"#utility.yul\":10379:10432   */\n      tag_265\n      jump\t// in\n    tag_427:\n        /* \"#utility.yul\":10369:10432   */\n      swap6\n      pop\n        /* \"#utility.yul\":10323:10442   */\n      pop\n        /* \"#utility.yul\":10481:10484   */\n      0xc0\n        /* \"#utility.yul\":10508:10561   */\n      tag_428\n        /* \"#utility.yul\":10553:10560   */\n      dup14\n        /* \"#utility.yul\":10544:10550   */\n      dup3\n        /* \"#utility.yul\":10533:10542   */\n      dup15\n        /* \"#utility.yul\":10529:10551   */\n      add\n        /* \"#utility.yul\":10508:10561   */\n      tag_265\n      jump\t// in\n    tag_428:\n        /* \"#utility.yul\":10498:10561   */\n      swap5\n      pop\n        /* \"#utility.yul\":10452:10571   */\n      pop\n        /* \"#utility.yul\":10610:10613   */\n      0xe0\n        /* \"#utility.yul\":10637:10690   */\n      tag_429\n        /* \"#utility.yul\":10682:10689   */\n      dup14\n        /* \"#utility.yul\":10673:10679   */\n      dup3\n        /* \"#utility.yul\":10662:10671   */\n      dup15\n        /* \"#utility.yul\":10658:10680   */\n      add\n        /* \"#utility.yul\":10637:10690   */\n      tag_276\n      jump\t// in\n    tag_429:\n        /* \"#utility.yul\":10627:10690   */\n      swap4\n      pop\n        /* \"#utility.yul\":10581:10700   */\n      pop\n        /* \"#utility.yul\":10767:10770   */\n      0x0100\n        /* \"#utility.yul\":10756:10765   */\n      dup12\n        /* \"#utility.yul\":10752:10771   */\n      add\n        /* \"#utility.yul\":10739:10772   */\n      calldataload\n        /* \"#utility.yul\":10799:10817   */\n      0xffffffffffffffff\n        /* \"#utility.yul\":10791:10797   */\n      dup2\n        /* \"#utility.yul\":10788:10818   */\n      gt\n        /* \"#utility.yul\":10785:10902   */\n      iszero\n      tag_430\n      jumpi\n        /* \"#utility.yul\":10821:10900   */\n      tag_431\n      tag_262\n      jump\t// in\n    tag_431:\n        /* \"#utility.yul\":10785:10902   */\n    tag_430:\n        /* \"#utility.yul\":10926:10989   */\n      tag_432\n        /* \"#utility.yul\":10981:10988   */\n      dup14\n        /* \"#utility.yul\":10972:10978   */\n      dup3\n        /* \"#utility.yul\":10961:10970   */\n      dup15\n        /* \"#utility.yul\":10957:10979   */\n      add\n        /* \"#utility.yul\":10926:10989   */\n      tag_285\n      jump\t// in\n    tag_432:\n        /* \"#utility.yul\":10916:10989   */\n      swap3\n      pop\n        /* \"#utility.yul\":10710:10999   */\n      pop\n        /* \"#utility.yul\":11066:11069   */\n      0x0120\n        /* \"#utility.yul\":11055:11064   */\n      dup12\n        /* \"#utility.yul\":11051:11070   */\n      add\n        /* \"#utility.yul\":11038:11071   */\n      calldataload\n        /* \"#utility.yul\":11098:11116   */\n      0xffffffffffffffff\n        /* \"#utility.yul\":11090:11096   */\n      dup2\n        /* \"#utility.yul\":11087:11117   */\n      gt\n        /* \"#utility.yul\":11084:11201   */\n      iszero\n      tag_433\n      jumpi\n        /* \"#utility.yul\":11120:11199   */\n      tag_434\n      tag_262\n      jump\t// in\n    tag_434:\n        /* \"#utility.yul\":11084:11201   */\n    tag_433:\n        /* \"#utility.yul\":11225:11288   */\n      tag_435\n        /* \"#utility.yul\":11280:11287   */\n      dup14\n        /* \"#utility.yul\":11271:11277   */\n      dup3\n        /* \"#utility.yul\":11260:11269   */\n      dup15\n        /* \"#utility.yul\":11256:11278   */\n      add\n        /* \"#utility.yul\":11225:11288   */\n      tag_285\n      jump\t// in\n    tag_435:\n        /* \"#utility.yul\":11215:11288   */\n      swap2\n      pop\n        /* \"#utility.yul\":11009:11298   */\n      pop\n        /* \"#utility.yul\":8584:11305   */\n      swap3\n      swap6\n      swap9\n      swap12\n      swap2\n      swap5\n      swap8\n      swap11\n      pop\n      swap3\n      swap6\n      swap9\n      pop\n      jump\t// out\n        /* \"#utility.yul\":11311:11419   */\n    tag_286:\n        /* \"#utility.yul\":11388:11412   */\n      tag_437\n        /* \"#utility.yul\":11406:11411   */\n      dup2\n        /* \"#utility.yul\":11388:11412   */\n      tag_267\n      jump\t// in\n    tag_437:\n        /* \"#utility.yul\":11383:11386   */\n      dup3\n        /* \"#utility.yul\":11376:11413   */\n      mstore\n        /* \"#utility.yul\":11311:11419   */\n      pop\n      pop\n      jump\t// out\n        /* \"#utility.yul\":11425:11584   */\n    tag_287:\n        /* \"#utility.yul\":11499:11510   */\n      0x00\n        /* \"#utility.yul\":11533:11539   */\n      dup3\n        /* \"#utility.yul\":11528:11531   */\n      dup3\n        /* \"#utility.yul\":11521:11540   */\n      mstore\n        /* \"#utility.yul\":11573:11577   */\n      0x20\n        /* \"#utility.yul\":11568:11571   */\n      dup3\n        /* \"#utility.yul\":11564:11578   */\n      add\n        /* \"#utility.yul\":11549:11578   */\n      swap1\n      pop\n        /* \"#utility.yul\":11425:11584   */\n      swap3\n      swap2\n      pop\n      pop\n      jump\t// out\n        /* \"#utility.yul\":11590:11947   */\n    tag_288:\n        /* \"#utility.yul\":11668:11671   */\n      0x00\n        /* \"#utility.yul\":11696:11735   */\n      tag_440\n        /* \"#utility.yul\":11729:11734   */\n      dup3\n        /* \"#utility.yul\":11696:11735   */\n      tag_269\n      jump\t// in\n    tag_440:\n        /* \"#utility.yul\":11751:11812   */\n      tag_441\n        /* \"#utility.yul\":11805:11811   */\n      dup2\n        /* \"#utility.yul\":11800:11803   */\n      dup6\n        /* \"#utility.yul\":11751:11812   */\n      tag_287\n      jump\t// in\n    tag_441:\n        /* \"#utility.yul\":11744:11812   */\n      swap4\n      pop\n        /* \"#utility.yul\":11821:11886   */\n      tag_442\n        /* \"#utility.yul\":11879:11885   */\n      dup2\n        /* \"#utility.yul\":11874:11877   */\n      dup6\n        /* \"#utility.yul\":11867:11871   */\n      0x20\n        /* \"#utility.yul\":11860:11865   */\n      dup7\n        /* \"#utility.yul\":11856:11872   */\n      add\n        /* \"#utility.yul\":11821:11886   */\n      tag_271\n      jump\t// in\n    tag_442:\n        /* \"#utility.yul\":11911:11940   */\n      tag_443\n        /* \"#utility.yul\":11933:11939   */\n      dup2\n        /* \"#utility.yul\":11911:11940   */\n      tag_272\n      jump\t// in\n    tag_443:\n        /* \"#utility.yul\":11906:11909   */\n      dup5\n        /* \"#utility.yul\":11902:11941   */\n      add\n        /* \"#utility.yul\":11895:11941   */\n      swap2\n      pop\n        /* \"#utility.yul\":11672:11947   */\n      pop\n        /* \"#utility.yul\":11590:11947   */\n      swap3\n      swap2\n      pop\n      pop\n      jump\t// out\n        /* \"#utility.yul\":11953:12061   */\n    tag_289:\n        /* \"#utility.yul\":12030:12054   */\n      tag_445\n        /* \"#utility.yul\":12048:12053   */\n      dup2\n        /* \"#utility.yul\":12030:12054   */\n      tag_263\n      jump\t// in\n    tag_445:\n        /* \"#utility.yul\":12025:12028   */\n      dup3\n        /* \"#utility.yul\":12018:12055   */\n      mstore\n        /* \"#utility.yul\":11953:12061   */\n      pop\n      pop\n      jump\t// out\n        /* \"#utility.yul\":12107:13981   */\n    tag_290:\n        /* \"#utility.yul\":12222:12225   */\n      0x00\n        /* \"#utility.yul\":12258:12264   */\n      0x0100\n        /* \"#utility.yul\":12253:12256   */\n      dup4\n        /* \"#utility.yul\":12249:12265   */\n      add\n        /* \"#utility.yul\":12349:12353   */\n      0x00\n        /* \"#utility.yul\":12342:12347   */\n      dup4\n        /* \"#utility.yul\":12338:12354   */\n      add\n        /* \"#utility.yul\":12332:12355   */\n      mload\n        /* \"#utility.yul\":12368:12431   */\n      tag_447\n        /* \"#utility.yul\":12425:12429   */\n      0x00\n        /* \"#utility.yul\":12420:12423   */\n      dup7\n        /* \"#utility.yul\":12416:12430   */\n      add\n        /* \"#utility.yul\":12402:12414   */\n      dup3\n        /* \"#utility.yul\":12368:12431   */\n      tag_286\n      jump\t// in\n    tag_447:\n        /* \"#utility.yul\":12275:12441   */\n      pop\n        /* \"#utility.yul\":12524:12528   */\n      0x20\n        /* \"#utility.yul\":12517:12522   */\n      dup4\n        /* \"#utility.yul\":12513:12529   */\n      add\n        /* \"#utility.yul\":12507:12530   */\n      mload\n        /* \"#utility.yul\":12577:12580   */\n      dup5\n        /* \"#utility.yul\":12571:12575   */\n      dup3\n        /* \"#utility.yul\":12567:12581   */\n      sub\n        /* \"#utility.yul\":12560:12564   */\n      0x20\n        /* \"#utility.yul\":12555:12558   */\n      dup7\n        /* \"#utility.yul\":12551:12565   */\n      add\n        /* \"#utility.yul\":12544:12582   */\n      mstore\n        /* \"#utility.yul\":12603:12676   */\n      tag_448\n        /* \"#utility.yul\":12671:12675   */\n      dup3\n        /* \"#utility.yul\":12657:12669   */\n      dup3\n        /* \"#utility.yul\":12603:12676   */\n      tag_288\n      jump\t// in\n    tag_448:\n        /* \"#utility.yul\":12595:12676   */\n      swap2\n      pop\n        /* \"#utility.yul\":12451:12687   */\n      pop\n        /* \"#utility.yul\":12769:12773   */\n      0x40\n        /* \"#utility.yul\":12762:12767   */\n      dup4\n        /* \"#utility.yul\":12758:12774   */\n      add\n        /* \"#utility.yul\":12752:12775   */\n      mload\n        /* \"#utility.yul\":12822:12825   */\n      dup5\n        /* \"#utility.yul\":12816:12820   */\n      dup3\n        /* \"#utility.yul\":12812:12826   */\n      sub\n        /* \"#utility.yul\":12805:12809   */\n      0x40\n        /* \"#utility.yul\":12800:12803   */\n      dup7\n        /* \"#utility.yul\":12796:12810   */\n      add\n        /* \"#utility.yul\":12789:12827   */\n      mstore\n        /* \"#utility.yul\":12848:12921   */\n      tag_449\n        /* \"#utility.yul\":12916:12920   */\n      dup3\n        /* \"#utility.yul\":12902:12914   */\n      dup3\n        /* \"#utility.yul\":12848:12921   */\n      tag_288\n      jump\t// in\n    tag_449:\n        /* \"#utility.yul\":12840:12921   */\n      swap2\n      pop\n        /* \"#utility.yul\":12697:12932   */\n      pop\n        /* \"#utility.yul\":13017:13021   */\n      0x60\n        /* \"#utility.yul\":13010:13015   */\n      dup4\n        /* \"#utility.yul\":13006:13022   */\n      add\n        /* \"#utility.yul\":13000:13023   */\n      mload\n        /* \"#utility.yul\":13070:13073   */\n      dup5\n        /* \"#utility.yul\":13064:13068   */\n      dup3\n        /* \"#utility.yul\":13060:13074   */\n      sub\n        /* \"#utility.yul\":13053:13057   */\n      0x60\n        /* \"#utility.yul\":13048:13051   */\n      dup7\n        /* \"#utility.yul\":13044:13058   */\n      add\n        /* \"#utility.yul\":13037:13075   */\n      mstore\n        /* \"#utility.yul\":13096:13169   */\n      tag_450\n        /* \"#utility.yul\":13164:13168   */\n      dup3\n        /* \"#utility.yul\":13150:13162   */\n      dup3\n        /* \"#utility.yul\":13096:13169   */\n      tag_288\n      jump\t// in\n    tag_450:\n        /* \"#utility.yul\":13088:13169   */\n      swap2\n      pop\n        /* \"#utility.yul\":12942:13180   */\n      pop\n        /* \"#utility.yul\":13263:13267   */\n      0x80\n        /* \"#utility.yul\":13256:13261   */\n      dup4\n        /* \"#utility.yul\":13252:13268   */\n      add\n        /* \"#utility.yul\":13246:13269   */\n      mload\n        /* \"#utility.yul\":13316:13319   */\n      dup5\n        /* \"#utility.yul\":13310:13314   */\n      dup3\n        /* \"#utility.yul\":13306:13320   */\n      sub\n        /* \"#utility.yul\":13299:13303   */\n      0x80\n        /* \"#utility.yul\":13294:13297   */\n      dup7\n        /* \"#utility.yul\":13290:13304   */\n      add\n        /* \"#utility.yul\":13283:13321   */\n      mstore\n        /* \"#utility.yul\":13342:13415   */\n      tag_451\n        /* \"#utility.yul\":13410:13414   */\n      dup3\n        /* \"#utility.yul\":13396:13408   */\n      dup3\n        /* \"#utility.yul\":13342:13415   */\n      tag_288\n      jump\t// in\n    tag_451:\n        /* \"#utility.yul\":13334:13415   */\n      swap2\n      pop\n        /* \"#utility.yul\":13190:13426   */\n      pop\n        /* \"#utility.yul\":13510:13514   */\n      0xa0\n        /* \"#utility.yul\":13503:13508   */\n      dup4\n        /* \"#utility.yul\":13499:13515   */\n      add\n        /* \"#utility.yul\":13493:13516   */\n      mload\n        /* \"#utility.yul\":13529:13592   */\n      tag_452\n        /* \"#utility.yul\":13586:13590   */\n      0xa0\n        /* \"#utility.yul\":13581:13584   */\n      dup7\n        /* \"#utility.yul\":13577:13591   */\n      add\n        /* \"#utility.yul\":13563:13575   */\n      dup3\n        /* \"#utility.yul\":13529:13592   */\n      tag_289\n      jump\t// in\n    tag_452:\n        /* \"#utility.yul\":13436:13602   */\n      pop\n        /* \"#utility.yul\":13687:13691   */\n      0xc0\n        /* \"#utility.yul\":13680:13685   */\n      dup4\n        /* \"#utility.yul\":13676:13692   */\n      add\n        /* \"#utility.yul\":13670:13693   */\n      mload\n        /* \"#utility.yul\":13706:13769   */\n      tag_453\n        /* \"#utility.yul\":13763:13767   */\n      0xc0\n        /* \"#utility.yul\":13758:13761   */\n      dup7\n        /* \"#utility.yul\":13754:13768   */\n      add\n        /* \"#utility.yul\":13740:13752   */\n      dup3\n        /* \"#utility.yul\":13706:13769   */\n      tag_289\n      jump\t// in\n    tag_453:\n        /* \"#utility.yul\":13612:13779   */\n      pop\n        /* \"#utility.yul\":13862:13866   */\n      0xe0\n        /* \"#utility.yul\":13855:13860   */\n      dup4\n        /* \"#utility.yul\":13851:13867   */\n      add\n        /* \"#utility.yul\":13845:13868   */\n      mload\n        /* \"#utility.yul\":13881:13944   */\n      tag_454\n        /* \"#utility.yul\":13938:13942   */\n      0xe0\n        /* \"#utility.yul\":13933:13936   */\n      dup7\n        /* \"#utility.yul\":13929:13943   */\n      add\n        /* \"#utility.yul\":13915:13927   */\n      dup3\n        /* \"#utility.yul\":13881:13944   */\n      tag_286\n      jump\t// in\n    tag_454:\n        /* \"#utility.yul\":13789:13954   */\n      pop\n        /* \"#utility.yul\":13971:13975   */\n      dup1\n        /* \"#utility.yul\":13964:13975   */\n      swap2\n      pop\n        /* \"#utility.yul\":12227:13981   */\n      pop\n        /* \"#utility.yul\":12107:13981   */\n      swap3\n      swap2\n      pop\n      pop\n      jump\t// out\n        /* \"#utility.yul\":13987:14754   */\n    tag_33:\n        /* \"#utility.yul\":14222:14226   */\n      0x00\n        /* \"#utility.yul\":14260:14262   */\n      0x60\n        /* \"#utility.yul\":14249:14258   */\n      dup3\n        /* \"#utility.yul\":14245:14263   */\n      add\n        /* \"#utility.yul\":14237:14263   */\n      swap1\n      pop\n        /* \"#utility.yul\":14309:14318   */\n      dup2\n        /* \"#utility.yul\":14303:14307   */\n      dup2\n        /* \"#utility.yul\":14299:14319   */\n      sub\n        /* \"#utility.yul\":14295:14296   */\n      0x00\n        /* \"#utility.yul\":14284:14293   */\n      dup4\n        /* \"#utility.yul\":14280:14297   */\n      add\n        /* \"#utility.yul\":14273:14320   */\n      mstore\n        /* \"#utility.yul\":14337:14441   */\n      tag_456\n        /* \"#utility.yul\":14436:14440   */\n      dup2\n        /* \"#utility.yul\":14427:14433   */\n      dup7\n        /* \"#utility.yul\":14337:14441   */\n      tag_290\n      jump\t// in\n    tag_456:\n        /* \"#utility.yul\":14329:14441   */\n      swap1\n      pop\n        /* \"#utility.yul\":14488:14497   */\n      dup2\n        /* \"#utility.yul\":14482:14486   */\n      dup2\n        /* \"#utility.yul\":14478:14498   */\n      sub\n        /* \"#utility.yul\":14473:14475   */\n      0x20\n        /* \"#utility.yul\":14462:14471   */\n      dup4\n        /* \"#utility.yul\":14458:14476   */\n      add\n        /* \"#utility.yul\":14451:14499   */\n      mstore\n        /* \"#utility.yul\":14516:14594   */\n      tag_457\n        /* \"#utility.yul\":14589:14593   */\n      dup2\n        /* \"#utility.yul\":14580:14586   */\n      dup6\n        /* \"#utility.yul\":14516:14594   */\n      tag_273\n      jump\t// in\n    tag_457:\n        /* \"#utility.yul\":14508:14594   */\n      swap1\n      pop\n        /* \"#utility.yul\":14641:14650   */\n      dup2\n        /* \"#utility.yul\":14635:14639   */\n      dup2\n        /* \"#utility.yul\":14631:14651   */\n      sub\n        /* \"#utility.yul\":14626:14628   */\n      0x40\n        /* \"#utility.yul\":14615:14624   */\n      dup4\n        /* \"#utility.yul\":14611:14629   */\n      add\n        /* \"#utility.yul\":14604:14652   */\n      mstore\n        /* \"#utility.yul\":14669:14747   */\n      tag_458\n        /* \"#utility.yul\":14742:14746   */\n      dup2\n        /* \"#utility.yul\":14733:14739   */\n      dup5\n        /* \"#utility.yul\":14669:14747   */\n      tag_273\n      jump\t// in\n    tag_458:\n        /* \"#utility.yul\":14661:14747   */\n      swap1\n      pop\n        /* \"#utility.yul\":13987:14754   */\n      swap5\n      swap4\n      pop\n      pop\n      pop\n      pop\n      jump\t// out\n        /* \"#utility.yul\":14760:14982   */\n    tag_40:\n        /* \"#utility.yul\":14853:14857   */\n      0x00\n        /* \"#utility.yul\":14891:14893   */\n      0x20\n        /* \"#utility.yul\":14880:14889   */\n      dup3\n        /* \"#utility.yul\":14876:14894   */\n      add\n        /* \"#utility.yul\":14868:14894   */\n      swap1\n      pop\n        /* \"#utility.yul\":14904:14975   */\n      tag_460\n        /* \"#utility.yul\":14972:14973   */\n      0x00\n        /* \"#utility.yul\":14961:14970   */\n      dup4\n        /* \"#utility.yul\":14957:14974   */\n      add\n        /* \"#utility.yul\":14948:14954   */\n      dup5\n        /* \"#utility.yul\":14904:14975   */\n      tag_274\n      jump\t// in\n    tag_460:\n        /* \"#utility.yul\":14760:14982   */\n      swap3\n      swap2\n      pop\n      pop\n      jump\t// out\n        /* \"#utility.yul\":14988:15168   */\n    tag_291:\n        /* \"#utility.yul\":15036:15113   */\n      0x4e487b7100000000000000000000000000000000000000000000000000000000\n        /* \"#utility.yul\":15033:15034   */\n      0x00\n        /* \"#utility.yul\":15026:15114   */\n      mstore\n        /* \"#utility.yul\":15133:15137   */\n      0x22\n        /* \"#utility.yul\":15130:15131   */\n      0x04\n        /* \"#utility.yul\":15123:15138   */\n      mstore\n        /* \"#utility.yul\":15157:15161   */\n      0x24\n        /* \"#utility.yul\":15154:15155   */\n      0x00\n        /* \"#utility.yul\":15147:15162   */\n      revert\n        /* \"#utility.yul\":15174:15494   */\n    tag_44:\n        /* \"#utility.yul\":15218:15224   */\n      0x00\n        /* \"#utility.yul\":15255:15256   */\n      0x02\n        /* \"#utility.yul\":15249:15253   */\n      dup3\n        /* \"#utility.yul\":15245:15257   */\n      div\n        /* \"#utility.yul\":15235:15257   */\n      swap1\n      pop\n        /* \"#utility.yul\":15302:15303   */\n      0x01\n        /* \"#utility.yul\":15296:15300   */\n      dup3\n        /* \"#utility.yul\":15292:15304   */\n      and\n        /* \"#utility.yul\":15323:15341   */\n      dup1\n        /* \"#utility.yul\":15313:15394   */\n      tag_463\n      jumpi\n        /* \"#utility.yul\":15379:15383   */\n      0x7f\n        /* \"#utility.yul\":15371:15377   */\n      dup3\n        /* \"#utility.yul\":15367:15384   */\n      and\n        /* \"#utility.yul\":15357:15384   */\n      swap2\n      pop\n        /* \"#utility.yul\":15313:15394   */\n    tag_463:\n        /* \"#utility.yul\":15441:15443   */\n      0x20\n        /* \"#utility.yul\":15433:15439   */\n      dup3\n        /* \"#utility.yul\":15430:15444   */\n      lt\n        /* \"#utility.yul\":15410:15428   */\n      dup2\n        /* \"#utility.yul\":15407:15445   */\n      sub\n        /* \"#utility.yul\":15404:15488   */\n      tag_464\n      jumpi\n        /* \"#utility.yul\":15460:15478   */\n      tag_465\n      tag_291\n      jump\t// in\n    tag_465:\n        /* \"#utility.yul\":15404:15488   */\n    tag_464:\n        /* \"#utility.yul\":15225:15494   */\n      pop\n        /* \"#utility.yul\":15174:15494   */\n      swap2\n      swap1\n      pop\n      jump\t// out\n        /* \"#utility.yul\":15500:15669   */\n    tag_292:\n        /* \"#utility.yul\":15640:15661   */\n      0x4f6e6c7920636f6e7472616374206f776e657200000000000000000000000000\n        /* \"#utility.yul\":15636:15637   */\n      0x00\n        /* \"#utility.yul\":15628:15634   */\n      dup3\n        /* \"#utility.yul\":15624:15638   */\n      add\n        /* \"#utility.yul\":15617:15662   */\n      mstore\n        /* \"#utility.yul\":15500:15669   */\n      pop\n      jump\t// out\n        /* \"#utility.yul\":15675:16041   */\n    tag_293:\n        /* \"#utility.yul\":15817:15820   */\n      0x00\n        /* \"#utility.yul\":15838:15905   */\n      tag_468\n        /* \"#utility.yul\":15902:15904   */\n      0x13\n        /* \"#utility.yul\":15897:15900   */\n      dup4\n        /* \"#utility.yul\":15838:15905   */\n      tag_270\n      jump\t// in\n    tag_468:\n        /* \"#utility.yul\":15831:15905   */\n      swap2\n      pop\n        /* \"#utility.yul\":15914:16007   */\n      tag_469\n        /* \"#utility.yul\":16003:16006   */\n      dup3\n        /* \"#utility.yul\":15914:16007   */\n      tag_292\n      jump\t// in\n    tag_469:\n        /* \"#utility.yul\":16032:16034   */\n      0x20\n        /* \"#utility.yul\":16027:16030   */\n      dup3\n        /* \"#utility.yul\":16023:16035   */\n      add\n        /* \"#utility.yul\":16016:16035   */\n      swap1\n      pop\n        /* \"#utility.yul\":15675:16041   */\n      swap2\n      swap1\n      pop\n      jump\t// out\n        /* \"#utility.yul\":16047:16466   */\n    tag_67:\n        /* \"#utility.yul\":16213:16217   */\n      0x00\n        /* \"#utility.yul\":16251:16253   */\n      0x20\n        /* \"#utility.yul\":16240:16249   */\n      dup3\n        /* \"#utility.yul\":16236:16254   */\n      add\n        /* \"#utility.yul\":16228:16254   */\n      swap1\n      pop\n        /* \"#utility.yul\":16300:16309   */\n      dup2\n        /* \"#utility.yul\":16294:16298   */\n      dup2\n        /* \"#utility.yul\":16290:16310   */\n      sub\n        /* \"#utility.yul\":16286:16287   */\n      0x00\n        /* \"#utility.yul\":16275:16284   */\n      dup4\n        /* \"#utility.yul\":16271:16288   */\n      add\n        /* \"#utility.yul\":16264:16311   */\n      mstore\n        /* \"#utility.yul\":16328:16459   */\n      tag_471\n        /* \"#utility.yul\":16454:16458   */\n      dup2\n        /* \"#utility.yul\":16328:16459   */\n      tag_293\n      jump\t// in\n    tag_471:\n        /* \"#utility.yul\":16320:16459   */\n      swap1\n      pop\n        /* \"#utility.yul\":16047:16466   */\n      swap2\n      swap1\n      pop\n      jump\t// out\n        /* \"#utility.yul\":16472:16644   */\n    tag_294:\n        /* \"#utility.yul\":16612:16636   */\n      0x476563657273697a206b69726163692061647265736900000000000000000000\n        /* \"#utility.yul\":16608:16609   */\n      0x00\n        /* \"#utility.yul\":16600:16606   */\n      dup3\n        /* \"#utility.yul\":16596:16610   */\n      add\n        /* \"#utility.yul\":16589:16637   */\n      mstore\n        /* \"#utility.yul\":16472:16644   */\n      pop\n      jump\t// out\n        /* \"#utility.yul\":16650:17016   */\n    tag_295:\n        /* \"#utility.yul\":16792:16795   */\n      0x00\n        /* \"#utility.yul\":16813:16880   */\n      tag_474\n        /* \"#utility.yul\":16877:16879   */\n      0x16\n        /* \"#utility.yul\":16872:16875   */\n      dup4\n        /* \"#utility.yul\":16813:16880   */\n      tag_270\n      jump\t// in\n    tag_474:\n        /* \"#utility.yul\":16806:16880   */\n      swap2\n      pop\n        /* \"#utility.yul\":16889:16982   */\n      tag_475\n        /* \"#utility.yul\":16978:16981   */\n      dup3\n        /* \"#utility.yul\":16889:16982   */\n      tag_294\n      jump\t// in\n    tag_475:\n        /* \"#utility.yul\":17007:17009   */\n      0x20\n        /* \"#utility.yul\":17002:17005   */\n      dup3\n        /* \"#utility.yul\":16998:17010   */\n      add\n        /* \"#utility.yul\":16991:17010   */\n      swap1\n      pop\n        /* \"#utility.yul\":16650:17016   */\n      swap2\n      swap1\n      pop\n      jump\t// out\n        /* \"#utility.yul\":17022:17441   */\n    tag_70:\n        /* \"#utility.yul\":17188:17192   */\n      0x00\n        /* \"#utility.yul\":17226:17228   */\n      0x20\n        /* \"#utility.yul\":17215:17224   */\n      dup3\n        /* \"#utility.yul\":17211:17229   */\n      add\n        /* \"#utility.yul\":17203:17229   */\n      swap1\n      pop\n        /* \"#utility.yul\":17275:17284   */\n      dup2\n        /* \"#utility.yul\":17269:17273   */\n      dup2\n        /* \"#utility.yul\":17265:17285   */\n      sub\n        /* \"#utility.yul\":17261:17262   */\n      0x00\n        /* \"#utility.yul\":17250:17259   */\n      dup4\n        /* \"#utility.yul\":17246:17263   */\n      add\n        /* \"#utility.yul\":17239:17286   */\n      mstore\n        /* \"#utility.yul\":17303:17434   */\n      tag_477\n        /* \"#utility.yul\":17429:17433   */\n      dup2\n        /* \"#utility.yul\":17303:17434   */\n      tag_295\n      jump\t// in\n    tag_477:\n        /* \"#utility.yul\":17295:17434   */\n      swap1\n      pop\n        /* \"#utility.yul\":17022:17441   */\n      swap2\n      swap1\n      pop\n      jump\t// out\n        /* \"#utility.yul\":17447:17618   */\n    tag_296:\n        /* \"#utility.yul\":17587:17610   */\n      0x476563657273697a207361686970206164726573690000000000000000000000\n        /* \"#utility.yul\":17583:17584   */\n      0x00\n        /* \"#utility.yul\":17575:17581   */\n      dup3\n        /* \"#utility.yul\":17571:17585   */\n      add\n        /* \"#utility.yul\":17564:17611   */\n      mstore\n        /* \"#utility.yul\":17447:17618   */\n      pop\n      jump\t// out\n        /* \"#utility.yul\":17624:17990   */\n    tag_297:\n        /* \"#utility.yul\":17766:17769   */\n      0x00\n        /* \"#utility.yul\":17787:17854   */\n      tag_480\n        /* \"#utility.yul\":17851:17853   */\n      0x15\n        /* \"#utility.yul\":17846:17849   */\n      dup4\n        /* \"#utility.yul\":17787:17854   */\n      tag_270\n      jump\t// in\n    tag_480:\n        /* \"#utility.yul\":17780:17854   */\n      swap2\n      pop\n        /* \"#utility.yul\":17863:17956   */\n      tag_481\n        /* \"#utility.yul\":17952:17955   */\n      dup3\n        /* \"#utility.yul\":17863:17956   */\n      tag_296\n      jump\t// in\n    tag_481:\n        /* \"#utility.yul\":17981:17983   */\n      0x20\n        /* \"#utility.yul\":17976:17979   */\n      dup3\n        /* \"#utility.yul\":17972:17984   */\n      add\n        /* \"#utility.yul\":17965:17984   */\n      swap1\n      pop\n        /* \"#utility.yul\":17624:17990   */\n      swap2\n      swap1\n      pop\n      jump\t// out\n        /* \"#utility.yul\":17996:18415   */\n    tag_73:\n        /* \"#utility.yul\":18162:18166   */\n      0x00\n        /* \"#utility.yul\":18200:18202   */\n      0x20\n        /* \"#utility.yul\":18189:18198   */\n      dup3\n        /* \"#utility.yul\":18185:18203   */\n      add\n        /* \"#utility.yul\":18177:18203   */\n      swap1\n      pop\n        /* \"#utility.yul\":18249:18258   */\n      dup2\n        /* \"#utility.yul\":18243:18247   */\n      dup2\n        /* \"#utility.yul\":18239:18259   */\n      sub\n        /* \"#utility.yul\":18235:18236   */\n      0x00\n        /* \"#utility.yul\":18224:18233   */\n      dup4\n        /* \"#utility.yul\":18220:18237   */\n      add\n        /* \"#utility.yul\":18213:18260   */\n      mstore\n        /* \"#utility.yul\":18277:18408   */\n      tag_483\n        /* \"#utility.yul\":18403:18407   */\n      dup2\n        /* \"#utility.yul\":18277:18408   */\n      tag_297\n      jump\t// in\n    tag_483:\n        /* \"#utility.yul\":18269:18408   */\n      swap1\n      pop\n        /* \"#utility.yul\":17996:18415   */\n      swap2\n      swap1\n      pop\n      jump\t// out\n        /* \"#utility.yul\":18421:18601   */\n    tag_79:\n        /* \"#utility.yul\":18469:18546   */\n      0x4e487b7100000000000000000000000000000000000000000000000000000000\n        /* \"#utility.yul\":18466:18467   */\n      0x00\n        /* \"#utility.yul\":18459:18547   */\n      mstore\n        /* \"#utility.yul\":18566:18570   */\n      0x32\n        /* \"#utility.yul\":18563:18564   */\n      0x04\n        /* \"#utility.yul\":18556:18571   */\n      mstore\n        /* \"#utility.yul\":18590:18594   */\n      0x24\n        /* \"#utility.yul\":18587:18588   */\n      0x00\n        /* \"#utility.yul\":18580:18595   */\n      revert\n        /* \"#utility.yul\":18607:18755   */\n    tag_298:\n        /* \"#utility.yul\":18709:18720   */\n      0x00\n        /* \"#utility.yul\":18746:18749   */\n      dup2\n        /* \"#utility.yul\":18731:18749   */\n      swap1\n      pop\n        /* \"#utility.yul\":18607:18755   */\n      swap3\n      swap2\n      pop\n      pop\n      jump\t// out\n        /* \"#utility.yul\":18761:19151   */\n    tag_299:\n        /* \"#utility.yul\":18867:18870   */\n      0x00\n        /* \"#utility.yul\":18895:18934   */\n      tag_487\n        /* \"#utility.yul\":18928:18933   */\n      dup3\n        /* \"#utility.yul\":18895:18934   */\n      tag_269\n      jump\t// in\n    tag_487:\n        /* \"#utility.yul\":18950:19039   */\n      tag_488\n        /* \"#utility.yul\":19032:19038   */\n      dup2\n        /* \"#utility.yul\":19027:19030   */\n      dup6\n        /* \"#utility.yul\":18950:19039   */\n      tag_298\n      jump\t// in\n    tag_488:\n        /* \"#utility.yul\":18943:19039   */\n      swap4\n      pop\n        /* \"#utility.yul\":19048:19113   */\n      tag_489\n        /* \"#utility.yul\":19106:19112   */\n      dup2\n        /* \"#utility.yul\":19101:19104   */\n      dup6\n        /* \"#utility.yul\":19094:19098   */\n      0x20\n        /* \"#utility.yul\":19087:19092   */\n      dup7\n        /* \"#utility.yul\":19083:19099   */\n      add\n        /* \"#utility.yul\":19048:19113   */\n      tag_271\n      jump\t// in\n    tag_489:\n        /* \"#utility.yul\":19138:19144   */\n      dup1\n        /* \"#utility.yul\":19133:19136   */\n      dup5\n        /* \"#utility.yul\":19129:19145   */\n      add\n        /* \"#utility.yul\":19122:19145   */\n      swap2\n      pop\n        /* \"#utility.yul\":18871:19151   */\n      pop\n        /* \"#utility.yul\":18761:19151   */\n      swap3\n      swap2\n      pop\n      pop\n      jump\t// out\n        /* \"#utility.yul\":19157:19432   */\n    tag_103:\n        /* \"#utility.yul\":19289:19292   */\n      0x00\n        /* \"#utility.yul\":19311:19406   */\n      tag_491\n        /* \"#utility.yul\":19402:19405   */\n      dup3\n        /* \"#utility.yul\":19393:19399   */\n      dup5\n        /* \"#utility.yul\":19311:19406   */\n      tag_299\n      jump\t// in\n    tag_491:\n        /* \"#utility.yul\":19304:19406   */\n      swap2\n      pop\n        /* \"#utility.yul\":19423:19426   */\n      dup2\n        /* \"#utility.yul\":19416:19426   */\n      swap1\n      pop\n        /* \"#utility.yul\":19157:19432   */\n      swap3\n      swap2\n      pop\n      pop\n      jump\t// out\n        /* \"#utility.yul\":19438:19618   */\n    tag_300:\n        /* \"#utility.yul\":19486:19563   */\n      0x4e487b7100000000000000000000000000000000000000000000000000000000\n        /* \"#utility.yul\":19483:19484   */\n      0x00\n        /* \"#utility.yul\":19476:19564   */\n      mstore\n        /* \"#utility.yul\":19583:19587   */\n      0x11\n        /* \"#utility.yul\":19580:19581   */\n      0x04\n        /* \"#utility.yul\":19573:19588   */\n      mstore\n        /* \"#utility.yul\":19607:19611   */\n      0x24\n        /* \"#utility.yul\":19604:19605   */\n      0x00\n        /* \"#utility.yul\":19597:19612   */\n      revert\n        /* \"#utility.yul\":19624:19857   */\n    tag_119:\n        /* \"#utility.yul\":19663:19666   */\n      0x00\n        /* \"#utility.yul\":19686:19710   */\n      tag_494\n        /* \"#utility.yul\":19704:19709   */\n      dup3\n        /* \"#utility.yul\":19686:19710   */\n      tag_263\n      jump\t// in\n    tag_494:\n        /* \"#utility.yul\":19677:19710   */\n      swap2\n      pop\n        /* \"#utility.yul\":19732:19798   */\n      0xffffffffffffffffffffffffffffffffffffffffffffffffffffffffffffffff\n        /* \"#utility.yul\":19725:19730   */\n      dup3\n        /* \"#utility.yul\":19722:19799   */\n      sub\n        /* \"#utility.yul\":19719:19822   */\n      tag_495\n      jumpi\n        /* \"#utility.yul\":19802:19820   */\n      tag_496\n      tag_300\n      jump\t// in\n    tag_496:\n        /* \"#utility.yul\":19719:19822   */\n    tag_495:\n        /* \"#utility.yul\":19849:19850   */\n      0x01\n        /* \"#utility.yul\":19842:19847   */\n      dup3\n        /* \"#utility.yul\":19838:19851   */\n      add\n        /* \"#utility.yul\":19831:19851   */\n      swap1\n      pop\n        /* \"#utility.yul\":19624:19857   */\n      swap2\n      swap1\n      pop\n      jump\t// out\n        /* \"#utility.yul\":19863:20032   */\n    tag_301:\n        /* \"#utility.yul\":20003:20024   */\n      0x4b6972616c616d612062756c756e616d61646900000000000000000000000000\n        /* \"#utility.yul\":19999:20000   */\n      0x00\n        /* \"#utility.yul\":19991:19997   */\n      dup3\n        /* \"#utility.yul\":19987:20001   */\n      add\n        /* \"#utility.yul\":19980:20025   */\n      mstore\n        /* \"#utility.yul\":19863:20032   */\n      pop\n      jump\t// out\n        /* \"#utility.yul\":20038:20404   */\n    tag_302:\n        /* \"#utility.yul\":20180:20183   */\n      0x00\n        /* \"#utility.yul\":20201:20268   */\n      tag_499\n        /* \"#utility.yul\":20265:20267   */\n      0x13\n        /* \"#utility.yul\":20260:20263   */\n      dup4\n        /* \"#utility.yul\":20201:20268   */\n      tag_270\n      jump\t// in\n    tag_499:\n        /* \"#utility.yul\":20194:20268   */\n      swap2\n      pop\n        /* \"#utility.yul\":20277:20370   */\n      tag_500\n        /* \"#utility.yul\":20366:20369   */\n      dup3\n        /* \"#utility.yul\":20277:20370   */\n      tag_301\n      jump\t// in\n    tag_500:\n        /* \"#utility.yul\":20395:20397   */\n      0x20\n        /* \"#utility.yul\":20390:20393   */\n      dup3\n        /* \"#utility.yul\":20386:20398   */\n      add\n        /* \"#utility.yul\":20379:20398   */\n      swap1\n      pop\n        /* \"#utility.yul\":20038:20404   */\n      swap2\n      swap1\n      pop\n      jump\t// out\n        /* \"#utility.yul\":20410:20829   */\n    tag_122:\n        /* \"#utility.yul\":20576:20580   */\n      0x00\n        /* \"#utility.yul\":20614:20616   */\n      0x20\n        /* \"#utility.yul\":20603:20612   */\n      dup3\n        /* \"#utility.yul\":20599:20617   */\n      add\n        /* \"#utility.yul\":20591:20617   */\n      swap1\n      pop\n        /* \"#utility.yul\":20663:20672   */\n      dup2\n        /* \"#utility.yul\":20657:20661   */\n      dup2\n        /* \"#utility.yul\":20653:20673   */\n      sub\n        /* \"#utility.yul\":20649:20650   */\n      0x00\n        /* \"#utility.yul\":20638:20647   */\n      dup4\n        /* \"#utility.yul\":20634:20651   */\n      add\n        /* \"#utility.yul\":20627:20674   */\n      mstore\n        /* \"#utility.yul\":20691:20822   */\n      tag_502\n        /* \"#utility.yul\":20817:20821   */\n      dup2\n        /* \"#utility.yul\":20691:20822   */\n      tag_302\n      jump\t// in\n    tag_502:\n        /* \"#utility.yul\":20683:20822   */\n      swap1\n      pop\n        /* \"#utility.yul\":20410:20829   */\n      swap2\n      swap1\n      pop\n      jump\t// out\n        /* \"#utility.yul\":20835:20976   */\n    tag_303:\n        /* \"#utility.yul\":20884:20888   */\n      0x00\n        /* \"#utility.yul\":20907:20910   */\n      dup2\n        /* \"#utility.yul\":20899:20910   */\n      swap1\n      pop\n        /* \"#utility.yul\":20930:20933   */\n      dup2\n        /* \"#utility.yul\":20927:20928   */\n      0x00\n        /* \"#utility.yul\":20920:20934   */\n      mstore\n        /* \"#utility.yul\":20964:20968   */\n      0x20\n        /* \"#utility.yul\":20961:20962   */\n      0x00\n        /* \"#utility.yul\":20951:20969   */\n      keccak256\n        /* \"#utility.yul\":20943:20969   */\n      swap1\n      pop\n        /* \"#utility.yul\":20835:20976   */\n      swap2\n      swap1\n      pop\n      jump\t// out\n        /* \"#utility.yul\":20982:21075   */\n    tag_304:\n        /* \"#utility.yul\":21019:21025   */\n      0x00\n        /* \"#utility.yul\":21066:21068   */\n      0x20\n        /* \"#utility.yul\":21061:21063   */\n      0x1f\n        /* \"#utility.yul\":21054:21059   */\n      dup4\n        /* \"#utility.yul\":21050:21064   */\n      add\n        /* \"#utility.yul\":21046:21069   */\n      div\n        /* \"#utility.yul\":21036:21069   */\n      swap1\n      pop\n        /* \"#utility.yul\":20982:21075   */\n      swap2\n      swap1\n      pop\n      jump\t// out\n        /* \"#utility.yul\":21081:21188   */\n    tag_305:\n        /* \"#utility.yul\":21125:21133   */\n      0x00\n        /* \"#utility.yul\":21175:21180   */\n      dup3\n        /* \"#utility.yul\":21169:21173   */\n      dup3\n        /* \"#utility.yul\":21165:21181   */\n      shl\n        /* \"#utility.yul\":21144:21181   */\n      swap1\n      pop\n        /* \"#utility.yul\":21081:21188   */\n      swap3\n      swap2\n      pop\n      pop\n      jump\t// out\n        /* \"#utility.yul\":21194:21587   */\n    tag_306:\n        /* \"#utility.yul\":21263:21269   */\n      0x00\n        /* \"#utility.yul\":21313:21314   */\n      0x08\n        /* \"#utility.yul\":21301:21311   */\n      dup4\n        /* \"#utility.yul\":21297:21315   */\n      mul\n        /* \"#utility.yul\":21336:21433   */\n      tag_507\n        /* \"#utility.yul\":21366:21432   */\n      0xffffffffffffffffffffffffffffffffffffffffffffffffffffffffffffffff\n        /* \"#utility.yul\":21355:21364   */\n      dup3\n        /* \"#utility.yul\":21336:21433   */\n      tag_305\n      jump\t// in\n    tag_507:\n        /* \"#utility.yul\":21454:21493   */\n      tag_508\n        /* \"#utility.yul\":21484:21492   */\n      dup7\n        /* \"#utility.yul\":21473:21482   */\n      dup4\n        /* \"#utility.yul\":21454:21493   */\n      tag_305\n      jump\t// in\n    tag_508:\n        /* \"#utility.yul\":21442:21493   */\n      swap6\n      pop\n        /* \"#utility.yul\":21526:21530   */\n      dup1\n        /* \"#utility.yul\":21522:21531   */\n      not\n        /* \"#utility.yul\":21515:21520   */\n      dup5\n        /* \"#utility.yul\":21511:21532   */\n      and\n        /* \"#utility.yul\":21502:21532   */\n      swap4\n      pop\n        /* \"#utility.yul\":21575:21579   */\n      dup1\n        /* \"#utility.yul\":21565:21573   */\n      dup7\n        /* \"#utility.yul\":21561:21580   */\n      and\n        /* \"#utility.yul\":21554:21559   */\n      dup5\n        /* \"#utility.yul\":21551:21581   */\n      or\n        /* \"#utility.yul\":21541:21581   */\n      swap3\n      pop\n        /* \"#utility.yul\":21270:21587   */\n      pop\n      pop\n        /* \"#utility.yul\":21194:21587   */\n      swap4\n      swap3\n      pop\n      pop\n      pop\n      jump\t// out\n        /* \"#utility.yul\":21593:21653   */\n    tag_307:\n        /* \"#utility.yul\":21621:21624   */\n      0x00\n        /* \"#utility.yul\":21642:21647   */\n      dup2\n        /* \"#utility.yul\":21635:21647   */\n      swap1\n      pop\n        /* \"#utility.yul\":21593:21653   */\n      swap2\n      swap1\n      pop\n      jump\t// out\n        /* \"#utility.yul\":21659:21801   */\n    tag_308:\n        /* \"#utility.yul\":21709:21718   */\n      0x00\n        /* \"#utility.yul\":21742:21795   */\n      tag_511\n        /* \"#utility.yul\":21760:21794   */\n      tag_512\n        /* \"#utility.yul\":21769:21793   */\n      tag_513\n        /* \"#utility.yul\":21787:21792   */\n      dup5\n        /* \"#utility.yul\":21769:21793   */\n      tag_263\n      jump\t// in\n    tag_513:\n        /* \"#utility.yul\":21760:21794   */\n      tag_307\n      jump\t// in\n    tag_512:\n        /* \"#utility.yul\":21742:21795   */\n      tag_263\n      jump\t// in\n    tag_511:\n        /* \"#utility.yul\":21729:21795   */\n      swap1\n      pop\n        /* \"#utility.yul\":21659:21801   */\n      swap2\n      swap1\n      pop\n      jump\t// out\n        /* \"#utility.yul\":21807:21882   */\n    tag_309:\n        /* \"#utility.yul\":21850:21853   */\n      0x00\n        /* \"#utility.yul\":21871:21876   */\n      dup2\n        /* \"#utility.yul\":21864:21876   */\n      swap1\n      pop\n        /* \"#utility.yul\":21807:21882   */\n      swap2\n      swap1\n      pop\n      jump\t// out\n        /* \"#utility.yul\":21888:22157   */\n    tag_310:\n        /* \"#utility.yul\":21998:22037   */\n      tag_516\n        /* \"#utility.yul\":22029:22036   */\n      dup4\n        /* \"#utility.yul\":21998:22037   */\n      tag_308\n      jump\t// in\n    tag_516:\n        /* \"#utility.yul\":22059:22150   */\n      tag_517\n        /* \"#utility.yul\":22108:22149   */\n      tag_518\n        /* \"#utility.yul\":22132:22148   */\n      dup3\n        /* \"#utility.yul\":22108:22149   */\n      tag_309\n      jump\t// in\n    tag_518:\n        /* \"#utility.yul\":22100:22106   */\n      dup5\n        /* \"#utility.yul\":22093:22097   */\n      dup5\n        /* \"#utility.yul\":22087:22098   */\n      sload\n        /* \"#utility.yul\":22059:22150   */\n      tag_306\n      jump\t// in\n    tag_517:\n        /* \"#utility.yul\":22053:22057   */\n      dup3\n        /* \"#utility.yul\":22046:22151   */\n      sstore\n        /* \"#utility.yul\":21964:22157   */\n      pop\n        /* \"#utility.yul\":21888:22157   */\n      pop\n      pop\n      pop\n      jump\t// out\n        /* \"#utility.yul\":22163:22236   */\n    tag_311:\n        /* \"#utility.yul\":22208:22211   */\n      0x00\n        /* \"#utility.yul\":22163:22236   */\n      swap1\n      jump\t// out\n        /* \"#utility.yul\":22242:22431   */\n    tag_312:\n        /* \"#utility.yul\":22319:22351   */\n      tag_521\n      tag_311\n      jump\t// in\n    tag_521:\n        /* \"#utility.yul\":22360:22425   */\n      tag_522\n        /* \"#utility.yul\":22418:22424   */\n      dup2\n        /* \"#utility.yul\":22410:22416   */\n      dup5\n        /* \"#utility.yul\":22404:22408   */\n      dup5\n        /* \"#utility.yul\":22360:22425   */\n      tag_310\n      jump\t// in\n    tag_522:\n        /* \"#utility.yul\":22295:22431   */\n      pop\n        /* \"#utility.yul\":22242:22431   */\n      pop\n      pop\n      jump\t// out\n        /* \"#utility.yul\":22437:22623   */\n    tag_313:\n        /* \"#utility.yul\":22497:22617   */\n    tag_524:\n        /* \"#utility.yul\":22514:22517   */\n      dup2\n        /* \"#utility.yul\":22507:22512   */\n      dup2\n        /* \"#utility.yul\":22504:22518   */\n      lt\n        /* \"#utility.yul\":22497:22617   */\n      iszero\n      tag_526\n      jumpi\n        /* \"#utility.yul\":22568:22607   */\n      tag_527\n        /* \"#utility.yul\":22605:22606   */\n      0x00\n        /* \"#utility.yul\":22598:22603   */\n      dup3\n        /* \"#utility.yul\":22568:22607   */\n      tag_312\n      jump\t// in\n    tag_527:\n        /* \"#utility.yul\":22541:22542   */\n      0x01\n        /* \"#utility.yul\":22534:22539   */\n      dup2\n        /* \"#utility.yul\":22530:22543   */\n      add\n        /* \"#utility.yul\":22521:22543   */\n      swap1\n      pop\n        /* \"#utility.yul\":22497:22617   */\n      jump(tag_524)\n    tag_526:\n        /* \"#utility.yul\":22437:22623   */\n      pop\n      pop\n      jump\t// out\n        /* \"#utility.yul\":22629:23172   */\n    tag_314:\n        /* \"#utility.yul\":22730:22732   */\n      0x1f\n        /* \"#utility.yul\":22725:22728   */\n      dup3\n        /* \"#utility.yul\":22722:22733   */\n      gt\n        /* \"#utility.yul\":22719:23165   */\n      iszero\n      tag_529\n      jumpi\n        /* \"#utility.yul\":22764:22802   */\n      tag_530\n        /* \"#utility.yul\":22796:22801   */\n      dup2\n        /* \"#utility.yul\":22764:22802   */\n      tag_303\n      jump\t// in\n    tag_530:\n        /* \"#utility.yul\":22848:22877   */\n      tag_531\n        /* \"#utility.yul\":22866:22876   */\n      dup5\n        /* \"#utility.yul\":22848:22877   */\n      tag_304\n      jump\t// in\n    tag_531:\n        /* \"#utility.yul\":22838:22846   */\n      dup2\n        /* \"#utility.yul\":22834:22878   */\n      add\n        /* \"#utility.yul\":23031:23033   */\n      0x20\n        /* \"#utility.yul\":23019:23029   */\n      dup6\n        /* \"#utility.yul\":23016:23034   */\n      lt\n        /* \"#utility.yul\":23013:23062   */\n      iszero\n      tag_532\n      jumpi\n        /* \"#utility.yul\":23052:23060   */\n      dup2\n        /* \"#utility.yul\":23037:23060   */\n      swap1\n      pop\n        /* \"#utility.yul\":23013:23062   */\n    tag_532:\n        /* \"#utility.yul\":23075:23155   */\n      tag_533\n        /* \"#utility.yul\":23131:23153   */\n      tag_534\n        /* \"#utility.yul\":23149:23152   */\n      dup6\n        /* \"#utility.yul\":23131:23153   */\n      tag_304\n      jump\t// in\n    tag_534:\n        /* \"#utility.yul\":23121:23129   */\n      dup4\n        /* \"#utility.yul\":23117:23154   */\n      add\n        /* \"#utility.yul\":23104:23115   */\n      dup3\n        /* \"#utility.yul\":23075:23155   */\n      tag_313\n      jump\t// in\n    tag_533:\n        /* \"#utility.yul\":22734:23165   */\n      pop\n      pop\n        /* \"#utility.yul\":22719:23165   */\n    tag_529:\n        /* \"#utility.yul\":22629:23172   */\n      pop\n      pop\n      pop\n      jump\t// out\n        /* \"#utility.yul\":23178:23295   */\n    tag_315:\n        /* \"#utility.yul\":23232:23240   */\n      0x00\n        /* \"#utility.yul\":23282:23287   */\n      dup3\n        /* \"#utility.yul\":23276:23280   */\n      dup3\n        /* \"#utility.yul\":23272:23288   */\n      shr\n        /* \"#utility.yul\":23251:23288   */\n      swap1\n      pop\n        /* \"#utility.yul\":23178:23295   */\n      swap3\n      swap2\n      pop\n      pop\n      jump\t// out\n        /* \"#utility.yul\":23301:23470   */\n    tag_316:\n        /* \"#utility.yul\":23345:23351   */\n      0x00\n        /* \"#utility.yul\":23378:23429   */\n      tag_537\n        /* \"#utility.yul\":23426:23427   */\n      0x00\n        /* \"#utility.yul\":23422:23428   */\n      not\n        /* \"#utility.yul\":23414:23419   */\n      dup5\n        /* \"#utility.yul\":23411:23412   */\n      0x08\n        /* \"#utility.yul\":23407:23420   */\n      mul\n        /* \"#utility.yul\":23378:23429   */\n      tag_315\n      jump\t// in\n    tag_537:\n        /* \"#utility.yul\":23374:23430   */\n      not\n        /* \"#utility.yul\":23459:23463   */\n      dup1\n        /* \"#utility.yul\":23453:23457   */\n      dup4\n        /* \"#utility.yul\":23449:23464   */\n      and\n        /* \"#utility.yul\":23439:23464   */\n      swap2\n      pop\n        /* \"#utility.yul\":23352:23470   */\n      pop\n        /* \"#utility.yul\":23301:23470   */\n      swap3\n      swap2\n      pop\n      pop\n      jump\t// out\n        /* \"#utility.yul\":23475:23770   */\n    tag_317:\n        /* \"#utility.yul\":23551:23555   */\n      0x00\n        /* \"#utility.yul\":23697:23726   */\n      tag_539\n        /* \"#utility.yul\":23722:23725   */\n      dup4\n        /* \"#utility.yul\":23716:23720   */\n      dup4\n        /* \"#utility.yul\":23697:23726   */\n      tag_316\n      jump\t// in\n    tag_539:\n        /* \"#utility.yul\":23689:23726   */\n      swap2\n      pop\n        /* \"#utility.yul\":23759:23762   */\n      dup3\n        /* \"#utility.yul\":23756:23757   */\n      0x02\n        /* \"#utility.yul\":23752:23763   */\n      mul\n        /* \"#utility.yul\":23746:23750   */\n      dup3\n        /* \"#utility.yul\":23743:23764   */\n      or\n        /* \"#utility.yul\":23735:23764   */\n      swap1\n      pop\n        /* \"#utility.yul\":23475:23770   */\n      swap3\n      swap2\n      pop\n      pop\n      jump\t// out\n        /* \"#utility.yul\":23775:25170   */\n    tag_133:\n        /* \"#utility.yul\":23892:23929   */\n      tag_541\n        /* \"#utility.yul\":23925:23928   */\n      dup3\n        /* \"#utility.yul\":23892:23929   */\n      tag_269\n      jump\t// in\n    tag_541:\n        /* \"#utility.yul\":23994:24012   */\n      0xffffffffffffffff\n        /* \"#utility.yul\":23986:23992   */\n      dup2\n        /* \"#utility.yul\":23983:24013   */\n      gt\n        /* \"#utility.yul\":23980:24036   */\n      iszero\n      tag_542\n      jumpi\n        /* \"#utility.yul\":24016:24034   */\n      tag_543\n      tag_279\n      jump\t// in\n    tag_543:\n        /* \"#utility.yul\":23980:24036   */\n    tag_542:\n        /* \"#utility.yul\":24060:24098   */\n      tag_544\n        /* \"#utility.yul\":24092:24096   */\n      dup3\n        /* \"#utility.yul\":24086:24097   */\n      sload\n        /* \"#utility.yul\":24060:24098   */\n      tag_44\n      jump\t// in\n    tag_544:\n        /* \"#utility.yul\":24145:24212   */\n      tag_545\n        /* \"#utility.yul\":24205:24211   */\n      dup3\n        /* \"#utility.yul\":24197:24203   */\n      dup3\n        /* \"#utility.yul\":24191:24195   */\n      dup6\n        /* \"#utility.yul\":24145:24212   */\n      tag_314\n      jump\t// in\n    tag_545:\n        /* \"#utility.yul\":24239:24240   */\n      0x00\n        /* \"#utility.yul\":24263:24267   */\n      0x20\n        /* \"#utility.yul\":24250:24267   */\n      swap1\n      pop\n        /* \"#utility.yul\":24295:24297   */\n      0x1f\n        /* \"#utility.yul\":24287:24293   */\n      dup4\n        /* \"#utility.yul\":24284:24298   */\n      gt\n        /* \"#utility.yul\":24312:24313   */\n      0x01\n        /* \"#utility.yul\":24307:24925   */\n      dup2\n      eq\n      tag_547\n      jumpi\n        /* \"#utility.yul\":24969:24970   */\n      0x00\n        /* \"#utility.yul\":24986:24992   */\n      dup5\n        /* \"#utility.yul\":24983:25060   */\n      iszero\n      tag_548\n      jumpi\n        /* \"#utility.yul\":25035:25044   */\n      dup3\n        /* \"#utility.yul\":25030:25033   */\n      dup8\n        /* \"#utility.yul\":25026:25045   */\n      add\n        /* \"#utility.yul\":25020:25046   */\n      mload\n        /* \"#utility.yul\":25011:25046   */\n      swap1\n      pop\n        /* \"#utility.yul\":24983:25060   */\n    tag_548:\n        /* \"#utility.yul\":25086:25153   */\n      tag_549\n        /* \"#utility.yul\":25146:25152   */\n      dup6\n        /* \"#utility.yul\":25139:25144   */\n      dup3\n        /* \"#utility.yul\":25086:25153   */\n      tag_317\n      jump\t// in\n    tag_549:\n        /* \"#utility.yul\":25080:25084   */\n      dup7\n        /* \"#utility.yul\":25073:25154   */\n      sstore\n        /* \"#utility.yul\":24942:25164   */\n      pop\n        /* \"#utility.yul\":24277:25164   */\n      jump(tag_546)\n        /* \"#utility.yul\":24307:24925   */\n    tag_547:\n        /* \"#utility.yul\":24359:24363   */\n      0x1f\n        /* \"#utility.yul\":24355:24364   */\n      not\n        /* \"#utility.yul\":24347:24353   */\n      dup5\n        /* \"#utility.yul\":24343:24365   */\n      and\n        /* \"#utility.yul\":24393:24430   */\n      tag_550\n        /* \"#utility.yul\":24425:24429   */\n      dup7\n        /* \"#utility.yul\":24393:24430   */\n      tag_303\n      jump\t// in\n    tag_550:\n        /* \"#utility.yul\":24452:24453   */\n      0x00\n        /* \"#utility.yul\":24466:24674   */\n    tag_551:\n        /* \"#utility.yul\":24480:24487   */\n      dup3\n        /* \"#utility.yul\":24477:24478   */\n      dup2\n        /* \"#utility.yul\":24474:24488   */\n      lt\n        /* \"#utility.yul\":24466:24674   */\n      iszero\n      tag_553\n      jumpi\n        /* \"#utility.yul\":24559:24568   */\n      dup5\n        /* \"#utility.yul\":24554:24557   */\n      dup10\n        /* \"#utility.yul\":24550:24569   */\n      add\n        /* \"#utility.yul\":24544:24570   */\n      mload\n        /* \"#utility.yul\":24536:24542   */\n      dup3\n        /* \"#utility.yul\":24529:24571   */\n      sstore\n        /* \"#utility.yul\":24610:24611   */\n      0x01\n        /* \"#utility.yul\":24602:24608   */\n      dup3\n        /* \"#utility.yul\":24598:24612   */\n      add\n        /* \"#utility.yul\":24588:24612   */\n      swap2\n      pop\n        /* \"#utility.yul\":24657:24659   */\n      0x20\n        /* \"#utility.yul\":24646:24655   */\n      dup6\n        /* \"#utility.yul\":24642:24660   */\n      add\n        /* \"#utility.yul\":24629:24660   */\n      swap5\n      pop\n        /* \"#utility.yul\":24503:24507   */\n      0x20\n        /* \"#utility.yul\":24500:24501   */\n      dup2\n        /* \"#utility.yul\":24496:24508   */\n      add\n        /* \"#utility.yul\":24491:24508   */\n      swap1\n      pop\n        /* \"#utility.yul\":24466:24674   */\n      jump(tag_551)\n    tag_553:\n        /* \"#utility.yul\":24702:24708   */\n      dup7\n        /* \"#utility.yul\":24693:24700   */\n      dup4\n        /* \"#utility.yul\":24690:24709   */\n      lt\n        /* \"#utility.yul\":24687:24866   */\n      iszero\n      tag_554\n      jumpi\n        /* \"#utility.yul\":24760:24769   */\n      dup5\n        /* \"#utility.yul\":24755:24758   */\n      dup10\n        /* \"#utility.yul\":24751:24770   */\n      add\n        /* \"#utility.yul\":24745:24771   */\n      mload\n        /* \"#utility.yul\":24803:24851   */\n      tag_555\n        /* \"#utility.yul\":24845:24849   */\n      0x1f\n        /* \"#utility.yul\":24837:24843   */\n      dup10\n        /* \"#utility.yul\":24833:24850   */\n      and\n        /* \"#utility.yul\":24822:24831   */\n      dup3\n        /* \"#utility.yul\":24803:24851   */\n      tag_316\n      jump\t// in\n    tag_555:\n        /* \"#utility.yul\":24795:24801   */\n      dup4\n        /* \"#utility.yul\":24788:24852   */\n      sstore\n        /* \"#utility.yul\":24710:24866   */\n      pop\n        /* \"#utility.yul\":24687:24866   */\n    tag_554:\n        /* \"#utility.yul\":24912:24913   */\n      0x01\n        /* \"#utility.yul\":24908:24909   */\n      0x02\n        /* \"#utility.yul\":24900:24906   */\n      dup9\n        /* \"#utility.yul\":24896:24910   */\n      mul\n        /* \"#utility.yul\":24892:24914   */\n      add\n        /* \"#utility.yul\":24886:24890   */\n      dup9\n        /* \"#utility.yul\":24879:24915   */\n      sstore\n        /* \"#utility.yul\":24314:24925   */\n      pop\n      pop\n      pop\n        /* \"#utility.yul\":24277:25164   */\n    tag_546:\n      pop\n        /* \"#utility.yul\":23867:25170   */\n      pop\n      pop\n      pop\n        /* \"#utility.yul\":23775:25170   */\n      pop\n      pop\n      jump\t// out\n        /* \"#utility.yul\":25176:26719   */\n    tag_146:\n        /* \"#utility.yul\":25585:25589   */\n      0x00\n        /* \"#utility.yul\":25623:25626   */\n      0x0100\n        /* \"#utility.yul\":25612:25621   */\n      dup3\n        /* \"#utility.yul\":25608:25627   */\n      add\n        /* \"#utility.yul\":25600:25627   */\n      swap1\n      pop\n        /* \"#utility.yul\":25673:25682   */\n      dup2\n        /* \"#utility.yul\":25667:25671   */\n      dup2\n        /* \"#utility.yul\":25663:25683   */\n      sub\n        /* \"#utility.yul\":25659:25660   */\n      0x00\n        /* \"#utility.yul\":25648:25657   */\n      dup4\n        /* \"#utility.yul\":25644:25661   */\n      add\n        /* \"#utility.yul\":25637:25684   */\n      mstore\n        /* \"#utility.yul\":25701:25779   */\n      tag_557\n        /* \"#utility.yul\":25774:25778   */\n      dup2\n        /* \"#utility.yul\":25765:25771   */\n      dup12\n        /* \"#utility.yul\":25701:25779   */\n      tag_273\n      jump\t// in\n    tag_557:\n        /* \"#utility.yul\":25693:25779   */\n      swap1\n      pop\n        /* \"#utility.yul\":25826:25835   */\n      dup2\n        /* \"#utility.yul\":25820:25824   */\n      dup2\n        /* \"#utility.yul\":25816:25836   */\n      sub\n        /* \"#utility.yul\":25811:25813   */\n      0x20\n        /* \"#utility.yul\":25800:25809   */\n      dup4\n        /* \"#utility.yul\":25796:25814   */\n      add\n        /* \"#utility.yul\":25789:25837   */\n      mstore\n        /* \"#utility.yul\":25854:25932   */\n      tag_558\n        /* \"#utility.yul\":25927:25931   */\n      dup2\n        /* \"#utility.yul\":25918:25924   */\n      dup11\n        /* \"#utility.yul\":25854:25932   */\n      tag_273\n      jump\t// in\n    tag_558:\n        /* \"#utility.yul\":25846:25932   */\n      swap1\n      pop\n        /* \"#utility.yul\":25979:25988   */\n      dup2\n        /* \"#utility.yul\":25973:25977   */\n      dup2\n        /* \"#utility.yul\":25969:25989   */\n      sub\n        /* \"#utility.yul\":25964:25966   */\n      0x40\n        /* \"#utility.yul\":25953:25962   */\n      dup4\n        /* \"#utility.yul\":25949:25967   */\n      add\n        /* \"#utility.yul\":25942:25990   */\n      mstore\n        /* \"#utility.yul\":26007:26085   */\n      tag_559\n        /* \"#utility.yul\":26080:26084   */\n      dup2\n        /* \"#utility.yul\":26071:26077   */\n      dup10\n        /* \"#utility.yul\":26007:26085   */\n      tag_273\n      jump\t// in\n    tag_559:\n        /* \"#utility.yul\":25999:26085   */\n      swap1\n      pop\n        /* \"#utility.yul\":26132:26141   */\n      dup2\n        /* \"#utility.yul\":26126:26130   */\n      dup2\n        /* \"#utility.yul\":26122:26142   */\n      sub\n        /* \"#utility.yul\":26117:26119   */\n      0x60\n        /* \"#utility.yul\":26106:26115   */\n      dup4\n        /* \"#utility.yul\":26102:26120   */\n      add\n        /* \"#utility.yul\":26095:26143   */\n      mstore\n        /* \"#utility.yul\":26160:26238   */\n      tag_560\n        /* \"#utility.yul\":26233:26237   */\n      dup2\n        /* \"#utility.yul\":26224:26230   */\n      dup9\n        /* \"#utility.yul\":26160:26238   */\n      tag_273\n      jump\t// in\n    tag_560:\n        /* \"#utility.yul\":26152:26238   */\n      swap1\n      pop\n        /* \"#utility.yul\":26248:26321   */\n      tag_561\n        /* \"#utility.yul\":26316:26319   */\n      0x80\n        /* \"#utility.yul\":26305:26314   */\n      dup4\n        /* \"#utility.yul\":26301:26320   */\n      add\n        /* \"#utility.yul\":26292:26298   */\n      dup8\n        /* \"#utility.yul\":26248:26321   */\n      tag_274\n      jump\t// in\n    tag_561:\n        /* \"#utility.yul\":26331:26404   */\n      tag_562\n        /* \"#utility.yul\":26399:26402   */\n      0xa0\n        /* \"#utility.yul\":26388:26397   */\n      dup4\n        /* \"#utility.yul\":26384:26403   */\n      add\n        /* \"#utility.yul\":26375:26381   */\n      dup7\n        /* \"#utility.yul\":26331:26404   */\n      tag_274\n      jump\t// in\n    tag_562:\n        /* \"#utility.yul\":26452:26461   */\n      dup2\n        /* \"#utility.yul\":26446:26450   */\n      dup2\n        /* \"#utility.yul\":26442:26462   */\n      sub\n        /* \"#utility.yul\":26436:26439   */\n      0xc0\n        /* \"#utility.yul\":26425:26434   */\n      dup4\n        /* \"#utility.yul\":26421:26440   */\n      add\n        /* \"#utility.yul\":26414:26463   */\n      mstore\n        /* \"#utility.yul\":26480:26558   */\n      tag_563\n        /* \"#utility.yul\":26553:26557   */\n      dup2\n        /* \"#utility.yul\":26544:26550   */\n      dup6\n        /* \"#utility.yul\":26480:26558   */\n      tag_273\n      jump\t// in\n    tag_563:\n        /* \"#utility.yul\":26472:26558   */\n      swap1\n      pop\n        /* \"#utility.yul\":26606:26615   */\n      dup2\n        /* \"#utility.yul\":26600:26604   */\n      dup2\n        /* \"#utility.yul\":26596:26616   */\n      sub\n        /* \"#utility.yul\":26590:26593   */\n      0xe0\n        /* \"#utility.yul\":26579:26588   */\n      dup4\n        /* \"#utility.yul\":26575:26594   */\n      add\n        /* \"#utility.yul\":26568:26617   */\n      mstore\n        /* \"#utility.yul\":26634:26712   */\n      tag_564\n        /* \"#utility.yul\":26707:26711   */\n      dup2\n        /* \"#utility.yul\":26698:26704   */\n      dup5\n        /* \"#utility.yul\":26634:26712   */\n      tag_273\n      jump\t// in\n    tag_564:\n        /* \"#utility.yul\":26626:26712   */\n      swap1\n      pop\n        /* \"#utility.yul\":25176:26719   */\n      swap10\n      swap9\n      pop\n      pop\n      pop\n      pop\n      pop\n      pop\n      pop\n      pop\n      pop\n      jump\t// out\n        /* \"#utility.yul\":26725:26896   */\n    tag_250:\n        /* \"#utility.yul\":26764:26767   */\n      0x00\n        /* \"#utility.yul\":26787:26811   */\n      tag_566\n        /* \"#utility.yul\":26805:26810   */\n      dup3\n        /* \"#utility.yul\":26787:26811   */\n      tag_263\n      jump\t// in\n    tag_566:\n        /* \"#utility.yul\":26778:26811   */\n      swap2\n      pop\n        /* \"#utility.yul\":26833:26837   */\n      0x00\n        /* \"#utility.yul\":26826:26831   */\n      dup3\n        /* \"#utility.yul\":26823:26838   */\n      sub\n        /* \"#utility.yul\":26820:26861   */\n      tag_567\n      jumpi\n        /* \"#utility.yul\":26841:26859   */\n      tag_568\n      tag_300\n      jump\t// in\n    tag_568:\n        /* \"#utility.yul\":26820:26861   */\n    tag_567:\n        /* \"#utility.yul\":26888:26889   */\n      0x01\n        /* \"#utility.yul\":26881:26886   */\n      dup3\n        /* \"#utility.yul\":26877:26890   */\n      sub\n        /* \"#utility.yul\":26870:26890   */\n      swap1\n      pop\n        /* \"#utility.yul\":26725:26896   */\n      swap2\n      swap1\n      pop\n      jump\t// out\n        /* \"#utility.yul\":26902:28041   */\n    tag_252:\n        /* \"#utility.yul\":27215:27219   */\n      0x00\n        /* \"#utility.yul\":27253:27256   */\n      0xc0\n        /* \"#utility.yul\":27242:27251   */\n      dup3\n        /* \"#utility.yul\":27238:27257   */\n      add\n        /* \"#utility.yul\":27230:27257   */\n      swap1\n      pop\n        /* \"#utility.yul\":27303:27312   */\n      dup2\n        /* \"#utility.yul\":27297:27301   */\n      dup2\n        /* \"#utility.yul\":27293:27313   */\n      sub\n        /* \"#utility.yul\":27289:27290   */\n      0x00\n        /* \"#utility.yul\":27278:27287   */\n      dup4\n        /* \"#utility.yul\":27274:27291   */\n      add\n        /* \"#utility.yul\":27267:27314   */\n      mstore\n        /* \"#utility.yul\":27331:27409   */\n      tag_570\n        /* \"#utility.yul\":27404:27408   */\n      dup2\n        /* \"#utility.yul\":27395:27401   */\n      dup10\n        /* \"#utility.yul\":27331:27409   */\n      tag_273\n      jump\t// in\n    tag_570:\n        /* \"#utility.yul\":27323:27409   */\n      swap1\n      pop\n        /* \"#utility.yul\":27456:27465   */\n      dup2\n        /* \"#utility.yul\":27450:27454   */\n      dup2\n        /* \"#utility.yul\":27446:27466   */\n      sub\n        /* \"#utility.yul\":27441:27443   */\n      0x20\n        /* \"#utility.yul\":27430:27439   */\n      dup4\n        /* \"#utility.yul\":27426:27444   */\n      add\n        /* \"#utility.yul\":27419:27467   */\n      mstore\n        /* \"#utility.yul\":27484:27562   */\n      tag_571\n        /* \"#utility.yul\":27557:27561   */\n      dup2\n        /* \"#utility.yul\":27548:27554   */\n      dup9\n        /* \"#utility.yul\":27484:27562   */\n      tag_273\n      jump\t// in\n    tag_571:\n        /* \"#utility.yul\":27476:27562   */\n      swap1\n      pop\n        /* \"#utility.yul\":27609:27618   */\n      dup2\n        /* \"#utility.yul\":27603:27607   */\n      dup2\n        /* \"#utility.yul\":27599:27619   */\n      sub\n        /* \"#utility.yul\":27594:27596   */\n      0x40\n        /* \"#utility.yul\":27583:27592   */\n      dup4\n        /* \"#utility.yul\":27579:27597   */\n      add\n        /* \"#utility.yul\":27572:27620   */\n      mstore\n        /* \"#utility.yul\":27637:27715   */\n      tag_572\n        /* \"#utility.yul\":27710:27714   */\n      dup2\n        /* \"#utility.yul\":27701:27707   */\n      dup8\n        /* \"#utility.yul\":27637:27715   */\n      tag_273\n      jump\t// in\n    tag_572:\n        /* \"#utility.yul\":27629:27715   */\n      swap1\n      pop\n        /* \"#utility.yul\":27762:27771   */\n      dup2\n        /* \"#utility.yul\":27756:27760   */\n      dup2\n        /* \"#utility.yul\":27752:27772   */\n      sub\n        /* \"#utility.yul\":27747:27749   */\n      0x60\n        /* \"#utility.yul\":27736:27745   */\n      dup4\n        /* \"#utility.yul\":27732:27750   */\n      add\n        /* \"#utility.yul\":27725:27773   */\n      mstore\n        /* \"#utility.yul\":27790:27868   */\n      tag_573\n        /* \"#utility.yul\":27863:27867   */\n      dup2\n        /* \"#utility.yul\":27854:27860   */\n      dup7\n        /* \"#utility.yul\":27790:27868   */\n      tag_273\n      jump\t// in\n    tag_573:\n        /* \"#utility.yul\":27782:27868   */\n      swap1\n      pop\n        /* \"#utility.yul\":27878:27951   */\n      tag_574\n        /* \"#utility.yul\":27946:27949   */\n      0x80\n        /* \"#utility.yul\":27935:27944   */\n      dup4\n        /* \"#utility.yul\":27931:27950   */\n      add\n        /* \"#utility.yul\":27922:27928   */\n      dup6\n        /* \"#utility.yul\":27878:27951   */\n      tag_274\n      jump\t// in\n    tag_574:\n        /* \"#utility.yul\":27961:28034   */\n      tag_575\n        /* \"#utility.yul\":28029:28032   */\n      0xa0\n        /* \"#utility.yul\":28018:28027   */\n      dup4\n        /* \"#utility.yul\":28014:28033   */\n      add\n        /* \"#utility.yul\":28005:28011   */\n      dup5\n        /* \"#utility.yul\":27961:28034   */\n      tag_274\n      jump\t// in\n    tag_575:\n        /* \"#utility.yul\":26902:28041   */\n      swap8\n      swap7\n      pop\n      pop\n      pop\n      pop\n      pop\n      pop\n      pop\n      jump\t// out\n\n    auxdata: 0xa2646970667358221220e30d8c782dfc637a1890096e521165d63c0945341561dc3ee74fdaaa2a92b63364736f6c63430008120033\n}\n",
				"bytecode": {
					"linkReferences": {},
					"object": "608060405234801561001057600080fd5b50336000806101000a81548173ffffffffffffffffffffffffffffffffffffffff021916908373ffffffffffffffffffffffffffffffffffffffff1602179055506000600181905550612d35806100686000396000f3fe608060405234801561001057600080fd5b506004361061007d5760003560e01c8063d017c6321161005b578063d017c632146100f3578063eb6822cd1461010f578063ecaac37814610141578063f2f9d5551461015d5761007d565b80634748fbc014610082578063644486b8146100b95780636f33506b146100d5575b600080fd5b61009c60048036038101906100979190611ec6565b61017b565b6040516100b0989796959493929190611fd3565b60405180910390f35b6100d360048036038101906100ce91906121ce565b610433565b005b6100dd610b2e565b6040516100ea91906122f4565b60405180910390f35b61010d6004803603810190610108919061230f565b610b52565b005b61012960048036038101906101249190611ec6565b611067565b604051610138939291906125c3565b60405180910390f35b61015b600480360381019061015691906121ce565b6114c4565b005b610165611e19565b604051610172919061260f565b60405180910390f35b6002818154811061018b57600080fd5b90600052602060002090600802016000915090508060000160009054906101000a900473ffffffffffffffffffffffffffffffffffffffff16908060010180546101d490612659565b80601f016020809104026020016040519081016040528092919081815260200182805461020090612659565b801561024d5780601f106102225761010080835404028352916020019161024d565b820191906000526020600020905b81548152906001019060200180831161023057829003601f168201915b50505050509080600201805461026290612659565b80601f016020809104026020016040519081016040528092919081815260200182805461028e90612659565b80156102db5780601f106102b0576101008083540402835291602001916102db565b820191906000526020600020905b8154815290600101906020018083116102be57829003601f168201915b5050505050908060030180546102f090612659565b80601f016020809104026020016040519081016040528092919081815260200182805461031c90612659565b80156103695780601f1061033e57610100808354040283529160200191610369565b820191906000526020600020905b81548152906001019060200180831161034c57829003601f168201915b50505050509080600401805461037e90612659565b80601f01602080910402602001604051908101604052809291908181526020018280546103aa90612659565b80156103f75780601f106103cc576101008083540402835291602001916103f7565b820191906000526020600020905b8154815290600101906020018083116103da57829003601f168201915b5050505050908060050154908060060154908060070160009054906101000a900473ffffffffffffffffffffffffffffffffffffffff16905088565b8773ffffffffffffffffffffffffffffffffffffffff163373ffffffffffffffffffffffffffffffffffffffff16146104a1576040517f08c379a0000000000000000000000000000000000000000000000000000000008152600401610498906126d6565b60405180910390fd5b600073ffffffffffffffffffffffffffffffffffffffff168873ffffffffffffffffffffffffffffffffffffffff1603610510576040517f08c379a000000000000000000000000000000000000000000000000000000000815260040161050790612742565b60405180910390fd5b600073ffffffffffffffffffffffffffffffffffffffff168173ffffffffffffffffffffffffffffffffffffffff160361057f576040517f08c379a0000000000000000000000000000000000000000000000000000000008152600401610576906127ae565b60405180910390fd5b6000805b600154811015610ae2576000600282815481106105a3576105a26127ce565b5b9060005260206000209060080201604051806101000160405290816000820160009054906101000a900473ffffffffffffffffffffffffffffffffffffffff1673ffffffffffffffffffffffffffffffffffffffff1673ffffffffffffffffffffffffffffffffffffffff16815260200160018201805461062390612659565b80601f016020809104026020016040519081016040528092919081815260200182805461064f90612659565b801561069c5780601f106106715761010080835404028352916020019161069c565b820191906000526020600020905b81548152906001019060200180831161067f57829003601f168201915b505050505081526020016002820180546106b590612659565b80601f01602080910402602001604051908101604052809291908181526020018280546106e190612659565b801561072e5780601f106107035761010080835404028352916020019161072e565b820191906000526020600020905b81548152906001019060200180831161071157829003601f168201915b5050505050815260200160038201805461074790612659565b80601f016020809104026020016040519081016040528092919081815260200182805461077390612659565b80156107c05780601f10610795576101008083540402835291602001916107c0565b820191906000526020600020905b8154815290600101906020018083116107a357829003601f168201915b505050505081526020016004820180546107d990612659565b80601f016020809104026020016040519081016040528092919081815260200182805461080590612659565b80156108525780601f1061082757610100808354040283529160200191610852565b820191906000526020600020905b81548152906001019060200180831161083557829003601f168201915b5050505050815260200160058201548152602001600682015481526020016007820160009054906101000a900473ffffffffffffffffffffffffffffffffffffffff1673ffffffffffffffffffffffffffffffffffffffff1673ffffffffffffffffffffffffffffffffffffffff168152505090508a73ffffffffffffffffffffffffffffffffffffffff16816000015173ffffffffffffffffffffffffffffffffffffffff161480156109555750896040516020016109129190612839565b60405160208183030381529060405280519060200120816020015160405160200161093d9190612839565b60405160208183030381529060405280519060200120145b80156109b057508860405160200161096d9190612839565b6040516020818303038152906040528051906020012081604001516040516020016109989190612839565b60405160208183030381529060405280519060200120145b8015610a0b5750876040516020016109c89190612839565b6040516020818303038152906040528051906020012081606001516040516020016109f39190612839565b60405160208183030381529060405280519060200120145b8015610a66575086604051602001610a239190612839565b604051602081830303815290604052805190602001208160800151604051602001610a4e9190612839565b60405160208183030381529060405280519060200120145b8015610a755750858160a00151145b8015610a845750848160c00151145b8015610abf57508373ffffffffffffffffffffffffffffffffffffffff168160e0015173ffffffffffffffffffffffffffffffffffffffff16145b15610ace576001925050610ae2565b508080610ada9061287f565b915050610583565b5080610b23576040517f08c379a0000000000000000000000000000000000000000000000000000000008152600401610b1a90612913565b60405180910390fd5b505050505050505050565b60008054906101000a900473ffffffffffffffffffffffffffffffffffffffff1681565b60008054906101000a900473ffffffffffffffffffffffffffffffffffffffff1673ffffffffffffffffffffffffffffffffffffffff163373ffffffffffffffffffffffffffffffffffffffff1614610be0576040517f08c379a0000000000000000000000000000000000000000000000000000000008152600401610bd7906126d6565b60405180910390fd5b600073ffffffffffffffffffffffffffffffffffffffff168a73ffffffffffffffffffffffffffffffffffffffff1603610c4f576040517f08c379a0000000000000000000000000000000000000000000000000000000008152600401610c4690612742565b60405180910390fd5b600073ffffffffffffffffffffffffffffffffffffffff168373ffffffffffffffffffffffffffffffffffffffff1603610cbe576040517f08c379a0000000000000000000000000000000000000000000000000000000008152600401610cb5906127ae565b60405180910390fd5b60006040518061010001604052808c73ffffffffffffffffffffffffffffffffffffffff1681526020018b81526020018a81526020018981526020018881526020018781526020018681526020018573ffffffffffffffffffffffffffffffffffffffff168152509050600281908060018154018082558091505060019003906000526020600020906008020160009091909190915060008201518160000160006101000a81548173ffffffffffffffffffffffffffffffffffffffff021916908373ffffffffffffffffffffffffffffffffffffffff1602179055506020820151816001019081610db09190612adf565b506040820151816002019081610dc69190612adf565b506060820151816003019081610ddc9190612adf565b506080820151816004019081610df29190612adf565b5060a0820151816005015560c0820151816006015560e08201518160070160006101000a81548173ffffffffffffffffffffffffffffffffffffffff021916908373ffffffffffffffffffffffffffffffffffffffff16021790555050506000604051806060016040528083815260200185815260200184815250905060038190806001815401808255809150506001900390600052602060002090600a020160009091909190915060008201518160000160008201518160000160006101000a81548173ffffffffffffffffffffffffffffffffffffffff021916908373ffffffffffffffffffffffffffffffffffffffff1602179055506020820151816001019081610f009190612adf565b506040820151816002019081610f169190612adf565b506060820151816003019081610f2c9190612adf565b506080820151816004019081610f429190612adf565b5060a0820151816005015560c0820151816006015560e08201518160070160006101000a81548173ffffffffffffffffffffffffffffffffffffffff021916908373ffffffffffffffffffffffffffffffffffffffff16021790555050506020820151816008019081610fb59190612adf565b506040820151816009019081610fcb9190612adf565b50505060016000815480929190610fe19061287f565b91905055508473ffffffffffffffffffffffffffffffffffffffff168c73ffffffffffffffffffffffffffffffffffffffff167fafe54aa3928951031e66a6806ef128be28612b381c2ba48f14b6e9f1cddbf6658d8d8d8d8d8d8c8c604051611051989796959493929190612bb1565b60405180910390a3505050505050505050505050565b6003818154811061107757600080fd5b90600052602060002090600a020160009150905080600001604051806101000160405290816000820160009054906101000a900473ffffffffffffffffffffffffffffffffffffffff1673ffffffffffffffffffffffffffffffffffffffff1673ffffffffffffffffffffffffffffffffffffffff16815260200160018201805461110190612659565b80601f016020809104026020016040519081016040528092919081815260200182805461112d90612659565b801561117a5780601f1061114f5761010080835404028352916020019161117a565b820191906000526020600020905b81548152906001019060200180831161115d57829003601f168201915b5050505050815260200160028201805461119390612659565b80601f01602080910402602001604051908101604052809291908181526020018280546111bf90612659565b801561120c5780601f106111e15761010080835404028352916020019161120c565b820191906000526020600020905b8154815290600101906020018083116111ef57829003601f168201915b5050505050815260200160038201805461122590612659565b80601f016020809104026020016040519081016040528092919081815260200182805461125190612659565b801561129e5780601f106112735761010080835404028352916020019161129e565b820191906000526020600020905b81548152906001019060200180831161128157829003601f168201915b505050505081526020016004820180546112b790612659565b80601f01602080910402602001604051908101604052809291908181526020018280546112e390612659565b80156113305780601f1061130557610100808354040283529160200191611330565b820191906000526020600020905b81548152906001019060200180831161131357829003601f168201915b5050505050815260200160058201548152602001600682015481526020016007820160009054906101000a900473ffffffffffffffffffffffffffffffffffffffff1673ffffffffffffffffffffffffffffffffffffffff1673ffffffffffffffffffffffffffffffffffffffff1681525050908060080180546113b390612659565b80601f01602080910402602001604051908101604052809291908181526020018280546113df90612659565b801561142c5780601f106114015761010080835404028352916020019161142c565b820191906000526020600020905b81548152906001019060200180831161140f57829003601f168201915b50505050509080600901805461144190612659565b80601f016020809104026020016040519081016040528092919081815260200182805461146d90612659565b80156114ba5780601f1061148f576101008083540402835291602001916114ba565b820191906000526020600020905b81548152906001019060200180831161149d57829003601f168201915b5050505050905083565b60008054906101000a900473ffffffffffffffffffffffffffffffffffffffff1673ffffffffffffffffffffffffffffffffffffffff163373ffffffffffffffffffffffffffffffffffffffff1614611552576040517f08c379a0000000000000000000000000000000000000000000000000000000008152600401611549906126d6565b60405180910390fd5b600073ffffffffffffffffffffffffffffffffffffffff168873ffffffffffffffffffffffffffffffffffffffff16036115c1576040517f08c379a00000000000000000000000000000000000000000000000000000000081526004016115b890612742565b60405180910390fd5b600073ffffffffffffffffffffffffffffffffffffffff168173ffffffffffffffffffffffffffffffffffffffff1603611630576040517f08c379a0000000000000000000000000000000000000000000000000000000008152600401611627906127ae565b60405180910390fd5b60008060005b600154811015611b9857600060028281548110611656576116556127ce565b5b9060005260206000209060080201604051806101000160405290816000820160009054906101000a900473ffffffffffffffffffffffffffffffffffffffff1673ffffffffffffffffffffffffffffffffffffffff1673ffffffffffffffffffffffffffffffffffffffff1681526020016001820180546116d690612659565b80601f016020809104026020016040519081016040528092919081815260200182805461170290612659565b801561174f5780601f106117245761010080835404028352916020019161174f565b820191906000526020600020905b81548152906001019060200180831161173257829003601f168201915b5050505050815260200160028201805461176890612659565b80601f016020809104026020016040519081016040528092919081815260200182805461179490612659565b80156117e15780601f106117b6576101008083540402835291602001916117e1565b820191906000526020600020905b8154815290600101906020018083116117c457829003601f168201915b505050505081526020016003820180546117fa90612659565b80601f016020809104026020016040519081016040528092919081815260200182805461182690612659565b80156118735780601f1061184857610100808354040283529160200191611873565b820191906000526020600020905b81548152906001019060200180831161185657829003601f168201915b5050505050815260200160048201805461188c90612659565b80601f01602080910402602001604051908101604052809291908181526020018280546118b890612659565b80156119055780601f106118da57610100808354040283529160200191611905565b820191906000526020600020905b8154815290600101906020018083116118e857829003601f168201915b5050505050815260200160058201548152602001600682015481526020016007820160009054906101000a900473ffffffffffffffffffffffffffffffffffffffff1673ffffffffffffffffffffffffffffffffffffffff1673ffffffffffffffffffffffffffffffffffffffff168152505090508b73ffffffffffffffffffffffffffffffffffffffff16816000015173ffffffffffffffffffffffffffffffffffffffff16148015611a0857508a6040516020016119c59190612839565b6040516020818303038152906040528051906020012081602001516040516020016119f09190612839565b60405160208183030381529060405280519060200120145b8015611a63575089604051602001611a209190612839565b604051602081830303815290604052805190602001208160400151604051602001611a4b9190612839565b60405160208183030381529060405280519060200120145b8015611abe575088604051602001611a7b9190612839565b604051602081830303815290604052805190602001208160600151604051602001611aa69190612839565b60405160208183030381529060405280519060200120145b8015611b19575087604051602001611ad69190612839565b604051602081830303815290604052805190602001208160800151604051602001611b019190612839565b60405160208183030381529060405280519060200120145b8015611b285750868160a00151145b8015611b375750858160c00151145b8015611b7257508473ffffffffffffffffffffffffffffffffffffffff168160e0015173ffffffffffffffffffffffffffffffffffffffff16145b15611b84576001935081925050611b98565b508080611b909061287f565b915050611636565b5081611bd9576040517f08c379a0000000000000000000000000000000000000000000000000000000008152600401611bd090612913565b60405180910390fd5b60028181548110611bed57611bec6127ce565b5b9060005260206000209060080201600080820160006101000a81549073ffffffffffffffffffffffffffffffffffffffff0219169055600182016000611c339190611e1f565b600282016000611c439190611e1f565b600382016000611c539190611e1f565b600482016000611c639190611e1f565b600582016000905560068201600090556007820160006101000a81549073ffffffffffffffffffffffffffffffffffffffff0219169055505060038181548110611cb057611caf6127ce565b5b90600052602060002090600a02016000808201600080820160006101000a81549073ffffffffffffffffffffffffffffffffffffffff0219169055600182016000611cfb9190611e1f565b600282016000611d0b9190611e1f565b600382016000611d1b9190611e1f565b600482016000611d2b9190611e1f565b600582016000905560068201600090556007820160006101000a81549073ffffffffffffffffffffffffffffffffffffffff02191690555050600882016000611d749190611e1f565b600982016000611d849190611e1f565b505060016000815480929190611d9990612c59565b91905055508273ffffffffffffffffffffffffffffffffffffffff168a73ffffffffffffffffffffffffffffffffffffffff167f4976c9ce64a3a8c13959eded5a8a9a089ea50ba8c6a1f0adda6585a1e13489b88b8b8b8b8b8b604051611e0596959493929190612c82565b60405180910390a350505050505050505050565b60015481565b508054611e2b90612659565b6000825580601f10611e3d5750611e5c565b601f016020900490600052602060002090810190611e5b9190611e5f565b5b50565b5b80821115611e78576000816000905550600101611e60565b5090565b6000604051905090565b600080fd5b600080fd5b6000819050919050565b611ea381611e90565b8114611eae57600080fd5b50565b600081359050611ec081611e9a565b92915050565b600060208284031215611edc57611edb611e86565b5b6000611eea84828501611eb1565b91505092915050565b600073ffffffffffffffffffffffffffffffffffffffff82169050919050565b6000611f1e82611ef3565b9050919050565b611f2e81611f13565b82525050565b600081519050919050565b600082825260208201905092915050565b60005b83811015611f6e578082015181840152602081019050611f53565b60008484015250505050565b6000601f19601f8301169050919050565b6000611f9682611f34565b611fa08185611f3f565b9350611fb0818560208601611f50565b611fb981611f7a565b840191505092915050565b611fcd81611e90565b82525050565b600061010082019050611fe9600083018b611f25565b8181036020830152611ffb818a611f8b565b9050818103604083015261200f8189611f8b565b905081810360608301526120238188611f8b565b905081810360808301526120378187611f8b565b905061204660a0830186611fc4565b61205360c0830185611fc4565b61206060e0830184611f25565b9998505050505050505050565b61207681611f13565b811461208157600080fd5b50565b6000813590506120938161206d565b92915050565b600080fd5b600080fd5b7f4e487b7100000000000000000000000000000000000000000000000000000000600052604160045260246000fd5b6120db82611f7a565b810181811067ffffffffffffffff821117156120fa576120f96120a3565b5b80604052505050565b600061210d611e7c565b905061211982826120d2565b919050565b600067ffffffffffffffff821115612139576121386120a3565b5b61214282611f7a565b9050602081019050919050565b82818337600083830152505050565b600061217161216c8461211e565b612103565b90508281526020810184848401111561218d5761218c61209e565b5b61219884828561214f565b509392505050565b600082601f8301126121b5576121b4612099565b5b81356121c584826020860161215e565b91505092915050565b600080600080600080600080610100898b0312156121ef576121ee611e86565b5b60006121fd8b828c01612084565b985050602089013567ffffffffffffffff81111561221e5761221d611e8b565b5b61222a8b828c016121a0565b975050604089013567ffffffffffffffff81111561224b5761224a611e8b565b5b6122578b828c016121a0565b965050606089013567ffffffffffffffff81111561227857612277611e8b565b5b6122848b828c016121a0565b955050608089013567ffffffffffffffff8111156122a5576122a4611e8b565b5b6122b18b828c016121a0565b94505060a06122c28b828c01611eb1565b93505060c06122d38b828c01611eb1565b92505060e06122e48b828c01612084565b9150509295985092959890939650565b60006020820190506123096000830184611f25565b92915050565b6000806000806000806000806000806101408b8d03121561233357612332611e86565b5b60006123418d828e01612084565b9a505060208b013567ffffffffffffffff81111561236257612361611e8b565b5b61236e8d828e016121a0565b99505060408b013567ffffffffffffffff81111561238f5761238e611e8b565b5b61239b8d828e016121a0565b98505060608b013567ffffffffffffffff8111156123bc576123bb611e8b565b5b6123c88d828e016121a0565b97505060808b013567ffffffffffffffff8111156123e9576123e8611e8b565b5b6123f58d828e016121a0565b96505060a06124068d828e01611eb1565b95505060c06124178d828e01611eb1565b94505060e06124288d828e01612084565b9350506101008b013567ffffffffffffffff81111561244a57612449611e8b565b5b6124568d828e016121a0565b9250506101208b013567ffffffffffffffff81111561247857612477611e8b565b5b6124848d828e016121a0565b9150509295989b9194979a5092959850565b61249f81611f13565b82525050565b600082825260208201905092915050565b60006124c182611f34565b6124cb81856124a5565b93506124db818560208601611f50565b6124e481611f7a565b840191505092915050565b6124f881611e90565b82525050565b6000610100830160008301516125176000860182612496565b506020830151848203602086015261252f82826124b6565b9150506040830151848203604086015261254982826124b6565b9150506060830151848203606086015261256382826124b6565b9150506080830151848203608086015261257d82826124b6565b91505060a083015161259260a08601826124ef565b5060c08301516125a560c08601826124ef565b5060e08301516125b860e0860182612496565b508091505092915050565b600060608201905081810360008301526125dd81866124fe565b905081810360208301526125f18185611f8b565b905081810360408301526126058184611f8b565b9050949350505050565b60006020820190506126246000830184611fc4565b92915050565b7f4e487b7100000000000000000000000000000000000000000000000000000000600052602260045260246000fd5b6000600282049050600182168061267157607f821691505b6020821081036126845761268361262a565b5b50919050565b7f4f6e6c7920636f6e7472616374206f776e657200000000000000000000000000600082015250565b60006126c0601383611f3f565b91506126cb8261268a565b602082019050919050565b600060208201905081810360008301526126ef816126b3565b9050919050565b7f476563657273697a206b69726163692061647265736900000000000000000000600082015250565b600061272c601683611f3f565b9150612737826126f6565b602082019050919050565b6000602082019050818103600083015261275b8161271f565b9050919050565b7f476563657273697a207361686970206164726573690000000000000000000000600082015250565b6000612798601583611f3f565b91506127a382612762565b602082019050919050565b600060208201905081810360008301526127c78161278b565b9050919050565b7f4e487b7100000000000000000000000000000000000000000000000000000000600052603260045260246000fd5b600081905092915050565b600061281382611f34565b61281d81856127fd565b935061282d818560208601611f50565b80840191505092915050565b60006128458284612808565b915081905092915050565b7f4e487b7100000000000000000000000000000000000000000000000000000000600052601160045260246000fd5b600061288a82611e90565b91507fffffffffffffffffffffffffffffffffffffffffffffffffffffffffffffffff82036128bc576128bb612850565b5b600182019050919050565b7f4b6972616c616d612062756c756e616d61646900000000000000000000000000600082015250565b60006128fd601383611f3f565b9150612908826128c7565b602082019050919050565b6000602082019050818103600083015261292c816128f0565b9050919050565b60008190508160005260206000209050919050565b60006020601f8301049050919050565b600082821b905092915050565b6000600883026129957fffffffffffffffffffffffffffffffffffffffffffffffffffffffffffffffff82612958565b61299f8683612958565b95508019841693508086168417925050509392505050565b6000819050919050565b60006129dc6129d76129d284611e90565b6129b7565b611e90565b9050919050565b6000819050919050565b6129f6836129c1565b612a0a612a02826129e3565b848454612965565b825550505050565b600090565b612a1f612a12565b612a2a8184846129ed565b505050565b5b81811015612a4e57612a43600082612a17565b600181019050612a30565b5050565b601f821115612a9357612a6481612933565b612a6d84612948565b81016020851015612a7c578190505b612a90612a8885612948565b830182612a2f565b50505b505050565b600082821c905092915050565b6000612ab660001984600802612a98565b1980831691505092915050565b6000612acf8383612aa5565b9150826002028217905092915050565b612ae882611f34565b67ffffffffffffffff811115612b0157612b006120a3565b5b612b0b8254612659565b612b16828285612a52565b600060209050601f831160018114612b495760008415612b37578287015190505b612b418582612ac3565b865550612ba9565b601f198416612b5786612933565b60005b82811015612b7f57848901518255600182019150602085019450602081019050612b5a565b86831015612b9c5784890151612b98601f891682612aa5565b8355505b6001600288020188555050505b505050505050565b6000610100820190508181036000830152612bcc818b611f8b565b90508181036020830152612be0818a611f8b565b90508181036040830152612bf48189611f8b565b90508181036060830152612c088188611f8b565b9050612c176080830187611fc4565b612c2460a0830186611fc4565b81810360c0830152612c368185611f8b565b905081810360e0830152612c4a8184611f8b565b90509998505050505050505050565b6000612c6482611e90565b915060008203612c7757612c76612850565b5b600182039050919050565b600060c0820190508181036000830152612c9c8189611f8b565b90508181036020830152612cb08188611f8b565b90508181036040830152612cc48187611f8b565b90508181036060830152612cd88186611f8b565b9050612ce76080830185611fc4565b612cf460a0830184611fc4565b97965050505050505056fea2646970667358221220e30d8c782dfc637a1890096e521165d63c0945341561dc3ee74fdaaa2a92b63364736f6c63430008120033",
					"opcodes": "PUSH1 0x80 PUSH1 0x40 MSTORE CALLVALUE DUP1 ISZERO PUSH2 0x10 JUMPI PUSH1 0x0 DUP1 REVERT JUMPDEST POP CALLER PUSH1 0x0 DUP1 PUSH2 0x100 EXP DUP2 SLOAD DUP2 PUSH20 0xFFFFFFFFFFFFFFFFFFFFFFFFFFFFFFFFFFFFFFFF MUL NOT AND SWAP1 DUP4 PUSH20 0xFFFFFFFFFFFFFFFFFFFFFFFFFFFFFFFFFFFFFFFF AND MUL OR SWAP1 SSTORE POP PUSH1 0x0 PUSH1 0x1 DUP2 SWAP1 SSTORE POP PUSH2 0x2D35 DUP1 PUSH2 0x68 PUSH1 0x0 CODECOPY PUSH1 0x0 RETURN INVALID PUSH1 0x80 PUSH1 0x40 MSTORE CALLVALUE DUP1 ISZERO PUSH2 0x10 JUMPI PUSH1 0x0 DUP1 REVERT JUMPDEST POP PUSH1 0x4 CALLDATASIZE LT PUSH2 0x7D JUMPI PUSH1 0x0 CALLDATALOAD PUSH1 0xE0 SHR DUP1 PUSH4 0xD017C632 GT PUSH2 0x5B JUMPI DUP1 PUSH4 0xD017C632 EQ PUSH2 0xF3 JUMPI DUP1 PUSH4 0xEB6822CD EQ PUSH2 0x10F JUMPI DUP1 PUSH4 0xECAAC378 EQ PUSH2 0x141 JUMPI DUP1 PUSH4 0xF2F9D555 EQ PUSH2 0x15D JUMPI PUSH2 0x7D JUMP JUMPDEST DUP1 PUSH4 0x4748FBC0 EQ PUSH2 0x82 JUMPI DUP1 PUSH4 0x644486B8 EQ PUSH2 0xB9 JUMPI DUP1 PUSH4 0x6F33506B EQ PUSH2 0xD5 JUMPI JUMPDEST PUSH1 0x0 DUP1 REVERT JUMPDEST PUSH2 0x9C PUSH1 0x4 DUP1 CALLDATASIZE SUB DUP2 ADD SWAP1 PUSH2 0x97 SWAP2 SWAP1 PUSH2 0x1EC6 JUMP JUMPDEST PUSH2 0x17B JUMP JUMPDEST PUSH1 0x40 MLOAD PUSH2 0xB0 SWAP9 SWAP8 SWAP7 SWAP6 SWAP5 SWAP4 SWAP3 SWAP2 SWAP1 PUSH2 0x1FD3 JUMP JUMPDEST PUSH1 0x40 MLOAD DUP1 SWAP2 SUB SWAP1 RETURN JUMPDEST PUSH2 0xD3 PUSH1 0x4 DUP1 CALLDATASIZE SUB DUP2 ADD SWAP1 PUSH2 0xCE SWAP2 SWAP1 PUSH2 0x21CE JUMP JUMPDEST PUSH2 0x433 JUMP JUMPDEST STOP JUMPDEST PUSH2 0xDD PUSH2 0xB2E JUMP JUMPDEST PUSH1 0x40 MLOAD PUSH2 0xEA SWAP2 SWAP1 PUSH2 0x22F4 JUMP JUMPDEST PUSH1 0x40 MLOAD DUP1 SWAP2 SUB SWAP1 RETURN JUMPDEST PUSH2 0x10D PUSH1 0x4 DUP1 CALLDATASIZE SUB DUP2 ADD SWAP1 PUSH2 0x108 SWAP2 SWAP1 PUSH2 0x230F JUMP JUMPDEST PUSH2 0xB52 JUMP JUMPDEST STOP JUMPDEST PUSH2 0x129 PUSH1 0x4 DUP1 CALLDATASIZE SUB DUP2 ADD SWAP1 PUSH2 0x124 SWAP2 SWAP1 PUSH2 0x1EC6 JUMP JUMPDEST PUSH2 0x1067 JUMP JUMPDEST PUSH1 0x40 MLOAD PUSH2 0x138 SWAP4 SWAP3 SWAP2 SWAP1 PUSH2 0x25C3 JUMP JUMPDEST PUSH1 0x40 MLOAD DUP1 SWAP2 SUB SWAP1 RETURN JUMPDEST PUSH2 0x15B PUSH1 0x4 DUP1 CALLDATASIZE SUB DUP2 ADD SWAP1 PUSH2 0x156 SWAP2 SWAP1 PUSH2 0x21CE JUMP JUMPDEST PUSH2 0x14C4 JUMP JUMPDEST STOP JUMPDEST PUSH2 0x165 PUSH2 0x1E19 JUMP JUMPDEST PUSH1 0x40 MLOAD PUSH2 0x172 SWAP2 SWAP1 PUSH2 0x260F JUMP JUMPDEST PUSH1 0x40 MLOAD DUP1 SWAP2 SUB SWAP1 RETURN JUMPDEST PUSH1 0x2 DUP2 DUP2 SLOAD DUP2 LT PUSH2 0x18B JUMPI PUSH1 0x0 DUP1 REVERT JUMPDEST SWAP1 PUSH1 0x0 MSTORE PUSH1 0x20 PUSH1 0x0 KECCAK256 SWAP1 PUSH1 0x8 MUL ADD PUSH1 0x0 SWAP2 POP SWAP1 POP DUP1 PUSH1 0x0 ADD PUSH1 0x0 SWAP1 SLOAD SWAP1 PUSH2 0x100 EXP SWAP1 DIV PUSH20 0xFFFFFFFFFFFFFFFFFFFFFFFFFFFFFFFFFFFFFFFF AND SWAP1 DUP1 PUSH1 0x1 ADD DUP1 SLOAD PUSH2 0x1D4 SWAP1 PUSH2 0x2659 JUMP JUMPDEST DUP1 PUSH1 0x1F ADD PUSH1 0x20 DUP1 SWAP2 DIV MUL PUSH1 0x20 ADD PUSH1 0x40 MLOAD SWAP1 DUP2 ADD PUSH1 0x40 MSTORE DUP1 SWAP3 SWAP2 SWAP1 DUP2 DUP2 MSTORE PUSH1 0x20 ADD DUP3 DUP1 SLOAD PUSH2 0x200 SWAP1 PUSH2 0x2659 JUMP JUMPDEST DUP1 ISZERO PUSH2 0x24D JUMPI DUP1 PUSH1 0x1F LT PUSH2 0x222 JUMPI PUSH2 0x100 DUP1 DUP4 SLOAD DIV MUL DUP4 MSTORE SWAP2 PUSH1 0x20 ADD SWAP2 PUSH2 0x24D JUMP JUMPDEST DUP3 ADD SWAP2 SWAP1 PUSH1 0x0 MSTORE PUSH1 0x20 PUSH1 0x0 KECCAK256 SWAP1 JUMPDEST DUP2 SLOAD DUP2 MSTORE SWAP1 PUSH1 0x1 ADD SWAP1 PUSH1 0x20 ADD DUP1 DUP4 GT PUSH2 0x230 JUMPI DUP3 SWAP1 SUB PUSH1 0x1F AND DUP3 ADD SWAP2 JUMPDEST POP POP POP POP POP SWAP1 DUP1 PUSH1 0x2 ADD DUP1 SLOAD PUSH2 0x262 SWAP1 PUSH2 0x2659 JUMP JUMPDEST DUP1 PUSH1 0x1F ADD PUSH1 0x20 DUP1 SWAP2 DIV MUL PUSH1 0x20 ADD PUSH1 0x40 MLOAD SWAP1 DUP2 ADD PUSH1 0x40 MSTORE DUP1 SWAP3 SWAP2 SWAP1 DUP2 DUP2 MSTORE PUSH1 0x20 ADD DUP3 DUP1 SLOAD PUSH2 0x28E SWAP1 PUSH2 0x2659 JUMP JUMPDEST DUP1 ISZERO PUSH2 0x2DB JUMPI DUP1 PUSH1 0x1F LT PUSH2 0x2B0 JUMPI PUSH2 0x100 DUP1 DUP4 SLOAD DIV MUL DUP4 MSTORE SWAP2 PUSH1 0x20 ADD SWAP2 PUSH2 0x2DB JUMP JUMPDEST DUP3 ADD SWAP2 SWAP1 PUSH1 0x0 MSTORE PUSH1 0x20 PUSH1 0x0 KECCAK256 SWAP1 JUMPDEST DUP2 SLOAD DUP2 MSTORE SWAP1 PUSH1 0x1 ADD SWAP1 PUSH1 0x20 ADD DUP1 DUP4 GT PUSH2 0x2BE JUMPI DUP3 SWAP1 SUB PUSH1 0x1F AND DUP3 ADD SWAP2 JUMPDEST POP POP POP POP POP SWAP1 DUP1 PUSH1 0x3 ADD DUP1 SLOAD PUSH2 0x2F0 SWAP1 PUSH2 0x2659 JUMP JUMPDEST DUP1 PUSH1 0x1F ADD PUSH1 0x20 DUP1 SWAP2 DIV MUL PUSH1 0x20 ADD PUSH1 0x40 MLOAD SWAP1 DUP2 ADD PUSH1 0x40 MSTORE DUP1 SWAP3 SWAP2 SWAP1 DUP2 DUP2 MSTORE PUSH1 0x20 ADD DUP3 DUP1 SLOAD PUSH2 0x31C SWAP1 PUSH2 0x2659 JUMP JUMPDEST DUP1 ISZERO PUSH2 0x369 JUMPI DUP1 PUSH1 0x1F LT PUSH2 0x33E JUMPI PUSH2 0x100 DUP1 DUP4 SLOAD DIV MUL DUP4 MSTORE SWAP2 PUSH1 0x20 ADD SWAP2 PUSH2 0x369 JUMP JUMPDEST DUP3 ADD SWAP2 SWAP1 PUSH1 0x0 MSTORE PUSH1 0x20 PUSH1 0x0 KECCAK256 SWAP1 JUMPDEST DUP2 SLOAD DUP2 MSTORE SWAP1 PUSH1 0x1 ADD SWAP1 PUSH1 0x20 ADD DUP1 DUP4 GT PUSH2 0x34C JUMPI DUP3 SWAP1 SUB PUSH1 0x1F AND DUP3 ADD SWAP2 JUMPDEST POP POP POP POP POP SWAP1 DUP1 PUSH1 0x4 ADD DUP1 SLOAD PUSH2 0x37E SWAP1 PUSH2 0x2659 JUMP JUMPDEST DUP1 PUSH1 0x1F ADD PUSH1 0x20 DUP1 SWAP2 DIV MUL PUSH1 0x20 ADD PUSH1 0x40 MLOAD SWAP1 DUP2 ADD PUSH1 0x40 MSTORE DUP1 SWAP3 SWAP2 SWAP1 DUP2 DUP2 MSTORE PUSH1 0x20 ADD DUP3 DUP1 SLOAD PUSH2 0x3AA SWAP1 PUSH2 0x2659 JUMP JUMPDEST DUP1 ISZERO PUSH2 0x3F7 JUMPI DUP1 PUSH1 0x1F LT PUSH2 0x3CC JUMPI PUSH2 0x100 DUP1 DUP4 SLOAD DIV MUL DUP4 MSTORE SWAP2 PUSH1 0x20 ADD SWAP2 PUSH2 0x3F7 JUMP JUMPDEST DUP3 ADD SWAP2 SWAP1 PUSH1 0x0 MSTORE PUSH1 0x20 PUSH1 0x0 KECCAK256 SWAP1 JUMPDEST DUP2 SLOAD DUP2 MSTORE SWAP1 PUSH1 0x1 ADD SWAP1 PUSH1 0x20 ADD DUP1 DUP4 GT PUSH2 0x3DA JUMPI DUP3 SWAP1 SUB PUSH1 0x1F AND DUP3 ADD SWAP2 JUMPDEST POP POP POP POP POP SWAP1 DUP1 PUSH1 0x5 ADD SLOAD SWAP1 DUP1 PUSH1 0x6 ADD SLOAD SWAP1 DUP1 PUSH1 0x7 ADD PUSH1 0x0 SWAP1 SLOAD SWAP1 PUSH2 0x100 EXP SWAP1 DIV PUSH20 0xFFFFFFFFFFFFFFFFFFFFFFFFFFFFFFFFFFFFFFFF AND SWAP1 POP DUP9 JUMP JUMPDEST DUP8 PUSH20 0xFFFFFFFFFFFFFFFFFFFFFFFFFFFFFFFFFFFFFFFF AND CALLER PUSH20 0xFFFFFFFFFFFFFFFFFFFFFFFFFFFFFFFFFFFFFFFF AND EQ PUSH2 0x4A1 JUMPI PUSH1 0x40 MLOAD PUSH32 0x8C379A000000000000000000000000000000000000000000000000000000000 DUP2 MSTORE PUSH1 0x4 ADD PUSH2 0x498 SWAP1 PUSH2 0x26D6 JUMP JUMPDEST PUSH1 0x40 MLOAD DUP1 SWAP2 SUB SWAP1 REVERT JUMPDEST PUSH1 0x0 PUSH20 0xFFFFFFFFFFFFFFFFFFFFFFFFFFFFFFFFFFFFFFFF AND DUP9 PUSH20 0xFFFFFFFFFFFFFFFFFFFFFFFFFFFFFFFFFFFFFFFF AND SUB PUSH2 0x510 JUMPI PUSH1 0x40 MLOAD PUSH32 0x8C379A000000000000000000000000000000000000000000000000000000000 DUP2 MSTORE PUSH1 0x4 ADD PUSH2 0x507 SWAP1 PUSH2 0x2742 JUMP JUMPDEST PUSH1 0x40 MLOAD DUP1 SWAP2 SUB SWAP1 REVERT JUMPDEST PUSH1 0x0 PUSH20 0xFFFFFFFFFFFFFFFFFFFFFFFFFFFFFFFFFFFFFFFF AND DUP2 PUSH20 0xFFFFFFFFFFFFFFFFFFFFFFFFFFFFFFFFFFFFFFFF AND SUB PUSH2 0x57F JUMPI PUSH1 0x40 MLOAD PUSH32 0x8C379A000000000000000000000000000000000000000000000000000000000 DUP2 MSTORE PUSH1 0x4 ADD PUSH2 0x576 SWAP1 PUSH2 0x27AE JUMP JUMPDEST PUSH1 0x40 MLOAD DUP1 SWAP2 SUB SWAP1 REVERT JUMPDEST PUSH1 0x0 DUP1 JUMPDEST PUSH1 0x1 SLOAD DUP2 LT ISZERO PUSH2 0xAE2 JUMPI PUSH1 0x0 PUSH1 0x2 DUP3 DUP2 SLOAD DUP2 LT PUSH2 0x5A3 JUMPI PUSH2 0x5A2 PUSH2 0x27CE JUMP JUMPDEST JUMPDEST SWAP1 PUSH1 0x0 MSTORE PUSH1 0x20 PUSH1 0x0 KECCAK256 SWAP1 PUSH1 0x8 MUL ADD PUSH1 0x40 MLOAD DUP1 PUSH2 0x100 ADD PUSH1 0x40 MSTORE SWAP1 DUP2 PUSH1 0x0 DUP3 ADD PUSH1 0x0 SWAP1 SLOAD SWAP1 PUSH2 0x100 EXP SWAP1 DIV PUSH20 0xFFFFFFFFFFFFFFFFFFFFFFFFFFFFFFFFFFFFFFFF AND PUSH20 0xFFFFFFFFFFFFFFFFFFFFFFFFFFFFFFFFFFFFFFFF AND PUSH20 0xFFFFFFFFFFFFFFFFFFFFFFFFFFFFFFFFFFFFFFFF AND DUP2 MSTORE PUSH1 0x20 ADD PUSH1 0x1 DUP3 ADD DUP1 SLOAD PUSH2 0x623 SWAP1 PUSH2 0x2659 JUMP JUMPDEST DUP1 PUSH1 0x1F ADD PUSH1 0x20 DUP1 SWAP2 DIV MUL PUSH1 0x20 ADD PUSH1 0x40 MLOAD SWAP1 DUP2 ADD PUSH1 0x40 MSTORE DUP1 SWAP3 SWAP2 SWAP1 DUP2 DUP2 MSTORE PUSH1 0x20 ADD DUP3 DUP1 SLOAD PUSH2 0x64F SWAP1 PUSH2 0x2659 JUMP JUMPDEST DUP1 ISZERO PUSH2 0x69C JUMPI DUP1 PUSH1 0x1F LT PUSH2 0x671 JUMPI PUSH2 0x100 DUP1 DUP4 SLOAD DIV MUL DUP4 MSTORE SWAP2 PUSH1 0x20 ADD SWAP2 PUSH2 0x69C JUMP JUMPDEST DUP3 ADD SWAP2 SWAP1 PUSH1 0x0 MSTORE PUSH1 0x20 PUSH1 0x0 KECCAK256 SWAP1 JUMPDEST DUP2 SLOAD DUP2 MSTORE SWAP1 PUSH1 0x1 ADD SWAP1 PUSH1 0x20 ADD DUP1 DUP4 GT PUSH2 0x67F JUMPI DUP3 SWAP1 SUB PUSH1 0x1F AND DUP3 ADD SWAP2 JUMPDEST POP POP POP POP POP DUP2 MSTORE PUSH1 0x20 ADD PUSH1 0x2 DUP3 ADD DUP1 SLOAD PUSH2 0x6B5 SWAP1 PUSH2 0x2659 JUMP JUMPDEST DUP1 PUSH1 0x1F ADD PUSH1 0x20 DUP1 SWAP2 DIV MUL PUSH1 0x20 ADD PUSH1 0x40 MLOAD SWAP1 DUP2 ADD PUSH1 0x40 MSTORE DUP1 SWAP3 SWAP2 SWAP1 DUP2 DUP2 MSTORE PUSH1 0x20 ADD DUP3 DUP1 SLOAD PUSH2 0x6E1 SWAP1 PUSH2 0x2659 JUMP JUMPDEST DUP1 ISZERO PUSH2 0x72E JUMPI DUP1 PUSH1 0x1F LT PUSH2 0x703 JUMPI PUSH2 0x100 DUP1 DUP4 SLOAD DIV MUL DUP4 MSTORE SWAP2 PUSH1 0x20 ADD SWAP2 PUSH2 0x72E JUMP JUMPDEST DUP3 ADD SWAP2 SWAP1 PUSH1 0x0 MSTORE PUSH1 0x20 PUSH1 0x0 KECCAK256 SWAP1 JUMPDEST DUP2 SLOAD DUP2 MSTORE SWAP1 PUSH1 0x1 ADD SWAP1 PUSH1 0x20 ADD DUP1 DUP4 GT PUSH2 0x711 JUMPI DUP3 SWAP1 SUB PUSH1 0x1F AND DUP3 ADD SWAP2 JUMPDEST POP POP POP POP POP DUP2 MSTORE PUSH1 0x20 ADD PUSH1 0x3 DUP3 ADD DUP1 SLOAD PUSH2 0x747 SWAP1 PUSH2 0x2659 JUMP JUMPDEST DUP1 PUSH1 0x1F ADD PUSH1 0x20 DUP1 SWAP2 DIV MUL PUSH1 0x20 ADD PUSH1 0x40 MLOAD SWAP1 DUP2 ADD PUSH1 0x40 MSTORE DUP1 SWAP3 SWAP2 SWAP1 DUP2 DUP2 MSTORE PUSH1 0x20 ADD DUP3 DUP1 SLOAD PUSH2 0x773 SWAP1 PUSH2 0x2659 JUMP JUMPDEST DUP1 ISZERO PUSH2 0x7C0 JUMPI DUP1 PUSH1 0x1F LT PUSH2 0x795 JUMPI PUSH2 0x100 DUP1 DUP4 SLOAD DIV MUL DUP4 MSTORE SWAP2 PUSH1 0x20 ADD SWAP2 PUSH2 0x7C0 JUMP JUMPDEST DUP3 ADD SWAP2 SWAP1 PUSH1 0x0 MSTORE PUSH1 0x20 PUSH1 0x0 KECCAK256 SWAP1 JUMPDEST DUP2 SLOAD DUP2 MSTORE SWAP1 PUSH1 0x1 ADD SWAP1 PUSH1 0x20 ADD DUP1 DUP4 GT PUSH2 0x7A3 JUMPI DUP3 SWAP1 SUB PUSH1 0x1F AND DUP3 ADD SWAP2 JUMPDEST POP POP POP POP POP DUP2 MSTORE PUSH1 0x20 ADD PUSH1 0x4 DUP3 ADD DUP1 SLOAD PUSH2 0x7D9 SWAP1 PUSH2 0x2659 JUMP JUMPDEST DUP1 PUSH1 0x1F ADD PUSH1 0x20 DUP1 SWAP2 DIV MUL PUSH1 0x20 ADD PUSH1 0x40 MLOAD SWAP1 DUP2 ADD PUSH1 0x40 MSTORE DUP1 SWAP3 SWAP2 SWAP1 DUP2 DUP2 MSTORE PUSH1 0x20 ADD DUP3 DUP1 SLOAD PUSH2 0x805 SWAP1 PUSH2 0x2659 JUMP JUMPDEST DUP1 ISZERO PUSH2 0x852 JUMPI DUP1 PUSH1 0x1F LT PUSH2 0x827 JUMPI PUSH2 0x100 DUP1 DUP4 SLOAD DIV MUL DUP4 MSTORE SWAP2 PUSH1 0x20 ADD SWAP2 PUSH2 0x852 JUMP JUMPDEST DUP3 ADD SWAP2 SWAP1 PUSH1 0x0 MSTORE PUSH1 0x20 PUSH1 0x0 KECCAK256 SWAP1 JUMPDEST DUP2 SLOAD DUP2 MSTORE SWAP1 PUSH1 0x1 ADD SWAP1 PUSH1 0x20 ADD DUP1 DUP4 GT PUSH2 0x835 JUMPI DUP3 SWAP1 SUB PUSH1 0x1F AND DUP3 ADD SWAP2 JUMPDEST POP POP POP POP POP DUP2 MSTORE PUSH1 0x20 ADD PUSH1 0x5 DUP3 ADD SLOAD DUP2 MSTORE PUSH1 0x20 ADD PUSH1 0x6 DUP3 ADD SLOAD DUP2 MSTORE PUSH1 0x20 ADD PUSH1 0x7 DUP3 ADD PUSH1 0x0 SWAP1 SLOAD SWAP1 PUSH2 0x100 EXP SWAP1 DIV PUSH20 0xFFFFFFFFFFFFFFFFFFFFFFFFFFFFFFFFFFFFFFFF AND PUSH20 0xFFFFFFFFFFFFFFFFFFFFFFFFFFFFFFFFFFFFFFFF AND PUSH20 0xFFFFFFFFFFFFFFFFFFFFFFFFFFFFFFFFFFFFFFFF AND DUP2 MSTORE POP POP SWAP1 POP DUP11 PUSH20 0xFFFFFFFFFFFFFFFFFFFFFFFFFFFFFFFFFFFFFFFF AND DUP2 PUSH1 0x0 ADD MLOAD PUSH20 0xFFFFFFFFFFFFFFFFFFFFFFFFFFFFFFFFFFFFFFFF AND EQ DUP1 ISZERO PUSH2 0x955 JUMPI POP DUP10 PUSH1 0x40 MLOAD PUSH1 0x20 ADD PUSH2 0x912 SWAP2 SWAP1 PUSH2 0x2839 JUMP JUMPDEST PUSH1 0x40 MLOAD PUSH1 0x20 DUP2 DUP4 SUB SUB DUP2 MSTORE SWAP1 PUSH1 0x40 MSTORE DUP1 MLOAD SWAP1 PUSH1 0x20 ADD KECCAK256 DUP2 PUSH1 0x20 ADD MLOAD PUSH1 0x40 MLOAD PUSH1 0x20 ADD PUSH2 0x93D SWAP2 SWAP1 PUSH2 0x2839 JUMP JUMPDEST PUSH1 0x40 MLOAD PUSH1 0x20 DUP2 DUP4 SUB SUB DUP2 MSTORE SWAP1 PUSH1 0x40 MSTORE DUP1 MLOAD SWAP1 PUSH1 0x20 ADD KECCAK256 EQ JUMPDEST DUP1 ISZERO PUSH2 0x9B0 JUMPI POP DUP9 PUSH1 0x40 MLOAD PUSH1 0x20 ADD PUSH2 0x96D SWAP2 SWAP1 PUSH2 0x2839 JUMP JUMPDEST PUSH1 0x40 MLOAD PUSH1 0x20 DUP2 DUP4 SUB SUB DUP2 MSTORE SWAP1 PUSH1 0x40 MSTORE DUP1 MLOAD SWAP1 PUSH1 0x20 ADD KECCAK256 DUP2 PUSH1 0x40 ADD MLOAD PUSH1 0x40 MLOAD PUSH1 0x20 ADD PUSH2 0x998 SWAP2 SWAP1 PUSH2 0x2839 JUMP JUMPDEST PUSH1 0x40 MLOAD PUSH1 0x20 DUP2 DUP4 SUB SUB DUP2 MSTORE SWAP1 PUSH1 0x40 MSTORE DUP1 MLOAD SWAP1 PUSH1 0x20 ADD KECCAK256 EQ JUMPDEST DUP1 ISZERO PUSH2 0xA0B JUMPI POP DUP8 PUSH1 0x40 MLOAD PUSH1 0x20 ADD PUSH2 0x9C8 SWAP2 SWAP1 PUSH2 0x2839 JUMP JUMPDEST PUSH1 0x40 MLOAD PUSH1 0x20 DUP2 DUP4 SUB SUB DUP2 MSTORE SWAP1 PUSH1 0x40 MSTORE DUP1 MLOAD SWAP1 PUSH1 0x20 ADD KECCAK256 DUP2 PUSH1 0x60 ADD MLOAD PUSH1 0x40 MLOAD PUSH1 0x20 ADD PUSH2 0x9F3 SWAP2 SWAP1 PUSH2 0x2839 JUMP JUMPDEST PUSH1 0x40 MLOAD PUSH1 0x20 DUP2 DUP4 SUB SUB DUP2 MSTORE SWAP1 PUSH1 0x40 MSTORE DUP1 MLOAD SWAP1 PUSH1 0x20 ADD KECCAK256 EQ JUMPDEST DUP1 ISZERO PUSH2 0xA66 JUMPI POP DUP7 PUSH1 0x40 MLOAD PUSH1 0x20 ADD PUSH2 0xA23 SWAP2 SWAP1 PUSH2 0x2839 JUMP JUMPDEST PUSH1 0x40 MLOAD PUSH1 0x20 DUP2 DUP4 SUB SUB DUP2 MSTORE SWAP1 PUSH1 0x40 MSTORE DUP1 MLOAD SWAP1 PUSH1 0x20 ADD KECCAK256 DUP2 PUSH1 0x80 ADD MLOAD PUSH1 0x40 MLOAD PUSH1 0x20 ADD PUSH2 0xA4E SWAP2 SWAP1 PUSH2 0x2839 JUMP JUMPDEST PUSH1 0x40 MLOAD PUSH1 0x20 DUP2 DUP4 SUB SUB DUP2 MSTORE SWAP1 PUSH1 0x40 MSTORE DUP1 MLOAD SWAP1 PUSH1 0x20 ADD KECCAK256 EQ JUMPDEST DUP1 ISZERO PUSH2 0xA75 JUMPI POP DUP6 DUP2 PUSH1 0xA0 ADD MLOAD EQ JUMPDEST DUP1 ISZERO PUSH2 0xA84 JUMPI POP DUP5 DUP2 PUSH1 0xC0 ADD MLOAD EQ JUMPDEST DUP1 ISZERO PUSH2 0xABF JUMPI POP DUP4 PUSH20 0xFFFFFFFFFFFFFFFFFFFFFFFFFFFFFFFFFFFFFFFF AND DUP2 PUSH1 0xE0 ADD MLOAD PUSH20 0xFFFFFFFFFFFFFFFFFFFFFFFFFFFFFFFFFFFFFFFF AND EQ JUMPDEST ISZERO PUSH2 0xACE JUMPI PUSH1 0x1 SWAP3 POP POP PUSH2 0xAE2 JUMP JUMPDEST POP DUP1 DUP1 PUSH2 0xADA SWAP1 PUSH2 0x287F JUMP JUMPDEST SWAP2 POP POP PUSH2 0x583 JUMP JUMPDEST POP DUP1 PUSH2 0xB23 JUMPI PUSH1 0x40 MLOAD PUSH32 0x8C379A000000000000000000000000000000000000000000000000000000000 DUP2 MSTORE PUSH1 0x4 ADD PUSH2 0xB1A SWAP1 PUSH2 0x2913 JUMP JUMPDEST PUSH1 0x40 MLOAD DUP1 SWAP2 SUB SWAP1 REVERT JUMPDEST POP POP POP POP POP POP POP POP POP JUMP JUMPDEST PUSH1 0x0 DUP1 SLOAD SWAP1 PUSH2 0x100 EXP SWAP1 DIV PUSH20 0xFFFFFFFFFFFFFFFFFFFFFFFFFFFFFFFFFFFFFFFF AND DUP2 JUMP JUMPDEST PUSH1 0x0 DUP1 SLOAD SWAP1 PUSH2 0x100 EXP SWAP1 DIV PUSH20 0xFFFFFFFFFFFFFFFFFFFFFFFFFFFFFFFFFFFFFFFF AND PUSH20 0xFFFFFFFFFFFFFFFFFFFFFFFFFFFFFFFFFFFFFFFF AND CALLER PUSH20 0xFFFFFFFFFFFFFFFFFFFFFFFFFFFFFFFFFFFFFFFF AND EQ PUSH2 0xBE0 JUMPI PUSH1 0x40 MLOAD PUSH32 0x8C379A000000000000000000000000000000000000000000000000000000000 DUP2 MSTORE PUSH1 0x4 ADD PUSH2 0xBD7 SWAP1 PUSH2 0x26D6 JUMP JUMPDEST PUSH1 0x40 MLOAD DUP1 SWAP2 SUB SWAP1 REVERT JUMPDEST PUSH1 0x0 PUSH20 0xFFFFFFFFFFFFFFFFFFFFFFFFFFFFFFFFFFFFFFFF AND DUP11 PUSH20 0xFFFFFFFFFFFFFFFFFFFFFFFFFFFFFFFFFFFFFFFF AND SUB PUSH2 0xC4F JUMPI PUSH1 0x40 MLOAD PUSH32 0x8C379A000000000000000000000000000000000000000000000000000000000 DUP2 MSTORE PUSH1 0x4 ADD PUSH2 0xC46 SWAP1 PUSH2 0x2742 JUMP JUMPDEST PUSH1 0x40 MLOAD DUP1 SWAP2 SUB SWAP1 REVERT JUMPDEST PUSH1 0x0 PUSH20 0xFFFFFFFFFFFFFFFFFFFFFFFFFFFFFFFFFFFFFFFF AND DUP4 PUSH20 0xFFFFFFFFFFFFFFFFFFFFFFFFFFFFFFFFFFFFFFFF AND SUB PUSH2 0xCBE JUMPI PUSH1 0x40 MLOAD PUSH32 0x8C379A000000000000000000000000000000000000000000000000000000000 DUP2 MSTORE PUSH1 0x4 ADD PUSH2 0xCB5 SWAP1 PUSH2 0x27AE JUMP JUMPDEST PUSH1 0x40 MLOAD DUP1 SWAP2 SUB SWAP1 REVERT JUMPDEST PUSH1 0x0 PUSH1 0x40 MLOAD DUP1 PUSH2 0x100 ADD PUSH1 0x40 MSTORE DUP1 DUP13 PUSH20 0xFFFFFFFFFFFFFFFFFFFFFFFFFFFFFFFFFFFFFFFF AND DUP2 MSTORE PUSH1 0x20 ADD DUP12 DUP2 MSTORE PUSH1 0x20 ADD DUP11 DUP2 MSTORE PUSH1 0x20 ADD DUP10 DUP2 MSTORE PUSH1 0x20 ADD DUP9 DUP2 MSTORE PUSH1 0x20 ADD DUP8 DUP2 MSTORE PUSH1 0x20 ADD DUP7 DUP2 MSTORE PUSH1 0x20 ADD DUP6 PUSH20 0xFFFFFFFFFFFFFFFFFFFFFFFFFFFFFFFFFFFFFFFF AND DUP2 MSTORE POP SWAP1 POP PUSH1 0x2 DUP2 SWAP1 DUP1 PUSH1 0x1 DUP2 SLOAD ADD DUP1 DUP3 SSTORE DUP1 SWAP2 POP POP PUSH1 0x1 SWAP1 SUB SWAP1 PUSH1 0x0 MSTORE PUSH1 0x20 PUSH1 0x0 KECCAK256 SWAP1 PUSH1 0x8 MUL ADD PUSH1 0x0 SWAP1 SWAP2 SWAP1 SWAP2 SWAP1 SWAP2 POP PUSH1 0x0 DUP3 ADD MLOAD DUP2 PUSH1 0x0 ADD PUSH1 0x0 PUSH2 0x100 EXP DUP2 SLOAD DUP2 PUSH20 0xFFFFFFFFFFFFFFFFFFFFFFFFFFFFFFFFFFFFFFFF MUL NOT AND SWAP1 DUP4 PUSH20 0xFFFFFFFFFFFFFFFFFFFFFFFFFFFFFFFFFFFFFFFF AND MUL OR SWAP1 SSTORE POP PUSH1 0x20 DUP3 ADD MLOAD DUP2 PUSH1 0x1 ADD SWAP1 DUP2 PUSH2 0xDB0 SWAP2 SWAP1 PUSH2 0x2ADF JUMP JUMPDEST POP PUSH1 0x40 DUP3 ADD MLOAD DUP2 PUSH1 0x2 ADD SWAP1 DUP2 PUSH2 0xDC6 SWAP2 SWAP1 PUSH2 0x2ADF JUMP JUMPDEST POP PUSH1 0x60 DUP3 ADD MLOAD DUP2 PUSH1 0x3 ADD SWAP1 DUP2 PUSH2 0xDDC SWAP2 SWAP1 PUSH2 0x2ADF JUMP JUMPDEST POP PUSH1 0x80 DUP3 ADD MLOAD DUP2 PUSH1 0x4 ADD SWAP1 DUP2 PUSH2 0xDF2 SWAP2 SWAP1 PUSH2 0x2ADF JUMP JUMPDEST POP PUSH1 0xA0 DUP3 ADD MLOAD DUP2 PUSH1 0x5 ADD SSTORE PUSH1 0xC0 DUP3 ADD MLOAD DUP2 PUSH1 0x6 ADD SSTORE PUSH1 0xE0 DUP3 ADD MLOAD DUP2 PUSH1 0x7 ADD PUSH1 0x0 PUSH2 0x100 EXP DUP2 SLOAD DUP2 PUSH20 0xFFFFFFFFFFFFFFFFFFFFFFFFFFFFFFFFFFFFFFFF MUL NOT AND SWAP1 DUP4 PUSH20 0xFFFFFFFFFFFFFFFFFFFFFFFFFFFFFFFFFFFFFFFF AND MUL OR SWAP1 SSTORE POP POP POP PUSH1 0x0 PUSH1 0x40 MLOAD DUP1 PUSH1 0x60 ADD PUSH1 0x40 MSTORE DUP1 DUP4 DUP2 MSTORE PUSH1 0x20 ADD DUP6 DUP2 MSTORE PUSH1 0x20 ADD DUP5 DUP2 MSTORE POP SWAP1 POP PUSH1 0x3 DUP2 SWAP1 DUP1 PUSH1 0x1 DUP2 SLOAD ADD DUP1 DUP3 SSTORE DUP1 SWAP2 POP POP PUSH1 0x1 SWAP1 SUB SWAP1 PUSH1 0x0 MSTORE PUSH1 0x20 PUSH1 0x0 KECCAK256 SWAP1 PUSH1 0xA MUL ADD PUSH1 0x0 SWAP1 SWAP2 SWAP1 SWAP2 SWAP1 SWAP2 POP PUSH1 0x0 DUP3 ADD MLOAD DUP2 PUSH1 0x0 ADD PUSH1 0x0 DUP3 ADD MLOAD DUP2 PUSH1 0x0 ADD PUSH1 0x0 PUSH2 0x100 EXP DUP2 SLOAD DUP2 PUSH20 0xFFFFFFFFFFFFFFFFFFFFFFFFFFFFFFFFFFFFFFFF MUL NOT AND SWAP1 DUP4 PUSH20 0xFFFFFFFFFFFFFFFFFFFFFFFFFFFFFFFFFFFFFFFF AND MUL OR SWAP1 SSTORE POP PUSH1 0x20 DUP3 ADD MLOAD DUP2 PUSH1 0x1 ADD SWAP1 DUP2 PUSH2 0xF00 SWAP2 SWAP1 PUSH2 0x2ADF JUMP JUMPDEST POP PUSH1 0x40 DUP3 ADD MLOAD DUP2 PUSH1 0x2 ADD SWAP1 DUP2 PUSH2 0xF16 SWAP2 SWAP1 PUSH2 0x2ADF JUMP JUMPDEST POP PUSH1 0x60 DUP3 ADD MLOAD DUP2 PUSH1 0x3 ADD SWAP1 DUP2 PUSH2 0xF2C SWAP2 SWAP1 PUSH2 0x2ADF JUMP JUMPDEST POP PUSH1 0x80 DUP3 ADD MLOAD DUP2 PUSH1 0x4 ADD SWAP1 DUP2 PUSH2 0xF42 SWAP2 SWAP1 PUSH2 0x2ADF JUMP JUMPDEST POP PUSH1 0xA0 DUP3 ADD MLOAD DUP2 PUSH1 0x5 ADD SSTORE PUSH1 0xC0 DUP3 ADD MLOAD DUP2 PUSH1 0x6 ADD SSTORE PUSH1 0xE0 DUP3 ADD MLOAD DUP2 PUSH1 0x7 ADD PUSH1 0x0 PUSH2 0x100 EXP DUP2 SLOAD DUP2 PUSH20 0xFFFFFFFFFFFFFFFFFFFFFFFFFFFFFFFFFFFFFFFF MUL NOT AND SWAP1 DUP4 PUSH20 0xFFFFFFFFFFFFFFFFFFFFFFFFFFFFFFFFFFFFFFFF AND MUL OR SWAP1 SSTORE POP POP POP PUSH1 0x20 DUP3 ADD MLOAD DUP2 PUSH1 0x8 ADD SWAP1 DUP2 PUSH2 0xFB5 SWAP2 SWAP1 PUSH2 0x2ADF JUMP JUMPDEST POP PUSH1 0x40 DUP3 ADD MLOAD DUP2 PUSH1 0x9 ADD SWAP1 DUP2 PUSH2 0xFCB SWAP2 SWAP1 PUSH2 0x2ADF JUMP JUMPDEST POP POP POP PUSH1 0x1 PUSH1 0x0 DUP2 SLOAD DUP1 SWAP3 SWAP2 SWAP1 PUSH2 0xFE1 SWAP1 PUSH2 0x287F JUMP JUMPDEST SWAP2 SWAP1 POP SSTORE POP DUP5 PUSH20 0xFFFFFFFFFFFFFFFFFFFFFFFFFFFFFFFFFFFFFFFF AND DUP13 PUSH20 0xFFFFFFFFFFFFFFFFFFFFFFFFFFFFFFFFFFFFFFFF AND PUSH32 0xAFE54AA3928951031E66A6806EF128BE28612B381C2BA48F14B6E9F1CDDBF665 DUP14 DUP14 DUP14 DUP14 DUP14 DUP14 DUP13 DUP13 PUSH1 0x40 MLOAD PUSH2 0x1051 SWAP9 SWAP8 SWAP7 SWAP6 SWAP5 SWAP4 SWAP3 SWAP2 SWAP1 PUSH2 0x2BB1 JUMP JUMPDEST PUSH1 0x40 MLOAD DUP1 SWAP2 SUB SWAP1 LOG3 POP POP POP POP POP POP POP POP POP POP POP POP JUMP JUMPDEST PUSH1 0x3 DUP2 DUP2 SLOAD DUP2 LT PUSH2 0x1077 JUMPI PUSH1 0x0 DUP1 REVERT JUMPDEST SWAP1 PUSH1 0x0 MSTORE PUSH1 0x20 PUSH1 0x0 KECCAK256 SWAP1 PUSH1 0xA MUL ADD PUSH1 0x0 SWAP2 POP SWAP1 POP DUP1 PUSH1 0x0 ADD PUSH1 0x40 MLOAD DUP1 PUSH2 0x100 ADD PUSH1 0x40 MSTORE SWAP1 DUP2 PUSH1 0x0 DUP3 ADD PUSH1 0x0 SWAP1 SLOAD SWAP1 PUSH2 0x100 EXP SWAP1 DIV PUSH20 0xFFFFFFFFFFFFFFFFFFFFFFFFFFFFFFFFFFFFFFFF AND PUSH20 0xFFFFFFFFFFFFFFFFFFFFFFFFFFFFFFFFFFFFFFFF AND PUSH20 0xFFFFFFFFFFFFFFFFFFFFFFFFFFFFFFFFFFFFFFFF AND DUP2 MSTORE PUSH1 0x20 ADD PUSH1 0x1 DUP3 ADD DUP1 SLOAD PUSH2 0x1101 SWAP1 PUSH2 0x2659 JUMP JUMPDEST DUP1 PUSH1 0x1F ADD PUSH1 0x20 DUP1 SWAP2 DIV MUL PUSH1 0x20 ADD PUSH1 0x40 MLOAD SWAP1 DUP2 ADD PUSH1 0x40 MSTORE DUP1 SWAP3 SWAP2 SWAP1 DUP2 DUP2 MSTORE PUSH1 0x20 ADD DUP3 DUP1 SLOAD PUSH2 0x112D SWAP1 PUSH2 0x2659 JUMP JUMPDEST DUP1 ISZERO PUSH2 0x117A JUMPI DUP1 PUSH1 0x1F LT PUSH2 0x114F JUMPI PUSH2 0x100 DUP1 DUP4 SLOAD DIV MUL DUP4 MSTORE SWAP2 PUSH1 0x20 ADD SWAP2 PUSH2 0x117A JUMP JUMPDEST DUP3 ADD SWAP2 SWAP1 PUSH1 0x0 MSTORE PUSH1 0x20 PUSH1 0x0 KECCAK256 SWAP1 JUMPDEST DUP2 SLOAD DUP2 MSTORE SWAP1 PUSH1 0x1 ADD SWAP1 PUSH1 0x20 ADD DUP1 DUP4 GT PUSH2 0x115D JUMPI DUP3 SWAP1 SUB PUSH1 0x1F AND DUP3 ADD SWAP2 JUMPDEST POP POP POP POP POP DUP2 MSTORE PUSH1 0x20 ADD PUSH1 0x2 DUP3 ADD DUP1 SLOAD PUSH2 0x1193 SWAP1 PUSH2 0x2659 JUMP JUMPDEST DUP1 PUSH1 0x1F ADD PUSH1 0x20 DUP1 SWAP2 DIV MUL PUSH1 0x20 ADD PUSH1 0x40 MLOAD SWAP1 DUP2 ADD PUSH1 0x40 MSTORE DUP1 SWAP3 SWAP2 SWAP1 DUP2 DUP2 MSTORE PUSH1 0x20 ADD DUP3 DUP1 SLOAD PUSH2 0x11BF SWAP1 PUSH2 0x2659 JUMP JUMPDEST DUP1 ISZERO PUSH2 0x120C JUMPI DUP1 PUSH1 0x1F LT PUSH2 0x11E1 JUMPI PUSH2 0x100 DUP1 DUP4 SLOAD DIV MUL DUP4 MSTORE SWAP2 PUSH1 0x20 ADD SWAP2 PUSH2 0x120C JUMP JUMPDEST DUP3 ADD SWAP2 SWAP1 PUSH1 0x0 MSTORE PUSH1 0x20 PUSH1 0x0 KECCAK256 SWAP1 JUMPDEST DUP2 SLOAD DUP2 MSTORE SWAP1 PUSH1 0x1 ADD SWAP1 PUSH1 0x20 ADD DUP1 DUP4 GT PUSH2 0x11EF JUMPI DUP3 SWAP1 SUB PUSH1 0x1F AND DUP3 ADD SWAP2 JUMPDEST POP POP POP POP POP DUP2 MSTORE PUSH1 0x20 ADD PUSH1 0x3 DUP3 ADD DUP1 SLOAD PUSH2 0x1225 SWAP1 PUSH2 0x2659 JUMP JUMPDEST DUP1 PUSH1 0x1F ADD PUSH1 0x20 DUP1 SWAP2 DIV MUL PUSH1 0x20 ADD PUSH1 0x40 MLOAD SWAP1 DUP2 ADD PUSH1 0x40 MSTORE DUP1 SWAP3 SWAP2 SWAP1 DUP2 DUP2 MSTORE PUSH1 0x20 ADD DUP3 DUP1 SLOAD PUSH2 0x1251 SWAP1 PUSH2 0x2659 JUMP JUMPDEST DUP1 ISZERO PUSH2 0x129E JUMPI DUP1 PUSH1 0x1F LT PUSH2 0x1273 JUMPI PUSH2 0x100 DUP1 DUP4 SLOAD DIV MUL DUP4 MSTORE SWAP2 PUSH1 0x20 ADD SWAP2 PUSH2 0x129E JUMP JUMPDEST DUP3 ADD SWAP2 SWAP1 PUSH1 0x0 MSTORE PUSH1 0x20 PUSH1 0x0 KECCAK256 SWAP1 JUMPDEST DUP2 SLOAD DUP2 MSTORE SWAP1 PUSH1 0x1 ADD SWAP1 PUSH1 0x20 ADD DUP1 DUP4 GT PUSH2 0x1281 JUMPI DUP3 SWAP1 SUB PUSH1 0x1F AND DUP3 ADD SWAP2 JUMPDEST POP POP POP POP POP DUP2 MSTORE PUSH1 0x20 ADD PUSH1 0x4 DUP3 ADD DUP1 SLOAD PUSH2 0x12B7 SWAP1 PUSH2 0x2659 JUMP JUMPDEST DUP1 PUSH1 0x1F ADD PUSH1 0x20 DUP1 SWAP2 DIV MUL PUSH1 0x20 ADD PUSH1 0x40 MLOAD SWAP1 DUP2 ADD PUSH1 0x40 MSTORE DUP1 SWAP3 SWAP2 SWAP1 DUP2 DUP2 MSTORE PUSH1 0x20 ADD DUP3 DUP1 SLOAD PUSH2 0x12E3 SWAP1 PUSH2 0x2659 JUMP JUMPDEST DUP1 ISZERO PUSH2 0x1330 JUMPI DUP1 PUSH1 0x1F LT PUSH2 0x1305 JUMPI PUSH2 0x100 DUP1 DUP4 SLOAD DIV MUL DUP4 MSTORE SWAP2 PUSH1 0x20 ADD SWAP2 PUSH2 0x1330 JUMP JUMPDEST DUP3 ADD SWAP2 SWAP1 PUSH1 0x0 MSTORE PUSH1 0x20 PUSH1 0x0 KECCAK256 SWAP1 JUMPDEST DUP2 SLOAD DUP2 MSTORE SWAP1 PUSH1 0x1 ADD SWAP1 PUSH1 0x20 ADD DUP1 DUP4 GT PUSH2 0x1313 JUMPI DUP3 SWAP1 SUB PUSH1 0x1F AND DUP3 ADD SWAP2 JUMPDEST POP POP POP POP POP DUP2 MSTORE PUSH1 0x20 ADD PUSH1 0x5 DUP3 ADD SLOAD DUP2 MSTORE PUSH1 0x20 ADD PUSH1 0x6 DUP3 ADD SLOAD DUP2 MSTORE PUSH1 0x20 ADD PUSH1 0x7 DUP3 ADD PUSH1 0x0 SWAP1 SLOAD SWAP1 PUSH2 0x100 EXP SWAP1 DIV PUSH20 0xFFFFFFFFFFFFFFFFFFFFFFFFFFFFFFFFFFFFFFFF AND PUSH20 0xFFFFFFFFFFFFFFFFFFFFFFFFFFFFFFFFFFFFFFFF AND PUSH20 0xFFFFFFFFFFFFFFFFFFFFFFFFFFFFFFFFFFFFFFFF AND DUP2 MSTORE POP POP SWAP1 DUP1 PUSH1 0x8 ADD DUP1 SLOAD PUSH2 0x13B3 SWAP1 PUSH2 0x2659 JUMP JUMPDEST DUP1 PUSH1 0x1F ADD PUSH1 0x20 DUP1 SWAP2 DIV MUL PUSH1 0x20 ADD PUSH1 0x40 MLOAD SWAP1 DUP2 ADD PUSH1 0x40 MSTORE DUP1 SWAP3 SWAP2 SWAP1 DUP2 DUP2 MSTORE PUSH1 0x20 ADD DUP3 DUP1 SLOAD PUSH2 0x13DF SWAP1 PUSH2 0x2659 JUMP JUMPDEST DUP1 ISZERO PUSH2 0x142C JUMPI DUP1 PUSH1 0x1F LT PUSH2 0x1401 JUMPI PUSH2 0x100 DUP1 DUP4 SLOAD DIV MUL DUP4 MSTORE SWAP2 PUSH1 0x20 ADD SWAP2 PUSH2 0x142C JUMP JUMPDEST DUP3 ADD SWAP2 SWAP1 PUSH1 0x0 MSTORE PUSH1 0x20 PUSH1 0x0 KECCAK256 SWAP1 JUMPDEST DUP2 SLOAD DUP2 MSTORE SWAP1 PUSH1 0x1 ADD SWAP1 PUSH1 0x20 ADD DUP1 DUP4 GT PUSH2 0x140F JUMPI DUP3 SWAP1 SUB PUSH1 0x1F AND DUP3 ADD SWAP2 JUMPDEST POP POP POP POP POP SWAP1 DUP1 PUSH1 0x9 ADD DUP1 SLOAD PUSH2 0x1441 SWAP1 PUSH2 0x2659 JUMP JUMPDEST DUP1 PUSH1 0x1F ADD PUSH1 0x20 DUP1 SWAP2 DIV MUL PUSH1 0x20 ADD PUSH1 0x40 MLOAD SWAP1 DUP2 ADD PUSH1 0x40 MSTORE DUP1 SWAP3 SWAP2 SWAP1 DUP2 DUP2 MSTORE PUSH1 0x20 ADD DUP3 DUP1 SLOAD PUSH2 0x146D SWAP1 PUSH2 0x2659 JUMP JUMPDEST DUP1 ISZERO PUSH2 0x14BA JUMPI DUP1 PUSH1 0x1F LT PUSH2 0x148F JUMPI PUSH2 0x100 DUP1 DUP4 SLOAD DIV MUL DUP4 MSTORE SWAP2 PUSH1 0x20 ADD SWAP2 PUSH2 0x14BA JUMP JUMPDEST DUP3 ADD SWAP2 SWAP1 PUSH1 0x0 MSTORE PUSH1 0x20 PUSH1 0x0 KECCAK256 SWAP1 JUMPDEST DUP2 SLOAD DUP2 MSTORE SWAP1 PUSH1 0x1 ADD SWAP1 PUSH1 0x20 ADD DUP1 DUP4 GT PUSH2 0x149D JUMPI DUP3 SWAP1 SUB PUSH1 0x1F AND DUP3 ADD SWAP2 JUMPDEST POP POP POP POP POP SWAP1 POP DUP4 JUMP JUMPDEST PUSH1 0x0 DUP1 SLOAD SWAP1 PUSH2 0x100 EXP SWAP1 DIV PUSH20 0xFFFFFFFFFFFFFFFFFFFFFFFFFFFFFFFFFFFFFFFF AND PUSH20 0xFFFFFFFFFFFFFFFFFFFFFFFFFFFFFFFFFFFFFFFF AND CALLER PUSH20 0xFFFFFFFFFFFFFFFFFFFFFFFFFFFFFFFFFFFFFFFF AND EQ PUSH2 0x1552 JUMPI PUSH1 0x40 MLOAD PUSH32 0x8C379A000000000000000000000000000000000000000000000000000000000 DUP2 MSTORE PUSH1 0x4 ADD PUSH2 0x1549 SWAP1 PUSH2 0x26D6 JUMP JUMPDEST PUSH1 0x40 MLOAD DUP1 SWAP2 SUB SWAP1 REVERT JUMPDEST PUSH1 0x0 PUSH20 0xFFFFFFFFFFFFFFFFFFFFFFFFFFFFFFFFFFFFFFFF AND DUP9 PUSH20 0xFFFFFFFFFFFFFFFFFFFFFFFFFFFFFFFFFFFFFFFF AND SUB PUSH2 0x15C1 JUMPI PUSH1 0x40 MLOAD PUSH32 0x8C379A000000000000000000000000000000000000000000000000000000000 DUP2 MSTORE PUSH1 0x4 ADD PUSH2 0x15B8 SWAP1 PUSH2 0x2742 JUMP JUMPDEST PUSH1 0x40 MLOAD DUP1 SWAP2 SUB SWAP1 REVERT JUMPDEST PUSH1 0x0 PUSH20 0xFFFFFFFFFFFFFFFFFFFFFFFFFFFFFFFFFFFFFFFF AND DUP2 PUSH20 0xFFFFFFFFFFFFFFFFFFFFFFFFFFFFFFFFFFFFFFFF AND SUB PUSH2 0x1630 JUMPI PUSH1 0x40 MLOAD PUSH32 0x8C379A000000000000000000000000000000000000000000000000000000000 DUP2 MSTORE PUSH1 0x4 ADD PUSH2 0x1627 SWAP1 PUSH2 0x27AE JUMP JUMPDEST PUSH1 0x40 MLOAD DUP1 SWAP2 SUB SWAP1 REVERT JUMPDEST PUSH1 0x0 DUP1 PUSH1 0x0 JUMPDEST PUSH1 0x1 SLOAD DUP2 LT ISZERO PUSH2 0x1B98 JUMPI PUSH1 0x0 PUSH1 0x2 DUP3 DUP2 SLOAD DUP2 LT PUSH2 0x1656 JUMPI PUSH2 0x1655 PUSH2 0x27CE JUMP JUMPDEST JUMPDEST SWAP1 PUSH1 0x0 MSTORE PUSH1 0x20 PUSH1 0x0 KECCAK256 SWAP1 PUSH1 0x8 MUL ADD PUSH1 0x40 MLOAD DUP1 PUSH2 0x100 ADD PUSH1 0x40 MSTORE SWAP1 DUP2 PUSH1 0x0 DUP3 ADD PUSH1 0x0 SWAP1 SLOAD SWAP1 PUSH2 0x100 EXP SWAP1 DIV PUSH20 0xFFFFFFFFFFFFFFFFFFFFFFFFFFFFFFFFFFFFFFFF AND PUSH20 0xFFFFFFFFFFFFFFFFFFFFFFFFFFFFFFFFFFFFFFFF AND PUSH20 0xFFFFFFFFFFFFFFFFFFFFFFFFFFFFFFFFFFFFFFFF AND DUP2 MSTORE PUSH1 0x20 ADD PUSH1 0x1 DUP3 ADD DUP1 SLOAD PUSH2 0x16D6 SWAP1 PUSH2 0x2659 JUMP JUMPDEST DUP1 PUSH1 0x1F ADD PUSH1 0x20 DUP1 SWAP2 DIV MUL PUSH1 0x20 ADD PUSH1 0x40 MLOAD SWAP1 DUP2 ADD PUSH1 0x40 MSTORE DUP1 SWAP3 SWAP2 SWAP1 DUP2 DUP2 MSTORE PUSH1 0x20 ADD DUP3 DUP1 SLOAD PUSH2 0x1702 SWAP1 PUSH2 0x2659 JUMP JUMPDEST DUP1 ISZERO PUSH2 0x174F JUMPI DUP1 PUSH1 0x1F LT PUSH2 0x1724 JUMPI PUSH2 0x100 DUP1 DUP4 SLOAD DIV MUL DUP4 MSTORE SWAP2 PUSH1 0x20 ADD SWAP2 PUSH2 0x174F JUMP JUMPDEST DUP3 ADD SWAP2 SWAP1 PUSH1 0x0 MSTORE PUSH1 0x20 PUSH1 0x0 KECCAK256 SWAP1 JUMPDEST DUP2 SLOAD DUP2 MSTORE SWAP1 PUSH1 0x1 ADD SWAP1 PUSH1 0x20 ADD DUP1 DUP4 GT PUSH2 0x1732 JUMPI DUP3 SWAP1 SUB PUSH1 0x1F AND DUP3 ADD SWAP2 JUMPDEST POP POP POP POP POP DUP2 MSTORE PUSH1 0x20 ADD PUSH1 0x2 DUP3 ADD DUP1 SLOAD PUSH2 0x1768 SWAP1 PUSH2 0x2659 JUMP JUMPDEST DUP1 PUSH1 0x1F ADD PUSH1 0x20 DUP1 SWAP2 DIV MUL PUSH1 0x20 ADD PUSH1 0x40 MLOAD SWAP1 DUP2 ADD PUSH1 0x40 MSTORE DUP1 SWAP3 SWAP2 SWAP1 DUP2 DUP2 MSTORE PUSH1 0x20 ADD DUP3 DUP1 SLOAD PUSH2 0x1794 SWAP1 PUSH2 0x2659 JUMP JUMPDEST DUP1 ISZERO PUSH2 0x17E1 JUMPI DUP1 PUSH1 0x1F LT PUSH2 0x17B6 JUMPI PUSH2 0x100 DUP1 DUP4 SLOAD DIV MUL DUP4 MSTORE SWAP2 PUSH1 0x20 ADD SWAP2 PUSH2 0x17E1 JUMP JUMPDEST DUP3 ADD SWAP2 SWAP1 PUSH1 0x0 MSTORE PUSH1 0x20 PUSH1 0x0 KECCAK256 SWAP1 JUMPDEST DUP2 SLOAD DUP2 MSTORE SWAP1 PUSH1 0x1 ADD SWAP1 PUSH1 0x20 ADD DUP1 DUP4 GT PUSH2 0x17C4 JUMPI DUP3 SWAP1 SUB PUSH1 0x1F AND DUP3 ADD SWAP2 JUMPDEST POP POP POP POP POP DUP2 MSTORE PUSH1 0x20 ADD PUSH1 0x3 DUP3 ADD DUP1 SLOAD PUSH2 0x17FA SWAP1 PUSH2 0x2659 JUMP JUMPDEST DUP1 PUSH1 0x1F ADD PUSH1 0x20 DUP1 SWAP2 DIV MUL PUSH1 0x20 ADD PUSH1 0x40 MLOAD SWAP1 DUP2 ADD PUSH1 0x40 MSTORE DUP1 SWAP3 SWAP2 SWAP1 DUP2 DUP2 MSTORE PUSH1 0x20 ADD DUP3 DUP1 SLOAD PUSH2 0x1826 SWAP1 PUSH2 0x2659 JUMP JUMPDEST DUP1 ISZERO PUSH2 0x1873 JUMPI DUP1 PUSH1 0x1F LT PUSH2 0x1848 JUMPI PUSH2 0x100 DUP1 DUP4 SLOAD DIV MUL DUP4 MSTORE SWAP2 PUSH1 0x20 ADD SWAP2 PUSH2 0x1873 JUMP JUMPDEST DUP3 ADD SWAP2 SWAP1 PUSH1 0x0 MSTORE PUSH1 0x20 PUSH1 0x0 KECCAK256 SWAP1 JUMPDEST DUP2 SLOAD DUP2 MSTORE SWAP1 PUSH1 0x1 ADD SWAP1 PUSH1 0x20 ADD DUP1 DUP4 GT PUSH2 0x1856 JUMPI DUP3 SWAP1 SUB PUSH1 0x1F AND DUP3 ADD SWAP2 JUMPDEST POP POP POP POP POP DUP2 MSTORE PUSH1 0x20 ADD PUSH1 0x4 DUP3 ADD DUP1 SLOAD PUSH2 0x188C SWAP1 PUSH2 0x2659 JUMP JUMPDEST DUP1 PUSH1 0x1F ADD PUSH1 0x20 DUP1 SWAP2 DIV MUL PUSH1 0x20 ADD PUSH1 0x40 MLOAD SWAP1 DUP2 ADD PUSH1 0x40 MSTORE DUP1 SWAP3 SWAP2 SWAP1 DUP2 DUP2 MSTORE PUSH1 0x20 ADD DUP3 DUP1 SLOAD PUSH2 0x18B8 SWAP1 PUSH2 0x2659 JUMP JUMPDEST DUP1 ISZERO PUSH2 0x1905 JUMPI DUP1 PUSH1 0x1F LT PUSH2 0x18DA JUMPI PUSH2 0x100 DUP1 DUP4 SLOAD DIV MUL DUP4 MSTORE SWAP2 PUSH1 0x20 ADD SWAP2 PUSH2 0x1905 JUMP JUMPDEST DUP3 ADD SWAP2 SWAP1 PUSH1 0x0 MSTORE PUSH1 0x20 PUSH1 0x0 KECCAK256 SWAP1 JUMPDEST DUP2 SLOAD DUP2 MSTORE SWAP1 PUSH1 0x1 ADD SWAP1 PUSH1 0x20 ADD DUP1 DUP4 GT PUSH2 0x18E8 JUMPI DUP3 SWAP1 SUB PUSH1 0x1F AND DUP3 ADD SWAP2 JUMPDEST POP POP POP POP POP DUP2 MSTORE PUSH1 0x20 ADD PUSH1 0x5 DUP3 ADD SLOAD DUP2 MSTORE PUSH1 0x20 ADD PUSH1 0x6 DUP3 ADD SLOAD DUP2 MSTORE PUSH1 0x20 ADD PUSH1 0x7 DUP3 ADD PUSH1 0x0 SWAP1 SLOAD SWAP1 PUSH2 0x100 EXP SWAP1 DIV PUSH20 0xFFFFFFFFFFFFFFFFFFFFFFFFFFFFFFFFFFFFFFFF AND PUSH20 0xFFFFFFFFFFFFFFFFFFFFFFFFFFFFFFFFFFFFFFFF AND PUSH20 0xFFFFFFFFFFFFFFFFFFFFFFFFFFFFFFFFFFFFFFFF AND DUP2 MSTORE POP POP SWAP1 POP DUP12 PUSH20 0xFFFFFFFFFFFFFFFFFFFFFFFFFFFFFFFFFFFFFFFF AND DUP2 PUSH1 0x0 ADD MLOAD PUSH20 0xFFFFFFFFFFFFFFFFFFFFFFFFFFFFFFFFFFFFFFFF AND EQ DUP1 ISZERO PUSH2 0x1A08 JUMPI POP DUP11 PUSH1 0x40 MLOAD PUSH1 0x20 ADD PUSH2 0x19C5 SWAP2 SWAP1 PUSH2 0x2839 JUMP JUMPDEST PUSH1 0x40 MLOAD PUSH1 0x20 DUP2 DUP4 SUB SUB DUP2 MSTORE SWAP1 PUSH1 0x40 MSTORE DUP1 MLOAD SWAP1 PUSH1 0x20 ADD KECCAK256 DUP2 PUSH1 0x20 ADD MLOAD PUSH1 0x40 MLOAD PUSH1 0x20 ADD PUSH2 0x19F0 SWAP2 SWAP1 PUSH2 0x2839 JUMP JUMPDEST PUSH1 0x40 MLOAD PUSH1 0x20 DUP2 DUP4 SUB SUB DUP2 MSTORE SWAP1 PUSH1 0x40 MSTORE DUP1 MLOAD SWAP1 PUSH1 0x20 ADD KECCAK256 EQ JUMPDEST DUP1 ISZERO PUSH2 0x1A63 JUMPI POP DUP10 PUSH1 0x40 MLOAD PUSH1 0x20 ADD PUSH2 0x1A20 SWAP2 SWAP1 PUSH2 0x2839 JUMP JUMPDEST PUSH1 0x40 MLOAD PUSH1 0x20 DUP2 DUP4 SUB SUB DUP2 MSTORE SWAP1 PUSH1 0x40 MSTORE DUP1 MLOAD SWAP1 PUSH1 0x20 ADD KECCAK256 DUP2 PUSH1 0x40 ADD MLOAD PUSH1 0x40 MLOAD PUSH1 0x20 ADD PUSH2 0x1A4B SWAP2 SWAP1 PUSH2 0x2839 JUMP JUMPDEST PUSH1 0x40 MLOAD PUSH1 0x20 DUP2 DUP4 SUB SUB DUP2 MSTORE SWAP1 PUSH1 0x40 MSTORE DUP1 MLOAD SWAP1 PUSH1 0x20 ADD KECCAK256 EQ JUMPDEST DUP1 ISZERO PUSH2 0x1ABE JUMPI POP DUP9 PUSH1 0x40 MLOAD PUSH1 0x20 ADD PUSH2 0x1A7B SWAP2 SWAP1 PUSH2 0x2839 JUMP JUMPDEST PUSH1 0x40 MLOAD PUSH1 0x20 DUP2 DUP4 SUB SUB DUP2 MSTORE SWAP1 PUSH1 0x40 MSTORE DUP1 MLOAD SWAP1 PUSH1 0x20 ADD KECCAK256 DUP2 PUSH1 0x60 ADD MLOAD PUSH1 0x40 MLOAD PUSH1 0x20 ADD PUSH2 0x1AA6 SWAP2 SWAP1 PUSH2 0x2839 JUMP JUMPDEST PUSH1 0x40 MLOAD PUSH1 0x20 DUP2 DUP4 SUB SUB DUP2 MSTORE SWAP1 PUSH1 0x40 MSTORE DUP1 MLOAD SWAP1 PUSH1 0x20 ADD KECCAK256 EQ JUMPDEST DUP1 ISZERO PUSH2 0x1B19 JUMPI POP DUP8 PUSH1 0x40 MLOAD PUSH1 0x20 ADD PUSH2 0x1AD6 SWAP2 SWAP1 PUSH2 0x2839 JUMP JUMPDEST PUSH1 0x40 MLOAD PUSH1 0x20 DUP2 DUP4 SUB SUB DUP2 MSTORE SWAP1 PUSH1 0x40 MSTORE DUP1 MLOAD SWAP1 PUSH1 0x20 ADD KECCAK256 DUP2 PUSH1 0x80 ADD MLOAD PUSH1 0x40 MLOAD PUSH1 0x20 ADD PUSH2 0x1B01 SWAP2 SWAP1 PUSH2 0x2839 JUMP JUMPDEST PUSH1 0x40 MLOAD PUSH1 0x20 DUP2 DUP4 SUB SUB DUP2 MSTORE SWAP1 PUSH1 0x40 MSTORE DUP1 MLOAD SWAP1 PUSH1 0x20 ADD KECCAK256 EQ JUMPDEST DUP1 ISZERO PUSH2 0x1B28 JUMPI POP DUP7 DUP2 PUSH1 0xA0 ADD MLOAD EQ JUMPDEST DUP1 ISZERO PUSH2 0x1B37 JUMPI POP DUP6 DUP2 PUSH1 0xC0 ADD MLOAD EQ JUMPDEST DUP1 ISZERO PUSH2 0x1B72 JUMPI POP DUP5 PUSH20 0xFFFFFFFFFFFFFFFFFFFFFFFFFFFFFFFFFFFFFFFF AND DUP2 PUSH1 0xE0 ADD MLOAD PUSH20 0xFFFFFFFFFFFFFFFFFFFFFFFFFFFFFFFFFFFFFFFF AND EQ JUMPDEST ISZERO PUSH2 0x1B84 JUMPI PUSH1 0x1 SWAP4 POP DUP2 SWAP3 POP POP PUSH2 0x1B98 JUMP JUMPDEST POP DUP1 DUP1 PUSH2 0x1B90 SWAP1 PUSH2 0x287F JUMP JUMPDEST SWAP2 POP POP PUSH2 0x1636 JUMP JUMPDEST POP DUP2 PUSH2 0x1BD9 JUMPI PUSH1 0x40 MLOAD PUSH32 0x8C379A000000000000000000000000000000000000000000000000000000000 DUP2 MSTORE PUSH1 0x4 ADD PUSH2 0x1BD0 SWAP1 PUSH2 0x2913 JUMP JUMPDEST PUSH1 0x40 MLOAD DUP1 SWAP2 SUB SWAP1 REVERT JUMPDEST PUSH1 0x2 DUP2 DUP2 SLOAD DUP2 LT PUSH2 0x1BED JUMPI PUSH2 0x1BEC PUSH2 0x27CE JUMP JUMPDEST JUMPDEST SWAP1 PUSH1 0x0 MSTORE PUSH1 0x20 PUSH1 0x0 KECCAK256 SWAP1 PUSH1 0x8 MUL ADD PUSH1 0x0 DUP1 DUP3 ADD PUSH1 0x0 PUSH2 0x100 EXP DUP2 SLOAD SWAP1 PUSH20 0xFFFFFFFFFFFFFFFFFFFFFFFFFFFFFFFFFFFFFFFF MUL NOT AND SWAP1 SSTORE PUSH1 0x1 DUP3 ADD PUSH1 0x0 PUSH2 0x1C33 SWAP2 SWAP1 PUSH2 0x1E1F JUMP JUMPDEST PUSH1 0x2 DUP3 ADD PUSH1 0x0 PUSH2 0x1C43 SWAP2 SWAP1 PUSH2 0x1E1F JUMP JUMPDEST PUSH1 0x3 DUP3 ADD PUSH1 0x0 PUSH2 0x1C53 SWAP2 SWAP1 PUSH2 0x1E1F JUMP JUMPDEST PUSH1 0x4 DUP3 ADD PUSH1 0x0 PUSH2 0x1C63 SWAP2 SWAP1 PUSH2 0x1E1F JUMP JUMPDEST PUSH1 0x5 DUP3 ADD PUSH1 0x0 SWAP1 SSTORE PUSH1 0x6 DUP3 ADD PUSH1 0x0 SWAP1 SSTORE PUSH1 0x7 DUP3 ADD PUSH1 0x0 PUSH2 0x100 EXP DUP2 SLOAD SWAP1 PUSH20 0xFFFFFFFFFFFFFFFFFFFFFFFFFFFFFFFFFFFFFFFF MUL NOT AND SWAP1 SSTORE POP POP PUSH1 0x3 DUP2 DUP2 SLOAD DUP2 LT PUSH2 0x1CB0 JUMPI PUSH2 0x1CAF PUSH2 0x27CE JUMP JUMPDEST JUMPDEST SWAP1 PUSH1 0x0 MSTORE PUSH1 0x20 PUSH1 0x0 KECCAK256 SWAP1 PUSH1 0xA MUL ADD PUSH1 0x0 DUP1 DUP3 ADD PUSH1 0x0 DUP1 DUP3 ADD PUSH1 0x0 PUSH2 0x100 EXP DUP2 SLOAD SWAP1 PUSH20 0xFFFFFFFFFFFFFFFFFFFFFFFFFFFFFFFFFFFFFFFF MUL NOT AND SWAP1 SSTORE PUSH1 0x1 DUP3 ADD PUSH1 0x0 PUSH2 0x1CFB SWAP2 SWAP1 PUSH2 0x1E1F JUMP JUMPDEST PUSH1 0x2 DUP3 ADD PUSH1 0x0 PUSH2 0x1D0B SWAP2 SWAP1 PUSH2 0x1E1F JUMP JUMPDEST PUSH1 0x3 DUP3 ADD PUSH1 0x0 PUSH2 0x1D1B SWAP2 SWAP1 PUSH2 0x1E1F JUMP JUMPDEST PUSH1 0x4 DUP3 ADD PUSH1 0x0 PUSH2 0x1D2B SWAP2 SWAP1 PUSH2 0x1E1F JUMP JUMPDEST PUSH1 0x5 DUP3 ADD PUSH1 0x0 SWAP1 SSTORE PUSH1 0x6 DUP3 ADD PUSH1 0x0 SWAP1 SSTORE PUSH1 0x7 DUP3 ADD PUSH1 0x0 PUSH2 0x100 EXP DUP2 SLOAD SWAP1 PUSH20 0xFFFFFFFFFFFFFFFFFFFFFFFFFFFFFFFFFFFFFFFF MUL NOT AND SWAP1 SSTORE POP POP PUSH1 0x8 DUP3 ADD PUSH1 0x0 PUSH2 0x1D74 SWAP2 SWAP1 PUSH2 0x1E1F JUMP JUMPDEST PUSH1 0x9 DUP3 ADD PUSH1 0x0 PUSH2 0x1D84 SWAP2 SWAP1 PUSH2 0x1E1F JUMP JUMPDEST POP POP PUSH1 0x1 PUSH1 0x0 DUP2 SLOAD DUP1 SWAP3 SWAP2 SWAP1 PUSH2 0x1D99 SWAP1 PUSH2 0x2C59 JUMP JUMPDEST SWAP2 SWAP1 POP SSTORE POP DUP3 PUSH20 0xFFFFFFFFFFFFFFFFFFFFFFFFFFFFFFFFFFFFFFFF AND DUP11 PUSH20 0xFFFFFFFFFFFFFFFFFFFFFFFFFFFFFFFFFFFFFFFF AND PUSH32 0x4976C9CE64A3A8C13959EDED5A8A9A089EA50BA8C6A1F0ADDA6585A1E13489B8 DUP12 DUP12 DUP12 DUP12 DUP12 DUP12 PUSH1 0x40 MLOAD PUSH2 0x1E05 SWAP7 SWAP6 SWAP5 SWAP4 SWAP3 SWAP2 SWAP1 PUSH2 0x2C82 JUMP JUMPDEST PUSH1 0x40 MLOAD DUP1 SWAP2 SUB SWAP1 LOG3 POP POP POP POP POP POP POP POP POP POP JUMP JUMPDEST PUSH1 0x1 SLOAD DUP2 JUMP JUMPDEST POP DUP1 SLOAD PUSH2 0x1E2B SWAP1 PUSH2 0x2659 JUMP JUMPDEST PUSH1 0x0 DUP3 SSTORE DUP1 PUSH1 0x1F LT PUSH2 0x1E3D JUMPI POP PUSH2 0x1E5C JUMP JUMPDEST PUSH1 0x1F ADD PUSH1 0x20 SWAP1 DIV SWAP1 PUSH1 0x0 MSTORE PUSH1 0x20 PUSH1 0x0 KECCAK256 SWAP1 DUP2 ADD SWAP1 PUSH2 0x1E5B SWAP2 SWAP1 PUSH2 0x1E5F JUMP JUMPDEST JUMPDEST POP JUMP JUMPDEST JUMPDEST DUP1 DUP3 GT ISZERO PUSH2 0x1E78 JUMPI PUSH1 0x0 DUP2 PUSH1 0x0 SWAP1 SSTORE POP PUSH1 0x1 ADD PUSH2 0x1E60 JUMP JUMPDEST POP SWAP1 JUMP JUMPDEST PUSH1 0x0 PUSH1 0x40 MLOAD SWAP1 POP SWAP1 JUMP JUMPDEST PUSH1 0x0 DUP1 REVERT JUMPDEST PUSH1 0x0 DUP1 REVERT JUMPDEST PUSH1 0x0 DUP2 SWAP1 POP SWAP2 SWAP1 POP JUMP JUMPDEST PUSH2 0x1EA3 DUP2 PUSH2 0x1E90 JUMP JUMPDEST DUP2 EQ PUSH2 0x1EAE JUMPI PUSH1 0x0 DUP1 REVERT JUMPDEST POP JUMP JUMPDEST PUSH1 0x0 DUP2 CALLDATALOAD SWAP1 POP PUSH2 0x1EC0 DUP2 PUSH2 0x1E9A JUMP JUMPDEST SWAP3 SWAP2 POP POP JUMP JUMPDEST PUSH1 0x0 PUSH1 0x20 DUP3 DUP5 SUB SLT ISZERO PUSH2 0x1EDC JUMPI PUSH2 0x1EDB PUSH2 0x1E86 JUMP JUMPDEST JUMPDEST PUSH1 0x0 PUSH2 0x1EEA DUP5 DUP3 DUP6 ADD PUSH2 0x1EB1 JUMP JUMPDEST SWAP2 POP POP SWAP3 SWAP2 POP POP JUMP JUMPDEST PUSH1 0x0 PUSH20 0xFFFFFFFFFFFFFFFFFFFFFFFFFFFFFFFFFFFFFFFF DUP3 AND SWAP1 POP SWAP2 SWAP1 POP JUMP JUMPDEST PUSH1 0x0 PUSH2 0x1F1E DUP3 PUSH2 0x1EF3 JUMP JUMPDEST SWAP1 POP SWAP2 SWAP1 POP JUMP JUMPDEST PUSH2 0x1F2E DUP2 PUSH2 0x1F13 JUMP JUMPDEST DUP3 MSTORE POP POP JUMP JUMPDEST PUSH1 0x0 DUP2 MLOAD SWAP1 POP SWAP2 SWAP1 POP JUMP JUMPDEST PUSH1 0x0 DUP3 DUP3 MSTORE PUSH1 0x20 DUP3 ADD SWAP1 POP SWAP3 SWAP2 POP POP JUMP JUMPDEST PUSH1 0x0 JUMPDEST DUP4 DUP2 LT ISZERO PUSH2 0x1F6E JUMPI DUP1 DUP3 ADD MLOAD DUP2 DUP5 ADD MSTORE PUSH1 0x20 DUP2 ADD SWAP1 POP PUSH2 0x1F53 JUMP JUMPDEST PUSH1 0x0 DUP5 DUP5 ADD MSTORE POP POP POP POP JUMP JUMPDEST PUSH1 0x0 PUSH1 0x1F NOT PUSH1 0x1F DUP4 ADD AND SWAP1 POP SWAP2 SWAP1 POP JUMP JUMPDEST PUSH1 0x0 PUSH2 0x1F96 DUP3 PUSH2 0x1F34 JUMP JUMPDEST PUSH2 0x1FA0 DUP2 DUP6 PUSH2 0x1F3F JUMP JUMPDEST SWAP4 POP PUSH2 0x1FB0 DUP2 DUP6 PUSH1 0x20 DUP7 ADD PUSH2 0x1F50 JUMP JUMPDEST PUSH2 0x1FB9 DUP2 PUSH2 0x1F7A JUMP JUMPDEST DUP5 ADD SWAP2 POP POP SWAP3 SWAP2 POP POP JUMP JUMPDEST PUSH2 0x1FCD DUP2 PUSH2 0x1E90 JUMP JUMPDEST DUP3 MSTORE POP POP JUMP JUMPDEST PUSH1 0x0 PUSH2 0x100 DUP3 ADD SWAP1 POP PUSH2 0x1FE9 PUSH1 0x0 DUP4 ADD DUP12 PUSH2 0x1F25 JUMP JUMPDEST DUP2 DUP2 SUB PUSH1 0x20 DUP4 ADD MSTORE PUSH2 0x1FFB DUP2 DUP11 PUSH2 0x1F8B JUMP JUMPDEST SWAP1 POP DUP2 DUP2 SUB PUSH1 0x40 DUP4 ADD MSTORE PUSH2 0x200F DUP2 DUP10 PUSH2 0x1F8B JUMP JUMPDEST SWAP1 POP DUP2 DUP2 SUB PUSH1 0x60 DUP4 ADD MSTORE PUSH2 0x2023 DUP2 DUP9 PUSH2 0x1F8B JUMP JUMPDEST SWAP1 POP DUP2 DUP2 SUB PUSH1 0x80 DUP4 ADD MSTORE PUSH2 0x2037 DUP2 DUP8 PUSH2 0x1F8B JUMP JUMPDEST SWAP1 POP PUSH2 0x2046 PUSH1 0xA0 DUP4 ADD DUP7 PUSH2 0x1FC4 JUMP JUMPDEST PUSH2 0x2053 PUSH1 0xC0 DUP4 ADD DUP6 PUSH2 0x1FC4 JUMP JUMPDEST PUSH2 0x2060 PUSH1 0xE0 DUP4 ADD DUP5 PUSH2 0x1F25 JUMP JUMPDEST SWAP10 SWAP9 POP POP POP POP POP POP POP POP POP JUMP JUMPDEST PUSH2 0x2076 DUP2 PUSH2 0x1F13 JUMP JUMPDEST DUP2 EQ PUSH2 0x2081 JUMPI PUSH1 0x0 DUP1 REVERT JUMPDEST POP JUMP JUMPDEST PUSH1 0x0 DUP2 CALLDATALOAD SWAP1 POP PUSH2 0x2093 DUP2 PUSH2 0x206D JUMP JUMPDEST SWAP3 SWAP2 POP POP JUMP JUMPDEST PUSH1 0x0 DUP1 REVERT JUMPDEST PUSH1 0x0 DUP1 REVERT JUMPDEST PUSH32 0x4E487B7100000000000000000000000000000000000000000000000000000000 PUSH1 0x0 MSTORE PUSH1 0x41 PUSH1 0x4 MSTORE PUSH1 0x24 PUSH1 0x0 REVERT JUMPDEST PUSH2 0x20DB DUP3 PUSH2 0x1F7A JUMP JUMPDEST DUP2 ADD DUP2 DUP2 LT PUSH8 0xFFFFFFFFFFFFFFFF DUP3 GT OR ISZERO PUSH2 0x20FA JUMPI PUSH2 0x20F9 PUSH2 0x20A3 JUMP JUMPDEST JUMPDEST DUP1 PUSH1 0x40 MSTORE POP POP POP JUMP JUMPDEST PUSH1 0x0 PUSH2 0x210D PUSH2 0x1E7C JUMP JUMPDEST SWAP1 POP PUSH2 0x2119 DUP3 DUP3 PUSH2 0x20D2 JUMP JUMPDEST SWAP2 SWAP1 POP JUMP JUMPDEST PUSH1 0x0 PUSH8 0xFFFFFFFFFFFFFFFF DUP3 GT ISZERO PUSH2 0x2139 JUMPI PUSH2 0x2138 PUSH2 0x20A3 JUMP JUMPDEST JUMPDEST PUSH2 0x2142 DUP3 PUSH2 0x1F7A JUMP JUMPDEST SWAP1 POP PUSH1 0x20 DUP2 ADD SWAP1 POP SWAP2 SWAP1 POP JUMP JUMPDEST DUP3 DUP2 DUP4 CALLDATACOPY PUSH1 0x0 DUP4 DUP4 ADD MSTORE POP POP POP JUMP JUMPDEST PUSH1 0x0 PUSH2 0x2171 PUSH2 0x216C DUP5 PUSH2 0x211E JUMP JUMPDEST PUSH2 0x2103 JUMP JUMPDEST SWAP1 POP DUP3 DUP2 MSTORE PUSH1 0x20 DUP2 ADD DUP5 DUP5 DUP5 ADD GT ISZERO PUSH2 0x218D JUMPI PUSH2 0x218C PUSH2 0x209E JUMP JUMPDEST JUMPDEST PUSH2 0x2198 DUP5 DUP3 DUP6 PUSH2 0x214F JUMP JUMPDEST POP SWAP4 SWAP3 POP POP POP JUMP JUMPDEST PUSH1 0x0 DUP3 PUSH1 0x1F DUP4 ADD SLT PUSH2 0x21B5 JUMPI PUSH2 0x21B4 PUSH2 0x2099 JUMP JUMPDEST JUMPDEST DUP2 CALLDATALOAD PUSH2 0x21C5 DUP5 DUP3 PUSH1 0x20 DUP7 ADD PUSH2 0x215E JUMP JUMPDEST SWAP2 POP POP SWAP3 SWAP2 POP POP JUMP JUMPDEST PUSH1 0x0 DUP1 PUSH1 0x0 DUP1 PUSH1 0x0 DUP1 PUSH1 0x0 DUP1 PUSH2 0x100 DUP10 DUP12 SUB SLT ISZERO PUSH2 0x21EF JUMPI PUSH2 0x21EE PUSH2 0x1E86 JUMP JUMPDEST JUMPDEST PUSH1 0x0 PUSH2 0x21FD DUP12 DUP3 DUP13 ADD PUSH2 0x2084 JUMP JUMPDEST SWAP9 POP POP PUSH1 0x20 DUP10 ADD CALLDATALOAD PUSH8 0xFFFFFFFFFFFFFFFF DUP2 GT ISZERO PUSH2 0x221E JUMPI PUSH2 0x221D PUSH2 0x1E8B JUMP JUMPDEST JUMPDEST PUSH2 0x222A DUP12 DUP3 DUP13 ADD PUSH2 0x21A0 JUMP JUMPDEST SWAP8 POP POP PUSH1 0x40 DUP10 ADD CALLDATALOAD PUSH8 0xFFFFFFFFFFFFFFFF DUP2 GT ISZERO PUSH2 0x224B JUMPI PUSH2 0x224A PUSH2 0x1E8B JUMP JUMPDEST JUMPDEST PUSH2 0x2257 DUP12 DUP3 DUP13 ADD PUSH2 0x21A0 JUMP JUMPDEST SWAP7 POP POP PUSH1 0x60 DUP10 ADD CALLDATALOAD PUSH8 0xFFFFFFFFFFFFFFFF DUP2 GT ISZERO PUSH2 0x2278 JUMPI PUSH2 0x2277 PUSH2 0x1E8B JUMP JUMPDEST JUMPDEST PUSH2 0x2284 DUP12 DUP3 DUP13 ADD PUSH2 0x21A0 JUMP JUMPDEST SWAP6 POP POP PUSH1 0x80 DUP10 ADD CALLDATALOAD PUSH8 0xFFFFFFFFFFFFFFFF DUP2 GT ISZERO PUSH2 0x22A5 JUMPI PUSH2 0x22A4 PUSH2 0x1E8B JUMP JUMPDEST JUMPDEST PUSH2 0x22B1 DUP12 DUP3 DUP13 ADD PUSH2 0x21A0 JUMP JUMPDEST SWAP5 POP POP PUSH1 0xA0 PUSH2 0x22C2 DUP12 DUP3 DUP13 ADD PUSH2 0x1EB1 JUMP JUMPDEST SWAP4 POP POP PUSH1 0xC0 PUSH2 0x22D3 DUP12 DUP3 DUP13 ADD PUSH2 0x1EB1 JUMP JUMPDEST SWAP3 POP POP PUSH1 0xE0 PUSH2 0x22E4 DUP12 DUP3 DUP13 ADD PUSH2 0x2084 JUMP JUMPDEST SWAP2 POP POP SWAP3 SWAP6 SWAP9 POP SWAP3 SWAP6 SWAP9 SWAP1 SWAP4 SWAP7 POP JUMP JUMPDEST PUSH1 0x0 PUSH1 0x20 DUP3 ADD SWAP1 POP PUSH2 0x2309 PUSH1 0x0 DUP4 ADD DUP5 PUSH2 0x1F25 JUMP JUMPDEST SWAP3 SWAP2 POP POP JUMP JUMPDEST PUSH1 0x0 DUP1 PUSH1 0x0 DUP1 PUSH1 0x0 DUP1 PUSH1 0x0 DUP1 PUSH1 0x0 DUP1 PUSH2 0x140 DUP12 DUP14 SUB SLT ISZERO PUSH2 0x2333 JUMPI PUSH2 0x2332 PUSH2 0x1E86 JUMP JUMPDEST JUMPDEST PUSH1 0x0 PUSH2 0x2341 DUP14 DUP3 DUP15 ADD PUSH2 0x2084 JUMP JUMPDEST SWAP11 POP POP PUSH1 0x20 DUP12 ADD CALLDATALOAD PUSH8 0xFFFFFFFFFFFFFFFF DUP2 GT ISZERO PUSH2 0x2362 JUMPI PUSH2 0x2361 PUSH2 0x1E8B JUMP JUMPDEST JUMPDEST PUSH2 0x236E DUP14 DUP3 DUP15 ADD PUSH2 0x21A0 JUMP JUMPDEST SWAP10 POP POP PUSH1 0x40 DUP12 ADD CALLDATALOAD PUSH8 0xFFFFFFFFFFFFFFFF DUP2 GT ISZERO PUSH2 0x238F JUMPI PUSH2 0x238E PUSH2 0x1E8B JUMP JUMPDEST JUMPDEST PUSH2 0x239B DUP14 DUP3 DUP15 ADD PUSH2 0x21A0 JUMP JUMPDEST SWAP9 POP POP PUSH1 0x60 DUP12 ADD CALLDATALOAD PUSH8 0xFFFFFFFFFFFFFFFF DUP2 GT ISZERO PUSH2 0x23BC JUMPI PUSH2 0x23BB PUSH2 0x1E8B JUMP JUMPDEST JUMPDEST PUSH2 0x23C8 DUP14 DUP3 DUP15 ADD PUSH2 0x21A0 JUMP JUMPDEST SWAP8 POP POP PUSH1 0x80 DUP12 ADD CALLDATALOAD PUSH8 0xFFFFFFFFFFFFFFFF DUP2 GT ISZERO PUSH2 0x23E9 JUMPI PUSH2 0x23E8 PUSH2 0x1E8B JUMP JUMPDEST JUMPDEST PUSH2 0x23F5 DUP14 DUP3 DUP15 ADD PUSH2 0x21A0 JUMP JUMPDEST SWAP7 POP POP PUSH1 0xA0 PUSH2 0x2406 DUP14 DUP3 DUP15 ADD PUSH2 0x1EB1 JUMP JUMPDEST SWAP6 POP POP PUSH1 0xC0 PUSH2 0x2417 DUP14 DUP3 DUP15 ADD PUSH2 0x1EB1 JUMP JUMPDEST SWAP5 POP POP PUSH1 0xE0 PUSH2 0x2428 DUP14 DUP3 DUP15 ADD PUSH2 0x2084 JUMP JUMPDEST SWAP4 POP POP PUSH2 0x100 DUP12 ADD CALLDATALOAD PUSH8 0xFFFFFFFFFFFFFFFF DUP2 GT ISZERO PUSH2 0x244A JUMPI PUSH2 0x2449 PUSH2 0x1E8B JUMP JUMPDEST JUMPDEST PUSH2 0x2456 DUP14 DUP3 DUP15 ADD PUSH2 0x21A0 JUMP JUMPDEST SWAP3 POP POP PUSH2 0x120 DUP12 ADD CALLDATALOAD PUSH8 0xFFFFFFFFFFFFFFFF DUP2 GT ISZERO PUSH2 0x2478 JUMPI PUSH2 0x2477 PUSH2 0x1E8B JUMP JUMPDEST JUMPDEST PUSH2 0x2484 DUP14 DUP3 DUP15 ADD PUSH2 0x21A0 JUMP JUMPDEST SWAP2 POP POP SWAP3 SWAP6 SWAP9 SWAP12 SWAP2 SWAP5 SWAP8 SWAP11 POP SWAP3 SWAP6 SWAP9 POP JUMP JUMPDEST PUSH2 0x249F DUP2 PUSH2 0x1F13 JUMP JUMPDEST DUP3 MSTORE POP POP JUMP JUMPDEST PUSH1 0x0 DUP3 DUP3 MSTORE PUSH1 0x20 DUP3 ADD SWAP1 POP SWAP3 SWAP2 POP POP JUMP JUMPDEST PUSH1 0x0 PUSH2 0x24C1 DUP3 PUSH2 0x1F34 JUMP JUMPDEST PUSH2 0x24CB DUP2 DUP6 PUSH2 0x24A5 JUMP JUMPDEST SWAP4 POP PUSH2 0x24DB DUP2 DUP6 PUSH1 0x20 DUP7 ADD PUSH2 0x1F50 JUMP JUMPDEST PUSH2 0x24E4 DUP2 PUSH2 0x1F7A JUMP JUMPDEST DUP5 ADD SWAP2 POP POP SWAP3 SWAP2 POP POP JUMP JUMPDEST PUSH2 0x24F8 DUP2 PUSH2 0x1E90 JUMP JUMPDEST DUP3 MSTORE POP POP JUMP JUMPDEST PUSH1 0x0 PUSH2 0x100 DUP4 ADD PUSH1 0x0 DUP4 ADD MLOAD PUSH2 0x2517 PUSH1 0x0 DUP7 ADD DUP3 PUSH2 0x2496 JUMP JUMPDEST POP PUSH1 0x20 DUP4 ADD MLOAD DUP5 DUP3 SUB PUSH1 0x20 DUP7 ADD MSTORE PUSH2 0x252F DUP3 DUP3 PUSH2 0x24B6 JUMP JUMPDEST SWAP2 POP POP PUSH1 0x40 DUP4 ADD MLOAD DUP5 DUP3 SUB PUSH1 0x40 DUP7 ADD MSTORE PUSH2 0x2549 DUP3 DUP3 PUSH2 0x24B6 JUMP JUMPDEST SWAP2 POP POP PUSH1 0x60 DUP4 ADD MLOAD DUP5 DUP3 SUB PUSH1 0x60 DUP7 ADD MSTORE PUSH2 0x2563 DUP3 DUP3 PUSH2 0x24B6 JUMP JUMPDEST SWAP2 POP POP PUSH1 0x80 DUP4 ADD MLOAD DUP5 DUP3 SUB PUSH1 0x80 DUP7 ADD MSTORE PUSH2 0x257D DUP3 DUP3 PUSH2 0x24B6 JUMP JUMPDEST SWAP2 POP POP PUSH1 0xA0 DUP4 ADD MLOAD PUSH2 0x2592 PUSH1 0xA0 DUP7 ADD DUP3 PUSH2 0x24EF JUMP JUMPDEST POP PUSH1 0xC0 DUP4 ADD MLOAD PUSH2 0x25A5 PUSH1 0xC0 DUP7 ADD DUP3 PUSH2 0x24EF JUMP JUMPDEST POP PUSH1 0xE0 DUP4 ADD MLOAD PUSH2 0x25B8 PUSH1 0xE0 DUP7 ADD DUP3 PUSH2 0x2496 JUMP JUMPDEST POP DUP1 SWAP2 POP POP SWAP3 SWAP2 POP POP JUMP JUMPDEST PUSH1 0x0 PUSH1 0x60 DUP3 ADD SWAP1 POP DUP2 DUP2 SUB PUSH1 0x0 DUP4 ADD MSTORE PUSH2 0x25DD DUP2 DUP7 PUSH2 0x24FE JUMP JUMPDEST SWAP1 POP DUP2 DUP2 SUB PUSH1 0x20 DUP4 ADD MSTORE PUSH2 0x25F1 DUP2 DUP6 PUSH2 0x1F8B JUMP JUMPDEST SWAP1 POP DUP2 DUP2 SUB PUSH1 0x40 DUP4 ADD MSTORE PUSH2 0x2605 DUP2 DUP5 PUSH2 0x1F8B JUMP JUMPDEST SWAP1 POP SWAP5 SWAP4 POP POP POP POP JUMP JUMPDEST PUSH1 0x0 PUSH1 0x20 DUP3 ADD SWAP1 POP PUSH2 0x2624 PUSH1 0x0 DUP4 ADD DUP5 PUSH2 0x1FC4 JUMP JUMPDEST SWAP3 SWAP2 POP POP JUMP JUMPDEST PUSH32 0x4E487B7100000000000000000000000000000000000000000000000000000000 PUSH1 0x0 MSTORE PUSH1 0x22 PUSH1 0x4 MSTORE PUSH1 0x24 PUSH1 0x0 REVERT JUMPDEST PUSH1 0x0 PUSH1 0x2 DUP3 DIV SWAP1 POP PUSH1 0x1 DUP3 AND DUP1 PUSH2 0x2671 JUMPI PUSH1 0x7F DUP3 AND SWAP2 POP JUMPDEST PUSH1 0x20 DUP3 LT DUP2 SUB PUSH2 0x2684 JUMPI PUSH2 0x2683 PUSH2 0x262A JUMP JUMPDEST JUMPDEST POP SWAP2 SWAP1 POP JUMP JUMPDEST PUSH32 0x4F6E6C7920636F6E7472616374206F776E657200000000000000000000000000 PUSH1 0x0 DUP3 ADD MSTORE POP JUMP JUMPDEST PUSH1 0x0 PUSH2 0x26C0 PUSH1 0x13 DUP4 PUSH2 0x1F3F JUMP JUMPDEST SWAP2 POP PUSH2 0x26CB DUP3 PUSH2 0x268A JUMP JUMPDEST PUSH1 0x20 DUP3 ADD SWAP1 POP SWAP2 SWAP1 POP JUMP JUMPDEST PUSH1 0x0 PUSH1 0x20 DUP3 ADD SWAP1 POP DUP2 DUP2 SUB PUSH1 0x0 DUP4 ADD MSTORE PUSH2 0x26EF DUP2 PUSH2 0x26B3 JUMP JUMPDEST SWAP1 POP SWAP2 SWAP1 POP JUMP JUMPDEST PUSH32 0x476563657273697A206B69726163692061647265736900000000000000000000 PUSH1 0x0 DUP3 ADD MSTORE POP JUMP JUMPDEST PUSH1 0x0 PUSH2 0x272C PUSH1 0x16 DUP4 PUSH2 0x1F3F JUMP JUMPDEST SWAP2 POP PUSH2 0x2737 DUP3 PUSH2 0x26F6 JUMP JUMPDEST PUSH1 0x20 DUP3 ADD SWAP1 POP SWAP2 SWAP1 POP JUMP JUMPDEST PUSH1 0x0 PUSH1 0x20 DUP3 ADD SWAP1 POP DUP2 DUP2 SUB PUSH1 0x0 DUP4 ADD MSTORE PUSH2 0x275B DUP2 PUSH2 0x271F JUMP JUMPDEST SWAP1 POP SWAP2 SWAP1 POP JUMP JUMPDEST PUSH32 0x476563657273697A207361686970206164726573690000000000000000000000 PUSH1 0x0 DUP3 ADD MSTORE POP JUMP JUMPDEST PUSH1 0x0 PUSH2 0x2798 PUSH1 0x15 DUP4 PUSH2 0x1F3F JUMP JUMPDEST SWAP2 POP PUSH2 0x27A3 DUP3 PUSH2 0x2762 JUMP JUMPDEST PUSH1 0x20 DUP3 ADD SWAP1 POP SWAP2 SWAP1 POP JUMP JUMPDEST PUSH1 0x0 PUSH1 0x20 DUP3 ADD SWAP1 POP DUP2 DUP2 SUB PUSH1 0x0 DUP4 ADD MSTORE PUSH2 0x27C7 DUP2 PUSH2 0x278B JUMP JUMPDEST SWAP1 POP SWAP2 SWAP1 POP JUMP JUMPDEST PUSH32 0x4E487B7100000000000000000000000000000000000000000000000000000000 PUSH1 0x0 MSTORE PUSH1 0x32 PUSH1 0x4 MSTORE PUSH1 0x24 PUSH1 0x0 REVERT JUMPDEST PUSH1 0x0 DUP2 SWAP1 POP SWAP3 SWAP2 POP POP JUMP JUMPDEST PUSH1 0x0 PUSH2 0x2813 DUP3 PUSH2 0x1F34 JUMP JUMPDEST PUSH2 0x281D DUP2 DUP6 PUSH2 0x27FD JUMP JUMPDEST SWAP4 POP PUSH2 0x282D DUP2 DUP6 PUSH1 0x20 DUP7 ADD PUSH2 0x1F50 JUMP JUMPDEST DUP1 DUP5 ADD SWAP2 POP POP SWAP3 SWAP2 POP POP JUMP JUMPDEST PUSH1 0x0 PUSH2 0x2845 DUP3 DUP5 PUSH2 0x2808 JUMP JUMPDEST SWAP2 POP DUP2 SWAP1 POP SWAP3 SWAP2 POP POP JUMP JUMPDEST PUSH32 0x4E487B7100000000000000000000000000000000000000000000000000000000 PUSH1 0x0 MSTORE PUSH1 0x11 PUSH1 0x4 MSTORE PUSH1 0x24 PUSH1 0x0 REVERT JUMPDEST PUSH1 0x0 PUSH2 0x288A DUP3 PUSH2 0x1E90 JUMP JUMPDEST SWAP2 POP PUSH32 0xFFFFFFFFFFFFFFFFFFFFFFFFFFFFFFFFFFFFFFFFFFFFFFFFFFFFFFFFFFFFFFFF DUP3 SUB PUSH2 0x28BC JUMPI PUSH2 0x28BB PUSH2 0x2850 JUMP JUMPDEST JUMPDEST PUSH1 0x1 DUP3 ADD SWAP1 POP SWAP2 SWAP1 POP JUMP JUMPDEST PUSH32 0x4B6972616C616D612062756C756E616D61646900000000000000000000000000 PUSH1 0x0 DUP3 ADD MSTORE POP JUMP JUMPDEST PUSH1 0x0 PUSH2 0x28FD PUSH1 0x13 DUP4 PUSH2 0x1F3F JUMP JUMPDEST SWAP2 POP PUSH2 0x2908 DUP3 PUSH2 0x28C7 JUMP JUMPDEST PUSH1 0x20 DUP3 ADD SWAP1 POP SWAP2 SWAP1 POP JUMP JUMPDEST PUSH1 0x0 PUSH1 0x20 DUP3 ADD SWAP1 POP DUP2 DUP2 SUB PUSH1 0x0 DUP4 ADD MSTORE PUSH2 0x292C DUP2 PUSH2 0x28F0 JUMP JUMPDEST SWAP1 POP SWAP2 SWAP1 POP JUMP JUMPDEST PUSH1 0x0 DUP2 SWAP1 POP DUP2 PUSH1 0x0 MSTORE PUSH1 0x20 PUSH1 0x0 KECCAK256 SWAP1 POP SWAP2 SWAP1 POP JUMP JUMPDEST PUSH1 0x0 PUSH1 0x20 PUSH1 0x1F DUP4 ADD DIV SWAP1 POP SWAP2 SWAP1 POP JUMP JUMPDEST PUSH1 0x0 DUP3 DUP3 SHL SWAP1 POP SWAP3 SWAP2 POP POP JUMP JUMPDEST PUSH1 0x0 PUSH1 0x8 DUP4 MUL PUSH2 0x2995 PUSH32 0xFFFFFFFFFFFFFFFFFFFFFFFFFFFFFFFFFFFFFFFFFFFFFFFFFFFFFFFFFFFFFFFF DUP3 PUSH2 0x2958 JUMP JUMPDEST PUSH2 0x299F DUP7 DUP4 PUSH2 0x2958 JUMP JUMPDEST SWAP6 POP DUP1 NOT DUP5 AND SWAP4 POP DUP1 DUP7 AND DUP5 OR SWAP3 POP POP POP SWAP4 SWAP3 POP POP POP JUMP JUMPDEST PUSH1 0x0 DUP2 SWAP1 POP SWAP2 SWAP1 POP JUMP JUMPDEST PUSH1 0x0 PUSH2 0x29DC PUSH2 0x29D7 PUSH2 0x29D2 DUP5 PUSH2 0x1E90 JUMP JUMPDEST PUSH2 0x29B7 JUMP JUMPDEST PUSH2 0x1E90 JUMP JUMPDEST SWAP1 POP SWAP2 SWAP1 POP JUMP JUMPDEST PUSH1 0x0 DUP2 SWAP1 POP SWAP2 SWAP1 POP JUMP JUMPDEST PUSH2 0x29F6 DUP4 PUSH2 0x29C1 JUMP JUMPDEST PUSH2 0x2A0A PUSH2 0x2A02 DUP3 PUSH2 0x29E3 JUMP JUMPDEST DUP5 DUP5 SLOAD PUSH2 0x2965 JUMP JUMPDEST DUP3 SSTORE POP POP POP POP JUMP JUMPDEST PUSH1 0x0 SWAP1 JUMP JUMPDEST PUSH2 0x2A1F PUSH2 0x2A12 JUMP JUMPDEST PUSH2 0x2A2A DUP2 DUP5 DUP5 PUSH2 0x29ED JUMP JUMPDEST POP POP POP JUMP JUMPDEST JUMPDEST DUP2 DUP2 LT ISZERO PUSH2 0x2A4E JUMPI PUSH2 0x2A43 PUSH1 0x0 DUP3 PUSH2 0x2A17 JUMP JUMPDEST PUSH1 0x1 DUP2 ADD SWAP1 POP PUSH2 0x2A30 JUMP JUMPDEST POP POP JUMP JUMPDEST PUSH1 0x1F DUP3 GT ISZERO PUSH2 0x2A93 JUMPI PUSH2 0x2A64 DUP2 PUSH2 0x2933 JUMP JUMPDEST PUSH2 0x2A6D DUP5 PUSH2 0x2948 JUMP JUMPDEST DUP2 ADD PUSH1 0x20 DUP6 LT ISZERO PUSH2 0x2A7C JUMPI DUP2 SWAP1 POP JUMPDEST PUSH2 0x2A90 PUSH2 0x2A88 DUP6 PUSH2 0x2948 JUMP JUMPDEST DUP4 ADD DUP3 PUSH2 0x2A2F JUMP JUMPDEST POP POP JUMPDEST POP POP POP JUMP JUMPDEST PUSH1 0x0 DUP3 DUP3 SHR SWAP1 POP SWAP3 SWAP2 POP POP JUMP JUMPDEST PUSH1 0x0 PUSH2 0x2AB6 PUSH1 0x0 NOT DUP5 PUSH1 0x8 MUL PUSH2 0x2A98 JUMP JUMPDEST NOT DUP1 DUP4 AND SWAP2 POP POP SWAP3 SWAP2 POP POP JUMP JUMPDEST PUSH1 0x0 PUSH2 0x2ACF DUP4 DUP4 PUSH2 0x2AA5 JUMP JUMPDEST SWAP2 POP DUP3 PUSH1 0x2 MUL DUP3 OR SWAP1 POP SWAP3 SWAP2 POP POP JUMP JUMPDEST PUSH2 0x2AE8 DUP3 PUSH2 0x1F34 JUMP JUMPDEST PUSH8 0xFFFFFFFFFFFFFFFF DUP2 GT ISZERO PUSH2 0x2B01 JUMPI PUSH2 0x2B00 PUSH2 0x20A3 JUMP JUMPDEST JUMPDEST PUSH2 0x2B0B DUP3 SLOAD PUSH2 0x2659 JUMP JUMPDEST PUSH2 0x2B16 DUP3 DUP3 DUP6 PUSH2 0x2A52 JUMP JUMPDEST PUSH1 0x0 PUSH1 0x20 SWAP1 POP PUSH1 0x1F DUP4 GT PUSH1 0x1 DUP2 EQ PUSH2 0x2B49 JUMPI PUSH1 0x0 DUP5 ISZERO PUSH2 0x2B37 JUMPI DUP3 DUP8 ADD MLOAD SWAP1 POP JUMPDEST PUSH2 0x2B41 DUP6 DUP3 PUSH2 0x2AC3 JUMP JUMPDEST DUP7 SSTORE POP PUSH2 0x2BA9 JUMP JUMPDEST PUSH1 0x1F NOT DUP5 AND PUSH2 0x2B57 DUP7 PUSH2 0x2933 JUMP JUMPDEST PUSH1 0x0 JUMPDEST DUP3 DUP2 LT ISZERO PUSH2 0x2B7F JUMPI DUP5 DUP10 ADD MLOAD DUP3 SSTORE PUSH1 0x1 DUP3 ADD SWAP2 POP PUSH1 0x20 DUP6 ADD SWAP5 POP PUSH1 0x20 DUP2 ADD SWAP1 POP PUSH2 0x2B5A JUMP JUMPDEST DUP7 DUP4 LT ISZERO PUSH2 0x2B9C JUMPI DUP5 DUP10 ADD MLOAD PUSH2 0x2B98 PUSH1 0x1F DUP10 AND DUP3 PUSH2 0x2AA5 JUMP JUMPDEST DUP4 SSTORE POP JUMPDEST PUSH1 0x1 PUSH1 0x2 DUP9 MUL ADD DUP9 SSTORE POP POP POP JUMPDEST POP POP POP POP POP POP JUMP JUMPDEST PUSH1 0x0 PUSH2 0x100 DUP3 ADD SWAP1 POP DUP2 DUP2 SUB PUSH1 0x0 DUP4 ADD MSTORE PUSH2 0x2BCC DUP2 DUP12 PUSH2 0x1F8B JUMP JUMPDEST SWAP1 POP DUP2 DUP2 SUB PUSH1 0x20 DUP4 ADD MSTORE PUSH2 0x2BE0 DUP2 DUP11 PUSH2 0x1F8B JUMP JUMPDEST SWAP1 POP DUP2 DUP2 SUB PUSH1 0x40 DUP4 ADD MSTORE PUSH2 0x2BF4 DUP2 DUP10 PUSH2 0x1F8B JUMP JUMPDEST SWAP1 POP DUP2 DUP2 SUB PUSH1 0x60 DUP4 ADD MSTORE PUSH2 0x2C08 DUP2 DUP9 PUSH2 0x1F8B JUMP JUMPDEST SWAP1 POP PUSH2 0x2C17 PUSH1 0x80 DUP4 ADD DUP8 PUSH2 0x1FC4 JUMP JUMPDEST PUSH2 0x2C24 PUSH1 0xA0 DUP4 ADD DUP7 PUSH2 0x1FC4 JUMP JUMPDEST DUP2 DUP2 SUB PUSH1 0xC0 DUP4 ADD MSTORE PUSH2 0x2C36 DUP2 DUP6 PUSH2 0x1F8B JUMP JUMPDEST SWAP1 POP DUP2 DUP2 SUB PUSH1 0xE0 DUP4 ADD MSTORE PUSH2 0x2C4A DUP2 DUP5 PUSH2 0x1F8B JUMP JUMPDEST SWAP1 POP SWAP10 SWAP9 POP POP POP POP POP POP POP POP POP JUMP JUMPDEST PUSH1 0x0 PUSH2 0x2C64 DUP3 PUSH2 0x1E90 JUMP JUMPDEST SWAP2 POP PUSH1 0x0 DUP3 SUB PUSH2 0x2C77 JUMPI PUSH2 0x2C76 PUSH2 0x2850 JUMP JUMPDEST JUMPDEST PUSH1 0x1 DUP3 SUB SWAP1 POP SWAP2 SWAP1 POP JUMP JUMPDEST PUSH1 0x0 PUSH1 0xC0 DUP3 ADD SWAP1 POP DUP2 DUP2 SUB PUSH1 0x0 DUP4 ADD MSTORE PUSH2 0x2C9C DUP2 DUP10 PUSH2 0x1F8B JUMP JUMPDEST SWAP1 POP DUP2 DUP2 SUB PUSH1 0x20 DUP4 ADD MSTORE PUSH2 0x2CB0 DUP2 DUP9 PUSH2 0x1F8B JUMP JUMPDEST SWAP1 POP DUP2 DUP2 SUB PUSH1 0x40 DUP4 ADD MSTORE PUSH2 0x2CC4 DUP2 DUP8 PUSH2 0x1F8B JUMP JUMPDEST SWAP1 POP DUP2 DUP2 SUB PUSH1 0x60 DUP4 ADD MSTORE PUSH2 0x2CD8 DUP2 DUP7 PUSH2 0x1F8B JUMP JUMPDEST SWAP1 POP PUSH2 0x2CE7 PUSH1 0x80 DUP4 ADD DUP6 PUSH2 0x1FC4 JUMP JUMPDEST PUSH2 0x2CF4 PUSH1 0xA0 DUP4 ADD DUP5 PUSH2 0x1FC4 JUMP JUMPDEST SWAP8 SWAP7 POP POP POP POP POP POP POP JUMP INVALID LOG2 PUSH5 0x6970667358 0x22 SLT KECCAK256 0xE3 0xD DUP13 PUSH25 0x2DFC637A1890096E521165D63C0945341561DC3EE74FDAAA2A SWAP3 0xB6 CALLER PUSH5 0x736F6C6343 STOP ADDMOD SLT STOP CALLER "
				},
				"gasEstimates": {
					"creation": {
						"codeDepositCost": "2314600",
						"executionCost": "31758",
						"totalCost": "2346358"
					},
					"external": {
						"hataBildir(address,string,string,string,string,uint256,uint256,address)": "infinite",
						"kirala(address,string,string,string,string,uint256,uint256,address,string,string)": "infinite",
						"kiralikSayisi()": "2495",
						"kiralikYerler(uint256)": "infinite",
						"kontratSahibi()": "2556",
						"sonlandir(address,string,string,string,string,uint256,uint256,address)": "infinite",
						"sozlesmeler(uint256)": "infinite"
					}
				},
				"methodIdentifiers": {
					"hataBildir(address,string,string,string,string,uint256,uint256,address)": "644486b8",
					"kirala(address,string,string,string,string,uint256,uint256,address,string,string)": "d017c632",
					"kiralikSayisi()": "f2f9d555",
					"kiralikYerler(uint256)": "4748fbc0",
					"kontratSahibi()": "6f33506b",
					"sonlandir(address,string,string,string,string,uint256,uint256,address)": "ecaac378",
					"sozlesmeler(uint256)": "eb6822cd"
				}
			},
			"storageLayout": {
				"storage": [
					{
						"astId": 28,
						"contract": "contracts/RealEstate.sol:KiralamaSozlesmesi",
						"label": "kontratSahibi",
						"offset": 0,
						"slot": "0",
						"type": "t_address"
					},
					{
						"astId": 30,
						"contract": "contracts/RealEstate.sol:KiralamaSozlesmesi",
						"label": "kiralikSayisi",
						"offset": 0,
						"slot": "1",
						"type": "t_uint256"
					},
					{
						"astId": 34,
						"contract": "contracts/RealEstate.sol:KiralamaSozlesmesi",
						"label": "kiralikYerler",
						"offset": 0,
						"slot": "2",
						"type": "t_array(t_struct(Kiralik)18_storage)dyn_storage"
					},
					{
						"astId": 38,
						"contract": "contracts/RealEstate.sol:KiralamaSozlesmesi",
						"label": "sozlesmeler",
						"offset": 0,
						"slot": "3",
						"type": "t_array(t_struct(Sozlesme)26_storage)dyn_storage"
					}
				],
				"types": {
					"t_address": {
						"encoding": "inplace",
						"label": "address",
						"numberOfBytes": "20"
					},
					"t_array(t_struct(Kiralik)18_storage)dyn_storage": {
						"base": "t_struct(Kiralik)18_storage",
						"encoding": "dynamic_array",
						"label": "struct Kiralik[]",
						"numberOfBytes": "32"
					},
					"t_array(t_struct(Sozlesme)26_storage)dyn_storage": {
						"base": "t_struct(Sozlesme)26_storage",
						"encoding": "dynamic_array",
						"label": "struct Sozlesme[]",
						"numberOfBytes": "32"
					},
					"t_string_storage": {
						"encoding": "bytes",
						"label": "string",
						"numberOfBytes": "32"
					},
					"t_struct(Kiralik)18_storage": {
						"encoding": "inplace",
						"label": "struct Kiralik",
						"members": [
							{
								"astId": 3,
								"contract": "contracts/RealEstate.sol:KiralamaSozlesmesi",
								"label": "kiraci",
								"offset": 0,
								"slot": "0",
								"type": "t_address"
							},
							{
								"astId": 5,
								"contract": "contracts/RealEstate.sol:KiralamaSozlesmesi",
								"label": "sehir",
								"offset": 0,
								"slot": "1",
								"type": "t_string_storage"
							},
							{
								"astId": 7,
								"contract": "contracts/RealEstate.sol:KiralamaSozlesmesi",
								"label": "ilce",
								"offset": 0,
								"slot": "2",
								"type": "t_string_storage"
							},
							{
								"astId": 9,
								"contract": "contracts/RealEstate.sol:KiralamaSozlesmesi",
								"label": "mahalle",
								"offset": 0,
								"slot": "3",
								"type": "t_string_storage"
							},
							{
								"astId": 11,
								"contract": "contracts/RealEstate.sol:KiralamaSozlesmesi",
								"label": "sokak",
								"offset": 0,
								"slot": "4",
								"type": "t_string_storage"
							},
							{
								"astId": 13,
								"contract": "contracts/RealEstate.sol:KiralamaSozlesmesi",
								"label": "binaNo",
								"offset": 0,
								"slot": "5",
								"type": "t_uint256"
							},
							{
								"astId": 15,
								"contract": "contracts/RealEstate.sol:KiralamaSozlesmesi",
								"label": "daireNo",
								"offset": 0,
								"slot": "6",
								"type": "t_uint256"
							},
							{
								"astId": 17,
								"contract": "contracts/RealEstate.sol:KiralamaSozlesmesi",
								"label": "sahip",
								"offset": 0,
								"slot": "7",
								"type": "t_address"
							}
						],
						"numberOfBytes": "256"
					},
					"t_struct(Sozlesme)26_storage": {
						"encoding": "inplace",
						"label": "struct Sozlesme",
						"members": [
							{
								"astId": 21,
								"contract": "contracts/RealEstate.sol:KiralamaSozlesmesi",
								"label": "kiralik",
								"offset": 0,
								"slot": "0",
								"type": "t_struct(Kiralik)18_storage"
							},
							{
								"astId": 23,
								"contract": "contracts/RealEstate.sol:KiralamaSozlesmesi",
								"label": "baslangicTarihi",
								"offset": 0,
								"slot": "8",
								"type": "t_string_storage"
							},
							{
								"astId": 25,
								"contract": "contracts/RealEstate.sol:KiralamaSozlesmesi",
								"label": "bitisTarihi",
								"offset": 0,
								"slot": "9",
								"type": "t_string_storage"
							}
						],
						"numberOfBytes": "320"
					},
					"t_uint256": {
						"encoding": "inplace",
						"label": "uint256",
						"numberOfBytes": "32"
					}
				}
			},
			"userdoc": {
				"kind": "user",
				"methods": {},
				"version": 1
			}
		}
	}
}