{
	"contracts/SimpleContract.sol": {
		"SimpleContract": {
			"abi": [
				{
					"inputs": [],
					"stateMutability": "nonpayable",
					"type": "constructor"
				},
				{
					"inputs": [
						{
							"internalType": "address",
							"name": "",
							"type": "address"
						}
					],
					"name": "accountValues",
					"outputs": [
						{
							"internalType": "string",
							"name": "name",
							"type": "string"
						},
						{
							"internalType": "string",
							"name": "surname",
							"type": "string"
						},
						{
							"internalType": "uint256",
							"name": "balance",
							"type": "uint256"
						}
					],
					"stateMutability": "view",
					"type": "function"
				},
				{
					"inputs": [
						{
							"components": [
								{
									"internalType": "string",
									"name": "name",
									"type": "string"
								},
								{
									"internalType": "string",
									"name": "surname",
									"type": "string"
								},
								{
									"internalType": "uint256",
									"name": "balance",
									"type": "uint256"
								}
							],
							"internalType": "struct SimpleContract.Account",
							"name": "admin",
							"type": "tuple"
						}
					],
					"name": "addAdmin",
					"outputs": [],
					"stateMutability": "nonpayable",
					"type": "function"
				},
				{
					"inputs": [
						{
							"internalType": "uint256",
							"name": "",
							"type": "uint256"
						}
					],
					"name": "admins",
					"outputs": [
						{
							"internalType": "string",
							"name": "name",
							"type": "string"
						},
						{
							"internalType": "string",
							"name": "surname",
							"type": "string"
						},
						{
							"internalType": "uint256",
							"name": "balance",
							"type": "uint256"
						}
					],
					"stateMutability": "view",
					"type": "function"
				},
				{
					"inputs": [
						{
							"internalType": "address",
							"name": "",
							"type": "address"
						},
						{
							"internalType": "address",
							"name": "",
							"type": "address"
						}
					],
					"name": "allowance",
					"outputs": [
						{
							"internalType": "bool",
							"name": "",
							"type": "bool"
						}
					],
					"stateMutability": "view",
					"type": "function"
				},
				{
					"inputs": [],
					"name": "allowed",
					"outputs": [
						{
							"internalType": "bool",
							"name": "",
							"type": "bool"
						}
					],
					"stateMutability": "view",
					"type": "function"
				},
				{
					"inputs": [
						{
							"internalType": "address",
							"name": "_address",
							"type": "address"
						}
					],
					"name": "assignAllowance",
					"outputs": [],
					"stateMutability": "nonpayable",
					"type": "function"
				},
				{
					"inputs": [
						{
							"internalType": "string",
							"name": "_name",
							"type": "string"
						},
						{
							"internalType": "string",
							"name": "_surname",
							"type": "string"
						},
						{
							"internalType": "uint256",
							"name": "_balance",
							"type": "uint256"
						}
					],
					"name": "assignValue",
					"outputs": [],
					"stateMutability": "nonpayable",
					"type": "function"
				},
				{
					"inputs": [
						{
							"components": [
								{
									"internalType": "string",
									"name": "name",
									"type": "string"
								},
								{
									"internalType": "string",
									"name": "surname",
									"type": "string"
								},
								{
									"internalType": "uint256",
									"name": "balance",
									"type": "uint256"
								}
							],
							"internalType": "struct SimpleContract.Account",
							"name": "_account",
							"type": "tuple"
						}
					],
					"name": "assignValue2",
					"outputs": [],
					"stateMutability": "nonpayable",
					"type": "function"
				},
				{
					"inputs": [
						{
							"components": [
								{
									"internalType": "string",
									"name": "name",
									"type": "string"
								},
								{
									"internalType": "string",
									"name": "surname",
									"type": "string"
								},
								{
									"internalType": "uint256",
									"name": "balance",
									"type": "uint256"
								}
							],
							"internalType": "struct SimpleContract.Account",
							"name": "_account",
							"type": "tuple"
						}
					],
					"name": "assingAddressValues",
					"outputs": [],
					"stateMutability": "nonpayable",
					"type": "function"
				},
				{
					"inputs": [],
					"name": "count",
					"outputs": [
						{
							"internalType": "uint256",
							"name": "",
							"type": "uint256"
						}
					],
					"stateMutability": "view",
					"type": "function"
				},
				{
					"inputs": [
						{
							"internalType": "uint256",
							"name": "",
							"type": "uint256"
						}
					],
					"name": "errorMessages",
					"outputs": [
						{
							"internalType": "string",
							"name": "",
							"type": "string"
						}
					],
					"stateMutability": "view",
					"type": "function"
				},
				{
					"inputs": [],
					"name": "extraMethod",
					"outputs": [],
					"stateMutability": "nonpayable",
					"type": "function"
				},
				{
					"inputs": [],
					"name": "getAccount",
					"outputs": [
						{
							"components": [
								{
									"internalType": "string",
									"name": "name",
									"type": "string"
								},
								{
									"internalType": "string",
									"name": "surname",
									"type": "string"
								},
								{
									"internalType": "uint256",
									"name": "balance",
									"type": "uint256"
								}
							],
							"internalType": "struct SimpleContract.Account",
							"name": "",
							"type": "tuple"
						}
					],
					"stateMutability": "view",
					"type": "function"
				},
				{
					"inputs": [],
					"name": "getAllAdmins",
					"outputs": [
						{
							"components": [
								{
									"internalType": "string",
									"name": "name",
									"type": "string"
								},
								{
									"internalType": "string",
									"name": "surname",
									"type": "string"
								},
								{
									"internalType": "uint256",
									"name": "balance",
									"type": "uint256"
								}
							],
							"internalType": "struct SimpleContract.Account[]",
							"name": "",
							"type": "tuple[]"
						}
					],
					"stateMutability": "view",
					"type": "function"
				},
				{
					"inputs": [],
					"name": "getSizeOfErrorMessages",
					"outputs": [
						{
							"internalType": "uint256",
							"name": "",
							"type": "uint256"
						}
					],
					"stateMutability": "view",
					"type": "function"
				},
				{
					"inputs": [],
					"name": "iAmReady",
					"outputs": [
						{
							"internalType": "string",
							"name": "",
							"type": "string"
						}
					],
					"stateMutability": "pure",
					"type": "function"
				},
				{
					"inputs": [
						{
							"internalType": "uint256",
							"name": "_increment",
							"type": "uint256"
						}
					],
					"name": "increment",
					"outputs": [],
					"stateMutability": "nonpayable",
					"type": "function"
				},
				{
					"inputs": [],
					"name": "oneIncrement",
					"outputs": [],
					"stateMutability": "nonpayable",
					"type": "function"
				},
				{
					"inputs": [],
					"name": "owner",
					"outputs": [
						{
							"internalType": "address",
							"name": "",
							"type": "address"
						}
					],
					"stateMutability": "view",
					"type": "function"
				},
				{
					"inputs": [
						{
							"internalType": "bool",
							"name": "_allowed",
							"type": "bool"
						}
					],
					"name": "setAllowed",
					"outputs": [],
					"stateMutability": "nonpayable",
					"type": "function"
				},
				{
					"inputs": [],
					"name": "signedCount",
					"outputs": [
						{
							"internalType": "int256",
							"name": "",
							"type": "int256"
						}
					],
					"stateMutability": "view",
					"type": "function"
				},
				{
					"inputs": [
						{
							"internalType": "int256",
							"name": "_increment",
							"type": "int256"
						}
					],
					"name": "signedIncrement",
					"outputs": [],
					"stateMutability": "nonpayable",
					"type": "function"
				},
				{
					"inputs": [],
					"name": "whoAmI",
					"outputs": [
						{
							"internalType": "string",
							"name": "",
							"type": "string"
						}
					],
					"stateMutability": "pure",
					"type": "function"
				}
			],
			"devdoc": {
				"kind": "dev",
				"methods": {},
				"version": 1
			},
			"evm": {
				"assembly": "    /* \"contracts/SimpleContract.sol\":293:2878  contract SimpleContract is IAction, Whois{... */\n  mstore(0x40, 0x80)\n    /* \"contracts/SimpleContract.sol\":775:955  constructor() {... */\n  callvalue\n  dup1\n  iszero\n  tag_1\n  jumpi\n  0x00\n  dup1\n  revert\ntag_1:\n  pop\n    /* \"contracts/SimpleContract.sol\":807:817  msg.sender */\n  caller\n    /* \"contracts/SimpleContract.sol\":799:804  owner */\n  0x03\n  0x00\n    /* \"contracts/SimpleContract.sol\":799:817  owner = msg.sender */\n  0x0100\n  exp\n  dup2\n  sload\n  dup2\n  0xffffffffffffffffffffffffffffffffffffffff\n  mul\n  not\n  and\n  swap1\n  dup4\n  0xffffffffffffffffffffffffffffffffffffffff\n  and\n  mul\n  or\n  swap1\n  sstore\n  pop\n    /* \"contracts/SimpleContract.sol\":827:840  errorMessages */\n  0x05\n    /* \"contracts/SimpleContract.sol\":827:863  errorMessages.push(\"is not allowed\") */\n  dup1\n  0x01\n  dup2\n  sload\n  add\n  dup1\n  dup3\n  sstore\n  dup1\n  swap2\n  pop\n  pop\n  0x01\n  swap1\n  sub\n  swap1\n  0x00\n  mstore\n  keccak256(0x00, 0x20)\n  add\n  0x00\n  mload(0x40)\n  dup1\n  0x40\n  add\n  0x40\n  mstore\n  dup1\n  0x0e\n  dup2\n  mstore\n  0x20\n  add\n  0x6973206e6f7420616c6c6f776564000000000000000000000000000000000000\n  dup2\n  mstore\n  pop\n  swap1\n  swap2\n  swap1\n  swap2\n  pop\n  swap1\n  dup2\n  tag_5\n  swap2\n  swap1\n  tag_6\n  jump\t// in\ntag_5:\n  pop\n    /* \"contracts/SimpleContract.sol\":873:886  errorMessages */\n  0x05\n    /* \"contracts/SimpleContract.sol\":873:905  errorMessages.push(\"only owner\") */\n  dup1\n  0x01\n  dup2\n  sload\n  add\n  dup1\n  dup3\n  sstore\n  dup1\n  swap2\n  pop\n  pop\n  0x01\n  swap1\n  sub\n  swap1\n  0x00\n  mstore\n  keccak256(0x00, 0x20)\n  add\n  0x00\n  mload(0x40)\n  dup1\n  0x40\n  add\n  0x40\n  mstore\n  dup1\n  0x0a\n  dup2\n  mstore\n  0x20\n  add\n  0x6f6e6c79206f776e657200000000000000000000000000000000000000000000\n  dup2\n  mstore\n  pop\n  swap1\n  swap2\n  swap1\n  swap2\n  pop\n  swap1\n  dup2\n  tag_8\n  swap2\n  swap1\n  tag_6\n  jump\t// in\ntag_8:\n  pop\n    /* \"contracts/SimpleContract.sol\":915:928  errorMessages */\n  0x05\n    /* \"contracts/SimpleContract.sol\":915:948  errorMessages.push(\"placeholder\") */\n  dup1\n  0x01\n  dup2\n  sload\n  add\n  dup1\n  dup3\n  sstore\n  dup1\n  swap2\n  pop\n  pop\n  0x01\n  swap1\n  sub\n  swap1\n  0x00\n  mstore\n  keccak256(0x00, 0x20)\n  add\n  0x00\n  mload(0x40)\n  dup1\n  0x40\n  add\n  0x40\n  mstore\n  dup1\n  0x0b\n  dup2\n  mstore\n  0x20\n  add\n  0x706c616365686f6c646572000000000000000000000000000000000000000000\n  dup2\n  mstore\n  pop\n  swap1\n  swap2\n  swap1\n  swap2\n  pop\n  swap1\n  dup2\n  tag_10\n  swap2\n  swap1\n  tag_6\n  jump\t// in\ntag_10:\n  pop\n    /* \"contracts/SimpleContract.sol\":293:2878  contract SimpleContract is IAction, Whois{... */\n  jump(tag_11)\n    /* \"#utility.yul\":7:106   */\ntag_12:\n    /* \"#utility.yul\":59:65   */\n  0x00\n    /* \"#utility.yul\":93:98   */\n  dup2\n    /* \"#utility.yul\":87:99   */\n  mload\n    /* \"#utility.yul\":77:99   */\n  swap1\n  pop\n    /* \"#utility.yul\":7:106   */\n  swap2\n  swap1\n  pop\n  jump\t// out\n    /* \"#utility.yul\":112:292   */\ntag_13:\n    /* \"#utility.yul\":160:237   */\n  0x4e487b7100000000000000000000000000000000000000000000000000000000\n    /* \"#utility.yul\":157:158   */\n  0x00\n    /* \"#utility.yul\":150:238   */\n  mstore\n    /* \"#utility.yul\":257:261   */\n  0x41\n    /* \"#utility.yul\":254:255   */\n  0x04\n    /* \"#utility.yul\":247:262   */\n  mstore\n    /* \"#utility.yul\":281:285   */\n  0x24\n    /* \"#utility.yul\":278:279   */\n  0x00\n    /* \"#utility.yul\":271:286   */\n  revert\n    /* \"#utility.yul\":298:478   */\ntag_14:\n    /* \"#utility.yul\":346:423   */\n  0x4e487b7100000000000000000000000000000000000000000000000000000000\n    /* \"#utility.yul\":343:344   */\n  0x00\n    /* \"#utility.yul\":336:424   */\n  mstore\n    /* \"#utility.yul\":443:447   */\n  0x22\n    /* \"#utility.yul\":440:441   */\n  0x04\n    /* \"#utility.yul\":433:448   */\n  mstore\n    /* \"#utility.yul\":467:471   */\n  0x24\n    /* \"#utility.yul\":464:465   */\n  0x00\n    /* \"#utility.yul\":457:472   */\n  revert\n    /* \"#utility.yul\":484:804   */\ntag_15:\n    /* \"#utility.yul\":528:534   */\n  0x00\n    /* \"#utility.yul\":565:566   */\n  0x02\n    /* \"#utility.yul\":559:563   */\n  dup3\n    /* \"#utility.yul\":555:567   */\n  div\n    /* \"#utility.yul\":545:567   */\n  swap1\n  pop\n    /* \"#utility.yul\":612:613   */\n  0x01\n    /* \"#utility.yul\":606:610   */\n  dup3\n    /* \"#utility.yul\":602:614   */\n  and\n    /* \"#utility.yul\":633:651   */\n  dup1\n    /* \"#utility.yul\":623:704   */\n  tag_37\n  jumpi\n    /* \"#utility.yul\":689:693   */\n  0x7f\n    /* \"#utility.yul\":681:687   */\n  dup3\n    /* \"#utility.yul\":677:694   */\n  and\n    /* \"#utility.yul\":667:694   */\n  swap2\n  pop\n    /* \"#utility.yul\":623:704   */\ntag_37:\n    /* \"#utility.yul\":751:753   */\n  0x20\n    /* \"#utility.yul\":743:749   */\n  dup3\n    /* \"#utility.yul\":740:754   */\n  lt\n    /* \"#utility.yul\":720:738   */\n  dup2\n    /* \"#utility.yul\":717:755   */\n  sub\n    /* \"#utility.yul\":714:798   */\n  tag_38\n  jumpi\n    /* \"#utility.yul\":770:788   */\n  tag_39\n  tag_14\n  jump\t// in\ntag_39:\n    /* \"#utility.yul\":714:798   */\ntag_38:\n    /* \"#utility.yul\":535:804   */\n  pop\n    /* \"#utility.yul\":484:804   */\n  swap2\n  swap1\n  pop\n  jump\t// out\n    /* \"#utility.yul\":810:951   */\ntag_16:\n    /* \"#utility.yul\":859:863   */\n  0x00\n    /* \"#utility.yul\":882:885   */\n  dup2\n    /* \"#utility.yul\":874:885   */\n  swap1\n  pop\n    /* \"#utility.yul\":905:908   */\n  dup2\n    /* \"#utility.yul\":902:903   */\n  0x00\n    /* \"#utility.yul\":895:909   */\n  mstore\n    /* \"#utility.yul\":939:943   */\n  0x20\n    /* \"#utility.yul\":936:937   */\n  0x00\n    /* \"#utility.yul\":926:944   */\n  keccak256\n    /* \"#utility.yul\":918:944   */\n  swap1\n  pop\n    /* \"#utility.yul\":810:951   */\n  swap2\n  swap1\n  pop\n  jump\t// out\n    /* \"#utility.yul\":957:1050   */\ntag_17:\n    /* \"#utility.yul\":994:1000   */\n  0x00\n    /* \"#utility.yul\":1041:1043   */\n  0x20\n    /* \"#utility.yul\":1036:1038   */\n  0x1f\n    /* \"#utility.yul\":1029:1034   */\n  dup4\n    /* \"#utility.yul\":1025:1039   */\n  add\n    /* \"#utility.yul\":1021:1044   */\n  div\n    /* \"#utility.yul\":1011:1044   */\n  swap1\n  pop\n    /* \"#utility.yul\":957:1050   */\n  swap2\n  swap1\n  pop\n  jump\t// out\n    /* \"#utility.yul\":1056:1163   */\ntag_18:\n    /* \"#utility.yul\":1100:1108   */\n  0x00\n    /* \"#utility.yul\":1150:1155   */\n  dup3\n    /* \"#utility.yul\":1144:1148   */\n  dup3\n    /* \"#utility.yul\":1140:1156   */\n  shl\n    /* \"#utility.yul\":1119:1156   */\n  swap1\n  pop\n    /* \"#utility.yul\":1056:1163   */\n  swap3\n  swap2\n  pop\n  pop\n  jump\t// out\n    /* \"#utility.yul\":1169:1562   */\ntag_19:\n    /* \"#utility.yul\":1238:1244   */\n  0x00\n    /* \"#utility.yul\":1288:1289   */\n  0x08\n    /* \"#utility.yul\":1276:1286   */\n  dup4\n    /* \"#utility.yul\":1272:1290   */\n  mul\n    /* \"#utility.yul\":1311:1408   */\n  tag_44\n    /* \"#utility.yul\":1341:1407   */\n  0xffffffffffffffffffffffffffffffffffffffffffffffffffffffffffffffff\n    /* \"#utility.yul\":1330:1339   */\n  dup3\n    /* \"#utility.yul\":1311:1408   */\n  tag_18\n  jump\t// in\ntag_44:\n    /* \"#utility.yul\":1429:1468   */\n  tag_45\n    /* \"#utility.yul\":1459:1467   */\n  dup7\n    /* \"#utility.yul\":1448:1457   */\n  dup4\n    /* \"#utility.yul\":1429:1468   */\n  tag_18\n  jump\t// in\ntag_45:\n    /* \"#utility.yul\":1417:1468   */\n  swap6\n  pop\n    /* \"#utility.yul\":1501:1505   */\n  dup1\n    /* \"#utility.yul\":1497:1506   */\n  not\n    /* \"#utility.yul\":1490:1495   */\n  dup5\n    /* \"#utility.yul\":1486:1507   */\n  and\n    /* \"#utility.yul\":1477:1507   */\n  swap4\n  pop\n    /* \"#utility.yul\":1550:1554   */\n  dup1\n    /* \"#utility.yul\":1540:1548   */\n  dup7\n    /* \"#utility.yul\":1536:1555   */\n  and\n    /* \"#utility.yul\":1529:1534   */\n  dup5\n    /* \"#utility.yul\":1526:1556   */\n  or\n    /* \"#utility.yul\":1516:1556   */\n  swap3\n  pop\n    /* \"#utility.yul\":1245:1562   */\n  pop\n  pop\n    /* \"#utility.yul\":1169:1562   */\n  swap4\n  swap3\n  pop\n  pop\n  pop\n  jump\t// out\n    /* \"#utility.yul\":1568:1645   */\ntag_20:\n    /* \"#utility.yul\":1605:1612   */\n  0x00\n    /* \"#utility.yul\":1634:1639   */\n  dup2\n    /* \"#utility.yul\":1623:1639   */\n  swap1\n  pop\n    /* \"#utility.yul\":1568:1645   */\n  swap2\n  swap1\n  pop\n  jump\t// out\n    /* \"#utility.yul\":1651:1711   */\ntag_21:\n    /* \"#utility.yul\":1679:1682   */\n  0x00\n    /* \"#utility.yul\":1700:1705   */\n  dup2\n    /* \"#utility.yul\":1693:1705   */\n  swap1\n  pop\n    /* \"#utility.yul\":1651:1711   */\n  swap2\n  swap1\n  pop\n  jump\t// out\n    /* \"#utility.yul\":1717:1859   */\ntag_22:\n    /* \"#utility.yul\":1767:1776   */\n  0x00\n    /* \"#utility.yul\":1800:1853   */\n  tag_49\n    /* \"#utility.yul\":1818:1852   */\n  tag_50\n    /* \"#utility.yul\":1827:1851   */\n  tag_51\n    /* \"#utility.yul\":1845:1850   */\n  dup5\n    /* \"#utility.yul\":1827:1851   */\n  tag_20\n  jump\t// in\ntag_51:\n    /* \"#utility.yul\":1818:1852   */\n  tag_21\n  jump\t// in\ntag_50:\n    /* \"#utility.yul\":1800:1853   */\n  tag_20\n  jump\t// in\ntag_49:\n    /* \"#utility.yul\":1787:1853   */\n  swap1\n  pop\n    /* \"#utility.yul\":1717:1859   */\n  swap2\n  swap1\n  pop\n  jump\t// out\n    /* \"#utility.yul\":1865:1940   */\ntag_23:\n    /* \"#utility.yul\":1908:1911   */\n  0x00\n    /* \"#utility.yul\":1929:1934   */\n  dup2\n    /* \"#utility.yul\":1922:1934   */\n  swap1\n  pop\n    /* \"#utility.yul\":1865:1940   */\n  swap2\n  swap1\n  pop\n  jump\t// out\n    /* \"#utility.yul\":1946:2215   */\ntag_24:\n    /* \"#utility.yul\":2056:2095   */\n  tag_54\n    /* \"#utility.yul\":2087:2094   */\n  dup4\n    /* \"#utility.yul\":2056:2095   */\n  tag_22\n  jump\t// in\ntag_54:\n    /* \"#utility.yul\":2117:2208   */\n  tag_55\n    /* \"#utility.yul\":2166:2207   */\n  tag_56\n    /* \"#utility.yul\":2190:2206   */\n  dup3\n    /* \"#utility.yul\":2166:2207   */\n  tag_23\n  jump\t// in\ntag_56:\n    /* \"#utility.yul\":2158:2164   */\n  dup5\n    /* \"#utility.yul\":2151:2155   */\n  dup5\n    /* \"#utility.yul\":2145:2156   */\n  sload\n    /* \"#utility.yul\":2117:2208   */\n  tag_19\n  jump\t// in\ntag_55:\n    /* \"#utility.yul\":2111:2115   */\n  dup3\n    /* \"#utility.yul\":2104:2209   */\n  sstore\n    /* \"#utility.yul\":2022:2215   */\n  pop\n    /* \"#utility.yul\":1946:2215   */\n  pop\n  pop\n  pop\n  jump\t// out\n    /* \"#utility.yul\":2221:2294   */\ntag_25:\n    /* \"#utility.yul\":2266:2269   */\n  0x00\n    /* \"#utility.yul\":2221:2294   */\n  swap1\n  jump\t// out\n    /* \"#utility.yul\":2300:2489   */\ntag_26:\n    /* \"#utility.yul\":2377:2409   */\n  tag_59\n  tag_25\n  jump\t// in\ntag_59:\n    /* \"#utility.yul\":2418:2483   */\n  tag_60\n    /* \"#utility.yul\":2476:2482   */\n  dup2\n    /* \"#utility.yul\":2468:2474   */\n  dup5\n    /* \"#utility.yul\":2462:2466   */\n  dup5\n    /* \"#utility.yul\":2418:2483   */\n  tag_24\n  jump\t// in\ntag_60:\n    /* \"#utility.yul\":2353:2489   */\n  pop\n    /* \"#utility.yul\":2300:2489   */\n  pop\n  pop\n  jump\t// out\n    /* \"#utility.yul\":2495:2681   */\ntag_27:\n    /* \"#utility.yul\":2555:2675   */\ntag_62:\n    /* \"#utility.yul\":2572:2575   */\n  dup2\n    /* \"#utility.yul\":2565:2570   */\n  dup2\n    /* \"#utility.yul\":2562:2576   */\n  lt\n    /* \"#utility.yul\":2555:2675   */\n  iszero\n  tag_64\n  jumpi\n    /* \"#utility.yul\":2626:2665   */\n  tag_65\n    /* \"#utility.yul\":2663:2664   */\n  0x00\n    /* \"#utility.yul\":2656:2661   */\n  dup3\n    /* \"#utility.yul\":2626:2665   */\n  tag_26\n  jump\t// in\ntag_65:\n    /* \"#utility.yul\":2599:2600   */\n  0x01\n    /* \"#utility.yul\":2592:2597   */\n  dup2\n    /* \"#utility.yul\":2588:2601   */\n  add\n    /* \"#utility.yul\":2579:2601   */\n  swap1\n  pop\n    /* \"#utility.yul\":2555:2675   */\n  jump(tag_62)\ntag_64:\n    /* \"#utility.yul\":2495:2681   */\n  pop\n  pop\n  jump\t// out\n    /* \"#utility.yul\":2687:3230   */\ntag_28:\n    /* \"#utility.yul\":2788:2790   */\n  0x1f\n    /* \"#utility.yul\":2783:2786   */\n  dup3\n    /* \"#utility.yul\":2780:2791   */\n  gt\n    /* \"#utility.yul\":2777:3223   */\n  iszero\n  tag_67\n  jumpi\n    /* \"#utility.yul\":2822:2860   */\n  tag_68\n    /* \"#utility.yul\":2854:2859   */\n  dup2\n    /* \"#utility.yul\":2822:2860   */\n  tag_16\n  jump\t// in\ntag_68:\n    /* \"#utility.yul\":2906:2935   */\n  tag_69\n    /* \"#utility.yul\":2924:2934   */\n  dup5\n    /* \"#utility.yul\":2906:2935   */\n  tag_17\n  jump\t// in\ntag_69:\n    /* \"#utility.yul\":2896:2904   */\n  dup2\n    /* \"#utility.yul\":2892:2936   */\n  add\n    /* \"#utility.yul\":3089:3091   */\n  0x20\n    /* \"#utility.yul\":3077:3087   */\n  dup6\n    /* \"#utility.yul\":3074:3092   */\n  lt\n    /* \"#utility.yul\":3071:3120   */\n  iszero\n  tag_70\n  jumpi\n    /* \"#utility.yul\":3110:3118   */\n  dup2\n    /* \"#utility.yul\":3095:3118   */\n  swap1\n  pop\n    /* \"#utility.yul\":3071:3120   */\ntag_70:\n    /* \"#utility.yul\":3133:3213   */\n  tag_71\n    /* \"#utility.yul\":3189:3211   */\n  tag_72\n    /* \"#utility.yul\":3207:3210   */\n  dup6\n    /* \"#utility.yul\":3189:3211   */\n  tag_17\n  jump\t// in\ntag_72:\n    /* \"#utility.yul\":3179:3187   */\n  dup4\n    /* \"#utility.yul\":3175:3212   */\n  add\n    /* \"#utility.yul\":3162:3173   */\n  dup3\n    /* \"#utility.yul\":3133:3213   */\n  tag_27\n  jump\t// in\ntag_71:\n    /* \"#utility.yul\":2792:3223   */\n  pop\n  pop\n    /* \"#utility.yul\":2777:3223   */\ntag_67:\n    /* \"#utility.yul\":2687:3230   */\n  pop\n  pop\n  pop\n  jump\t// out\n    /* \"#utility.yul\":3236:3353   */\ntag_29:\n    /* \"#utility.yul\":3290:3298   */\n  0x00\n    /* \"#utility.yul\":3340:3345   */\n  dup3\n    /* \"#utility.yul\":3334:3338   */\n  dup3\n    /* \"#utility.yul\":3330:3346   */\n  shr\n    /* \"#utility.yul\":3309:3346   */\n  swap1\n  pop\n    /* \"#utility.yul\":3236:3353   */\n  swap3\n  swap2\n  pop\n  pop\n  jump\t// out\n    /* \"#utility.yul\":3359:3528   */\ntag_30:\n    /* \"#utility.yul\":3403:3409   */\n  0x00\n    /* \"#utility.yul\":3436:3487   */\n  tag_75\n    /* \"#utility.yul\":3484:3485   */\n  0x00\n    /* \"#utility.yul\":3480:3486   */\n  not\n    /* \"#utility.yul\":3472:3477   */\n  dup5\n    /* \"#utility.yul\":3469:3470   */\n  0x08\n    /* \"#utility.yul\":3465:3478   */\n  mul\n    /* \"#utility.yul\":3436:3487   */\n  tag_29\n  jump\t// in\ntag_75:\n    /* \"#utility.yul\":3432:3488   */\n  not\n    /* \"#utility.yul\":3517:3521   */\n  dup1\n    /* \"#utility.yul\":3511:3515   */\n  dup4\n    /* \"#utility.yul\":3507:3522   */\n  and\n    /* \"#utility.yul\":3497:3522   */\n  swap2\n  pop\n    /* \"#utility.yul\":3410:3528   */\n  pop\n    /* \"#utility.yul\":3359:3528   */\n  swap3\n  swap2\n  pop\n  pop\n  jump\t// out\n    /* \"#utility.yul\":3533:3828   */\ntag_31:\n    /* \"#utility.yul\":3609:3613   */\n  0x00\n    /* \"#utility.yul\":3755:3784   */\n  tag_77\n    /* \"#utility.yul\":3780:3783   */\n  dup4\n    /* \"#utility.yul\":3774:3778   */\n  dup4\n    /* \"#utility.yul\":3755:3784   */\n  tag_30\n  jump\t// in\ntag_77:\n    /* \"#utility.yul\":3747:3784   */\n  swap2\n  pop\n    /* \"#utility.yul\":3817:3820   */\n  dup3\n    /* \"#utility.yul\":3814:3815   */\n  0x02\n    /* \"#utility.yul\":3810:3821   */\n  mul\n    /* \"#utility.yul\":3804:3808   */\n  dup3\n    /* \"#utility.yul\":3801:3822   */\n  or\n    /* \"#utility.yul\":3793:3822   */\n  swap1\n  pop\n    /* \"#utility.yul\":3533:3828   */\n  swap3\n  swap2\n  pop\n  pop\n  jump\t// out\n    /* \"#utility.yul\":3833:5228   */\ntag_6:\n    /* \"#utility.yul\":3950:3987   */\n  tag_79\n    /* \"#utility.yul\":3983:3986   */\n  dup3\n    /* \"#utility.yul\":3950:3987   */\n  tag_12\n  jump\t// in\ntag_79:\n    /* \"#utility.yul\":4052:4070   */\n  0xffffffffffffffff\n    /* \"#utility.yul\":4044:4050   */\n  dup2\n    /* \"#utility.yul\":4041:4071   */\n  gt\n    /* \"#utility.yul\":4038:4094   */\n  iszero\n  tag_80\n  jumpi\n    /* \"#utility.yul\":4074:4092   */\n  tag_81\n  tag_13\n  jump\t// in\ntag_81:\n    /* \"#utility.yul\":4038:4094   */\ntag_80:\n    /* \"#utility.yul\":4118:4156   */\n  tag_82\n    /* \"#utility.yul\":4150:4154   */\n  dup3\n    /* \"#utility.yul\":4144:4155   */\n  sload\n    /* \"#utility.yul\":4118:4156   */\n  tag_15\n  jump\t// in\ntag_82:\n    /* \"#utility.yul\":4203:4270   */\n  tag_83\n    /* \"#utility.yul\":4263:4269   */\n  dup3\n    /* \"#utility.yul\":4255:4261   */\n  dup3\n    /* \"#utility.yul\":4249:4253   */\n  dup6\n    /* \"#utility.yul\":4203:4270   */\n  tag_28\n  jump\t// in\ntag_83:\n    /* \"#utility.yul\":4297:4298   */\n  0x00\n    /* \"#utility.yul\":4321:4325   */\n  0x20\n    /* \"#utility.yul\":4308:4325   */\n  swap1\n  pop\n    /* \"#utility.yul\":4353:4355   */\n  0x1f\n    /* \"#utility.yul\":4345:4351   */\n  dup4\n    /* \"#utility.yul\":4342:4356   */\n  gt\n    /* \"#utility.yul\":4370:4371   */\n  0x01\n    /* \"#utility.yul\":4365:4983   */\n  dup2\n  eq\n  tag_85\n  jumpi\n    /* \"#utility.yul\":5027:5028   */\n  0x00\n    /* \"#utility.yul\":5044:5050   */\n  dup5\n    /* \"#utility.yul\":5041:5118   */\n  iszero\n  tag_86\n  jumpi\n    /* \"#utility.yul\":5093:5102   */\n  dup3\n    /* \"#utility.yul\":5088:5091   */\n  dup8\n    /* \"#utility.yul\":5084:5103   */\n  add\n    /* \"#utility.yul\":5078:5104   */\n  mload\n    /* \"#utility.yul\":5069:5104   */\n  swap1\n  pop\n    /* \"#utility.yul\":5041:5118   */\ntag_86:\n    /* \"#utility.yul\":5144:5211   */\n  tag_87\n    /* \"#utility.yul\":5204:5210   */\n  dup6\n    /* \"#utility.yul\":5197:5202   */\n  dup3\n    /* \"#utility.yul\":5144:5211   */\n  tag_31\n  jump\t// in\ntag_87:\n    /* \"#utility.yul\":5138:5142   */\n  dup7\n    /* \"#utility.yul\":5131:5212   */\n  sstore\n    /* \"#utility.yul\":5000:5222   */\n  pop\n    /* \"#utility.yul\":4335:5222   */\n  jump(tag_84)\n    /* \"#utility.yul\":4365:4983   */\ntag_85:\n    /* \"#utility.yul\":4417:4421   */\n  0x1f\n    /* \"#utility.yul\":4413:4422   */\n  not\n    /* \"#utility.yul\":4405:4411   */\n  dup5\n    /* \"#utility.yul\":4401:4423   */\n  and\n    /* \"#utility.yul\":4451:4488   */\n  tag_88\n    /* \"#utility.yul\":4483:4487   */\n  dup7\n    /* \"#utility.yul\":4451:4488   */\n  tag_16\n  jump\t// in\ntag_88:\n    /* \"#utility.yul\":4510:4511   */\n  0x00\n    /* \"#utility.yul\":4524:4732   */\ntag_89:\n    /* \"#utility.yul\":4538:4545   */\n  dup3\n    /* \"#utility.yul\":4535:4536   */\n  dup2\n    /* \"#utility.yul\":4532:4546   */\n  lt\n    /* \"#utility.yul\":4524:4732   */\n  iszero\n  tag_91\n  jumpi\n    /* \"#utility.yul\":4617:4626   */\n  dup5\n    /* \"#utility.yul\":4612:4615   */\n  dup10\n    /* \"#utility.yul\":4608:4627   */\n  add\n    /* \"#utility.yul\":4602:4628   */\n  mload\n    /* \"#utility.yul\":4594:4600   */\n  dup3\n    /* \"#utility.yul\":4587:4629   */\n  sstore\n    /* \"#utility.yul\":4668:4669   */\n  0x01\n    /* \"#utility.yul\":4660:4666   */\n  dup3\n    /* \"#utility.yul\":4656:4670   */\n  add\n    /* \"#utility.yul\":4646:4670   */\n  swap2\n  pop\n    /* \"#utility.yul\":4715:4717   */\n  0x20\n    /* \"#utility.yul\":4704:4713   */\n  dup6\n    /* \"#utility.yul\":4700:4718   */\n  add\n    /* \"#utility.yul\":4687:4718   */\n  swap5\n  pop\n    /* \"#utility.yul\":4561:4565   */\n  0x20\n    /* \"#utility.yul\":4558:4559   */\n  dup2\n    /* \"#utility.yul\":4554:4566   */\n  add\n    /* \"#utility.yul\":4549:4566   */\n  swap1\n  pop\n    /* \"#utility.yul\":4524:4732   */\n  jump(tag_89)\ntag_91:\n    /* \"#utility.yul\":4760:4766   */\n  dup7\n    /* \"#utility.yul\":4751:4758   */\n  dup4\n    /* \"#utility.yul\":4748:4767   */\n  lt\n    /* \"#utility.yul\":4745:4924   */\n  iszero\n  tag_92\n  jumpi\n    /* \"#utility.yul\":4818:4827   */\n  dup5\n    /* \"#utility.yul\":4813:4816   */\n  dup10\n    /* \"#utility.yul\":4809:4828   */\n  add\n    /* \"#utility.yul\":4803:4829   */\n  mload\n    /* \"#utility.yul\":4861:4909   */\n  tag_93\n    /* \"#utility.yul\":4903:4907   */\n  0x1f\n    /* \"#utility.yul\":4895:4901   */\n  dup10\n    /* \"#utility.yul\":4891:4908   */\n  and\n    /* \"#utility.yul\":4880:4889   */\n  dup3\n    /* \"#utility.yul\":4861:4909   */\n  tag_30\n  jump\t// in\ntag_93:\n    /* \"#utility.yul\":4853:4859   */\n  dup4\n    /* \"#utility.yul\":4846:4910   */\n  sstore\n    /* \"#utility.yul\":4768:4924   */\n  pop\n    /* \"#utility.yul\":4745:4924   */\ntag_92:\n    /* \"#utility.yul\":4970:4971   */\n  0x01\n    /* \"#utility.yul\":4966:4967   */\n  0x02\n    /* \"#utility.yul\":4958:4964   */\n  dup9\n    /* \"#utility.yul\":4954:4968   */\n  mul\n    /* \"#utility.yul\":4950:4972   */\n  add\n    /* \"#utility.yul\":4944:4948   */\n  dup9\n    /* \"#utility.yul\":4937:4973   */\n  sstore\n    /* \"#utility.yul\":4372:4983   */\n  pop\n  pop\n  pop\n    /* \"#utility.yul\":4335:5222   */\ntag_84:\n  pop\n    /* \"#utility.yul\":3925:5228   */\n  pop\n  pop\n  pop\n    /* \"#utility.yul\":3833:5228   */\n  pop\n  pop\n  jump\t// out\n    /* \"contracts/SimpleContract.sol\":293:2878  contract SimpleContract is IAction, Whois{... */\ntag_11:\n  dataSize(sub_0)\n  dup1\n  dataOffset(sub_0)\n  0x00\n  codecopy\n  0x00\n  return\nstop\n\nsub_0: assembly {\n        /* \"contracts/SimpleContract.sol\":293:2878  contract SimpleContract is IAction, Whois{... */\n      mstore(0x40, 0x80)\n      callvalue\n      dup1\n      iszero\n      tag_1\n      jumpi\n      0x00\n      dup1\n      revert\n    tag_1:\n      pop\n      jumpi(tag_2, lt(calldatasize, 0x04))\n      shr(0xe0, calldataload(0x00))\n      dup1\n      0x7cf5dab0\n      gt\n      tag_26\n      jumpi\n      dup1\n      0xdb613e81\n      gt\n      tag_27\n      jumpi\n      dup1\n      0xdb613e81\n      eq\n      tag_20\n      jumpi\n      dup1\n      0xdd62ed3e\n      eq\n      tag_21\n      jumpi\n      dup1\n      0xe9523c97\n      eq\n      tag_22\n      jumpi\n      dup1\n      0xf3009c90\n      eq\n      tag_23\n      jumpi\n      dup1\n      0xf6ace8d7\n      eq\n      tag_24\n      jumpi\n      dup1\n      0xffac3b1d\n      eq\n      tag_25\n      jumpi\n      jump(tag_2)\n    tag_27:\n      dup1\n      0x7cf5dab0\n      eq\n      tag_14\n      jumpi\n      dup1\n      0x8da5cb5b\n      eq\n      tag_15\n      jumpi\n      dup1\n      0x9bead1f8\n      eq\n      tag_16\n      jumpi\n      dup1\n      0xbe7cb506\n      eq\n      tag_17\n      jumpi\n      dup1\n      0xc539ab78\n      eq\n      tag_18\n      jumpi\n      dup1\n      0xda91254c\n      eq\n      tag_19\n      jumpi\n      jump(tag_2)\n    tag_26:\n      dup1\n      0x4fab2bc9\n      gt\n      tag_28\n      jumpi\n      dup1\n      0x4fab2bc9\n      eq\n      tag_8\n      jumpi\n      dup1\n      0x5f3d8f4a\n      eq\n      tag_9\n      jumpi\n      dup1\n      0x5faaf352\n      eq\n      tag_10\n      jumpi\n      dup1\n      0x6710a559\n      eq\n      tag_11\n      jumpi\n      dup1\n      0x702051f0\n      eq\n      tag_12\n      jumpi\n      dup1\n      0x7c85cfc2\n      eq\n      tag_13\n      jumpi\n      jump(tag_2)\n    tag_28:\n      dup1\n      0x942a94\n      eq\n      tag_3\n      jumpi\n      dup1\n      0x06661abd\n      eq\n      tag_4\n      jumpi\n      dup1\n      0x14bfd6d0\n      eq\n      tag_5\n      jumpi\n      dup1\n      0x19e1fca4\n      eq\n      tag_6\n      jumpi\n      dup1\n      0x2babac22\n      eq\n      tag_7\n      jumpi\n    tag_2:\n      0x00\n      dup1\n      revert\n        /* \"contracts/SimpleContract.sol\":2196:2310  function assingAddressValues(Account memory _account) public {... */\n    tag_3:\n      tag_29\n      0x04\n      dup1\n      calldatasize\n      sub\n      dup2\n      add\n      swap1\n      tag_30\n      swap2\n      swap1\n      tag_31\n      jump\t// in\n    tag_30:\n      tag_32\n      jump\t// in\n    tag_29:\n      stop\n        /* \"contracts/SimpleContract.sol\":367:384  uint public count */\n    tag_4:\n      tag_33\n      tag_34\n      jump\t// in\n    tag_33:\n      mload(0x40)\n      tag_35\n      swap2\n      swap1\n      tag_36\n      jump\t// in\n    tag_35:\n      mload(0x40)\n      dup1\n      swap2\n      sub\n      swap1\n      return\n        /* \"contracts/SimpleContract.sol\":720:744  Account[3] public admins */\n    tag_5:\n      tag_37\n      0x04\n      dup1\n      calldatasize\n      sub\n      dup2\n      add\n      swap1\n      tag_38\n      swap2\n      swap1\n      tag_39\n      jump\t// in\n    tag_38:\n      tag_40\n      jump\t// in\n    tag_37:\n      mload(0x40)\n      tag_41\n      swap4\n      swap3\n      swap2\n      swap1\n      tag_42\n      jump\t// in\n    tag_41:\n      mload(0x40)\n      dup1\n      swap2\n      sub\n      swap1\n      return\n        /* \"contracts/SimpleContract.sol\":341:360  bool public allowed */\n    tag_6:\n      tag_43\n      tag_44\n      jump\t// in\n    tag_43:\n      mload(0x40)\n      tag_45\n      swap2\n      swap1\n      tag_46\n      jump\t// in\n    tag_45:\n      mload(0x40)\n      dup1\n      swap2\n      sub\n      swap1\n      return\n        /* \"contracts/SimpleContract.sol\":1073:1150  function setAllowed(bool _allowed) public {... */\n    tag_7:\n      tag_47\n      0x04\n      dup1\n      calldatasize\n      sub\n      dup2\n      add\n      swap1\n      tag_48\n      swap2\n      swap1\n      tag_49\n      jump\t// in\n    tag_48:\n      tag_50\n      jump\t// in\n    tag_47:\n      stop\n        /* \"contracts/SimpleContract.sol\":666:714  mapping(address => Account) public accountValues */\n    tag_8:\n      tag_51\n      0x04\n      dup1\n      calldatasize\n      sub\n      dup2\n      add\n      swap1\n      tag_52\n      swap2\n      swap1\n      tag_53\n      jump\t// in\n    tag_52:\n      tag_54\n      jump\t// in\n    tag_51:\n      mload(0x40)\n      tag_55\n      swap4\n      swap3\n      swap2\n      swap1\n      tag_42\n      jump\t// in\n    tag_55:\n      mload(0x40)\n      dup1\n      swap2\n      sub\n      swap1\n      return\n        /* \"contracts/SimpleContract.sol\":390:412  int public signedCount */\n    tag_9:\n      tag_56\n      tag_57\n      jump\t// in\n    tag_56:\n      mload(0x40)\n      tag_58\n      swap2\n      swap1\n      tag_59\n      jump\t// in\n    tag_58:\n      mload(0x40)\n      dup1\n      swap2\n      sub\n      swap1\n      return\n        /* \"contracts/SimpleContract.sol\":2316:2444  function addAdmin(Account memory admin) public {... */\n    tag_10:\n      tag_60\n      0x04\n      dup1\n      calldatasize\n      sub\n      dup2\n      add\n      swap1\n      tag_61\n      swap2\n      swap1\n      tag_31\n      jump\t// in\n    tag_61:\n      tag_62\n      jump\t// in\n    tag_60:\n      stop\n        /* \"contracts/SimpleContract.sol\":243:289  function extraMethod() public {... */\n    tag_11:\n      tag_63\n      tag_64\n      jump\t// in\n    tag_63:\n      stop\n        /* \"contracts/SimpleContract.sol\":961:1067  function getSizeOfErrorMessages() public view returns(uint256){... */\n    tag_12:\n      tag_65\n      tag_66\n      jump\t// in\n    tag_65:\n      mload(0x40)\n      tag_67\n      swap2\n      swap1\n      tag_36\n      jump\t// in\n    tag_67:\n      mload(0x40)\n      dup1\n      swap2\n      sub\n      swap1\n      return\n        /* \"contracts/SimpleContract.sol\":2678:2771  function iAmReady() external pure returns(string memory){... */\n    tag_13:\n      tag_68\n      tag_69\n      jump\t// in\n    tag_68:\n      mload(0x40)\n      tag_70\n      swap2\n      swap1\n      tag_71\n      jump\t// in\n    tag_70:\n      mload(0x40)\n      dup1\n      swap2\n      sub\n      swap1\n      return\n        /* \"contracts/SimpleContract.sol\":1429:1525  function increment(uint _increment) public isAllowed {... */\n    tag_14:\n      tag_72\n      0x04\n      dup1\n      calldatasize\n      sub\n      dup2\n      add\n      swap1\n      tag_73\n      swap2\n      swap1\n      tag_39\n      jump\t// in\n    tag_73:\n      tag_74\n      jump\t// in\n    tag_72:\n      stop\n        /* \"contracts/SimpleContract.sol\":418:438  address public owner */\n    tag_15:\n      tag_75\n      tag_76\n      jump\t// in\n    tag_75:\n      mload(0x40)\n      tag_77\n      swap2\n      swap1\n      tag_78\n      jump\t// in\n    tag_77:\n      mload(0x40)\n      dup1\n      swap2\n      sub\n      swap1\n      return\n        /* \"contracts/SimpleContract.sol\":1756:1956  function assignValue(string memory _name, string memory _surname, uint256 _balance) public {... */\n    tag_16:\n      tag_79\n      0x04\n      dup1\n      calldatasize\n      sub\n      dup2\n      add\n      swap1\n      tag_80\n      swap2\n      swap1\n      tag_81\n      jump\t// in\n    tag_80:\n      tag_82\n      jump\t// in\n    tag_79:\n      stop\n        /* \"contracts/SimpleContract.sol\":1531:1634  function signedIncrement(int _increment) public {... */\n    tag_17:\n      tag_83\n      0x04\n      dup1\n      calldatasize\n      sub\n      dup2\n      add\n      swap1\n      tag_84\n      swap2\n      swap1\n      tag_85\n      jump\t// in\n    tag_84:\n      tag_86\n      jump\t// in\n    tag_83:\n      stop\n        /* \"contracts/SimpleContract.sol\":511:540  string[] public errorMessages */\n    tag_18:\n      tag_87\n      0x04\n      dup1\n      calldatasize\n      sub\n      dup2\n      add\n      swap1\n      tag_88\n      swap2\n      swap1\n      tag_39\n      jump\t// in\n    tag_88:\n      tag_89\n      jump\t// in\n    tag_87:\n      mload(0x40)\n      tag_90\n      swap2\n      swap1\n      tag_71\n      jump\t// in\n    tag_90:\n      mload(0x40)\n      dup1\n      swap2\n      sub\n      swap1\n      return\n        /* \"contracts/SimpleContract.sol\":2777:2875  function whoAmI() public override pure returns(string memory){... */\n    tag_19:\n      tag_91\n      tag_92\n      jump\t// in\n    tag_91:\n      mload(0x40)\n      tag_93\n      swap2\n      swap1\n      tag_71\n      jump\t// in\n    tag_93:\n      mload(0x40)\n      dup1\n      swap2\n      sub\n      swap1\n      return\n        /* \"contracts/SimpleContract.sol\":2057:2190  function getAccount() public view returns(Account memory){... */\n    tag_20:\n      tag_94\n      tag_95\n      jump\t// in\n    tag_94:\n      mload(0x40)\n      tag_96\n      swap2\n      swap1\n      tag_97\n      jump\t// in\n    tag_96:\n      mload(0x40)\n      dup1\n      swap2\n      sub\n      swap1\n      return\n        /* \"contracts/SimpleContract.sol\":444:505  mapping(address => mapping(address => bool)) public allowance */\n    tag_21:\n      tag_98\n      0x04\n      dup1\n      calldatasize\n      sub\n      dup2\n      add\n      swap1\n      tag_99\n      swap2\n      swap1\n      tag_100\n      jump\t// in\n    tag_99:\n      tag_101\n      jump\t// in\n    tag_98:\n      mload(0x40)\n      tag_102\n      swap2\n      swap1\n      tag_46\n      jump\t// in\n    tag_102:\n      mload(0x40)\n      dup1\n      swap2\n      sub\n      swap1\n      return\n        /* \"contracts/SimpleContract.sol\":2450:2672  function getAllAdmins() public view returns (Account[] memory) {... */\n    tag_22:\n      tag_103\n      tag_104\n      jump\t// in\n    tag_103:\n      mload(0x40)\n      tag_105\n      swap2\n      swap1\n      tag_106\n      jump\t// in\n    tag_105:\n      mload(0x40)\n      dup1\n      swap2\n      sub\n      swap1\n      return\n        /* \"contracts/SimpleContract.sol\":1962:2051  function assignValue2(Account memory _account) public {... */\n    tag_23:\n      tag_107\n      0x04\n      dup1\n      calldatasize\n      sub\n      dup2\n      add\n      swap1\n      tag_108\n      swap2\n      swap1\n      tag_31\n      jump\t// in\n    tag_108:\n      tag_109\n      jump\t// in\n    tag_107:\n      stop\n        /* \"contracts/SimpleContract.sol\":1640:1750  function assignAllowance(address _address) public onlyOwner {... */\n    tag_24:\n      tag_110\n      0x04\n      dup1\n      calldatasize\n      sub\n      dup2\n      add\n      swap1\n      tag_111\n      swap2\n      swap1\n      tag_53\n      jump\t// in\n    tag_111:\n      tag_112\n      jump\t// in\n    tag_110:\n      stop\n        /* \"contracts/SimpleContract.sol\":1368:1423  function oneIncrement() public {... */\n    tag_25:\n      tag_113\n      tag_114\n      jump\t// in\n    tag_113:\n      stop\n        /* \"contracts/SimpleContract.sol\":2196:2310  function assingAddressValues(Account memory _account) public {... */\n    tag_32:\n        /* \"contracts/SimpleContract.sol\":2295:2303  _account */\n      dup1\n        /* \"contracts/SimpleContract.sol\":2267:2280  accountValues */\n      0x09\n        /* \"contracts/SimpleContract.sol\":2267:2292  accountValues[msg.sender] */\n      0x00\n        /* \"contracts/SimpleContract.sol\":2281:2291  msg.sender */\n      caller\n        /* \"contracts/SimpleContract.sol\":2267:2292  accountValues[msg.sender] */\n      0xffffffffffffffffffffffffffffffffffffffff\n      and\n      0xffffffffffffffffffffffffffffffffffffffff\n      and\n      dup2\n      mstore\n      0x20\n      add\n      swap1\n      dup2\n      mstore\n      0x20\n      add\n      0x00\n      keccak256\n        /* \"contracts/SimpleContract.sol\":2267:2303  accountValues[msg.sender] = _account */\n      0x00\n      dup3\n      add\n      mload\n      dup2\n      0x00\n      add\n      swap1\n      dup2\n      tag_116\n      swap2\n      swap1\n      tag_117\n      jump\t// in\n    tag_116:\n      pop\n      0x20\n      dup3\n      add\n      mload\n      dup2\n      0x01\n      add\n      swap1\n      dup2\n      tag_118\n      swap2\n      swap1\n      tag_117\n      jump\t// in\n    tag_118:\n      pop\n      0x40\n      dup3\n      add\n      mload\n      dup2\n      0x02\n      add\n      sstore\n      swap1\n      pop\n      pop\n        /* \"contracts/SimpleContract.sol\":2196:2310  function assingAddressValues(Account memory _account) public {... */\n      pop\n      jump\t// out\n        /* \"contracts/SimpleContract.sol\":367:384  uint public count */\n    tag_34:\n      sload(0x01)\n      dup2\n      jump\t// out\n        /* \"contracts/SimpleContract.sol\":720:744  Account[3] public admins */\n    tag_40:\n      0x0a\n      dup2\n      0x03\n      dup2\n      lt\n      tag_119\n      jumpi\n      0x00\n      dup1\n      revert\n    tag_119:\n      0x03\n      mul\n      add\n      0x00\n      swap2\n      pop\n      swap1\n      pop\n      dup1\n      0x00\n      add\n      dup1\n      sload\n      tag_121\n      swap1\n      tag_122\n      jump\t// in\n    tag_121:\n      dup1\n      0x1f\n      add\n      0x20\n      dup1\n      swap2\n      div\n      mul\n      0x20\n      add\n      mload(0x40)\n      swap1\n      dup2\n      add\n      0x40\n      mstore\n      dup1\n      swap3\n      swap2\n      swap1\n      dup2\n      dup2\n      mstore\n      0x20\n      add\n      dup3\n      dup1\n      sload\n      tag_123\n      swap1\n      tag_122\n      jump\t// in\n    tag_123:\n      dup1\n      iszero\n      tag_124\n      jumpi\n      dup1\n      0x1f\n      lt\n      tag_125\n      jumpi\n      0x0100\n      dup1\n      dup4\n      sload\n      div\n      mul\n      dup4\n      mstore\n      swap2\n      0x20\n      add\n      swap2\n      jump(tag_124)\n    tag_125:\n      dup3\n      add\n      swap2\n      swap1\n      0x00\n      mstore\n      keccak256(0x00, 0x20)\n      swap1\n    tag_126:\n      dup2\n      sload\n      dup2\n      mstore\n      swap1\n      0x01\n      add\n      swap1\n      0x20\n      add\n      dup1\n      dup4\n      gt\n      tag_126\n      jumpi\n      dup3\n      swap1\n      sub\n      0x1f\n      and\n      dup3\n      add\n      swap2\n    tag_124:\n      pop\n      pop\n      pop\n      pop\n      pop\n      swap1\n      dup1\n      0x01\n      add\n      dup1\n      sload\n      tag_127\n      swap1\n      tag_122\n      jump\t// in\n    tag_127:\n      dup1\n      0x1f\n      add\n      0x20\n      dup1\n      swap2\n      div\n      mul\n      0x20\n      add\n      mload(0x40)\n      swap1\n      dup2\n      add\n      0x40\n      mstore\n      dup1\n      swap3\n      swap2\n      swap1\n      dup2\n      dup2\n      mstore\n      0x20\n      add\n      dup3\n      dup1\n      sload\n      tag_128\n      swap1\n      tag_122\n      jump\t// in\n    tag_128:\n      dup1\n      iszero\n      tag_129\n      jumpi\n      dup1\n      0x1f\n      lt\n      tag_130\n      jumpi\n      0x0100\n      dup1\n      dup4\n      sload\n      div\n      mul\n      dup4\n      mstore\n      swap2\n      0x20\n      add\n      swap2\n      jump(tag_129)\n    tag_130:\n      dup3\n      add\n      swap2\n      swap1\n      0x00\n      mstore\n      keccak256(0x00, 0x20)\n      swap1\n    tag_131:\n      dup2\n      sload\n      dup2\n      mstore\n      swap1\n      0x01\n      add\n      swap1\n      0x20\n      add\n      dup1\n      dup4\n      gt\n      tag_131\n      jumpi\n      dup3\n      swap1\n      sub\n      0x1f\n      and\n      dup3\n      add\n      swap2\n    tag_129:\n      pop\n      pop\n      pop\n      pop\n      pop\n      swap1\n      dup1\n      0x02\n      add\n      sload\n      swap1\n      pop\n      dup4\n      jump\t// out\n        /* \"contracts/SimpleContract.sol\":341:360  bool public allowed */\n    tag_44:\n      0x00\n      dup1\n      sload\n      swap1\n      0x0100\n      exp\n      swap1\n      div\n      0xff\n      and\n      dup2\n      jump\t// out\n        /* \"contracts/SimpleContract.sol\":1073:1150  function setAllowed(bool _allowed) public {... */\n    tag_50:\n        /* \"contracts/SimpleContract.sol\":1135:1143  _allowed */\n      dup1\n        /* \"contracts/SimpleContract.sol\":1125:1132  allowed */\n      0x00\n      dup1\n        /* \"contracts/SimpleContract.sol\":1125:1143  allowed = _allowed */\n      0x0100\n      exp\n      dup2\n      sload\n      dup2\n      0xff\n      mul\n      not\n      and\n      swap1\n      dup4\n      iszero\n      iszero\n      mul\n      or\n      swap1\n      sstore\n      pop\n        /* \"contracts/SimpleContract.sol\":1073:1150  function setAllowed(bool _allowed) public {... */\n      pop\n      jump\t// out\n        /* \"contracts/SimpleContract.sol\":666:714  mapping(address => Account) public accountValues */\n    tag_54:\n      mstore(0x20, 0x09)\n      dup1\n      0x00\n      mstore\n      keccak256(0x00, 0x40)\n      0x00\n      swap2\n      pop\n      swap1\n      pop\n      dup1\n      0x00\n      add\n      dup1\n      sload\n      tag_133\n      swap1\n      tag_122\n      jump\t// in\n    tag_133:\n      dup1\n      0x1f\n      add\n      0x20\n      dup1\n      swap2\n      div\n      mul\n      0x20\n      add\n      mload(0x40)\n      swap1\n      dup2\n      add\n      0x40\n      mstore\n      dup1\n      swap3\n      swap2\n      swap1\n      dup2\n      dup2\n      mstore\n      0x20\n      add\n      dup3\n      dup1\n      sload\n      tag_134\n      swap1\n      tag_122\n      jump\t// in\n    tag_134:\n      dup1\n      iszero\n      tag_135\n      jumpi\n      dup1\n      0x1f\n      lt\n      tag_136\n      jumpi\n      0x0100\n      dup1\n      dup4\n      sload\n      div\n      mul\n      dup4\n      mstore\n      swap2\n      0x20\n      add\n      swap2\n      jump(tag_135)\n    tag_136:\n      dup3\n      add\n      swap2\n      swap1\n      0x00\n      mstore\n      keccak256(0x00, 0x20)\n      swap1\n    tag_137:\n      dup2\n      sload\n      dup2\n      mstore\n      swap1\n      0x01\n      add\n      swap1\n      0x20\n      add\n      dup1\n      dup4\n      gt\n      tag_137\n      jumpi\n      dup3\n      swap1\n      sub\n      0x1f\n      and\n      dup3\n      add\n      swap2\n    tag_135:\n      pop\n      pop\n      pop\n      pop\n      pop\n      swap1\n      dup1\n      0x01\n      add\n      dup1\n      sload\n      tag_138\n      swap1\n      tag_122\n      jump\t// in\n    tag_138:\n      dup1\n      0x1f\n      add\n      0x20\n      dup1\n      swap2\n      div\n      mul\n      0x20\n      add\n      mload(0x40)\n      swap1\n      dup2\n      add\n      0x40\n      mstore\n      dup1\n      swap3\n      swap2\n      swap1\n      dup2\n      dup2\n      mstore\n      0x20\n      add\n      dup3\n      dup1\n      sload\n      tag_139\n      swap1\n      tag_122\n      jump\t// in\n    tag_139:\n      dup1\n      iszero\n      tag_140\n      jumpi\n      dup1\n      0x1f\n      lt\n      tag_141\n      jumpi\n      0x0100\n      dup1\n      dup4\n      sload\n      div\n      mul\n      dup4\n      mstore\n      swap2\n      0x20\n      add\n      swap2\n      jump(tag_140)\n    tag_141:\n      dup3\n      add\n      swap2\n      swap1\n      0x00\n      mstore\n      keccak256(0x00, 0x20)\n      swap1\n    tag_142:\n      dup2\n      sload\n      dup2\n      mstore\n      swap1\n      0x01\n      add\n      swap1\n      0x20\n      add\n      dup1\n      dup4\n      gt\n      tag_142\n      jumpi\n      dup3\n      swap1\n      sub\n      0x1f\n      and\n      dup3\n      add\n      swap2\n    tag_140:\n      pop\n      pop\n      pop\n      pop\n      pop\n      swap1\n      dup1\n      0x02\n      add\n      sload\n      swap1\n      pop\n      dup4\n      jump\t// out\n        /* \"contracts/SimpleContract.sol\":390:412  int public signedCount */\n    tag_57:\n      sload(0x02)\n      dup2\n      jump\t// out\n        /* \"contracts/SimpleContract.sol\":2316:2444  function addAdmin(Account memory admin) public {... */\n    tag_62:\n        /* \"contracts/SimpleContract.sol\":2387:2388  3 */\n      0x03\n        /* \"contracts/SimpleContract.sol\":2381:2386  index */\n      sload(0x13)\n        /* \"contracts/SimpleContract.sol\":2381:2388  index<3 */\n      lt\n        /* \"contracts/SimpleContract.sol\":2373:2404  require(index<3, \"Has no slot\") */\n      tag_144\n      jumpi\n      mload(0x40)\n      0x08c379a000000000000000000000000000000000000000000000000000000000\n      dup2\n      mstore\n      0x04\n      add\n      tag_145\n      swap1\n      tag_146\n      jump\t// in\n    tag_145:\n      mload(0x40)\n      dup1\n      swap2\n      sub\n      swap1\n      revert\n    tag_144:\n        /* \"contracts/SimpleContract.sol\":2432:2437  admin */\n      dup1\n        /* \"contracts/SimpleContract.sol\":2414:2420  admins */\n      0x0a\n        /* \"contracts/SimpleContract.sol\":2421:2426  index */\n      0x13\n      0x00\n        /* \"contracts/SimpleContract.sol\":2421:2428  index++ */\n      dup2\n      sload\n      dup1\n      swap3\n      swap2\n      swap1\n      tag_147\n      swap1\n      tag_148\n      jump\t// in\n    tag_147:\n      swap2\n      swap1\n      pop\n      sstore\n        /* \"contracts/SimpleContract.sol\":2414:2429  admins[index++] */\n      0x03\n      dup2\n      lt\n      tag_149\n      jumpi\n      tag_150\n      tag_151\n      jump\t// in\n    tag_150:\n    tag_149:\n      0x03\n      mul\n      add\n        /* \"contracts/SimpleContract.sol\":2414:2437  admins[index++] = admin */\n      0x00\n      dup3\n      add\n      mload\n      dup2\n      0x00\n      add\n      swap1\n      dup2\n      tag_153\n      swap2\n      swap1\n      tag_117\n      jump\t// in\n    tag_153:\n      pop\n      0x20\n      dup3\n      add\n      mload\n      dup2\n      0x01\n      add\n      swap1\n      dup2\n      tag_154\n      swap2\n      swap1\n      tag_117\n      jump\t// in\n    tag_154:\n      pop\n      0x40\n      dup3\n      add\n      mload\n      dup2\n      0x02\n      add\n      sstore\n      swap1\n      pop\n      pop\n        /* \"contracts/SimpleContract.sol\":2316:2444  function addAdmin(Account memory admin) public {... */\n      pop\n      jump\t// out\n        /* \"contracts/SimpleContract.sol\":243:289  function extraMethod() public {... */\n    tag_64:\n      jump\t// out\n        /* \"contracts/SimpleContract.sol\":961:1067  function getSizeOfErrorMessages() public view returns(uint256){... */\n    tag_66:\n        /* \"contracts/SimpleContract.sol\":1015:1022  uint256 */\n      0x00\n        /* \"contracts/SimpleContract.sol\":1040:1053  errorMessages */\n      0x05\n        /* \"contracts/SimpleContract.sol\":1040:1060  errorMessages.length */\n      dup1\n      sload\n      swap1\n      pop\n        /* \"contracts/SimpleContract.sol\":1033:1060  return errorMessages.length */\n      swap1\n      pop\n        /* \"contracts/SimpleContract.sol\":961:1067  function getSizeOfErrorMessages() public view returns(uint256){... */\n      swap1\n      jump\t// out\n        /* \"contracts/SimpleContract.sol\":2678:2771  function iAmReady() external pure returns(string memory){... */\n    tag_69:\n        /* \"contracts/SimpleContract.sol\":2720:2733  string memory */\n      0x60\n        /* \"contracts/SimpleContract.sol\":2744:2764  return \"I am ready!\" */\n      mload(0x40)\n      dup1\n      0x40\n      add\n      0x40\n      mstore\n      dup1\n      0x0b\n      dup2\n      mstore\n      0x20\n      add\n      0x4920616d20726561647921000000000000000000000000000000000000000000\n      dup2\n      mstore\n      pop\n      swap1\n      pop\n        /* \"contracts/SimpleContract.sol\":2678:2771  function iAmReady() external pure returns(string memory){... */\n      swap1\n      jump\t// out\n        /* \"contracts/SimpleContract.sol\":1429:1525  function increment(uint _increment) public isAllowed {... */\n    tag_74:\n        /* \"contracts/SimpleContract.sol\":1197:1206  allowance */\n      0x04\n        /* \"contracts/SimpleContract.sol\":1197:1213  allowance[owner] */\n      0x00\n        /* \"contracts/SimpleContract.sol\":1207:1212  owner */\n      0x03\n      0x00\n      swap1\n      sload\n      swap1\n      0x0100\n      exp\n      swap1\n      div\n      0xffffffffffffffffffffffffffffffffffffffff\n      and\n        /* \"contracts/SimpleContract.sol\":1197:1213  allowance[owner] */\n      0xffffffffffffffffffffffffffffffffffffffff\n      and\n      0xffffffffffffffffffffffffffffffffffffffff\n      and\n      dup2\n      mstore\n      0x20\n      add\n      swap1\n      dup2\n      mstore\n      0x20\n      add\n      0x00\n      keccak256\n        /* \"contracts/SimpleContract.sol\":1197:1225  allowance[owner][msg.sender] */\n      0x00\n        /* \"contracts/SimpleContract.sol\":1214:1224  msg.sender */\n      caller\n        /* \"contracts/SimpleContract.sol\":1197:1225  allowance[owner][msg.sender] */\n      0xffffffffffffffffffffffffffffffffffffffff\n      and\n      0xffffffffffffffffffffffffffffffffffffffff\n      and\n      dup2\n      mstore\n      0x20\n      add\n      swap1\n      dup2\n      mstore\n      0x20\n      add\n      0x00\n      keccak256\n      0x00\n      swap1\n      sload\n      swap1\n      0x0100\n      exp\n      swap1\n      div\n      0xff\n      and\n        /* \"contracts/SimpleContract.sol\":1227:1240  errorMessages */\n      0x05\n        /* \"contracts/SimpleContract.sol\":1241:1242  0 */\n      0x00\n        /* \"contracts/SimpleContract.sol\":1227:1243  errorMessages[0] */\n      dup2\n      sload\n      dup2\n      lt\n      tag_159\n      jumpi\n      tag_160\n      tag_151\n      jump\t// in\n    tag_160:\n    tag_159:\n      swap1\n      0x00\n      mstore\n      keccak256(0x00, 0x20)\n      add\n        /* \"contracts/SimpleContract.sol\":1189:1244  require(allowance[owner][msg.sender], errorMessages[0]) */\n      swap1\n      tag_162\n      jumpi\n      mload(0x40)\n      0x08c379a000000000000000000000000000000000000000000000000000000000\n      dup2\n      mstore\n      0x04\n      add\n      tag_163\n      swap2\n      swap1\n      tag_164\n      jump\t// in\n    tag_163:\n      mload(0x40)\n      dup1\n      swap2\n      sub\n      swap1\n      revert\n    tag_162:\n      pop\n        /* \"contracts/SimpleContract.sol\":1508:1518  _increment */\n      dup1\n        /* \"contracts/SimpleContract.sol\":1500:1505  count */\n      sload(0x01)\n        /* \"contracts/SimpleContract.sol\":1500:1518  count + _increment */\n      tag_166\n      swap2\n      swap1\n      tag_167\n      jump\t// in\n    tag_166:\n        /* \"contracts/SimpleContract.sol\":1492:1497  count */\n      0x01\n        /* \"contracts/SimpleContract.sol\":1492:1518  count = count + _increment */\n      dup2\n      swap1\n      sstore\n      pop\n        /* \"contracts/SimpleContract.sol\":1429:1525  function increment(uint _increment) public isAllowed {... */\n      pop\n      jump\t// out\n        /* \"contracts/SimpleContract.sol\":418:438  address public owner */\n    tag_76:\n      0x03\n      0x00\n      swap1\n      sload\n      swap1\n      0x0100\n      exp\n      swap1\n      div\n      0xffffffffffffffffffffffffffffffffffffffff\n      and\n      dup2\n      jump\t// out\n        /* \"contracts/SimpleContract.sol\":1756:1956  function assignValue(string memory _name, string memory _surname, uint256 _balance) public {... */\n    tag_82:\n        /* \"contracts/SimpleContract.sol\":1872:1877  _name */\n      dup3\n        /* \"contracts/SimpleContract.sol\":1857:1864  account */\n      0x06\n        /* \"contracts/SimpleContract.sol\":1857:1869  account.name */\n      0x00\n      add\n        /* \"contracts/SimpleContract.sol\":1857:1877  account.name = _name */\n      swap1\n      dup2\n      tag_169\n      swap2\n      swap1\n      tag_117\n      jump\t// in\n    tag_169:\n      pop\n        /* \"contracts/SimpleContract.sol\":1905:1913  _surname */\n      dup2\n        /* \"contracts/SimpleContract.sol\":1887:1894  account */\n      0x06\n        /* \"contracts/SimpleContract.sol\":1887:1902  account.surname */\n      0x01\n      add\n        /* \"contracts/SimpleContract.sol\":1887:1913  account.surname = _surname */\n      swap1\n      dup2\n      tag_170\n      swap2\n      swap1\n      tag_117\n      jump\t// in\n    tag_170:\n      pop\n        /* \"contracts/SimpleContract.sol\":1941:1949  _balance */\n      dup1\n        /* \"contracts/SimpleContract.sol\":1923:1930  account */\n      0x06\n        /* \"contracts/SimpleContract.sol\":1923:1938  account.balance */\n      0x02\n      add\n        /* \"contracts/SimpleContract.sol\":1923:1949  account.balance = _balance */\n      dup2\n      swap1\n      sstore\n      pop\n        /* \"contracts/SimpleContract.sol\":1756:1956  function assignValue(string memory _name, string memory _surname, uint256 _balance) public {... */\n      pop\n      pop\n      pop\n      jump\t// out\n        /* \"contracts/SimpleContract.sol\":1531:1634  function signedIncrement(int _increment) public {... */\n    tag_86:\n        /* \"contracts/SimpleContract.sol\":1617:1627  _increment */\n      dup1\n        /* \"contracts/SimpleContract.sol\":1603:1614  signedCount */\n      sload(0x02)\n        /* \"contracts/SimpleContract.sol\":1603:1627  signedCount + _increment */\n      tag_172\n      swap2\n      swap1\n      tag_173\n      jump\t// in\n    tag_172:\n        /* \"contracts/SimpleContract.sol\":1589:1600  signedCount */\n      0x02\n        /* \"contracts/SimpleContract.sol\":1589:1627  signedCount = signedCount + _increment */\n      dup2\n      swap1\n      sstore\n      pop\n        /* \"contracts/SimpleContract.sol\":1531:1634  function signedIncrement(int _increment) public {... */\n      pop\n      jump\t// out\n        /* \"contracts/SimpleContract.sol\":511:540  string[] public errorMessages */\n    tag_89:\n      0x05\n      dup2\n      dup2\n      sload\n      dup2\n      lt\n      tag_174\n      jumpi\n      0x00\n      dup1\n      revert\n    tag_174:\n      swap1\n      0x00\n      mstore\n      keccak256(0x00, 0x20)\n      add\n      0x00\n      swap2\n      pop\n      swap1\n      pop\n      dup1\n      sload\n      tag_176\n      swap1\n      tag_122\n      jump\t// in\n    tag_176:\n      dup1\n      0x1f\n      add\n      0x20\n      dup1\n      swap2\n      div\n      mul\n      0x20\n      add\n      mload(0x40)\n      swap1\n      dup2\n      add\n      0x40\n      mstore\n      dup1\n      swap3\n      swap2\n      swap1\n      dup2\n      dup2\n      mstore\n      0x20\n      add\n      dup3\n      dup1\n      sload\n      tag_177\n      swap1\n      tag_122\n      jump\t// in\n    tag_177:\n      dup1\n      iszero\n      tag_178\n      jumpi\n      dup1\n      0x1f\n      lt\n      tag_179\n      jumpi\n      0x0100\n      dup1\n      dup4\n      sload\n      div\n      mul\n      dup4\n      mstore\n      swap2\n      0x20\n      add\n      swap2\n      jump(tag_178)\n    tag_179:\n      dup3\n      add\n      swap2\n      swap1\n      0x00\n      mstore\n      keccak256(0x00, 0x20)\n      swap1\n    tag_180:\n      dup2\n      sload\n      dup2\n      mstore\n      swap1\n      0x01\n      add\n      swap1\n      0x20\n      add\n      dup1\n      dup4\n      gt\n      tag_180\n      jumpi\n      dup3\n      swap1\n      sub\n      0x1f\n      and\n      dup3\n      add\n      swap2\n    tag_178:\n      pop\n      pop\n      pop\n      pop\n      pop\n      dup2\n      jump\t// out\n        /* \"contracts/SimpleContract.sol\":2777:2875  function whoAmI() public override pure returns(string memory){... */\n    tag_92:\n        /* \"contracts/SimpleContract.sol\":2824:2837  string memory */\n      0x60\n        /* \"contracts/SimpleContract.sol\":2848:2868  return \"0xBurakUnal\" */\n      mload(0x40)\n      dup1\n      0x40\n      add\n      0x40\n      mstore\n      dup1\n      0x0b\n      dup2\n      mstore\n      0x20\n      add\n      0x3078427572616b556e616c000000000000000000000000000000000000000000\n      dup2\n      mstore\n      pop\n      swap1\n      pop\n        /* \"contracts/SimpleContract.sol\":2777:2875  function whoAmI() public override pure returns(string memory){... */\n      swap1\n      jump\t// out\n        /* \"contracts/SimpleContract.sol\":2057:2190  function getAccount() public view returns(Account memory){... */\n    tag_95:\n        /* \"contracts/SimpleContract.sol\":2099:2113  Account memory */\n      tag_182\n      tag_183\n      jump\t// in\n    tag_182:\n        /* \"contracts/SimpleContract.sol\":2124:2147  Account memory _account */\n      0x00\n        /* \"contracts/SimpleContract.sol\":2150:2157  account */\n      0x06\n        /* \"contracts/SimpleContract.sol\":2124:2157  Account memory _account = account */\n      mload(0x40)\n      dup1\n      0x60\n      add\n      0x40\n      mstore\n      swap1\n      dup2\n      0x00\n      dup3\n      add\n      dup1\n      sload\n      tag_185\n      swap1\n      tag_122\n      jump\t// in\n    tag_185:\n      dup1\n      0x1f\n      add\n      0x20\n      dup1\n      swap2\n      div\n      mul\n      0x20\n      add\n      mload(0x40)\n      swap1\n      dup2\n      add\n      0x40\n      mstore\n      dup1\n      swap3\n      swap2\n      swap1\n      dup2\n      dup2\n      mstore\n      0x20\n      add\n      dup3\n      dup1\n      sload\n      tag_186\n      swap1\n      tag_122\n      jump\t// in\n    tag_186:\n      dup1\n      iszero\n      tag_187\n      jumpi\n      dup1\n      0x1f\n      lt\n      tag_188\n      jumpi\n      0x0100\n      dup1\n      dup4\n      sload\n      div\n      mul\n      dup4\n      mstore\n      swap2\n      0x20\n      add\n      swap2\n      jump(tag_187)\n    tag_188:\n      dup3\n      add\n      swap2\n      swap1\n      0x00\n      mstore\n      keccak256(0x00, 0x20)\n      swap1\n    tag_189:\n      dup2\n      sload\n      dup2\n      mstore\n      swap1\n      0x01\n      add\n      swap1\n      0x20\n      add\n      dup1\n      dup4\n      gt\n      tag_189\n      jumpi\n      dup3\n      swap1\n      sub\n      0x1f\n      and\n      dup3\n      add\n      swap2\n    tag_187:\n      pop\n      pop\n      pop\n      pop\n      pop\n      dup2\n      mstore\n      0x20\n      add\n      0x01\n      dup3\n      add\n      dup1\n      sload\n      tag_190\n      swap1\n      tag_122\n      jump\t// in\n    tag_190:\n      dup1\n      0x1f\n      add\n      0x20\n      dup1\n      swap2\n      div\n      mul\n      0x20\n      add\n      mload(0x40)\n      swap1\n      dup2\n      add\n      0x40\n      mstore\n      dup1\n      swap3\n      swap2\n      swap1\n      dup2\n      dup2\n      mstore\n      0x20\n      add\n      dup3\n      dup1\n      sload\n      tag_191\n      swap1\n      tag_122\n      jump\t// in\n    tag_191:\n      dup1\n      iszero\n      tag_192\n      jumpi\n      dup1\n      0x1f\n      lt\n      tag_193\n      jumpi\n      0x0100\n      dup1\n      dup4\n      sload\n      div\n      mul\n      dup4\n      mstore\n      swap2\n      0x20\n      add\n      swap2\n      jump(tag_192)\n    tag_193:\n      dup3\n      add\n      swap2\n      swap1\n      0x00\n      mstore\n      keccak256(0x00, 0x20)\n      swap1\n    tag_194:\n      dup2\n      sload\n      dup2\n      mstore\n      swap1\n      0x01\n      add\n      swap1\n      0x20\n      add\n      dup1\n      dup4\n      gt\n      tag_194\n      jumpi\n      dup3\n      swap1\n      sub\n      0x1f\n      and\n      dup3\n      add\n      swap2\n    tag_192:\n      pop\n      pop\n      pop\n      pop\n      pop\n      dup2\n      mstore\n      0x20\n      add\n      0x02\n      dup3\n      add\n      sload\n      dup2\n      mstore\n      pop\n      pop\n      swap1\n      pop\n        /* \"contracts/SimpleContract.sol\":2174:2182  _account */\n      dup1\n        /* \"contracts/SimpleContract.sol\":2167:2182  return _account */\n      swap2\n      pop\n      pop\n        /* \"contracts/SimpleContract.sol\":2057:2190  function getAccount() public view returns(Account memory){... */\n      swap1\n      jump\t// out\n        /* \"contracts/SimpleContract.sol\":444:505  mapping(address => mapping(address => bool)) public allowance */\n    tag_101:\n      mstore(0x20, 0x04)\n      dup2\n      0x00\n      mstore\n      mstore(0x20, keccak256(0x00, 0x40))\n      dup1\n      0x00\n      mstore\n      keccak256(0x00, 0x40)\n      0x00\n      swap2\n      pop\n      swap2\n      pop\n      swap1\n      sload\n      swap1\n      0x0100\n      exp\n      swap1\n      div\n      0xff\n      and\n      dup2\n      jump\t// out\n        /* \"contracts/SimpleContract.sol\":2450:2672  function getAllAdmins() public view returns (Account[] memory) {... */\n    tag_104:\n        /* \"contracts/SimpleContract.sol\":2495:2511  Account[] memory */\n      0x60\n        /* \"contracts/SimpleContract.sol\":2519:2543  Account[] memory _admins */\n      0x00\n        /* \"contracts/SimpleContract.sol\":2560:2565  index */\n      sload(0x13)\n        /* \"contracts/SimpleContract.sol\":2546:2566  new Account[](index) */\n      0xffffffffffffffff\n      dup2\n      gt\n      iszero\n      tag_196\n      jumpi\n      tag_197\n      tag_198\n      jump\t// in\n    tag_197:\n    tag_196:\n      mload(0x40)\n      swap1\n      dup1\n      dup3\n      mstore\n      dup1\n      0x20\n      mul\n      0x20\n      add\n      dup3\n      add\n      0x40\n      mstore\n      dup1\n      iszero\n      tag_199\n      jumpi\n      dup2\n      0x20\n      add\n    tag_200:\n      tag_201\n      tag_183\n      jump\t// in\n    tag_201:\n      dup2\n      mstore\n      0x20\n      add\n      swap1\n      0x01\n      swap1\n      sub\n      swap1\n      dup2\n      tag_200\n      jumpi\n      swap1\n      pop\n    tag_199:\n      pop\n        /* \"contracts/SimpleContract.sol\":2519:2566  Account[] memory _admins = new Account[](index) */\n      swap1\n      pop\n        /* \"contracts/SimpleContract.sol\":2578:2584  uint i */\n      0x00\n        /* \"contracts/SimpleContract.sol\":2573:2645  for (uint i = 0; i < index; i++) {... */\n    tag_202:\n        /* \"contracts/SimpleContract.sol\":2594:2599  index */\n      sload(0x13)\n        /* \"contracts/SimpleContract.sol\":2590:2591  i */\n      dup2\n        /* \"contracts/SimpleContract.sol\":2590:2599  i < index */\n      lt\n        /* \"contracts/SimpleContract.sol\":2573:2645  for (uint i = 0; i < index; i++) {... */\n      iszero\n      tag_203\n      jumpi\n        /* \"contracts/SimpleContract.sol\":2629:2635  admins */\n      0x0a\n        /* \"contracts/SimpleContract.sol\":2636:2637  i */\n      dup2\n        /* \"contracts/SimpleContract.sol\":2629:2638  admins[i] */\n      0x03\n      dup2\n      lt\n      tag_205\n      jumpi\n      tag_206\n      tag_151\n      jump\t// in\n    tag_206:\n    tag_205:\n      0x03\n      mul\n      add\n        /* \"contracts/SimpleContract.sol\":2616:2638  _admins[i] = admins[i] */\n      mload(0x40)\n      dup1\n      0x60\n      add\n      0x40\n      mstore\n      swap1\n      dup2\n      0x00\n      dup3\n      add\n      dup1\n      sload\n      tag_208\n      swap1\n      tag_122\n      jump\t// in\n    tag_208:\n      dup1\n      0x1f\n      add\n      0x20\n      dup1\n      swap2\n      div\n      mul\n      0x20\n      add\n      mload(0x40)\n      swap1\n      dup2\n      add\n      0x40\n      mstore\n      dup1\n      swap3\n      swap2\n      swap1\n      dup2\n      dup2\n      mstore\n      0x20\n      add\n      dup3\n      dup1\n      sload\n      tag_209\n      swap1\n      tag_122\n      jump\t// in\n    tag_209:\n      dup1\n      iszero\n      tag_210\n      jumpi\n      dup1\n      0x1f\n      lt\n      tag_211\n      jumpi\n      0x0100\n      dup1\n      dup4\n      sload\n      div\n      mul\n      dup4\n      mstore\n      swap2\n      0x20\n      add\n      swap2\n      jump(tag_210)\n    tag_211:\n      dup3\n      add\n      swap2\n      swap1\n      0x00\n      mstore\n      keccak256(0x00, 0x20)\n      swap1\n    tag_212:\n      dup2\n      sload\n      dup2\n      mstore\n      swap1\n      0x01\n      add\n      swap1\n      0x20\n      add\n      dup1\n      dup4\n      gt\n      tag_212\n      jumpi\n      dup3\n      swap1\n      sub\n      0x1f\n      and\n      dup3\n      add\n      swap2\n    tag_210:\n      pop\n      pop\n      pop\n      pop\n      pop\n      dup2\n      mstore\n      0x20\n      add\n      0x01\n      dup3\n      add\n      dup1\n      sload\n      tag_213\n      swap1\n      tag_122\n      jump\t// in\n    tag_213:\n      dup1\n      0x1f\n      add\n      0x20\n      dup1\n      swap2\n      div\n      mul\n      0x20\n      add\n      mload(0x40)\n      swap1\n      dup2\n      add\n      0x40\n      mstore\n      dup1\n      swap3\n      swap2\n      swap1\n      dup2\n      dup2\n      mstore\n      0x20\n      add\n      dup3\n      dup1\n      sload\n      tag_214\n      swap1\n      tag_122\n      jump\t// in\n    tag_214:\n      dup1\n      iszero\n      tag_215\n      jumpi\n      dup1\n      0x1f\n      lt\n      tag_216\n      jumpi\n      0x0100\n      dup1\n      dup4\n      sload\n      div\n      mul\n      dup4\n      mstore\n      swap2\n      0x20\n      add\n      swap2\n      jump(tag_215)\n    tag_216:\n      dup3\n      add\n      swap2\n      swap1\n      0x00\n      mstore\n      keccak256(0x00, 0x20)\n      swap1\n    tag_217:\n      dup2\n      sload\n      dup2\n      mstore\n      swap1\n      0x01\n      add\n      swap1\n      0x20\n      add\n      dup1\n      dup4\n      gt\n      tag_217\n      jumpi\n      dup3\n      swap1\n      sub\n      0x1f\n      and\n      dup3\n      add\n      swap2\n    tag_215:\n      pop\n      pop\n      pop\n      pop\n      pop\n      dup2\n      mstore\n      0x20\n      add\n      0x02\n      dup3\n      add\n      sload\n      dup2\n      mstore\n      pop\n      pop\n        /* \"contracts/SimpleContract.sol\":2616:2623  _admins */\n      dup3\n        /* \"contracts/SimpleContract.sol\":2624:2625  i */\n      dup3\n        /* \"contracts/SimpleContract.sol\":2616:2626  _admins[i] */\n      dup2\n      mload\n      dup2\n      lt\n      tag_218\n      jumpi\n      tag_219\n      tag_151\n      jump\t// in\n    tag_219:\n    tag_218:\n      0x20\n      mul\n      0x20\n      add\n      add\n        /* \"contracts/SimpleContract.sol\":2616:2638  _admins[i] = admins[i] */\n      dup2\n      swap1\n      mstore\n      pop\n        /* \"contracts/SimpleContract.sol\":2601:2604  i++ */\n      dup1\n      dup1\n      tag_220\n      swap1\n      tag_148\n      jump\t// in\n    tag_220:\n      swap2\n      pop\n      pop\n        /* \"contracts/SimpleContract.sol\":2573:2645  for (uint i = 0; i < index; i++) {... */\n      jump(tag_202)\n    tag_203:\n      pop\n        /* \"contracts/SimpleContract.sol\":2658:2665  _admins */\n      dup1\n        /* \"contracts/SimpleContract.sol\":2651:2665  return _admins */\n      swap2\n      pop\n      pop\n        /* \"contracts/SimpleContract.sol\":2450:2672  function getAllAdmins() public view returns (Account[] memory) {... */\n      swap1\n      jump\t// out\n        /* \"contracts/SimpleContract.sol\":1962:2051  function assignValue2(Account memory _account) public {... */\n    tag_109:\n        /* \"contracts/SimpleContract.sol\":2036:2044  _account */\n      dup1\n        /* \"contracts/SimpleContract.sol\":2026:2033  account */\n      0x06\n        /* \"contracts/SimpleContract.sol\":2026:2044  account = _account */\n      0x00\n      dup3\n      add\n      mload\n      dup2\n      0x00\n      add\n      swap1\n      dup2\n      tag_222\n      swap2\n      swap1\n      tag_117\n      jump\t// in\n    tag_222:\n      pop\n      0x20\n      dup3\n      add\n      mload\n      dup2\n      0x01\n      add\n      swap1\n      dup2\n      tag_223\n      swap2\n      swap1\n      tag_117\n      jump\t// in\n    tag_223:\n      pop\n      0x40\n      dup3\n      add\n      mload\n      dup2\n      0x02\n      add\n      sstore\n      swap1\n      pop\n      pop\n        /* \"contracts/SimpleContract.sol\":1962:2051  function assignValue2(Account memory _account) public {... */\n      pop\n      jump\t// out\n        /* \"contracts/SimpleContract.sol\":1640:1750  function assignAllowance(address _address) public onlyOwner {... */\n    tag_112:\n        /* \"contracts/SimpleContract.sol\":1315:1325  msg.sender */\n      caller\n        /* \"contracts/SimpleContract.sol\":1306:1325  owner == msg.sender */\n      0xffffffffffffffffffffffffffffffffffffffff\n      and\n        /* \"contracts/SimpleContract.sol\":1306:1311  owner */\n      0x03\n      0x00\n      swap1\n      sload\n      swap1\n      0x0100\n      exp\n      swap1\n      div\n      0xffffffffffffffffffffffffffffffffffffffff\n      and\n        /* \"contracts/SimpleContract.sol\":1306:1325  owner == msg.sender */\n      0xffffffffffffffffffffffffffffffffffffffff\n      and\n      eq\n        /* \"contracts/SimpleContract.sol\":1327:1340  errorMessages */\n      0x05\n        /* \"contracts/SimpleContract.sol\":1341:1342  1 */\n      0x01\n        /* \"contracts/SimpleContract.sol\":1327:1343  errorMessages[1] */\n      dup2\n      sload\n      dup2\n      lt\n      tag_225\n      jumpi\n      tag_226\n      tag_151\n      jump\t// in\n    tag_226:\n    tag_225:\n      swap1\n      0x00\n      mstore\n      keccak256(0x00, 0x20)\n      add\n        /* \"contracts/SimpleContract.sol\":1298:1344  require(owner == msg.sender, errorMessages[1]) */\n      swap1\n      tag_228\n      jumpi\n      mload(0x40)\n      0x08c379a000000000000000000000000000000000000000000000000000000000\n      dup2\n      mstore\n      0x04\n      add\n      tag_229\n      swap2\n      swap1\n      tag_164\n      jump\t// in\n    tag_229:\n      mload(0x40)\n      dup1\n      swap2\n      sub\n      swap1\n      revert\n    tag_228:\n      pop\n        /* \"contracts/SimpleContract.sol\":1739:1743  true */\n      0x01\n        /* \"contracts/SimpleContract.sol\":1710:1719  allowance */\n      0x04\n        /* \"contracts/SimpleContract.sol\":1710:1726  allowance[owner] */\n      0x00\n        /* \"contracts/SimpleContract.sol\":1720:1725  owner */\n      0x03\n      0x00\n      swap1\n      sload\n      swap1\n      0x0100\n      exp\n      swap1\n      div\n      0xffffffffffffffffffffffffffffffffffffffff\n      and\n        /* \"contracts/SimpleContract.sol\":1710:1726  allowance[owner] */\n      0xffffffffffffffffffffffffffffffffffffffff\n      and\n      0xffffffffffffffffffffffffffffffffffffffff\n      and\n      dup2\n      mstore\n      0x20\n      add\n      swap1\n      dup2\n      mstore\n      0x20\n      add\n      0x00\n      keccak256\n        /* \"contracts/SimpleContract.sol\":1710:1736  allowance[owner][_address] */\n      0x00\n        /* \"contracts/SimpleContract.sol\":1727:1735  _address */\n      dup4\n        /* \"contracts/SimpleContract.sol\":1710:1736  allowance[owner][_address] */\n      0xffffffffffffffffffffffffffffffffffffffff\n      and\n      0xffffffffffffffffffffffffffffffffffffffff\n      and\n      dup2\n      mstore\n      0x20\n      add\n      swap1\n      dup2\n      mstore\n      0x20\n      add\n      0x00\n      keccak256\n      0x00\n        /* \"contracts/SimpleContract.sol\":1710:1743  allowance[owner][_address] = true */\n      0x0100\n      exp\n      dup2\n      sload\n      dup2\n      0xff\n      mul\n      not\n      and\n      swap1\n      dup4\n      iszero\n      iszero\n      mul\n      or\n      swap1\n      sstore\n      pop\n        /* \"contracts/SimpleContract.sol\":1640:1750  function assignAllowance(address _address) public onlyOwner {... */\n      pop\n      jump\t// out\n        /* \"contracts/SimpleContract.sol\":1368:1423  function oneIncrement() public {... */\n    tag_114:\n        /* \"contracts/SimpleContract.sol\":1411:1416  count */\n      0x01\n      0x00\n        /* \"contracts/SimpleContract.sol\":1409:1416  ++count */\n      dup2\n      sload\n      tag_232\n      swap1\n      tag_148\n      jump\t// in\n    tag_232:\n      swap2\n      swap1\n      pop\n      dup2\n      swap1\n      sstore\n      pop\n        /* \"contracts/SimpleContract.sol\":1368:1423  function oneIncrement() public {... */\n      jump\t// out\n    tag_183:\n      mload(0x40)\n      dup1\n      0x60\n      add\n      0x40\n      mstore\n      dup1\n      0x60\n      dup2\n      mstore\n      0x20\n      add\n      0x60\n      dup2\n      mstore\n      0x20\n      add\n      0x00\n      dup2\n      mstore\n      pop\n      swap1\n      jump\t// out\n        /* \"#utility.yul\":7:82   */\n    tag_233:\n        /* \"#utility.yul\":40:46   */\n      0x00\n        /* \"#utility.yul\":73:75   */\n      0x40\n        /* \"#utility.yul\":67:76   */\n      mload\n        /* \"#utility.yul\":57:76   */\n      swap1\n      pop\n        /* \"#utility.yul\":7:82   */\n      swap1\n      jump\t// out\n        /* \"#utility.yul\":88:205   */\n    tag_234:\n        /* \"#utility.yul\":197:198   */\n      0x00\n        /* \"#utility.yul\":194:195   */\n      dup1\n        /* \"#utility.yul\":187:199   */\n      revert\n        /* \"#utility.yul\":211:328   */\n    tag_235:\n        /* \"#utility.yul\":320:321   */\n      0x00\n        /* \"#utility.yul\":317:318   */\n      dup1\n        /* \"#utility.yul\":310:322   */\n      revert\n        /* \"#utility.yul\":334:451   */\n    tag_236:\n        /* \"#utility.yul\":443:444   */\n      0x00\n        /* \"#utility.yul\":440:441   */\n      dup1\n        /* \"#utility.yul\":433:445   */\n      revert\n        /* \"#utility.yul\":457:559   */\n    tag_237:\n        /* \"#utility.yul\":498:504   */\n      0x00\n        /* \"#utility.yul\":549:551   */\n      0x1f\n        /* \"#utility.yul\":545:552   */\n      not\n        /* \"#utility.yul\":540:542   */\n      0x1f\n        /* \"#utility.yul\":533:538   */\n      dup4\n        /* \"#utility.yul\":529:543   */\n      add\n        /* \"#utility.yul\":525:553   */\n      and\n        /* \"#utility.yul\":515:553   */\n      swap1\n      pop\n        /* \"#utility.yul\":457:559   */\n      swap2\n      swap1\n      pop\n      jump\t// out\n        /* \"#utility.yul\":565:745   */\n    tag_198:\n        /* \"#utility.yul\":613:690   */\n      0x4e487b7100000000000000000000000000000000000000000000000000000000\n        /* \"#utility.yul\":610:611   */\n      0x00\n        /* \"#utility.yul\":603:691   */\n      mstore\n        /* \"#utility.yul\":710:714   */\n      0x41\n        /* \"#utility.yul\":707:708   */\n      0x04\n        /* \"#utility.yul\":700:715   */\n      mstore\n        /* \"#utility.yul\":734:738   */\n      0x24\n        /* \"#utility.yul\":731:732   */\n      0x00\n        /* \"#utility.yul\":724:739   */\n      revert\n        /* \"#utility.yul\":751:1032   */\n    tag_238:\n        /* \"#utility.yul\":834:861   */\n      tag_308\n        /* \"#utility.yul\":856:860   */\n      dup3\n        /* \"#utility.yul\":834:861   */\n      tag_237\n      jump\t// in\n    tag_308:\n        /* \"#utility.yul\":826:832   */\n      dup2\n        /* \"#utility.yul\":822:862   */\n      add\n        /* \"#utility.yul\":964:970   */\n      dup2\n        /* \"#utility.yul\":952:962   */\n      dup2\n        /* \"#utility.yul\":949:971   */\n      lt\n        /* \"#utility.yul\":928:946   */\n      0xffffffffffffffff\n        /* \"#utility.yul\":916:926   */\n      dup3\n        /* \"#utility.yul\":913:947   */\n      gt\n        /* \"#utility.yul\":910:972   */\n      or\n        /* \"#utility.yul\":907:995   */\n      iszero\n      tag_309\n      jumpi\n        /* \"#utility.yul\":975:993   */\n      tag_310\n      tag_198\n      jump\t// in\n    tag_310:\n        /* \"#utility.yul\":907:995   */\n    tag_309:\n        /* \"#utility.yul\":1015:1025   */\n      dup1\n        /* \"#utility.yul\":1011:1013   */\n      0x40\n        /* \"#utility.yul\":1004:1026   */\n      mstore\n        /* \"#utility.yul\":794:1032   */\n      pop\n        /* \"#utility.yul\":751:1032   */\n      pop\n      pop\n      jump\t// out\n        /* \"#utility.yul\":1038:1167   */\n    tag_239:\n        /* \"#utility.yul\":1072:1078   */\n      0x00\n        /* \"#utility.yul\":1099:1119   */\n      tag_312\n      tag_233\n      jump\t// in\n    tag_312:\n        /* \"#utility.yul\":1089:1119   */\n      swap1\n      pop\n        /* \"#utility.yul\":1128:1161   */\n      tag_313\n        /* \"#utility.yul\":1156:1160   */\n      dup3\n        /* \"#utility.yul\":1148:1154   */\n      dup3\n        /* \"#utility.yul\":1128:1161   */\n      tag_238\n      jump\t// in\n    tag_313:\n        /* \"#utility.yul\":1038:1167   */\n      swap2\n      swap1\n      pop\n      jump\t// out\n        /* \"#utility.yul\":1173:1290   */\n    tag_240:\n        /* \"#utility.yul\":1282:1283   */\n      0x00\n        /* \"#utility.yul\":1279:1280   */\n      dup1\n        /* \"#utility.yul\":1272:1284   */\n      revert\n        /* \"#utility.yul\":1296:1413   */\n    tag_241:\n        /* \"#utility.yul\":1405:1406   */\n      0x00\n        /* \"#utility.yul\":1402:1403   */\n      dup1\n        /* \"#utility.yul\":1395:1407   */\n      revert\n        /* \"#utility.yul\":1419:1536   */\n    tag_242:\n        /* \"#utility.yul\":1528:1529   */\n      0x00\n        /* \"#utility.yul\":1525:1526   */\n      dup1\n        /* \"#utility.yul\":1518:1530   */\n      revert\n        /* \"#utility.yul\":1542:1850   */\n    tag_243:\n        /* \"#utility.yul\":1604:1608   */\n      0x00\n        /* \"#utility.yul\":1694:1712   */\n      0xffffffffffffffff\n        /* \"#utility.yul\":1686:1692   */\n      dup3\n        /* \"#utility.yul\":1683:1713   */\n      gt\n        /* \"#utility.yul\":1680:1736   */\n      iszero\n      tag_318\n      jumpi\n        /* \"#utility.yul\":1716:1734   */\n      tag_319\n      tag_198\n      jump\t// in\n    tag_319:\n        /* \"#utility.yul\":1680:1736   */\n    tag_318:\n        /* \"#utility.yul\":1754:1783   */\n      tag_320\n        /* \"#utility.yul\":1776:1782   */\n      dup3\n        /* \"#utility.yul\":1754:1783   */\n      tag_237\n      jump\t// in\n    tag_320:\n        /* \"#utility.yul\":1746:1783   */\n      swap1\n      pop\n        /* \"#utility.yul\":1838:1842   */\n      0x20\n        /* \"#utility.yul\":1832:1836   */\n      dup2\n        /* \"#utility.yul\":1828:1843   */\n      add\n        /* \"#utility.yul\":1820:1843   */\n      swap1\n      pop\n        /* \"#utility.yul\":1542:1850   */\n      swap2\n      swap1\n      pop\n      jump\t// out\n        /* \"#utility.yul\":1856:2002   */\n    tag_244:\n        /* \"#utility.yul\":1953:1959   */\n      dup3\n        /* \"#utility.yul\":1948:1951   */\n      dup2\n        /* \"#utility.yul\":1943:1946   */\n      dup4\n        /* \"#utility.yul\":1930:1960   */\n      calldatacopy\n        /* \"#utility.yul\":1994:1995   */\n      0x00\n        /* \"#utility.yul\":1985:1991   */\n      dup4\n        /* \"#utility.yul\":1980:1983   */\n      dup4\n        /* \"#utility.yul\":1976:1992   */\n      add\n        /* \"#utility.yul\":1969:1996   */\n      mstore\n        /* \"#utility.yul\":1856:2002   */\n      pop\n      pop\n      pop\n      jump\t// out\n        /* \"#utility.yul\":2008:2433   */\n    tag_245:\n        /* \"#utility.yul\":2086:2091   */\n      0x00\n        /* \"#utility.yul\":2111:2177   */\n      tag_323\n        /* \"#utility.yul\":2127:2176   */\n      tag_324\n        /* \"#utility.yul\":2169:2175   */\n      dup5\n        /* \"#utility.yul\":2127:2176   */\n      tag_243\n      jump\t// in\n    tag_324:\n        /* \"#utility.yul\":2111:2177   */\n      tag_239\n      jump\t// in\n    tag_323:\n        /* \"#utility.yul\":2102:2177   */\n      swap1\n      pop\n        /* \"#utility.yul\":2200:2206   */\n      dup3\n        /* \"#utility.yul\":2193:2198   */\n      dup2\n        /* \"#utility.yul\":2186:2207   */\n      mstore\n        /* \"#utility.yul\":2238:2242   */\n      0x20\n        /* \"#utility.yul\":2231:2236   */\n      dup2\n        /* \"#utility.yul\":2227:2243   */\n      add\n        /* \"#utility.yul\":2276:2279   */\n      dup5\n        /* \"#utility.yul\":2267:2273   */\n      dup5\n        /* \"#utility.yul\":2262:2265   */\n      dup5\n        /* \"#utility.yul\":2258:2274   */\n      add\n        /* \"#utility.yul\":2255:2280   */\n      gt\n        /* \"#utility.yul\":2252:2364   */\n      iszero\n      tag_325\n      jumpi\n        /* \"#utility.yul\":2283:2362   */\n      tag_326\n      tag_242\n      jump\t// in\n    tag_326:\n        /* \"#utility.yul\":2252:2364   */\n    tag_325:\n        /* \"#utility.yul\":2373:2427   */\n      tag_327\n        /* \"#utility.yul\":2420:2426   */\n      dup5\n        /* \"#utility.yul\":2415:2418   */\n      dup3\n        /* \"#utility.yul\":2410:2413   */\n      dup6\n        /* \"#utility.yul\":2373:2427   */\n      tag_244\n      jump\t// in\n    tag_327:\n        /* \"#utility.yul\":2092:2433   */\n      pop\n        /* \"#utility.yul\":2008:2433   */\n      swap4\n      swap3\n      pop\n      pop\n      pop\n      jump\t// out\n        /* \"#utility.yul\":2453:2793   */\n    tag_246:\n        /* \"#utility.yul\":2509:2514   */\n      0x00\n        /* \"#utility.yul\":2558:2561   */\n      dup3\n        /* \"#utility.yul\":2551:2555   */\n      0x1f\n        /* \"#utility.yul\":2543:2549   */\n      dup4\n        /* \"#utility.yul\":2539:2556   */\n      add\n        /* \"#utility.yul\":2535:2562   */\n      slt\n        /* \"#utility.yul\":2525:2647   */\n      tag_329\n      jumpi\n        /* \"#utility.yul\":2566:2645   */\n      tag_330\n      tag_241\n      jump\t// in\n    tag_330:\n        /* \"#utility.yul\":2525:2647   */\n    tag_329:\n        /* \"#utility.yul\":2683:2689   */\n      dup2\n        /* \"#utility.yul\":2670:2690   */\n      calldataload\n        /* \"#utility.yul\":2708:2787   */\n      tag_331\n        /* \"#utility.yul\":2783:2786   */\n      dup5\n        /* \"#utility.yul\":2775:2781   */\n      dup3\n        /* \"#utility.yul\":2768:2772   */\n      0x20\n        /* \"#utility.yul\":2760:2766   */\n      dup7\n        /* \"#utility.yul\":2756:2773   */\n      add\n        /* \"#utility.yul\":2708:2787   */\n      tag_245\n      jump\t// in\n    tag_331:\n        /* \"#utility.yul\":2699:2787   */\n      swap2\n      pop\n        /* \"#utility.yul\":2515:2793   */\n      pop\n        /* \"#utility.yul\":2453:2793   */\n      swap3\n      swap2\n      pop\n      pop\n      jump\t// out\n        /* \"#utility.yul\":2799:2876   */\n    tag_247:\n        /* \"#utility.yul\":2836:2843   */\n      0x00\n        /* \"#utility.yul\":2865:2870   */\n      dup2\n        /* \"#utility.yul\":2854:2870   */\n      swap1\n      pop\n        /* \"#utility.yul\":2799:2876   */\n      swap2\n      swap1\n      pop\n      jump\t// out\n        /* \"#utility.yul\":2882:3004   */\n    tag_248:\n        /* \"#utility.yul\":2955:2979   */\n      tag_334\n        /* \"#utility.yul\":2973:2978   */\n      dup2\n        /* \"#utility.yul\":2955:2979   */\n      tag_247\n      jump\t// in\n    tag_334:\n        /* \"#utility.yul\":2948:2953   */\n      dup2\n        /* \"#utility.yul\":2945:2980   */\n      eq\n        /* \"#utility.yul\":2935:2998   */\n      tag_335\n      jumpi\n        /* \"#utility.yul\":2994:2995   */\n      0x00\n        /* \"#utility.yul\":2991:2992   */\n      dup1\n        /* \"#utility.yul\":2984:2996   */\n      revert\n        /* \"#utility.yul\":2935:2998   */\n    tag_335:\n        /* \"#utility.yul\":2882:3004   */\n      pop\n      jump\t// out\n        /* \"#utility.yul\":3010:3149   */\n    tag_249:\n        /* \"#utility.yul\":3056:3061   */\n      0x00\n        /* \"#utility.yul\":3094:3100   */\n      dup2\n        /* \"#utility.yul\":3081:3101   */\n      calldataload\n        /* \"#utility.yul\":3072:3101   */\n      swap1\n      pop\n        /* \"#utility.yul\":3110:3143   */\n      tag_337\n        /* \"#utility.yul\":3137:3142   */\n      dup2\n        /* \"#utility.yul\":3110:3143   */\n      tag_248\n      jump\t// in\n    tag_337:\n        /* \"#utility.yul\":3010:3149   */\n      swap3\n      swap2\n      pop\n      pop\n      jump\t// out\n        /* \"#utility.yul\":3192:4271   */\n    tag_250:\n        /* \"#utility.yul\":3264:3269   */\n      0x00\n        /* \"#utility.yul\":3308:3312   */\n      0x60\n        /* \"#utility.yul\":3296:3305   */\n      dup3\n        /* \"#utility.yul\":3291:3294   */\n      dup5\n        /* \"#utility.yul\":3287:3306   */\n      sub\n        /* \"#utility.yul\":3283:3313   */\n      slt\n        /* \"#utility.yul\":3280:3397   */\n      iszero\n      tag_339\n      jumpi\n        /* \"#utility.yul\":3316:3395   */\n      tag_340\n      tag_236\n      jump\t// in\n    tag_340:\n        /* \"#utility.yul\":3280:3397   */\n    tag_339:\n        /* \"#utility.yul\":3415:3436   */\n      tag_341\n        /* \"#utility.yul\":3431:3435   */\n      0x60\n        /* \"#utility.yul\":3415:3436   */\n      tag_239\n      jump\t// in\n    tag_341:\n        /* \"#utility.yul\":3406:3436   */\n      swap1\n      pop\n        /* \"#utility.yul\":3523:3524   */\n      0x00\n        /* \"#utility.yul\":3512:3521   */\n      dup3\n        /* \"#utility.yul\":3508:3525   */\n      add\n        /* \"#utility.yul\":3495:3526   */\n      calldataload\n        /* \"#utility.yul\":3553:3571   */\n      0xffffffffffffffff\n        /* \"#utility.yul\":3545:3551   */\n      dup2\n        /* \"#utility.yul\":3542:3572   */\n      gt\n        /* \"#utility.yul\":3539:3656   */\n      iszero\n      tag_342\n      jumpi\n        /* \"#utility.yul\":3575:3654   */\n      tag_343\n      tag_240\n      jump\t// in\n    tag_343:\n        /* \"#utility.yul\":3539:3656   */\n    tag_342:\n        /* \"#utility.yul\":3695:3754   */\n      tag_344\n        /* \"#utility.yul\":3750:3753   */\n      dup5\n        /* \"#utility.yul\":3741:3747   */\n      dup3\n        /* \"#utility.yul\":3730:3739   */\n      dup6\n        /* \"#utility.yul\":3726:3748   */\n      add\n        /* \"#utility.yul\":3695:3754   */\n      tag_246\n      jump\t// in\n    tag_344:\n        /* \"#utility.yul\":3688:3692   */\n      0x00\n        /* \"#utility.yul\":3681:3686   */\n      dup4\n        /* \"#utility.yul\":3677:3693   */\n      add\n        /* \"#utility.yul\":3670:3755   */\n      mstore\n        /* \"#utility.yul\":3446:3766   */\n      pop\n        /* \"#utility.yul\":3856:3858   */\n      0x20\n        /* \"#utility.yul\":3845:3854   */\n      dup3\n        /* \"#utility.yul\":3841:3859   */\n      add\n        /* \"#utility.yul\":3828:3860   */\n      calldataload\n        /* \"#utility.yul\":3887:3905   */\n      0xffffffffffffffff\n        /* \"#utility.yul\":3879:3885   */\n      dup2\n        /* \"#utility.yul\":3876:3906   */\n      gt\n        /* \"#utility.yul\":3873:3990   */\n      iszero\n      tag_345\n      jumpi\n        /* \"#utility.yul\":3909:3988   */\n      tag_346\n      tag_240\n      jump\t// in\n    tag_346:\n        /* \"#utility.yul\":3873:3990   */\n    tag_345:\n        /* \"#utility.yul\":4029:4088   */\n      tag_347\n        /* \"#utility.yul\":4084:4087   */\n      dup5\n        /* \"#utility.yul\":4075:4081   */\n      dup3\n        /* \"#utility.yul\":4064:4073   */\n      dup6\n        /* \"#utility.yul\":4060:4082   */\n      add\n        /* \"#utility.yul\":4029:4088   */\n      tag_246\n      jump\t// in\n    tag_347:\n        /* \"#utility.yul\":4022:4026   */\n      0x20\n        /* \"#utility.yul\":4015:4020   */\n      dup4\n        /* \"#utility.yul\":4011:4027   */\n      add\n        /* \"#utility.yul\":4004:4089   */\n      mstore\n        /* \"#utility.yul\":3776:4100   */\n      pop\n        /* \"#utility.yul\":4162:4164   */\n      0x40\n        /* \"#utility.yul\":4203:4252   */\n      tag_348\n        /* \"#utility.yul\":4248:4251   */\n      dup5\n        /* \"#utility.yul\":4239:4245   */\n      dup3\n        /* \"#utility.yul\":4228:4237   */\n      dup6\n        /* \"#utility.yul\":4224:4246   */\n      add\n        /* \"#utility.yul\":4203:4252   */\n      tag_249\n      jump\t// in\n    tag_348:\n        /* \"#utility.yul\":4196:4200   */\n      0x40\n        /* \"#utility.yul\":4189:4194   */\n      dup4\n        /* \"#utility.yul\":4185:4201   */\n      add\n        /* \"#utility.yul\":4178:4253   */\n      mstore\n        /* \"#utility.yul\":4110:4264   */\n      pop\n        /* \"#utility.yul\":3192:4271   */\n      swap3\n      swap2\n      pop\n      pop\n      jump\t// out\n        /* \"#utility.yul\":4277:4812   */\n    tag_31:\n        /* \"#utility.yul\":4359:4365   */\n      0x00\n        /* \"#utility.yul\":4408:4410   */\n      0x20\n        /* \"#utility.yul\":4396:4405   */\n      dup3\n        /* \"#utility.yul\":4387:4394   */\n      dup5\n        /* \"#utility.yul\":4383:4406   */\n      sub\n        /* \"#utility.yul\":4379:4411   */\n      slt\n        /* \"#utility.yul\":4376:4495   */\n      iszero\n      tag_350\n      jumpi\n        /* \"#utility.yul\":4414:4493   */\n      tag_351\n      tag_234\n      jump\t// in\n    tag_351:\n        /* \"#utility.yul\":4376:4495   */\n    tag_350:\n        /* \"#utility.yul\":4562:4563   */\n      0x00\n        /* \"#utility.yul\":4551:4560   */\n      dup3\n        /* \"#utility.yul\":4547:4564   */\n      add\n        /* \"#utility.yul\":4534:4565   */\n      calldataload\n        /* \"#utility.yul\":4592:4610   */\n      0xffffffffffffffff\n        /* \"#utility.yul\":4584:4590   */\n      dup2\n        /* \"#utility.yul\":4581:4611   */\n      gt\n        /* \"#utility.yul\":4578:4695   */\n      iszero\n      tag_352\n      jumpi\n        /* \"#utility.yul\":4614:4693   */\n      tag_353\n      tag_235\n      jump\t// in\n    tag_353:\n        /* \"#utility.yul\":4578:4695   */\n    tag_352:\n        /* \"#utility.yul\":4719:4795   */\n      tag_354\n        /* \"#utility.yul\":4787:4794   */\n      dup5\n        /* \"#utility.yul\":4778:4784   */\n      dup3\n        /* \"#utility.yul\":4767:4776   */\n      dup6\n        /* \"#utility.yul\":4763:4785   */\n      add\n        /* \"#utility.yul\":4719:4795   */\n      tag_250\n      jump\t// in\n    tag_354:\n        /* \"#utility.yul\":4709:4795   */\n      swap2\n      pop\n        /* \"#utility.yul\":4505:4805   */\n      pop\n        /* \"#utility.yul\":4277:4812   */\n      swap3\n      swap2\n      pop\n      pop\n      jump\t// out\n        /* \"#utility.yul\":4818:4936   */\n    tag_251:\n        /* \"#utility.yul\":4905:4929   */\n      tag_356\n        /* \"#utility.yul\":4923:4928   */\n      dup2\n        /* \"#utility.yul\":4905:4929   */\n      tag_247\n      jump\t// in\n    tag_356:\n        /* \"#utility.yul\":4900:4903   */\n      dup3\n        /* \"#utility.yul\":4893:4930   */\n      mstore\n        /* \"#utility.yul\":4818:4936   */\n      pop\n      pop\n      jump\t// out\n        /* \"#utility.yul\":4942:5164   */\n    tag_36:\n        /* \"#utility.yul\":5035:5039   */\n      0x00\n        /* \"#utility.yul\":5073:5075   */\n      0x20\n        /* \"#utility.yul\":5062:5071   */\n      dup3\n        /* \"#utility.yul\":5058:5076   */\n      add\n        /* \"#utility.yul\":5050:5076   */\n      swap1\n      pop\n        /* \"#utility.yul\":5086:5157   */\n      tag_358\n        /* \"#utility.yul\":5154:5155   */\n      0x00\n        /* \"#utility.yul\":5143:5152   */\n      dup4\n        /* \"#utility.yul\":5139:5156   */\n      add\n        /* \"#utility.yul\":5130:5136   */\n      dup5\n        /* \"#utility.yul\":5086:5157   */\n      tag_251\n      jump\t// in\n    tag_358:\n        /* \"#utility.yul\":4942:5164   */\n      swap3\n      swap2\n      pop\n      pop\n      jump\t// out\n        /* \"#utility.yul\":5170:5499   */\n    tag_39:\n        /* \"#utility.yul\":5229:5235   */\n      0x00\n        /* \"#utility.yul\":5278:5280   */\n      0x20\n        /* \"#utility.yul\":5266:5275   */\n      dup3\n        /* \"#utility.yul\":5257:5264   */\n      dup5\n        /* \"#utility.yul\":5253:5276   */\n      sub\n        /* \"#utility.yul\":5249:5281   */\n      slt\n        /* \"#utility.yul\":5246:5365   */\n      iszero\n      tag_360\n      jumpi\n        /* \"#utility.yul\":5284:5363   */\n      tag_361\n      tag_234\n      jump\t// in\n    tag_361:\n        /* \"#utility.yul\":5246:5365   */\n    tag_360:\n        /* \"#utility.yul\":5404:5405   */\n      0x00\n        /* \"#utility.yul\":5429:5482   */\n      tag_362\n        /* \"#utility.yul\":5474:5481   */\n      dup5\n        /* \"#utility.yul\":5465:5471   */\n      dup3\n        /* \"#utility.yul\":5454:5463   */\n      dup6\n        /* \"#utility.yul\":5450:5472   */\n      add\n        /* \"#utility.yul\":5429:5482   */\n      tag_249\n      jump\t// in\n    tag_362:\n        /* \"#utility.yul\":5419:5482   */\n      swap2\n      pop\n        /* \"#utility.yul\":5375:5492   */\n      pop\n        /* \"#utility.yul\":5170:5499   */\n      swap3\n      swap2\n      pop\n      pop\n      jump\t// out\n        /* \"#utility.yul\":5505:5604   */\n    tag_252:\n        /* \"#utility.yul\":5557:5563   */\n      0x00\n        /* \"#utility.yul\":5591:5596   */\n      dup2\n        /* \"#utility.yul\":5585:5597   */\n      mload\n        /* \"#utility.yul\":5575:5597   */\n      swap1\n      pop\n        /* \"#utility.yul\":5505:5604   */\n      swap2\n      swap1\n      pop\n      jump\t// out\n        /* \"#utility.yul\":5610:5779   */\n    tag_253:\n        /* \"#utility.yul\":5694:5705   */\n      0x00\n        /* \"#utility.yul\":5728:5734   */\n      dup3\n        /* \"#utility.yul\":5723:5726   */\n      dup3\n        /* \"#utility.yul\":5716:5735   */\n      mstore\n        /* \"#utility.yul\":5768:5772   */\n      0x20\n        /* \"#utility.yul\":5763:5766   */\n      dup3\n        /* \"#utility.yul\":5759:5773   */\n      add\n        /* \"#utility.yul\":5744:5773   */\n      swap1\n      pop\n        /* \"#utility.yul\":5610:5779   */\n      swap3\n      swap2\n      pop\n      pop\n      jump\t// out\n        /* \"#utility.yul\":5785:6031   */\n    tag_254:\n        /* \"#utility.yul\":5866:5867   */\n      0x00\n        /* \"#utility.yul\":5876:5989   */\n    tag_366:\n        /* \"#utility.yul\":5890:5896   */\n      dup4\n        /* \"#utility.yul\":5887:5888   */\n      dup2\n        /* \"#utility.yul\":5884:5897   */\n      lt\n        /* \"#utility.yul\":5876:5989   */\n      iszero\n      tag_368\n      jumpi\n        /* \"#utility.yul\":5975:5976   */\n      dup1\n        /* \"#utility.yul\":5970:5973   */\n      dup3\n        /* \"#utility.yul\":5966:5977   */\n      add\n        /* \"#utility.yul\":5960:5978   */\n      mload\n        /* \"#utility.yul\":5956:5957   */\n      dup2\n        /* \"#utility.yul\":5951:5954   */\n      dup5\n        /* \"#utility.yul\":5947:5958   */\n      add\n        /* \"#utility.yul\":5940:5979   */\n      mstore\n        /* \"#utility.yul\":5912:5914   */\n      0x20\n        /* \"#utility.yul\":5909:5910   */\n      dup2\n        /* \"#utility.yul\":5905:5915   */\n      add\n        /* \"#utility.yul\":5900:5915   */\n      swap1\n      pop\n        /* \"#utility.yul\":5876:5989   */\n      jump(tag_366)\n    tag_368:\n        /* \"#utility.yul\":6023:6024   */\n      0x00\n        /* \"#utility.yul\":6014:6020   */\n      dup5\n        /* \"#utility.yul\":6009:6012   */\n      dup5\n        /* \"#utility.yul\":6005:6021   */\n      add\n        /* \"#utility.yul\":5998:6025   */\n      mstore\n        /* \"#utility.yul\":5847:6031   */\n      pop\n        /* \"#utility.yul\":5785:6031   */\n      pop\n      pop\n      pop\n      jump\t// out\n        /* \"#utility.yul\":6037:6414   */\n    tag_255:\n        /* \"#utility.yul\":6125:6128   */\n      0x00\n        /* \"#utility.yul\":6153:6192   */\n      tag_370\n        /* \"#utility.yul\":6186:6191   */\n      dup3\n        /* \"#utility.yul\":6153:6192   */\n      tag_252\n      jump\t// in\n    tag_370:\n        /* \"#utility.yul\":6208:6279   */\n      tag_371\n        /* \"#utility.yul\":6272:6278   */\n      dup2\n        /* \"#utility.yul\":6267:6270   */\n      dup6\n        /* \"#utility.yul\":6208:6279   */\n      tag_253\n      jump\t// in\n    tag_371:\n        /* \"#utility.yul\":6201:6279   */\n      swap4\n      pop\n        /* \"#utility.yul\":6288:6353   */\n      tag_372\n        /* \"#utility.yul\":6346:6352   */\n      dup2\n        /* \"#utility.yul\":6341:6344   */\n      dup6\n        /* \"#utility.yul\":6334:6338   */\n      0x20\n        /* \"#utility.yul\":6327:6332   */\n      dup7\n        /* \"#utility.yul\":6323:6339   */\n      add\n        /* \"#utility.yul\":6288:6353   */\n      tag_254\n      jump\t// in\n    tag_372:\n        /* \"#utility.yul\":6378:6407   */\n      tag_373\n        /* \"#utility.yul\":6400:6406   */\n      dup2\n        /* \"#utility.yul\":6378:6407   */\n      tag_237\n      jump\t// in\n    tag_373:\n        /* \"#utility.yul\":6373:6376   */\n      dup5\n        /* \"#utility.yul\":6369:6408   */\n      add\n        /* \"#utility.yul\":6362:6408   */\n      swap2\n      pop\n        /* \"#utility.yul\":6129:6414   */\n      pop\n        /* \"#utility.yul\":6037:6414   */\n      swap3\n      swap2\n      pop\n      pop\n      jump\t// out\n        /* \"#utility.yul\":6420:7044   */\n    tag_42:\n        /* \"#utility.yul\":6609:6613   */\n      0x00\n        /* \"#utility.yul\":6647:6649   */\n      0x60\n        /* \"#utility.yul\":6636:6645   */\n      dup3\n        /* \"#utility.yul\":6632:6650   */\n      add\n        /* \"#utility.yul\":6624:6650   */\n      swap1\n      pop\n        /* \"#utility.yul\":6696:6705   */\n      dup2\n        /* \"#utility.yul\":6690:6694   */\n      dup2\n        /* \"#utility.yul\":6686:6706   */\n      sub\n        /* \"#utility.yul\":6682:6683   */\n      0x00\n        /* \"#utility.yul\":6671:6680   */\n      dup4\n        /* \"#utility.yul\":6667:6684   */\n      add\n        /* \"#utility.yul\":6660:6707   */\n      mstore\n        /* \"#utility.yul\":6724:6802   */\n      tag_375\n        /* \"#utility.yul\":6797:6801   */\n      dup2\n        /* \"#utility.yul\":6788:6794   */\n      dup7\n        /* \"#utility.yul\":6724:6802   */\n      tag_255\n      jump\t// in\n    tag_375:\n        /* \"#utility.yul\":6716:6802   */\n      swap1\n      pop\n        /* \"#utility.yul\":6849:6858   */\n      dup2\n        /* \"#utility.yul\":6843:6847   */\n      dup2\n        /* \"#utility.yul\":6839:6859   */\n      sub\n        /* \"#utility.yul\":6834:6836   */\n      0x20\n        /* \"#utility.yul\":6823:6832   */\n      dup4\n        /* \"#utility.yul\":6819:6837   */\n      add\n        /* \"#utility.yul\":6812:6860   */\n      mstore\n        /* \"#utility.yul\":6877:6955   */\n      tag_376\n        /* \"#utility.yul\":6950:6954   */\n      dup2\n        /* \"#utility.yul\":6941:6947   */\n      dup6\n        /* \"#utility.yul\":6877:6955   */\n      tag_255\n      jump\t// in\n    tag_376:\n        /* \"#utility.yul\":6869:6955   */\n      swap1\n      pop\n        /* \"#utility.yul\":6965:7037   */\n      tag_377\n        /* \"#utility.yul\":7033:7035   */\n      0x40\n        /* \"#utility.yul\":7022:7031   */\n      dup4\n        /* \"#utility.yul\":7018:7036   */\n      add\n        /* \"#utility.yul\":7009:7015   */\n      dup5\n        /* \"#utility.yul\":6965:7037   */\n      tag_251\n      jump\t// in\n    tag_377:\n        /* \"#utility.yul\":6420:7044   */\n      swap5\n      swap4\n      pop\n      pop\n      pop\n      pop\n      jump\t// out\n        /* \"#utility.yul\":7050:7140   */\n    tag_256:\n        /* \"#utility.yul\":7084:7091   */\n      0x00\n        /* \"#utility.yul\":7127:7132   */\n      dup2\n        /* \"#utility.yul\":7120:7133   */\n      iszero\n        /* \"#utility.yul\":7113:7134   */\n      iszero\n        /* \"#utility.yul\":7102:7134   */\n      swap1\n      pop\n        /* \"#utility.yul\":7050:7140   */\n      swap2\n      swap1\n      pop\n      jump\t// out\n        /* \"#utility.yul\":7146:7255   */\n    tag_257:\n        /* \"#utility.yul\":7227:7248   */\n      tag_380\n        /* \"#utility.yul\":7242:7247   */\n      dup2\n        /* \"#utility.yul\":7227:7248   */\n      tag_256\n      jump\t// in\n    tag_380:\n        /* \"#utility.yul\":7222:7225   */\n      dup3\n        /* \"#utility.yul\":7215:7249   */\n      mstore\n        /* \"#utility.yul\":7146:7255   */\n      pop\n      pop\n      jump\t// out\n        /* \"#utility.yul\":7261:7471   */\n    tag_46:\n        /* \"#utility.yul\":7348:7352   */\n      0x00\n        /* \"#utility.yul\":7386:7388   */\n      0x20\n        /* \"#utility.yul\":7375:7384   */\n      dup3\n        /* \"#utility.yul\":7371:7389   */\n      add\n        /* \"#utility.yul\":7363:7389   */\n      swap1\n      pop\n        /* \"#utility.yul\":7399:7464   */\n      tag_382\n        /* \"#utility.yul\":7461:7462   */\n      0x00\n        /* \"#utility.yul\":7450:7459   */\n      dup4\n        /* \"#utility.yul\":7446:7463   */\n      add\n        /* \"#utility.yul\":7437:7443   */\n      dup5\n        /* \"#utility.yul\":7399:7464   */\n      tag_257\n      jump\t// in\n    tag_382:\n        /* \"#utility.yul\":7261:7471   */\n      swap3\n      swap2\n      pop\n      pop\n      jump\t// out\n        /* \"#utility.yul\":7477:7593   */\n    tag_258:\n        /* \"#utility.yul\":7547:7568   */\n      tag_384\n        /* \"#utility.yul\":7562:7567   */\n      dup2\n        /* \"#utility.yul\":7547:7568   */\n      tag_256\n      jump\t// in\n    tag_384:\n        /* \"#utility.yul\":7540:7545   */\n      dup2\n        /* \"#utility.yul\":7537:7569   */\n      eq\n        /* \"#utility.yul\":7527:7587   */\n      tag_385\n      jumpi\n        /* \"#utility.yul\":7583:7584   */\n      0x00\n        /* \"#utility.yul\":7580:7581   */\n      dup1\n        /* \"#utility.yul\":7573:7585   */\n      revert\n        /* \"#utility.yul\":7527:7587   */\n    tag_385:\n        /* \"#utility.yul\":7477:7593   */\n      pop\n      jump\t// out\n        /* \"#utility.yul\":7599:7732   */\n    tag_259:\n        /* \"#utility.yul\":7642:7647   */\n      0x00\n        /* \"#utility.yul\":7680:7686   */\n      dup2\n        /* \"#utility.yul\":7667:7687   */\n      calldataload\n        /* \"#utility.yul\":7658:7687   */\n      swap1\n      pop\n        /* \"#utility.yul\":7696:7726   */\n      tag_387\n        /* \"#utility.yul\":7720:7725   */\n      dup2\n        /* \"#utility.yul\":7696:7726   */\n      tag_258\n      jump\t// in\n    tag_387:\n        /* \"#utility.yul\":7599:7732   */\n      swap3\n      swap2\n      pop\n      pop\n      jump\t// out\n        /* \"#utility.yul\":7738:8061   */\n    tag_49:\n        /* \"#utility.yul\":7794:7800   */\n      0x00\n        /* \"#utility.yul\":7843:7845   */\n      0x20\n        /* \"#utility.yul\":7831:7840   */\n      dup3\n        /* \"#utility.yul\":7822:7829   */\n      dup5\n        /* \"#utility.yul\":7818:7841   */\n      sub\n        /* \"#utility.yul\":7814:7846   */\n      slt\n        /* \"#utility.yul\":7811:7930   */\n      iszero\n      tag_389\n      jumpi\n        /* \"#utility.yul\":7849:7928   */\n      tag_390\n      tag_234\n      jump\t// in\n    tag_390:\n        /* \"#utility.yul\":7811:7930   */\n    tag_389:\n        /* \"#utility.yul\":7969:7970   */\n      0x00\n        /* \"#utility.yul\":7994:8044   */\n      tag_391\n        /* \"#utility.yul\":8036:8043   */\n      dup5\n        /* \"#utility.yul\":8027:8033   */\n      dup3\n        /* \"#utility.yul\":8016:8025   */\n      dup6\n        /* \"#utility.yul\":8012:8034   */\n      add\n        /* \"#utility.yul\":7994:8044   */\n      tag_259\n      jump\t// in\n    tag_391:\n        /* \"#utility.yul\":7984:8044   */\n      swap2\n      pop\n        /* \"#utility.yul\":7940:8054   */\n      pop\n        /* \"#utility.yul\":7738:8061   */\n      swap3\n      swap2\n      pop\n      pop\n      jump\t// out\n        /* \"#utility.yul\":8067:8193   */\n    tag_260:\n        /* \"#utility.yul\":8104:8111   */\n      0x00\n        /* \"#utility.yul\":8144:8186   */\n      0xffffffffffffffffffffffffffffffffffffffff\n        /* \"#utility.yul\":8137:8142   */\n      dup3\n        /* \"#utility.yul\":8133:8187   */\n      and\n        /* \"#utility.yul\":8122:8187   */\n      swap1\n      pop\n        /* \"#utility.yul\":8067:8193   */\n      swap2\n      swap1\n      pop\n      jump\t// out\n        /* \"#utility.yul\":8199:8295   */\n    tag_261:\n        /* \"#utility.yul\":8236:8243   */\n      0x00\n        /* \"#utility.yul\":8265:8289   */\n      tag_394\n        /* \"#utility.yul\":8283:8288   */\n      dup3\n        /* \"#utility.yul\":8265:8289   */\n      tag_260\n      jump\t// in\n    tag_394:\n        /* \"#utility.yul\":8254:8289   */\n      swap1\n      pop\n        /* \"#utility.yul\":8199:8295   */\n      swap2\n      swap1\n      pop\n      jump\t// out\n        /* \"#utility.yul\":8301:8423   */\n    tag_262:\n        /* \"#utility.yul\":8374:8398   */\n      tag_396\n        /* \"#utility.yul\":8392:8397   */\n      dup2\n        /* \"#utility.yul\":8374:8398   */\n      tag_261\n      jump\t// in\n    tag_396:\n        /* \"#utility.yul\":8367:8372   */\n      dup2\n        /* \"#utility.yul\":8364:8399   */\n      eq\n        /* \"#utility.yul\":8354:8417   */\n      tag_397\n      jumpi\n        /* \"#utility.yul\":8413:8414   */\n      0x00\n        /* \"#utility.yul\":8410:8411   */\n      dup1\n        /* \"#utility.yul\":8403:8415   */\n      revert\n        /* \"#utility.yul\":8354:8417   */\n    tag_397:\n        /* \"#utility.yul\":8301:8423   */\n      pop\n      jump\t// out\n        /* \"#utility.yul\":8429:8568   */\n    tag_263:\n        /* \"#utility.yul\":8475:8480   */\n      0x00\n        /* \"#utility.yul\":8513:8519   */\n      dup2\n        /* \"#utility.yul\":8500:8520   */\n      calldataload\n        /* \"#utility.yul\":8491:8520   */\n      swap1\n      pop\n        /* \"#utility.yul\":8529:8562   */\n      tag_399\n        /* \"#utility.yul\":8556:8561   */\n      dup2\n        /* \"#utility.yul\":8529:8562   */\n      tag_262\n      jump\t// in\n    tag_399:\n        /* \"#utility.yul\":8429:8568   */\n      swap3\n      swap2\n      pop\n      pop\n      jump\t// out\n        /* \"#utility.yul\":8574:8903   */\n    tag_53:\n        /* \"#utility.yul\":8633:8639   */\n      0x00\n        /* \"#utility.yul\":8682:8684   */\n      0x20\n        /* \"#utility.yul\":8670:8679   */\n      dup3\n        /* \"#utility.yul\":8661:8668   */\n      dup5\n        /* \"#utility.yul\":8657:8680   */\n      sub\n        /* \"#utility.yul\":8653:8685   */\n      slt\n        /* \"#utility.yul\":8650:8769   */\n      iszero\n      tag_401\n      jumpi\n        /* \"#utility.yul\":8688:8767   */\n      tag_402\n      tag_234\n      jump\t// in\n    tag_402:\n        /* \"#utility.yul\":8650:8769   */\n    tag_401:\n        /* \"#utility.yul\":8808:8809   */\n      0x00\n        /* \"#utility.yul\":8833:8886   */\n      tag_403\n        /* \"#utility.yul\":8878:8885   */\n      dup5\n        /* \"#utility.yul\":8869:8875   */\n      dup3\n        /* \"#utility.yul\":8858:8867   */\n      dup6\n        /* \"#utility.yul\":8854:8876   */\n      add\n        /* \"#utility.yul\":8833:8886   */\n      tag_263\n      jump\t// in\n    tag_403:\n        /* \"#utility.yul\":8823:8886   */\n      swap2\n      pop\n        /* \"#utility.yul\":8779:8896   */\n      pop\n        /* \"#utility.yul\":8574:8903   */\n      swap3\n      swap2\n      pop\n      pop\n      jump\t// out\n        /* \"#utility.yul\":8909:8985   */\n    tag_264:\n        /* \"#utility.yul\":8945:8952   */\n      0x00\n        /* \"#utility.yul\":8974:8979   */\n      dup2\n        /* \"#utility.yul\":8963:8979   */\n      swap1\n      pop\n        /* \"#utility.yul\":8909:8985   */\n      swap2\n      swap1\n      pop\n      jump\t// out\n        /* \"#utility.yul\":8991:9106   */\n    tag_265:\n        /* \"#utility.yul\":9076:9099   */\n      tag_406\n        /* \"#utility.yul\":9093:9098   */\n      dup2\n        /* \"#utility.yul\":9076:9099   */\n      tag_264\n      jump\t// in\n    tag_406:\n        /* \"#utility.yul\":9071:9074   */\n      dup3\n        /* \"#utility.yul\":9064:9100   */\n      mstore\n        /* \"#utility.yul\":8991:9106   */\n      pop\n      pop\n      jump\t// out\n        /* \"#utility.yul\":9112:9330   */\n    tag_59:\n        /* \"#utility.yul\":9203:9207   */\n      0x00\n        /* \"#utility.yul\":9241:9243   */\n      0x20\n        /* \"#utility.yul\":9230:9239   */\n      dup3\n        /* \"#utility.yul\":9226:9244   */\n      add\n        /* \"#utility.yul\":9218:9244   */\n      swap1\n      pop\n        /* \"#utility.yul\":9254:9323   */\n      tag_408\n        /* \"#utility.yul\":9320:9321   */\n      0x00\n        /* \"#utility.yul\":9309:9318   */\n      dup4\n        /* \"#utility.yul\":9305:9322   */\n      add\n        /* \"#utility.yul\":9296:9302   */\n      dup5\n        /* \"#utility.yul\":9254:9323   */\n      tag_265\n      jump\t// in\n    tag_408:\n        /* \"#utility.yul\":9112:9330   */\n      swap3\n      swap2\n      pop\n      pop\n      jump\t// out\n        /* \"#utility.yul\":9336:9649   */\n    tag_71:\n        /* \"#utility.yul\":9449:9453   */\n      0x00\n        /* \"#utility.yul\":9487:9489   */\n      0x20\n        /* \"#utility.yul\":9476:9485   */\n      dup3\n        /* \"#utility.yul\":9472:9490   */\n      add\n        /* \"#utility.yul\":9464:9490   */\n      swap1\n      pop\n        /* \"#utility.yul\":9536:9545   */\n      dup2\n        /* \"#utility.yul\":9530:9534   */\n      dup2\n        /* \"#utility.yul\":9526:9546   */\n      sub\n        /* \"#utility.yul\":9522:9523   */\n      0x00\n        /* \"#utility.yul\":9511:9520   */\n      dup4\n        /* \"#utility.yul\":9507:9524   */\n      add\n        /* \"#utility.yul\":9500:9547   */\n      mstore\n        /* \"#utility.yul\":9564:9642   */\n      tag_410\n        /* \"#utility.yul\":9637:9641   */\n      dup2\n        /* \"#utility.yul\":9628:9634   */\n      dup5\n        /* \"#utility.yul\":9564:9642   */\n      tag_255\n      jump\t// in\n    tag_410:\n        /* \"#utility.yul\":9556:9642   */\n      swap1\n      pop\n        /* \"#utility.yul\":9336:9649   */\n      swap3\n      swap2\n      pop\n      pop\n      jump\t// out\n        /* \"#utility.yul\":9655:9773   */\n    tag_266:\n        /* \"#utility.yul\":9742:9766   */\n      tag_412\n        /* \"#utility.yul\":9760:9765   */\n      dup2\n        /* \"#utility.yul\":9742:9766   */\n      tag_261\n      jump\t// in\n    tag_412:\n        /* \"#utility.yul\":9737:9740   */\n      dup3\n        /* \"#utility.yul\":9730:9767   */\n      mstore\n        /* \"#utility.yul\":9655:9773   */\n      pop\n      pop\n      jump\t// out\n        /* \"#utility.yul\":9779:10001   */\n    tag_78:\n        /* \"#utility.yul\":9872:9876   */\n      0x00\n        /* \"#utility.yul\":9910:9912   */\n      0x20\n        /* \"#utility.yul\":9899:9908   */\n      dup3\n        /* \"#utility.yul\":9895:9913   */\n      add\n        /* \"#utility.yul\":9887:9913   */\n      swap1\n      pop\n        /* \"#utility.yul\":9923:9994   */\n      tag_414\n        /* \"#utility.yul\":9991:9992   */\n      0x00\n        /* \"#utility.yul\":9980:9989   */\n      dup4\n        /* \"#utility.yul\":9976:9993   */\n      add\n        /* \"#utility.yul\":9967:9973   */\n      dup5\n        /* \"#utility.yul\":9923:9994   */\n      tag_266\n      jump\t// in\n    tag_414:\n        /* \"#utility.yul\":9779:10001   */\n      swap3\n      swap2\n      pop\n      pop\n      jump\t// out\n        /* \"#utility.yul\":10007:10986   */\n    tag_81:\n        /* \"#utility.yul\":10104:10110   */\n      0x00\n        /* \"#utility.yul\":10112:10118   */\n      dup1\n        /* \"#utility.yul\":10120:10126   */\n      0x00\n        /* \"#utility.yul\":10169:10171   */\n      0x60\n        /* \"#utility.yul\":10157:10166   */\n      dup5\n        /* \"#utility.yul\":10148:10155   */\n      dup7\n        /* \"#utility.yul\":10144:10167   */\n      sub\n        /* \"#utility.yul\":10140:10172   */\n      slt\n        /* \"#utility.yul\":10137:10256   */\n      iszero\n      tag_416\n      jumpi\n        /* \"#utility.yul\":10175:10254   */\n      tag_417\n      tag_234\n      jump\t// in\n    tag_417:\n        /* \"#utility.yul\":10137:10256   */\n    tag_416:\n        /* \"#utility.yul\":10323:10324   */\n      0x00\n        /* \"#utility.yul\":10312:10321   */\n      dup5\n        /* \"#utility.yul\":10308:10325   */\n      add\n        /* \"#utility.yul\":10295:10326   */\n      calldataload\n        /* \"#utility.yul\":10353:10371   */\n      0xffffffffffffffff\n        /* \"#utility.yul\":10345:10351   */\n      dup2\n        /* \"#utility.yul\":10342:10372   */\n      gt\n        /* \"#utility.yul\":10339:10456   */\n      iszero\n      tag_418\n      jumpi\n        /* \"#utility.yul\":10375:10454   */\n      tag_419\n      tag_235\n      jump\t// in\n    tag_419:\n        /* \"#utility.yul\":10339:10456   */\n    tag_418:\n        /* \"#utility.yul\":10480:10543   */\n      tag_420\n        /* \"#utility.yul\":10535:10542   */\n      dup7\n        /* \"#utility.yul\":10526:10532   */\n      dup3\n        /* \"#utility.yul\":10515:10524   */\n      dup8\n        /* \"#utility.yul\":10511:10533   */\n      add\n        /* \"#utility.yul\":10480:10543   */\n      tag_246\n      jump\t// in\n    tag_420:\n        /* \"#utility.yul\":10470:10543   */\n      swap4\n      pop\n        /* \"#utility.yul\":10266:10553   */\n      pop\n        /* \"#utility.yul\":10620:10622   */\n      0x20\n        /* \"#utility.yul\":10609:10618   */\n      dup5\n        /* \"#utility.yul\":10605:10623   */\n      add\n        /* \"#utility.yul\":10592:10624   */\n      calldataload\n        /* \"#utility.yul\":10651:10669   */\n      0xffffffffffffffff\n        /* \"#utility.yul\":10643:10649   */\n      dup2\n        /* \"#utility.yul\":10640:10670   */\n      gt\n        /* \"#utility.yul\":10637:10754   */\n      iszero\n      tag_421\n      jumpi\n        /* \"#utility.yul\":10673:10752   */\n      tag_422\n      tag_235\n      jump\t// in\n    tag_422:\n        /* \"#utility.yul\":10637:10754   */\n    tag_421:\n        /* \"#utility.yul\":10778:10841   */\n      tag_423\n        /* \"#utility.yul\":10833:10840   */\n      dup7\n        /* \"#utility.yul\":10824:10830   */\n      dup3\n        /* \"#utility.yul\":10813:10822   */\n      dup8\n        /* \"#utility.yul\":10809:10831   */\n      add\n        /* \"#utility.yul\":10778:10841   */\n      tag_246\n      jump\t// in\n    tag_423:\n        /* \"#utility.yul\":10768:10841   */\n      swap3\n      pop\n        /* \"#utility.yul\":10563:10851   */\n      pop\n        /* \"#utility.yul\":10890:10892   */\n      0x40\n        /* \"#utility.yul\":10916:10969   */\n      tag_424\n        /* \"#utility.yul\":10961:10968   */\n      dup7\n        /* \"#utility.yul\":10952:10958   */\n      dup3\n        /* \"#utility.yul\":10941:10950   */\n      dup8\n        /* \"#utility.yul\":10937:10959   */\n      add\n        /* \"#utility.yul\":10916:10969   */\n      tag_249\n      jump\t// in\n    tag_424:\n        /* \"#utility.yul\":10906:10969   */\n      swap2\n      pop\n        /* \"#utility.yul\":10861:10979   */\n      pop\n        /* \"#utility.yul\":10007:10986   */\n      swap3\n      pop\n      swap3\n      pop\n      swap3\n      jump\t// out\n        /* \"#utility.yul\":10992:11112   */\n    tag_267:\n        /* \"#utility.yul\":11064:11087   */\n      tag_426\n        /* \"#utility.yul\":11081:11086   */\n      dup2\n        /* \"#utility.yul\":11064:11087   */\n      tag_264\n      jump\t// in\n    tag_426:\n        /* \"#utility.yul\":11057:11062   */\n      dup2\n        /* \"#utility.yul\":11054:11088   */\n      eq\n        /* \"#utility.yul\":11044:11106   */\n      tag_427\n      jumpi\n        /* \"#utility.yul\":11102:11103   */\n      0x00\n        /* \"#utility.yul\":11099:11100   */\n      dup1\n        /* \"#utility.yul\":11092:11104   */\n      revert\n        /* \"#utility.yul\":11044:11106   */\n    tag_427:\n        /* \"#utility.yul\":10992:11112   */\n      pop\n      jump\t// out\n        /* \"#utility.yul\":11118:11255   */\n    tag_268:\n        /* \"#utility.yul\":11163:11168   */\n      0x00\n        /* \"#utility.yul\":11201:11207   */\n      dup2\n        /* \"#utility.yul\":11188:11208   */\n      calldataload\n        /* \"#utility.yul\":11179:11208   */\n      swap1\n      pop\n        /* \"#utility.yul\":11217:11249   */\n      tag_429\n        /* \"#utility.yul\":11243:11248   */\n      dup2\n        /* \"#utility.yul\":11217:11249   */\n      tag_267\n      jump\t// in\n    tag_429:\n        /* \"#utility.yul\":11118:11255   */\n      swap3\n      swap2\n      pop\n      pop\n      jump\t// out\n        /* \"#utility.yul\":11261:11588   */\n    tag_85:\n        /* \"#utility.yul\":11319:11325   */\n      0x00\n        /* \"#utility.yul\":11368:11370   */\n      0x20\n        /* \"#utility.yul\":11356:11365   */\n      dup3\n        /* \"#utility.yul\":11347:11354   */\n      dup5\n        /* \"#utility.yul\":11343:11366   */\n      sub\n        /* \"#utility.yul\":11339:11371   */\n      slt\n        /* \"#utility.yul\":11336:11455   */\n      iszero\n      tag_431\n      jumpi\n        /* \"#utility.yul\":11374:11453   */\n      tag_432\n      tag_234\n      jump\t// in\n    tag_432:\n        /* \"#utility.yul\":11336:11455   */\n    tag_431:\n        /* \"#utility.yul\":11494:11495   */\n      0x00\n        /* \"#utility.yul\":11519:11571   */\n      tag_433\n        /* \"#utility.yul\":11563:11570   */\n      dup5\n        /* \"#utility.yul\":11554:11560   */\n      dup3\n        /* \"#utility.yul\":11543:11552   */\n      dup6\n        /* \"#utility.yul\":11539:11561   */\n      add\n        /* \"#utility.yul\":11519:11571   */\n      tag_268\n      jump\t// in\n    tag_433:\n        /* \"#utility.yul\":11509:11571   */\n      swap2\n      pop\n        /* \"#utility.yul\":11465:11581   */\n      pop\n        /* \"#utility.yul\":11261:11588   */\n      swap3\n      swap2\n      pop\n      pop\n      jump\t// out\n        /* \"#utility.yul\":11594:11753   */\n    tag_269:\n        /* \"#utility.yul\":11668:11679   */\n      0x00\n        /* \"#utility.yul\":11702:11708   */\n      dup3\n        /* \"#utility.yul\":11697:11700   */\n      dup3\n        /* \"#utility.yul\":11690:11709   */\n      mstore\n        /* \"#utility.yul\":11742:11746   */\n      0x20\n        /* \"#utility.yul\":11737:11740   */\n      dup3\n        /* \"#utility.yul\":11733:11747   */\n      add\n        /* \"#utility.yul\":11718:11747   */\n      swap1\n      pop\n        /* \"#utility.yul\":11594:11753   */\n      swap3\n      swap2\n      pop\n      pop\n      jump\t// out\n        /* \"#utility.yul\":11759:12116   */\n    tag_270:\n        /* \"#utility.yul\":11837:11840   */\n      0x00\n        /* \"#utility.yul\":11865:11904   */\n      tag_436\n        /* \"#utility.yul\":11898:11903   */\n      dup3\n        /* \"#utility.yul\":11865:11904   */\n      tag_252\n      jump\t// in\n    tag_436:\n        /* \"#utility.yul\":11920:11981   */\n      tag_437\n        /* \"#utility.yul\":11974:11980   */\n      dup2\n        /* \"#utility.yul\":11969:11972   */\n      dup6\n        /* \"#utility.yul\":11920:11981   */\n      tag_269\n      jump\t// in\n    tag_437:\n        /* \"#utility.yul\":11913:11981   */\n      swap4\n      pop\n        /* \"#utility.yul\":11990:12055   */\n      tag_438\n        /* \"#utility.yul\":12048:12054   */\n      dup2\n        /* \"#utility.yul\":12043:12046   */\n      dup6\n        /* \"#utility.yul\":12036:12040   */\n      0x20\n        /* \"#utility.yul\":12029:12034   */\n      dup7\n        /* \"#utility.yul\":12025:12041   */\n      add\n        /* \"#utility.yul\":11990:12055   */\n      tag_254\n      jump\t// in\n    tag_438:\n        /* \"#utility.yul\":12080:12109   */\n      tag_439\n        /* \"#utility.yul\":12102:12108   */\n      dup2\n        /* \"#utility.yul\":12080:12109   */\n      tag_237\n      jump\t// in\n    tag_439:\n        /* \"#utility.yul\":12075:12078   */\n      dup5\n        /* \"#utility.yul\":12071:12110   */\n      add\n        /* \"#utility.yul\":12064:12110   */\n      swap2\n      pop\n        /* \"#utility.yul\":11841:12116   */\n      pop\n        /* \"#utility.yul\":11759:12116   */\n      swap3\n      swap2\n      pop\n      pop\n      jump\t// out\n        /* \"#utility.yul\":12122:12230   */\n    tag_271:\n        /* \"#utility.yul\":12199:12223   */\n      tag_441\n        /* \"#utility.yul\":12217:12222   */\n      dup2\n        /* \"#utility.yul\":12199:12223   */\n      tag_247\n      jump\t// in\n    tag_441:\n        /* \"#utility.yul\":12194:12197   */\n      dup3\n        /* \"#utility.yul\":12187:12224   */\n      mstore\n        /* \"#utility.yul\":12122:12230   */\n      pop\n      pop\n      jump\t// out\n        /* \"#utility.yul\":12306:13159   */\n    tag_272:\n        /* \"#utility.yul\":12421:12424   */\n      0x00\n        /* \"#utility.yul\":12457:12461   */\n      0x60\n        /* \"#utility.yul\":12452:12455   */\n      dup4\n        /* \"#utility.yul\":12448:12462   */\n      add\n        /* \"#utility.yul\":12544:12548   */\n      0x00\n        /* \"#utility.yul\":12537:12542   */\n      dup4\n        /* \"#utility.yul\":12533:12549   */\n      add\n        /* \"#utility.yul\":12527:12550   */\n      mload\n        /* \"#utility.yul\":12597:12600   */\n      dup5\n        /* \"#utility.yul\":12591:12595   */\n      dup3\n        /* \"#utility.yul\":12587:12601   */\n      sub\n        /* \"#utility.yul\":12580:12584   */\n      0x00\n        /* \"#utility.yul\":12575:12578   */\n      dup7\n        /* \"#utility.yul\":12571:12585   */\n      add\n        /* \"#utility.yul\":12564:12602   */\n      mstore\n        /* \"#utility.yul\":12623:12696   */\n      tag_443\n        /* \"#utility.yul\":12691:12695   */\n      dup3\n        /* \"#utility.yul\":12677:12689   */\n      dup3\n        /* \"#utility.yul\":12623:12696   */\n      tag_270\n      jump\t// in\n    tag_443:\n        /* \"#utility.yul\":12615:12696   */\n      swap2\n      pop\n        /* \"#utility.yul\":12472:12707   */\n      pop\n        /* \"#utility.yul\":12792:12796   */\n      0x20\n        /* \"#utility.yul\":12785:12790   */\n      dup4\n        /* \"#utility.yul\":12781:12797   */\n      add\n        /* \"#utility.yul\":12775:12798   */\n      mload\n        /* \"#utility.yul\":12845:12848   */\n      dup5\n        /* \"#utility.yul\":12839:12843   */\n      dup3\n        /* \"#utility.yul\":12835:12849   */\n      sub\n        /* \"#utility.yul\":12828:12832   */\n      0x20\n        /* \"#utility.yul\":12823:12826   */\n      dup7\n        /* \"#utility.yul\":12819:12833   */\n      add\n        /* \"#utility.yul\":12812:12850   */\n      mstore\n        /* \"#utility.yul\":12871:12944   */\n      tag_444\n        /* \"#utility.yul\":12939:12943   */\n      dup3\n        /* \"#utility.yul\":12925:12937   */\n      dup3\n        /* \"#utility.yul\":12871:12944   */\n      tag_270\n      jump\t// in\n    tag_444:\n        /* \"#utility.yul\":12863:12944   */\n      swap2\n      pop\n        /* \"#utility.yul\":12717:12955   */\n      pop\n        /* \"#utility.yul\":13040:13044   */\n      0x40\n        /* \"#utility.yul\":13033:13038   */\n      dup4\n        /* \"#utility.yul\":13029:13045   */\n      add\n        /* \"#utility.yul\":13023:13046   */\n      mload\n        /* \"#utility.yul\":13059:13122   */\n      tag_445\n        /* \"#utility.yul\":13116:13120   */\n      0x40\n        /* \"#utility.yul\":13111:13114   */\n      dup7\n        /* \"#utility.yul\":13107:13121   */\n      add\n        /* \"#utility.yul\":13093:13105   */\n      dup3\n        /* \"#utility.yul\":13059:13122   */\n      tag_271\n      jump\t// in\n    tag_445:\n        /* \"#utility.yul\":12965:13132   */\n      pop\n        /* \"#utility.yul\":13149:13153   */\n      dup1\n        /* \"#utility.yul\":13142:13153   */\n      swap2\n      pop\n        /* \"#utility.yul\":12426:13159   */\n      pop\n        /* \"#utility.yul\":12306:13159   */\n      swap3\n      swap2\n      pop\n      pop\n      jump\t// out\n        /* \"#utility.yul\":13165:13530   */\n    tag_97:\n        /* \"#utility.yul\":13304:13308   */\n      0x00\n        /* \"#utility.yul\":13342:13344   */\n      0x20\n        /* \"#utility.yul\":13331:13340   */\n      dup3\n        /* \"#utility.yul\":13327:13345   */\n      add\n        /* \"#utility.yul\":13319:13345   */\n      swap1\n      pop\n        /* \"#utility.yul\":13391:13400   */\n      dup2\n        /* \"#utility.yul\":13385:13389   */\n      dup2\n        /* \"#utility.yul\":13381:13401   */\n      sub\n        /* \"#utility.yul\":13377:13378   */\n      0x00\n        /* \"#utility.yul\":13366:13375   */\n      dup4\n        /* \"#utility.yul\":13362:13379   */\n      add\n        /* \"#utility.yul\":13355:13402   */\n      mstore\n        /* \"#utility.yul\":13419:13523   */\n      tag_447\n        /* \"#utility.yul\":13518:13522   */\n      dup2\n        /* \"#utility.yul\":13509:13515   */\n      dup5\n        /* \"#utility.yul\":13419:13523   */\n      tag_272\n      jump\t// in\n    tag_447:\n        /* \"#utility.yul\":13411:13523   */\n      swap1\n      pop\n        /* \"#utility.yul\":13165:13530   */\n      swap3\n      swap2\n      pop\n      pop\n      jump\t// out\n        /* \"#utility.yul\":13536:14010   */\n    tag_100:\n        /* \"#utility.yul\":13604:13610   */\n      0x00\n        /* \"#utility.yul\":13612:13618   */\n      dup1\n        /* \"#utility.yul\":13661:13663   */\n      0x40\n        /* \"#utility.yul\":13649:13658   */\n      dup4\n        /* \"#utility.yul\":13640:13647   */\n      dup6\n        /* \"#utility.yul\":13636:13659   */\n      sub\n        /* \"#utility.yul\":13632:13664   */\n      slt\n        /* \"#utility.yul\":13629:13748   */\n      iszero\n      tag_449\n      jumpi\n        /* \"#utility.yul\":13667:13746   */\n      tag_450\n      tag_234\n      jump\t// in\n    tag_450:\n        /* \"#utility.yul\":13629:13748   */\n    tag_449:\n        /* \"#utility.yul\":13787:13788   */\n      0x00\n        /* \"#utility.yul\":13812:13865   */\n      tag_451\n        /* \"#utility.yul\":13857:13864   */\n      dup6\n        /* \"#utility.yul\":13848:13854   */\n      dup3\n        /* \"#utility.yul\":13837:13846   */\n      dup7\n        /* \"#utility.yul\":13833:13855   */\n      add\n        /* \"#utility.yul\":13812:13865   */\n      tag_263\n      jump\t// in\n    tag_451:\n        /* \"#utility.yul\":13802:13865   */\n      swap3\n      pop\n        /* \"#utility.yul\":13758:13875   */\n      pop\n        /* \"#utility.yul\":13914:13916   */\n      0x20\n        /* \"#utility.yul\":13940:13993   */\n      tag_452\n        /* \"#utility.yul\":13985:13992   */\n      dup6\n        /* \"#utility.yul\":13976:13982   */\n      dup3\n        /* \"#utility.yul\":13965:13974   */\n      dup7\n        /* \"#utility.yul\":13961:13983   */\n      add\n        /* \"#utility.yul\":13940:13993   */\n      tag_263\n      jump\t// in\n    tag_452:\n        /* \"#utility.yul\":13930:13993   */\n      swap2\n      pop\n        /* \"#utility.yul\":13885:14003   */\n      pop\n        /* \"#utility.yul\":13536:14010   */\n      swap3\n      pop\n      swap3\n      swap1\n      pop\n      jump\t// out\n        /* \"#utility.yul\":14016:14153   */\n    tag_273:\n        /* \"#utility.yul\":14106:14112   */\n      0x00\n        /* \"#utility.yul\":14140:14145   */\n      dup2\n        /* \"#utility.yul\":14134:14146   */\n      mload\n        /* \"#utility.yul\":14124:14146   */\n      swap1\n      pop\n        /* \"#utility.yul\":14016:14153   */\n      swap2\n      swap1\n      pop\n      jump\t// out\n        /* \"#utility.yul\":14159:14366   */\n    tag_274:\n        /* \"#utility.yul\":14281:14292   */\n      0x00\n        /* \"#utility.yul\":14315:14321   */\n      dup3\n        /* \"#utility.yul\":14310:14313   */\n      dup3\n        /* \"#utility.yul\":14303:14322   */\n      mstore\n        /* \"#utility.yul\":14355:14359   */\n      0x20\n        /* \"#utility.yul\":14350:14353   */\n      dup3\n        /* \"#utility.yul\":14346:14360   */\n      add\n        /* \"#utility.yul\":14331:14360   */\n      swap1\n      pop\n        /* \"#utility.yul\":14159:14366   */\n      swap3\n      swap2\n      pop\n      pop\n      jump\t// out\n        /* \"#utility.yul\":14372:14527   */\n    tag_275:\n        /* \"#utility.yul\":14462:14466   */\n      0x00\n        /* \"#utility.yul\":14485:14488   */\n      dup2\n        /* \"#utility.yul\":14477:14488   */\n      swap1\n      pop\n        /* \"#utility.yul\":14515:14519   */\n      0x20\n        /* \"#utility.yul\":14510:14513   */\n      dup3\n        /* \"#utility.yul\":14506:14520   */\n      add\n        /* \"#utility.yul\":14498:14520   */\n      swap1\n      pop\n        /* \"#utility.yul\":14372:14527   */\n      swap2\n      swap1\n      pop\n      jump\t// out\n        /* \"#utility.yul\":14603:15446   */\n    tag_276:\n        /* \"#utility.yul\":14708:14711   */\n      0x00\n        /* \"#utility.yul\":14744:14748   */\n      0x60\n        /* \"#utility.yul\":14739:14742   */\n      dup4\n        /* \"#utility.yul\":14735:14749   */\n      add\n        /* \"#utility.yul\":14831:14835   */\n      0x00\n        /* \"#utility.yul\":14824:14829   */\n      dup4\n        /* \"#utility.yul\":14820:14836   */\n      add\n        /* \"#utility.yul\":14814:14837   */\n      mload\n        /* \"#utility.yul\":14884:14887   */\n      dup5\n        /* \"#utility.yul\":14878:14882   */\n      dup3\n        /* \"#utility.yul\":14874:14888   */\n      sub\n        /* \"#utility.yul\":14867:14871   */\n      0x00\n        /* \"#utility.yul\":14862:14865   */\n      dup7\n        /* \"#utility.yul\":14858:14872   */\n      add\n        /* \"#utility.yul\":14851:14889   */\n      mstore\n        /* \"#utility.yul\":14910:14983   */\n      tag_457\n        /* \"#utility.yul\":14978:14982   */\n      dup3\n        /* \"#utility.yul\":14964:14976   */\n      dup3\n        /* \"#utility.yul\":14910:14983   */\n      tag_270\n      jump\t// in\n    tag_457:\n        /* \"#utility.yul\":14902:14983   */\n      swap2\n      pop\n        /* \"#utility.yul\":14759:14994   */\n      pop\n        /* \"#utility.yul\":15079:15083   */\n      0x20\n        /* \"#utility.yul\":15072:15077   */\n      dup4\n        /* \"#utility.yul\":15068:15084   */\n      add\n        /* \"#utility.yul\":15062:15085   */\n      mload\n        /* \"#utility.yul\":15132:15135   */\n      dup5\n        /* \"#utility.yul\":15126:15130   */\n      dup3\n        /* \"#utility.yul\":15122:15136   */\n      sub\n        /* \"#utility.yul\":15115:15119   */\n      0x20\n        /* \"#utility.yul\":15110:15113   */\n      dup7\n        /* \"#utility.yul\":15106:15120   */\n      add\n        /* \"#utility.yul\":15099:15137   */\n      mstore\n        /* \"#utility.yul\":15158:15231   */\n      tag_458\n        /* \"#utility.yul\":15226:15230   */\n      dup3\n        /* \"#utility.yul\":15212:15224   */\n      dup3\n        /* \"#utility.yul\":15158:15231   */\n      tag_270\n      jump\t// in\n    tag_458:\n        /* \"#utility.yul\":15150:15231   */\n      swap2\n      pop\n        /* \"#utility.yul\":15004:15242   */\n      pop\n        /* \"#utility.yul\":15327:15331   */\n      0x40\n        /* \"#utility.yul\":15320:15325   */\n      dup4\n        /* \"#utility.yul\":15316:15332   */\n      add\n        /* \"#utility.yul\":15310:15333   */\n      mload\n        /* \"#utility.yul\":15346:15409   */\n      tag_459\n        /* \"#utility.yul\":15403:15407   */\n      0x40\n        /* \"#utility.yul\":15398:15401   */\n      dup7\n        /* \"#utility.yul\":15394:15408   */\n      add\n        /* \"#utility.yul\":15380:15392   */\n      dup3\n        /* \"#utility.yul\":15346:15409   */\n      tag_271\n      jump\t// in\n    tag_459:\n        /* \"#utility.yul\":15252:15419   */\n      pop\n        /* \"#utility.yul\":15436:15440   */\n      dup1\n        /* \"#utility.yul\":15429:15440   */\n      swap2\n      pop\n        /* \"#utility.yul\":14713:15446   */\n      pop\n        /* \"#utility.yul\":14603:15446   */\n      swap3\n      swap2\n      pop\n      pop\n      jump\t// out\n        /* \"#utility.yul\":15452:15700   */\n    tag_277:\n        /* \"#utility.yul\":15567:15577   */\n      0x00\n        /* \"#utility.yul\":15602:15694   */\n      tag_461\n        /* \"#utility.yul\":15690:15693   */\n      dup4\n        /* \"#utility.yul\":15682:15688   */\n      dup4\n        /* \"#utility.yul\":15602:15694   */\n      tag_276\n      jump\t// in\n    tag_461:\n        /* \"#utility.yul\":15588:15694   */\n      swap1\n      pop\n        /* \"#utility.yul\":15452:15700   */\n      swap3\n      swap2\n      pop\n      pop\n      jump\t// out\n        /* \"#utility.yul\":15706:15842   */\n    tag_278:\n        /* \"#utility.yul\":15799:15803   */\n      0x00\n        /* \"#utility.yul\":15831:15835   */\n      0x20\n        /* \"#utility.yul\":15826:15829   */\n      dup3\n        /* \"#utility.yul\":15822:15836   */\n      add\n        /* \"#utility.yul\":15814:15836   */\n      swap1\n      pop\n        /* \"#utility.yul\":15706:15842   */\n      swap2\n      swap1\n      pop\n      jump\t// out\n        /* \"#utility.yul\":15922:17017   */\n    tag_279:\n        /* \"#utility.yul\":16087:16090   */\n      0x00\n        /* \"#utility.yul\":16116:16193   */\n      tag_464\n        /* \"#utility.yul\":16187:16192   */\n      dup3\n        /* \"#utility.yul\":16116:16193   */\n      tag_273\n      jump\t// in\n    tag_464:\n        /* \"#utility.yul\":16209:16318   */\n      tag_465\n        /* \"#utility.yul\":16311:16317   */\n      dup2\n        /* \"#utility.yul\":16306:16309   */\n      dup6\n        /* \"#utility.yul\":16209:16318   */\n      tag_274\n      jump\t// in\n    tag_465:\n        /* \"#utility.yul\":16202:16318   */\n      swap4\n      pop\n        /* \"#utility.yul\":16344:16347   */\n      dup4\n        /* \"#utility.yul\":16389:16393   */\n      0x20\n        /* \"#utility.yul\":16381:16387   */\n      dup3\n        /* \"#utility.yul\":16377:16394   */\n      mul\n        /* \"#utility.yul\":16372:16375   */\n      dup6\n        /* \"#utility.yul\":16368:16395   */\n      add\n        /* \"#utility.yul\":16419:16498   */\n      tag_466\n        /* \"#utility.yul\":16492:16497   */\n      dup6\n        /* \"#utility.yul\":16419:16498   */\n      tag_275\n      jump\t// in\n    tag_466:\n        /* \"#utility.yul\":16521:16528   */\n      dup1\n        /* \"#utility.yul\":16552:16553   */\n      0x00\n        /* \"#utility.yul\":16537:16972   */\n    tag_467:\n        /* \"#utility.yul\":16562:16568   */\n      dup6\n        /* \"#utility.yul\":16559:16560   */\n      dup2\n        /* \"#utility.yul\":16556:16569   */\n      lt\n        /* \"#utility.yul\":16537:16972   */\n      iszero\n      tag_469\n      jumpi\n        /* \"#utility.yul\":16633:16642   */\n      dup5\n        /* \"#utility.yul\":16627:16631   */\n      dup5\n        /* \"#utility.yul\":16623:16643   */\n      sub\n        /* \"#utility.yul\":16618:16621   */\n      dup10\n        /* \"#utility.yul\":16611:16644   */\n      mstore\n        /* \"#utility.yul\":16684:16690   */\n      dup2\n        /* \"#utility.yul\":16678:16691   */\n      mload\n        /* \"#utility.yul\":16712:16822   */\n      tag_470\n        /* \"#utility.yul\":16817:16821   */\n      dup6\n        /* \"#utility.yul\":16802:16815   */\n      dup3\n        /* \"#utility.yul\":16712:16822   */\n      tag_277\n      jump\t// in\n    tag_470:\n        /* \"#utility.yul\":16704:16822   */\n      swap5\n      pop\n        /* \"#utility.yul\":16845:16928   */\n      tag_471\n        /* \"#utility.yul\":16921:16927   */\n      dup4\n        /* \"#utility.yul\":16845:16928   */\n      tag_278\n      jump\t// in\n    tag_471:\n        /* \"#utility.yul\":16835:16928   */\n      swap3\n      pop\n        /* \"#utility.yul\":16957:16961   */\n      0x20\n        /* \"#utility.yul\":16952:16955   */\n      dup11\n        /* \"#utility.yul\":16948:16962   */\n      add\n        /* \"#utility.yul\":16941:16962   */\n      swap10\n      pop\n        /* \"#utility.yul\":16597:16972   */\n      pop\n        /* \"#utility.yul\":16584:16585   */\n      0x01\n        /* \"#utility.yul\":16581:16582   */\n      dup2\n        /* \"#utility.yul\":16577:16586   */\n      add\n        /* \"#utility.yul\":16572:16586   */\n      swap1\n      pop\n        /* \"#utility.yul\":16537:16972   */\n      jump(tag_467)\n    tag_469:\n        /* \"#utility.yul\":16541:16555   */\n      pop\n        /* \"#utility.yul\":16988:16992   */\n      dup3\n        /* \"#utility.yul\":16981:16992   */\n      swap8\n      pop\n        /* \"#utility.yul\":17008:17011   */\n      dup8\n        /* \"#utility.yul\":17001:17011   */\n      swap6\n      pop\n        /* \"#utility.yul\":16092:17017   */\n      pop\n      pop\n      pop\n      pop\n      pop\n        /* \"#utility.yul\":15922:17017   */\n      swap3\n      swap2\n      pop\n      pop\n      jump\t// out\n        /* \"#utility.yul\":17023:17488   */\n    tag_106:\n        /* \"#utility.yul\":17212:17216   */\n      0x00\n        /* \"#utility.yul\":17250:17252   */\n      0x20\n        /* \"#utility.yul\":17239:17248   */\n      dup3\n        /* \"#utility.yul\":17235:17253   */\n      add\n        /* \"#utility.yul\":17227:17253   */\n      swap1\n      pop\n        /* \"#utility.yul\":17299:17308   */\n      dup2\n        /* \"#utility.yul\":17293:17297   */\n      dup2\n        /* \"#utility.yul\":17289:17309   */\n      sub\n        /* \"#utility.yul\":17285:17286   */\n      0x00\n        /* \"#utility.yul\":17274:17283   */\n      dup4\n        /* \"#utility.yul\":17270:17287   */\n      add\n        /* \"#utility.yul\":17263:17310   */\n      mstore\n        /* \"#utility.yul\":17327:17481   */\n      tag_473\n        /* \"#utility.yul\":17476:17480   */\n      dup2\n        /* \"#utility.yul\":17467:17473   */\n      dup5\n        /* \"#utility.yul\":17327:17481   */\n      tag_279\n      jump\t// in\n    tag_473:\n        /* \"#utility.yul\":17319:17481   */\n      swap1\n      pop\n        /* \"#utility.yul\":17023:17488   */\n      swap3\n      swap2\n      pop\n      pop\n      jump\t// out\n        /* \"#utility.yul\":17494:17674   */\n    tag_280:\n        /* \"#utility.yul\":17542:17619   */\n      0x4e487b7100000000000000000000000000000000000000000000000000000000\n        /* \"#utility.yul\":17539:17540   */\n      0x00\n        /* \"#utility.yul\":17532:17620   */\n      mstore\n        /* \"#utility.yul\":17639:17643   */\n      0x22\n        /* \"#utility.yul\":17636:17637   */\n      0x04\n        /* \"#utility.yul\":17629:17644   */\n      mstore\n        /* \"#utility.yul\":17663:17667   */\n      0x24\n        /* \"#utility.yul\":17660:17661   */\n      0x00\n        /* \"#utility.yul\":17653:17668   */\n      revert\n        /* \"#utility.yul\":17680:18000   */\n    tag_122:\n        /* \"#utility.yul\":17724:17730   */\n      0x00\n        /* \"#utility.yul\":17761:17762   */\n      0x02\n        /* \"#utility.yul\":17755:17759   */\n      dup3\n        /* \"#utility.yul\":17751:17763   */\n      div\n        /* \"#utility.yul\":17741:17763   */\n      swap1\n      pop\n        /* \"#utility.yul\":17808:17809   */\n      0x01\n        /* \"#utility.yul\":17802:17806   */\n      dup3\n        /* \"#utility.yul\":17798:17810   */\n      and\n        /* \"#utility.yul\":17829:17847   */\n      dup1\n        /* \"#utility.yul\":17819:17900   */\n      tag_476\n      jumpi\n        /* \"#utility.yul\":17885:17889   */\n      0x7f\n        /* \"#utility.yul\":17877:17883   */\n      dup3\n        /* \"#utility.yul\":17873:17890   */\n      and\n        /* \"#utility.yul\":17863:17890   */\n      swap2\n      pop\n        /* \"#utility.yul\":17819:17900   */\n    tag_476:\n        /* \"#utility.yul\":17947:17949   */\n      0x20\n        /* \"#utility.yul\":17939:17945   */\n      dup3\n        /* \"#utility.yul\":17936:17950   */\n      lt\n        /* \"#utility.yul\":17916:17934   */\n      dup2\n        /* \"#utility.yul\":17913:17951   */\n      sub\n        /* \"#utility.yul\":17910:17994   */\n      tag_477\n      jumpi\n        /* \"#utility.yul\":17966:17984   */\n      tag_478\n      tag_280\n      jump\t// in\n    tag_478:\n        /* \"#utility.yul\":17910:17994   */\n    tag_477:\n        /* \"#utility.yul\":17731:18000   */\n      pop\n        /* \"#utility.yul\":17680:18000   */\n      swap2\n      swap1\n      pop\n      jump\t// out\n        /* \"#utility.yul\":18006:18147   */\n    tag_281:\n        /* \"#utility.yul\":18055:18059   */\n      0x00\n        /* \"#utility.yul\":18078:18081   */\n      dup2\n        /* \"#utility.yul\":18070:18081   */\n      swap1\n      pop\n        /* \"#utility.yul\":18101:18104   */\n      dup2\n        /* \"#utility.yul\":18098:18099   */\n      0x00\n        /* \"#utility.yul\":18091:18105   */\n      mstore\n        /* \"#utility.yul\":18135:18139   */\n      0x20\n        /* \"#utility.yul\":18132:18133   */\n      0x00\n        /* \"#utility.yul\":18122:18140   */\n      keccak256\n        /* \"#utility.yul\":18114:18140   */\n      swap1\n      pop\n        /* \"#utility.yul\":18006:18147   */\n      swap2\n      swap1\n      pop\n      jump\t// out\n        /* \"#utility.yul\":18153:18246   */\n    tag_282:\n        /* \"#utility.yul\":18190:18196   */\n      0x00\n        /* \"#utility.yul\":18237:18239   */\n      0x20\n        /* \"#utility.yul\":18232:18234   */\n      0x1f\n        /* \"#utility.yul\":18225:18230   */\n      dup4\n        /* \"#utility.yul\":18221:18235   */\n      add\n        /* \"#utility.yul\":18217:18240   */\n      div\n        /* \"#utility.yul\":18207:18240   */\n      swap1\n      pop\n        /* \"#utility.yul\":18153:18246   */\n      swap2\n      swap1\n      pop\n      jump\t// out\n        /* \"#utility.yul\":18252:18359   */\n    tag_283:\n        /* \"#utility.yul\":18296:18304   */\n      0x00\n        /* \"#utility.yul\":18346:18351   */\n      dup3\n        /* \"#utility.yul\":18340:18344   */\n      dup3\n        /* \"#utility.yul\":18336:18352   */\n      shl\n        /* \"#utility.yul\":18315:18352   */\n      swap1\n      pop\n        /* \"#utility.yul\":18252:18359   */\n      swap3\n      swap2\n      pop\n      pop\n      jump\t// out\n        /* \"#utility.yul\":18365:18758   */\n    tag_284:\n        /* \"#utility.yul\":18434:18440   */\n      0x00\n        /* \"#utility.yul\":18484:18485   */\n      0x08\n        /* \"#utility.yul\":18472:18482   */\n      dup4\n        /* \"#utility.yul\":18468:18486   */\n      mul\n        /* \"#utility.yul\":18507:18604   */\n      tag_483\n        /* \"#utility.yul\":18537:18603   */\n      0xffffffffffffffffffffffffffffffffffffffffffffffffffffffffffffffff\n        /* \"#utility.yul\":18526:18535   */\n      dup3\n        /* \"#utility.yul\":18507:18604   */\n      tag_283\n      jump\t// in\n    tag_483:\n        /* \"#utility.yul\":18625:18664   */\n      tag_484\n        /* \"#utility.yul\":18655:18663   */\n      dup7\n        /* \"#utility.yul\":18644:18653   */\n      dup4\n        /* \"#utility.yul\":18625:18664   */\n      tag_283\n      jump\t// in\n    tag_484:\n        /* \"#utility.yul\":18613:18664   */\n      swap6\n      pop\n        /* \"#utility.yul\":18697:18701   */\n      dup1\n        /* \"#utility.yul\":18693:18702   */\n      not\n        /* \"#utility.yul\":18686:18691   */\n      dup5\n        /* \"#utility.yul\":18682:18703   */\n      and\n        /* \"#utility.yul\":18673:18703   */\n      swap4\n      pop\n        /* \"#utility.yul\":18746:18750   */\n      dup1\n        /* \"#utility.yul\":18736:18744   */\n      dup7\n        /* \"#utility.yul\":18732:18751   */\n      and\n        /* \"#utility.yul\":18725:18730   */\n      dup5\n        /* \"#utility.yul\":18722:18752   */\n      or\n        /* \"#utility.yul\":18712:18752   */\n      swap3\n      pop\n        /* \"#utility.yul\":18441:18758   */\n      pop\n      pop\n        /* \"#utility.yul\":18365:18758   */\n      swap4\n      swap3\n      pop\n      pop\n      pop\n      jump\t// out\n        /* \"#utility.yul\":18764:18824   */\n    tag_285:\n        /* \"#utility.yul\":18792:18795   */\n      0x00\n        /* \"#utility.yul\":18813:18818   */\n      dup2\n        /* \"#utility.yul\":18806:18818   */\n      swap1\n      pop\n        /* \"#utility.yul\":18764:18824   */\n      swap2\n      swap1\n      pop\n      jump\t// out\n        /* \"#utility.yul\":18830:18972   */\n    tag_286:\n        /* \"#utility.yul\":18880:18889   */\n      0x00\n        /* \"#utility.yul\":18913:18966   */\n      tag_487\n        /* \"#utility.yul\":18931:18965   */\n      tag_488\n        /* \"#utility.yul\":18940:18964   */\n      tag_489\n        /* \"#utility.yul\":18958:18963   */\n      dup5\n        /* \"#utility.yul\":18940:18964   */\n      tag_247\n      jump\t// in\n    tag_489:\n        /* \"#utility.yul\":18931:18965   */\n      tag_285\n      jump\t// in\n    tag_488:\n        /* \"#utility.yul\":18913:18966   */\n      tag_247\n      jump\t// in\n    tag_487:\n        /* \"#utility.yul\":18900:18966   */\n      swap1\n      pop\n        /* \"#utility.yul\":18830:18972   */\n      swap2\n      swap1\n      pop\n      jump\t// out\n        /* \"#utility.yul\":18978:19053   */\n    tag_287:\n        /* \"#utility.yul\":19021:19024   */\n      0x00\n        /* \"#utility.yul\":19042:19047   */\n      dup2\n        /* \"#utility.yul\":19035:19047   */\n      swap1\n      pop\n        /* \"#utility.yul\":18978:19053   */\n      swap2\n      swap1\n      pop\n      jump\t// out\n        /* \"#utility.yul\":19059:19328   */\n    tag_288:\n        /* \"#utility.yul\":19169:19208   */\n      tag_492\n        /* \"#utility.yul\":19200:19207   */\n      dup4\n        /* \"#utility.yul\":19169:19208   */\n      tag_286\n      jump\t// in\n    tag_492:\n        /* \"#utility.yul\":19230:19321   */\n      tag_493\n        /* \"#utility.yul\":19279:19320   */\n      tag_494\n        /* \"#utility.yul\":19303:19319   */\n      dup3\n        /* \"#utility.yul\":19279:19320   */\n      tag_287\n      jump\t// in\n    tag_494:\n        /* \"#utility.yul\":19271:19277   */\n      dup5\n        /* \"#utility.yul\":19264:19268   */\n      dup5\n        /* \"#utility.yul\":19258:19269   */\n      sload\n        /* \"#utility.yul\":19230:19321   */\n      tag_284\n      jump\t// in\n    tag_493:\n        /* \"#utility.yul\":19224:19228   */\n      dup3\n        /* \"#utility.yul\":19217:19322   */\n      sstore\n        /* \"#utility.yul\":19135:19328   */\n      pop\n        /* \"#utility.yul\":19059:19328   */\n      pop\n      pop\n      pop\n      jump\t// out\n        /* \"#utility.yul\":19334:19407   */\n    tag_289:\n        /* \"#utility.yul\":19379:19382   */\n      0x00\n        /* \"#utility.yul\":19334:19407   */\n      swap1\n      jump\t// out\n        /* \"#utility.yul\":19413:19602   */\n    tag_290:\n        /* \"#utility.yul\":19490:19522   */\n      tag_497\n      tag_289\n      jump\t// in\n    tag_497:\n        /* \"#utility.yul\":19531:19596   */\n      tag_498\n        /* \"#utility.yul\":19589:19595   */\n      dup2\n        /* \"#utility.yul\":19581:19587   */\n      dup5\n        /* \"#utility.yul\":19575:19579   */\n      dup5\n        /* \"#utility.yul\":19531:19596   */\n      tag_288\n      jump\t// in\n    tag_498:\n        /* \"#utility.yul\":19466:19602   */\n      pop\n        /* \"#utility.yul\":19413:19602   */\n      pop\n      pop\n      jump\t// out\n        /* \"#utility.yul\":19608:19794   */\n    tag_291:\n        /* \"#utility.yul\":19668:19788   */\n    tag_500:\n        /* \"#utility.yul\":19685:19688   */\n      dup2\n        /* \"#utility.yul\":19678:19683   */\n      dup2\n        /* \"#utility.yul\":19675:19689   */\n      lt\n        /* \"#utility.yul\":19668:19788   */\n      iszero\n      tag_502\n      jumpi\n        /* \"#utility.yul\":19739:19778   */\n      tag_503\n        /* \"#utility.yul\":19776:19777   */\n      0x00\n        /* \"#utility.yul\":19769:19774   */\n      dup3\n        /* \"#utility.yul\":19739:19778   */\n      tag_290\n      jump\t// in\n    tag_503:\n        /* \"#utility.yul\":19712:19713   */\n      0x01\n        /* \"#utility.yul\":19705:19710   */\n      dup2\n        /* \"#utility.yul\":19701:19714   */\n      add\n        /* \"#utility.yul\":19692:19714   */\n      swap1\n      pop\n        /* \"#utility.yul\":19668:19788   */\n      jump(tag_500)\n    tag_502:\n        /* \"#utility.yul\":19608:19794   */\n      pop\n      pop\n      jump\t// out\n        /* \"#utility.yul\":19800:20343   */\n    tag_292:\n        /* \"#utility.yul\":19901:19903   */\n      0x1f\n        /* \"#utility.yul\":19896:19899   */\n      dup3\n        /* \"#utility.yul\":19893:19904   */\n      gt\n        /* \"#utility.yul\":19890:20336   */\n      iszero\n      tag_505\n      jumpi\n        /* \"#utility.yul\":19935:19973   */\n      tag_506\n        /* \"#utility.yul\":19967:19972   */\n      dup2\n        /* \"#utility.yul\":19935:19973   */\n      tag_281\n      jump\t// in\n    tag_506:\n        /* \"#utility.yul\":20019:20048   */\n      tag_507\n        /* \"#utility.yul\":20037:20047   */\n      dup5\n        /* \"#utility.yul\":20019:20048   */\n      tag_282\n      jump\t// in\n    tag_507:\n        /* \"#utility.yul\":20009:20017   */\n      dup2\n        /* \"#utility.yul\":20005:20049   */\n      add\n        /* \"#utility.yul\":20202:20204   */\n      0x20\n        /* \"#utility.yul\":20190:20200   */\n      dup6\n        /* \"#utility.yul\":20187:20205   */\n      lt\n        /* \"#utility.yul\":20184:20233   */\n      iszero\n      tag_508\n      jumpi\n        /* \"#utility.yul\":20223:20231   */\n      dup2\n        /* \"#utility.yul\":20208:20231   */\n      swap1\n      pop\n        /* \"#utility.yul\":20184:20233   */\n    tag_508:\n        /* \"#utility.yul\":20246:20326   */\n      tag_509\n        /* \"#utility.yul\":20302:20324   */\n      tag_510\n        /* \"#utility.yul\":20320:20323   */\n      dup6\n        /* \"#utility.yul\":20302:20324   */\n      tag_282\n      jump\t// in\n    tag_510:\n        /* \"#utility.yul\":20292:20300   */\n      dup4\n        /* \"#utility.yul\":20288:20325   */\n      add\n        /* \"#utility.yul\":20275:20286   */\n      dup3\n        /* \"#utility.yul\":20246:20326   */\n      tag_291\n      jump\t// in\n    tag_509:\n        /* \"#utility.yul\":19905:20336   */\n      pop\n      pop\n        /* \"#utility.yul\":19890:20336   */\n    tag_505:\n        /* \"#utility.yul\":19800:20343   */\n      pop\n      pop\n      pop\n      jump\t// out\n        /* \"#utility.yul\":20349:20466   */\n    tag_293:\n        /* \"#utility.yul\":20403:20411   */\n      0x00\n        /* \"#utility.yul\":20453:20458   */\n      dup3\n        /* \"#utility.yul\":20447:20451   */\n      dup3\n        /* \"#utility.yul\":20443:20459   */\n      shr\n        /* \"#utility.yul\":20422:20459   */\n      swap1\n      pop\n        /* \"#utility.yul\":20349:20466   */\n      swap3\n      swap2\n      pop\n      pop\n      jump\t// out\n        /* \"#utility.yul\":20472:20641   */\n    tag_294:\n        /* \"#utility.yul\":20516:20522   */\n      0x00\n        /* \"#utility.yul\":20549:20600   */\n      tag_513\n        /* \"#utility.yul\":20597:20598   */\n      0x00\n        /* \"#utility.yul\":20593:20599   */\n      not\n        /* \"#utility.yul\":20585:20590   */\n      dup5\n        /* \"#utility.yul\":20582:20583   */\n      0x08\n        /* \"#utility.yul\":20578:20591   */\n      mul\n        /* \"#utility.yul\":20549:20600   */\n      tag_293\n      jump\t// in\n    tag_513:\n        /* \"#utility.yul\":20545:20601   */\n      not\n        /* \"#utility.yul\":20630:20634   */\n      dup1\n        /* \"#utility.yul\":20624:20628   */\n      dup4\n        /* \"#utility.yul\":20620:20635   */\n      and\n        /* \"#utility.yul\":20610:20635   */\n      swap2\n      pop\n        /* \"#utility.yul\":20523:20641   */\n      pop\n        /* \"#utility.yul\":20472:20641   */\n      swap3\n      swap2\n      pop\n      pop\n      jump\t// out\n        /* \"#utility.yul\":20646:20941   */\n    tag_295:\n        /* \"#utility.yul\":20722:20726   */\n      0x00\n        /* \"#utility.yul\":20868:20897   */\n      tag_515\n        /* \"#utility.yul\":20893:20896   */\n      dup4\n        /* \"#utility.yul\":20887:20891   */\n      dup4\n        /* \"#utility.yul\":20868:20897   */\n      tag_294\n      jump\t// in\n    tag_515:\n        /* \"#utility.yul\":20860:20897   */\n      swap2\n      pop\n        /* \"#utility.yul\":20930:20933   */\n      dup3\n        /* \"#utility.yul\":20927:20928   */\n      0x02\n        /* \"#utility.yul\":20923:20934   */\n      mul\n        /* \"#utility.yul\":20917:20921   */\n      dup3\n        /* \"#utility.yul\":20914:20935   */\n      or\n        /* \"#utility.yul\":20906:20935   */\n      swap1\n      pop\n        /* \"#utility.yul\":20646:20941   */\n      swap3\n      swap2\n      pop\n      pop\n      jump\t// out\n        /* \"#utility.yul\":20946:22341   */\n    tag_117:\n        /* \"#utility.yul\":21063:21100   */\n      tag_517\n        /* \"#utility.yul\":21096:21099   */\n      dup3\n        /* \"#utility.yul\":21063:21100   */\n      tag_252\n      jump\t// in\n    tag_517:\n        /* \"#utility.yul\":21165:21183   */\n      0xffffffffffffffff\n        /* \"#utility.yul\":21157:21163   */\n      dup2\n        /* \"#utility.yul\":21154:21184   */\n      gt\n        /* \"#utility.yul\":21151:21207   */\n      iszero\n      tag_518\n      jumpi\n        /* \"#utility.yul\":21187:21205   */\n      tag_519\n      tag_198\n      jump\t// in\n    tag_519:\n        /* \"#utility.yul\":21151:21207   */\n    tag_518:\n        /* \"#utility.yul\":21231:21269   */\n      tag_520\n        /* \"#utility.yul\":21263:21267   */\n      dup3\n        /* \"#utility.yul\":21257:21268   */\n      sload\n        /* \"#utility.yul\":21231:21269   */\n      tag_122\n      jump\t// in\n    tag_520:\n        /* \"#utility.yul\":21316:21383   */\n      tag_521\n        /* \"#utility.yul\":21376:21382   */\n      dup3\n        /* \"#utility.yul\":21368:21374   */\n      dup3\n        /* \"#utility.yul\":21362:21366   */\n      dup6\n        /* \"#utility.yul\":21316:21383   */\n      tag_292\n      jump\t// in\n    tag_521:\n        /* \"#utility.yul\":21410:21411   */\n      0x00\n        /* \"#utility.yul\":21434:21438   */\n      0x20\n        /* \"#utility.yul\":21421:21438   */\n      swap1\n      pop\n        /* \"#utility.yul\":21466:21468   */\n      0x1f\n        /* \"#utility.yul\":21458:21464   */\n      dup4\n        /* \"#utility.yul\":21455:21469   */\n      gt\n        /* \"#utility.yul\":21483:21484   */\n      0x01\n        /* \"#utility.yul\":21478:22096   */\n      dup2\n      eq\n      tag_523\n      jumpi\n        /* \"#utility.yul\":22140:22141   */\n      0x00\n        /* \"#utility.yul\":22157:22163   */\n      dup5\n        /* \"#utility.yul\":22154:22231   */\n      iszero\n      tag_524\n      jumpi\n        /* \"#utility.yul\":22206:22215   */\n      dup3\n        /* \"#utility.yul\":22201:22204   */\n      dup8\n        /* \"#utility.yul\":22197:22216   */\n      add\n        /* \"#utility.yul\":22191:22217   */\n      mload\n        /* \"#utility.yul\":22182:22217   */\n      swap1\n      pop\n        /* \"#utility.yul\":22154:22231   */\n    tag_524:\n        /* \"#utility.yul\":22257:22324   */\n      tag_525\n        /* \"#utility.yul\":22317:22323   */\n      dup6\n        /* \"#utility.yul\":22310:22315   */\n      dup3\n        /* \"#utility.yul\":22257:22324   */\n      tag_295\n      jump\t// in\n    tag_525:\n        /* \"#utility.yul\":22251:22255   */\n      dup7\n        /* \"#utility.yul\":22244:22325   */\n      sstore\n        /* \"#utility.yul\":22113:22335   */\n      pop\n        /* \"#utility.yul\":21448:22335   */\n      jump(tag_522)\n        /* \"#utility.yul\":21478:22096   */\n    tag_523:\n        /* \"#utility.yul\":21530:21534   */\n      0x1f\n        /* \"#utility.yul\":21526:21535   */\n      not\n        /* \"#utility.yul\":21518:21524   */\n      dup5\n        /* \"#utility.yul\":21514:21536   */\n      and\n        /* \"#utility.yul\":21564:21601   */\n      tag_526\n        /* \"#utility.yul\":21596:21600   */\n      dup7\n        /* \"#utility.yul\":21564:21601   */\n      tag_281\n      jump\t// in\n    tag_526:\n        /* \"#utility.yul\":21623:21624   */\n      0x00\n        /* \"#utility.yul\":21637:21845   */\n    tag_527:\n        /* \"#utility.yul\":21651:21658   */\n      dup3\n        /* \"#utility.yul\":21648:21649   */\n      dup2\n        /* \"#utility.yul\":21645:21659   */\n      lt\n        /* \"#utility.yul\":21637:21845   */\n      iszero\n      tag_529\n      jumpi\n        /* \"#utility.yul\":21730:21739   */\n      dup5\n        /* \"#utility.yul\":21725:21728   */\n      dup10\n        /* \"#utility.yul\":21721:21740   */\n      add\n        /* \"#utility.yul\":21715:21741   */\n      mload\n        /* \"#utility.yul\":21707:21713   */\n      dup3\n        /* \"#utility.yul\":21700:21742   */\n      sstore\n        /* \"#utility.yul\":21781:21782   */\n      0x01\n        /* \"#utility.yul\":21773:21779   */\n      dup3\n        /* \"#utility.yul\":21769:21783   */\n      add\n        /* \"#utility.yul\":21759:21783   */\n      swap2\n      pop\n        /* \"#utility.yul\":21828:21830   */\n      0x20\n        /* \"#utility.yul\":21817:21826   */\n      dup6\n        /* \"#utility.yul\":21813:21831   */\n      add\n        /* \"#utility.yul\":21800:21831   */\n      swap5\n      pop\n        /* \"#utility.yul\":21674:21678   */\n      0x20\n        /* \"#utility.yul\":21671:21672   */\n      dup2\n        /* \"#utility.yul\":21667:21679   */\n      add\n        /* \"#utility.yul\":21662:21679   */\n      swap1\n      pop\n        /* \"#utility.yul\":21637:21845   */\n      jump(tag_527)\n    tag_529:\n        /* \"#utility.yul\":21873:21879   */\n      dup7\n        /* \"#utility.yul\":21864:21871   */\n      dup4\n        /* \"#utility.yul\":21861:21880   */\n      lt\n        /* \"#utility.yul\":21858:22037   */\n      iszero\n      tag_530\n      jumpi\n        /* \"#utility.yul\":21931:21940   */\n      dup5\n        /* \"#utility.yul\":21926:21929   */\n      dup10\n        /* \"#utility.yul\":21922:21941   */\n      add\n        /* \"#utility.yul\":21916:21942   */\n      mload\n        /* \"#utility.yul\":21974:22022   */\n      tag_531\n        /* \"#utility.yul\":22016:22020   */\n      0x1f\n        /* \"#utility.yul\":22008:22014   */\n      dup10\n        /* \"#utility.yul\":22004:22021   */\n      and\n        /* \"#utility.yul\":21993:22002   */\n      dup3\n        /* \"#utility.yul\":21974:22022   */\n      tag_294\n      jump\t// in\n    tag_531:\n        /* \"#utility.yul\":21966:21972   */\n      dup4\n        /* \"#utility.yul\":21959:22023   */\n      sstore\n        /* \"#utility.yul\":21881:22037   */\n      pop\n        /* \"#utility.yul\":21858:22037   */\n    tag_530:\n        /* \"#utility.yul\":22083:22084   */\n      0x01\n        /* \"#utility.yul\":22079:22080   */\n      0x02\n        /* \"#utility.yul\":22071:22077   */\n      dup9\n        /* \"#utility.yul\":22067:22081   */\n      mul\n        /* \"#utility.yul\":22063:22085   */\n      add\n        /* \"#utility.yul\":22057:22061   */\n      dup9\n        /* \"#utility.yul\":22050:22086   */\n      sstore\n        /* \"#utility.yul\":21485:22096   */\n      pop\n      pop\n      pop\n        /* \"#utility.yul\":21448:22335   */\n    tag_522:\n      pop\n        /* \"#utility.yul\":21038:22341   */\n      pop\n      pop\n      pop\n        /* \"#utility.yul\":20946:22341   */\n      pop\n      pop\n      jump\t// out\n        /* \"#utility.yul\":22347:22508   */\n    tag_296:\n        /* \"#utility.yul\":22487:22500   */\n      0x486173206e6f20736c6f74000000000000000000000000000000000000000000\n        /* \"#utility.yul\":22483:22484   */\n      0x00\n        /* \"#utility.yul\":22475:22481   */\n      dup3\n        /* \"#utility.yul\":22471:22485   */\n      add\n        /* \"#utility.yul\":22464:22501   */\n      mstore\n        /* \"#utility.yul\":22347:22508   */\n      pop\n      jump\t// out\n        /* \"#utility.yul\":22514:22880   */\n    tag_297:\n        /* \"#utility.yul\":22656:22659   */\n      0x00\n        /* \"#utility.yul\":22677:22744   */\n      tag_534\n        /* \"#utility.yul\":22741:22743   */\n      0x0b\n        /* \"#utility.yul\":22736:22739   */\n      dup4\n        /* \"#utility.yul\":22677:22744   */\n      tag_253\n      jump\t// in\n    tag_534:\n        /* \"#utility.yul\":22670:22744   */\n      swap2\n      pop\n        /* \"#utility.yul\":22753:22846   */\n      tag_535\n        /* \"#utility.yul\":22842:22845   */\n      dup3\n        /* \"#utility.yul\":22753:22846   */\n      tag_296\n      jump\t// in\n    tag_535:\n        /* \"#utility.yul\":22871:22873   */\n      0x20\n        /* \"#utility.yul\":22866:22869   */\n      dup3\n        /* \"#utility.yul\":22862:22874   */\n      add\n        /* \"#utility.yul\":22855:22874   */\n      swap1\n      pop\n        /* \"#utility.yul\":22514:22880   */\n      swap2\n      swap1\n      pop\n      jump\t// out\n        /* \"#utility.yul\":22886:23305   */\n    tag_146:\n        /* \"#utility.yul\":23052:23056   */\n      0x00\n        /* \"#utility.yul\":23090:23092   */\n      0x20\n        /* \"#utility.yul\":23079:23088   */\n      dup3\n        /* \"#utility.yul\":23075:23093   */\n      add\n        /* \"#utility.yul\":23067:23093   */\n      swap1\n      pop\n        /* \"#utility.yul\":23139:23148   */\n      dup2\n        /* \"#utility.yul\":23133:23137   */\n      dup2\n        /* \"#utility.yul\":23129:23149   */\n      sub\n        /* \"#utility.yul\":23125:23126   */\n      0x00\n        /* \"#utility.yul\":23114:23123   */\n      dup4\n        /* \"#utility.yul\":23110:23127   */\n      add\n        /* \"#utility.yul\":23103:23150   */\n      mstore\n        /* \"#utility.yul\":23167:23298   */\n      tag_537\n        /* \"#utility.yul\":23293:23297   */\n      dup2\n        /* \"#utility.yul\":23167:23298   */\n      tag_297\n      jump\t// in\n    tag_537:\n        /* \"#utility.yul\":23159:23298   */\n      swap1\n      pop\n        /* \"#utility.yul\":22886:23305   */\n      swap2\n      swap1\n      pop\n      jump\t// out\n        /* \"#utility.yul\":23311:23491   */\n    tag_298:\n        /* \"#utility.yul\":23359:23436   */\n      0x4e487b7100000000000000000000000000000000000000000000000000000000\n        /* \"#utility.yul\":23356:23357   */\n      0x00\n        /* \"#utility.yul\":23349:23437   */\n      mstore\n        /* \"#utility.yul\":23456:23460   */\n      0x11\n        /* \"#utility.yul\":23453:23454   */\n      0x04\n        /* \"#utility.yul\":23446:23461   */\n      mstore\n        /* \"#utility.yul\":23480:23484   */\n      0x24\n        /* \"#utility.yul\":23477:23478   */\n      0x00\n        /* \"#utility.yul\":23470:23485   */\n      revert\n        /* \"#utility.yul\":23497:23730   */\n    tag_148:\n        /* \"#utility.yul\":23536:23539   */\n      0x00\n        /* \"#utility.yul\":23559:23583   */\n      tag_540\n        /* \"#utility.yul\":23577:23582   */\n      dup3\n        /* \"#utility.yul\":23559:23583   */\n      tag_247\n      jump\t// in\n    tag_540:\n        /* \"#utility.yul\":23550:23583   */\n      swap2\n      pop\n        /* \"#utility.yul\":23605:23671   */\n      0xffffffffffffffffffffffffffffffffffffffffffffffffffffffffffffffff\n        /* \"#utility.yul\":23598:23603   */\n      dup3\n        /* \"#utility.yul\":23595:23672   */\n      sub\n        /* \"#utility.yul\":23592:23695   */\n      tag_541\n      jumpi\n        /* \"#utility.yul\":23675:23693   */\n      tag_542\n      tag_298\n      jump\t// in\n    tag_542:\n        /* \"#utility.yul\":23592:23695   */\n    tag_541:\n        /* \"#utility.yul\":23722:23723   */\n      0x01\n        /* \"#utility.yul\":23715:23720   */\n      dup3\n        /* \"#utility.yul\":23711:23724   */\n      add\n        /* \"#utility.yul\":23704:23724   */\n      swap1\n      pop\n        /* \"#utility.yul\":23497:23730   */\n      swap2\n      swap1\n      pop\n      jump\t// out\n        /* \"#utility.yul\":23736:23916   */\n    tag_151:\n        /* \"#utility.yul\":23784:23861   */\n      0x4e487b7100000000000000000000000000000000000000000000000000000000\n        /* \"#utility.yul\":23781:23782   */\n      0x00\n        /* \"#utility.yul\":23774:23862   */\n      mstore\n        /* \"#utility.yul\":23881:23885   */\n      0x32\n        /* \"#utility.yul\":23878:23879   */\n      0x04\n        /* \"#utility.yul\":23871:23886   */\n      mstore\n        /* \"#utility.yul\":23905:23909   */\n      0x24\n        /* \"#utility.yul\":23902:23903   */\n      0x00\n        /* \"#utility.yul\":23895:23910   */\n      revert\n        /* \"#utility.yul\":23946:24777   */\n    tag_299:\n        /* \"#utility.yul\":24031:24034   */\n      0x00\n        /* \"#utility.yul\":24068:24073   */\n      dup2\n        /* \"#utility.yul\":24062:24074   */\n      sload\n        /* \"#utility.yul\":24097:24133   */\n      tag_545\n        /* \"#utility.yul\":24123:24132   */\n      dup2\n        /* \"#utility.yul\":24097:24133   */\n      tag_122\n      jump\t// in\n    tag_545:\n        /* \"#utility.yul\":24149:24220   */\n      tag_546\n        /* \"#utility.yul\":24213:24219   */\n      dup2\n        /* \"#utility.yul\":24208:24211   */\n      dup7\n        /* \"#utility.yul\":24149:24220   */\n      tag_253\n      jump\t// in\n    tag_546:\n        /* \"#utility.yul\":24142:24220   */\n      swap5\n      pop\n        /* \"#utility.yul\":24251:24252   */\n      0x01\n        /* \"#utility.yul\":24240:24249   */\n      dup3\n        /* \"#utility.yul\":24236:24253   */\n      and\n        /* \"#utility.yul\":24267:24268   */\n      0x00\n        /* \"#utility.yul\":24262:24426   */\n      dup2\n      eq\n      tag_548\n      jumpi\n        /* \"#utility.yul\":24440:24441   */\n      0x01\n        /* \"#utility.yul\":24435:24771   */\n      dup2\n      eq\n      tag_549\n      jumpi\n        /* \"#utility.yul\":24229:24771   */\n      jump(tag_547)\n        /* \"#utility.yul\":24262:24426   */\n    tag_548:\n        /* \"#utility.yul\":24346:24350   */\n      0xff\n        /* \"#utility.yul\":24342:24351   */\n      not\n        /* \"#utility.yul\":24331:24340   */\n      dup4\n        /* \"#utility.yul\":24327:24352   */\n      and\n        /* \"#utility.yul\":24322:24325   */\n      dup7\n        /* \"#utility.yul\":24315:24353   */\n      mstore\n        /* \"#utility.yul\":24406:24412   */\n      dup2\n        /* \"#utility.yul\":24399:24413   */\n      iszero\n        /* \"#utility.yul\":24392:24414   */\n      iszero\n        /* \"#utility.yul\":24386:24390   */\n      0x20\n        /* \"#utility.yul\":24382:24415   */\n      mul\n        /* \"#utility.yul\":24377:24380   */\n      dup7\n        /* \"#utility.yul\":24373:24416   */\n      add\n        /* \"#utility.yul\":24366:24416   */\n      swap4\n      pop\n        /* \"#utility.yul\":24262:24426   */\n      jump(tag_547)\n        /* \"#utility.yul\":24435:24771   */\n    tag_549:\n        /* \"#utility.yul\":24502:24540   */\n      tag_550\n        /* \"#utility.yul\":24534:24539   */\n      dup6\n        /* \"#utility.yul\":24502:24540   */\n      tag_281\n      jump\t// in\n    tag_550:\n        /* \"#utility.yul\":24562:24563   */\n      0x00\n        /* \"#utility.yul\":24576:24730   */\n    tag_551:\n        /* \"#utility.yul\":24590:24596   */\n      dup4\n        /* \"#utility.yul\":24587:24588   */\n      dup2\n        /* \"#utility.yul\":24584:24597   */\n      lt\n        /* \"#utility.yul\":24576:24730   */\n      iszero\n      tag_553\n      jumpi\n        /* \"#utility.yul\":24664:24671   */\n      dup2\n        /* \"#utility.yul\":24658:24672   */\n      sload\n        /* \"#utility.yul\":24654:24655   */\n      dup2\n        /* \"#utility.yul\":24649:24652   */\n      dup10\n        /* \"#utility.yul\":24645:24656   */\n      add\n        /* \"#utility.yul\":24638:24673   */\n      mstore\n        /* \"#utility.yul\":24714:24715   */\n      0x01\n        /* \"#utility.yul\":24705:24712   */\n      dup3\n        /* \"#utility.yul\":24701:24716   */\n      add\n        /* \"#utility.yul\":24690:24716   */\n      swap2\n      pop\n        /* \"#utility.yul\":24612:24616   */\n      0x20\n        /* \"#utility.yul\":24609:24610   */\n      dup2\n        /* \"#utility.yul\":24605:24617   */\n      add\n        /* \"#utility.yul\":24600:24617   */\n      swap1\n      pop\n        /* \"#utility.yul\":24576:24730   */\n      jump(tag_551)\n    tag_553:\n        /* \"#utility.yul\":24759:24760   */\n      dup1\n        /* \"#utility.yul\":24754:24757   */\n      dup9\n        /* \"#utility.yul\":24750:24761   */\n      add\n        /* \"#utility.yul\":24743:24761   */\n      swap6\n      pop\n        /* \"#utility.yul\":24442:24771   */\n      pop\n      pop\n        /* \"#utility.yul\":24229:24771   */\n    tag_547:\n      pop\n        /* \"#utility.yul\":24035:24777   */\n      pop\n      pop\n        /* \"#utility.yul\":23946:24777   */\n      swap3\n      swap2\n      pop\n      pop\n      jump\t// out\n        /* \"#utility.yul\":24783:25090   */\n    tag_164:\n        /* \"#utility.yul\":24893:24897   */\n      0x00\n        /* \"#utility.yul\":24931:24933   */\n      0x20\n        /* \"#utility.yul\":24920:24929   */\n      dup3\n        /* \"#utility.yul\":24916:24934   */\n      add\n        /* \"#utility.yul\":24908:24934   */\n      swap1\n      pop\n        /* \"#utility.yul\":24980:24989   */\n      dup2\n        /* \"#utility.yul\":24974:24978   */\n      dup2\n        /* \"#utility.yul\":24970:24990   */\n      sub\n        /* \"#utility.yul\":24966:24967   */\n      0x00\n        /* \"#utility.yul\":24955:24964   */\n      dup4\n        /* \"#utility.yul\":24951:24968   */\n      add\n        /* \"#utility.yul\":24944:24991   */\n      mstore\n        /* \"#utility.yul\":25008:25083   */\n      tag_555\n        /* \"#utility.yul\":25078:25082   */\n      dup2\n        /* \"#utility.yul\":25069:25075   */\n      dup5\n        /* \"#utility.yul\":25008:25083   */\n      tag_299\n      jump\t// in\n    tag_555:\n        /* \"#utility.yul\":25000:25083   */\n      swap1\n      pop\n        /* \"#utility.yul\":24783:25090   */\n      swap3\n      swap2\n      pop\n      pop\n      jump\t// out\n        /* \"#utility.yul\":25096:25287   */\n    tag_167:\n        /* \"#utility.yul\":25136:25139   */\n      0x00\n        /* \"#utility.yul\":25155:25175   */\n      tag_557\n        /* \"#utility.yul\":25173:25174   */\n      dup3\n        /* \"#utility.yul\":25155:25175   */\n      tag_247\n      jump\t// in\n    tag_557:\n        /* \"#utility.yul\":25150:25175   */\n      swap2\n      pop\n        /* \"#utility.yul\":25189:25209   */\n      tag_558\n        /* \"#utility.yul\":25207:25208   */\n      dup4\n        /* \"#utility.yul\":25189:25209   */\n      tag_247\n      jump\t// in\n    tag_558:\n        /* \"#utility.yul\":25184:25209   */\n      swap3\n      pop\n        /* \"#utility.yul\":25232:25233   */\n      dup3\n        /* \"#utility.yul\":25229:25230   */\n      dup3\n        /* \"#utility.yul\":25225:25234   */\n      add\n        /* \"#utility.yul\":25218:25234   */\n      swap1\n      pop\n        /* \"#utility.yul\":25253:25256   */\n      dup1\n        /* \"#utility.yul\":25250:25251   */\n      dup3\n        /* \"#utility.yul\":25247:25257   */\n      gt\n        /* \"#utility.yul\":25244:25280   */\n      iszero\n      tag_559\n      jumpi\n        /* \"#utility.yul\":25260:25278   */\n      tag_560\n      tag_298\n      jump\t// in\n    tag_560:\n        /* \"#utility.yul\":25244:25280   */\n    tag_559:\n        /* \"#utility.yul\":25096:25287   */\n      swap3\n      swap2\n      pop\n      pop\n      jump\t// out\n        /* \"#utility.yul\":25293:25668   */\n    tag_173:\n        /* \"#utility.yul\":25332:25335   */\n      0x00\n        /* \"#utility.yul\":25351:25370   */\n      tag_562\n        /* \"#utility.yul\":25368:25369   */\n      dup3\n        /* \"#utility.yul\":25351:25370   */\n      tag_264\n      jump\t// in\n    tag_562:\n        /* \"#utility.yul\":25346:25370   */\n      swap2\n      pop\n        /* \"#utility.yul\":25384:25403   */\n      tag_563\n        /* \"#utility.yul\":25401:25402   */\n      dup4\n        /* \"#utility.yul\":25384:25403   */\n      tag_264\n      jump\t// in\n    tag_563:\n        /* \"#utility.yul\":25379:25403   */\n      swap3\n      pop\n        /* \"#utility.yul\":25426:25427   */\n      dup3\n        /* \"#utility.yul\":25423:25424   */\n      dup3\n        /* \"#utility.yul\":25419:25428   */\n      add\n        /* \"#utility.yul\":25412:25428   */\n      swap1\n      pop\n        /* \"#utility.yul\":25624:25625   */\n      dup3\n        /* \"#utility.yul\":25619:25622   */\n      dup2\n        /* \"#utility.yul\":25615:25626   */\n      slt\n        /* \"#utility.yul\":25608:25627   */\n      iszero\n        /* \"#utility.yul\":25604:25605   */\n      0x00\n        /* \"#utility.yul\":25601:25602   */\n      dup4\n        /* \"#utility.yul\":25597:25606   */\n      slt\n        /* \"#utility.yul\":25593:25628   */\n      and\n        /* \"#utility.yul\":25576:25577   */\n      dup4\n        /* \"#utility.yul\":25571:25574   */\n      dup3\n        /* \"#utility.yul\":25567:25578   */\n      slt\n        /* \"#utility.yul\":25562:25563   */\n      0x00\n        /* \"#utility.yul\":25559:25560   */\n      dup5\n        /* \"#utility.yul\":25555:25564   */\n      slt\n        /* \"#utility.yul\":25548:25565   */\n      iszero\n        /* \"#utility.yul\":25544:25579   */\n      and\n        /* \"#utility.yul\":25528:25638   */\n      or\n        /* \"#utility.yul\":25525:25661   */\n      iszero\n      tag_564\n      jumpi\n        /* \"#utility.yul\":25641:25659   */\n      tag_565\n      tag_298\n      jump\t// in\n    tag_565:\n        /* \"#utility.yul\":25525:25661   */\n    tag_564:\n        /* \"#utility.yul\":25293:25668   */\n      swap3\n      swap2\n      pop\n      pop\n      jump\t// out\n\n    auxdata: 0xa26469706673582212204914519b70c3683e7ead56067a697b75d25cfeaf951618bcd2783918a9bf7c1f64736f6c63430008120033\n}\n",
				"bytecode": {
					"linkReferences": {},
					"object": "60806040523480156200001157600080fd5b5033600360006101000a81548173ffffffffffffffffffffffffffffffffffffffff021916908373ffffffffffffffffffffffffffffffffffffffff160217905550600580600181540180825580915050600190039060005260206000200160006040518060400160405280600e81526020017f6973206e6f7420616c6c6f77656400000000000000000000000000000000000081525090919091509081620000bb91906200040e565b50600580600181540180825580915050600190039060005260206000200160006040518060400160405280600a81526020017f6f6e6c79206f776e657200000000000000000000000000000000000000000000815250909190915090816200012491906200040e565b50600580600181540180825580915050600190039060005260206000200160006040518060400160405280600b81526020017f706c616365686f6c646572000000000000000000000000000000000000000000815250909190915090816200018d91906200040e565b50620004f5565b600081519050919050565b7f4e487b7100000000000000000000000000000000000000000000000000000000600052604160045260246000fd5b7f4e487b7100000000000000000000000000000000000000000000000000000000600052602260045260246000fd5b600060028204905060018216806200021657607f821691505b6020821081036200022c576200022b620001ce565b5b50919050565b60008190508160005260206000209050919050565b60006020601f8301049050919050565b600082821b905092915050565b600060088302620002967fffffffffffffffffffffffffffffffffffffffffffffffffffffffffffffffff8262000257565b620002a2868362000257565b95508019841693508086168417925050509392505050565b6000819050919050565b6000819050919050565b6000620002ef620002e9620002e384620002ba565b620002c4565b620002ba565b9050919050565b6000819050919050565b6200030b83620002ce565b620003236200031a82620002f6565b84845462000264565b825550505050565b600090565b6200033a6200032b565b6200034781848462000300565b505050565b5b818110156200036f576200036360008262000330565b6001810190506200034d565b5050565b601f821115620003be57620003888162000232565b620003938462000247565b81016020851015620003a3578190505b620003bb620003b28562000247565b8301826200034c565b50505b505050565b600082821c905092915050565b6000620003e360001984600802620003c3565b1980831691505092915050565b6000620003fe8383620003d0565b9150826002028217905092915050565b620004198262000194565b67ffffffffffffffff8111156200043557620004346200019f565b5b620004418254620001fd565b6200044e82828562000373565b600060209050601f83116001811462000486576000841562000471578287015190505b6200047d8582620003f0565b865550620004ed565b601f198416620004968662000232565b60005b82811015620004c05784890151825560018201915060208501945060208101905062000499565b86831015620004e05784890151620004dc601f891682620003d0565b8355505b6001600288020188555050505b505050505050565b611dbe80620005056000396000f3fe608060405234801561001057600080fd5b506004361061014c5760003560e01c80637cf5dab0116100c3578063db613e811161007c578063db613e8114610369578063dd62ed3e14610387578063e9523c97146103b7578063f3009c90146103d5578063f6ace8d7146103f1578063ffac3b1d1461040d5761014c565b80637cf5dab0146102a95780638da5cb5b146102c55780639bead1f8146102e3578063be7cb506146102ff578063c539ab781461031b578063da91254c1461034b5761014c565b80634fab2bc9116101155780634fab2bc9146101f75780635f3d8f4a146102295780635faaf352146102475780636710a55914610263578063702051f01461026d5780637c85cfc21461028b5761014c565b8062942a941461015157806306661abd1461016d57806314bfd6d01461018b57806319e1fca4146101bd5780632babac22146101db575b600080fd5b61016b6004803603810190610166919061124b565b610417565b005b610175610493565b60405161018291906112a3565b60405180910390f35b6101a560048036038101906101a091906112be565b610499565b6040516101b49392919061136a565b60405180910390f35b6101c56105d9565b6040516101d291906113ca565b60405180910390f35b6101f560048036038101906101f09190611411565b6105ea565b005b610211600480360381019061020c919061149c565b610606565b6040516102209392919061136a565b60405180910390f35b610231610740565b60405161023e91906114e2565b60405180910390f35b610261600480360381019061025c919061124b565b610746565b005b61026b6107f6565b005b6102756107f8565b60405161028291906112a3565b60405180910390f35b610293610805565b6040516102a091906114fd565b60405180910390f35b6102c360048036038101906102be91906112be565b610842565b005b6102cd610966565b6040516102da919061152e565b60405180910390f35b6102fd60048036038101906102f89190611549565b61098c565b005b61031960048036038101906103149190611600565b6109c1565b005b610335600480360381019061033091906112be565b6109d8565b60405161034291906114fd565b60405180910390f35b610353610a84565b60405161036091906114fd565b60405180910390f35b610371610ac1565b60405161037e91906116dd565b60405180910390f35b6103a1600480360381019061039c91906116ff565b610c0f565b6040516103ae91906113ca565b60405180910390f35b6103bf610c3e565b6040516103cc9190611858565b60405180910390f35b6103ef60048036038101906103ea919061124b565b610e31565b005b61040b6004803603810190610406919061149c565b610e70565b005b610415610fdc565b005b80600960003373ffffffffffffffffffffffffffffffffffffffff1673ffffffffffffffffffffffffffffffffffffffff168152602001908152602001600020600082015181600001908161046c9190611a86565b5060208201518160010190816104829190611a86565b506040820151816002015590505050565b60015481565b600a81600381106104a957600080fd5b600302016000915090508060000180546104c2906118a9565b80601f01602080910402602001604051908101604052809291908181526020018280546104ee906118a9565b801561053b5780601f106105105761010080835404028352916020019161053b565b820191906000526020600020905b81548152906001019060200180831161051e57829003601f168201915b505050505090806001018054610550906118a9565b80601f016020809104026020016040519081016040528092919081815260200182805461057c906118a9565b80156105c95780601f1061059e576101008083540402835291602001916105c9565b820191906000526020600020905b8154815290600101906020018083116105ac57829003601f168201915b5050505050908060020154905083565b60008054906101000a900460ff1681565b806000806101000a81548160ff02191690831515021790555050565b6009602052806000526040600020600091509050806000018054610629906118a9565b80601f0160208091040260200160405190810160405280929190818152602001828054610655906118a9565b80156106a25780601f10610677576101008083540402835291602001916106a2565b820191906000526020600020905b81548152906001019060200180831161068557829003601f168201915b5050505050908060010180546106b7906118a9565b80601f01602080910402602001604051908101604052809291908181526020018280546106e3906118a9565b80156107305780601f1061070557610100808354040283529160200191610730565b820191906000526020600020905b81548152906001019060200180831161071357829003601f168201915b5050505050908060020154905083565b60025481565b60036013541061078b576040517f08c379a000000000000000000000000000000000000000000000000000000000815260040161078290611ba4565b60405180910390fd5b80600a601360008154809291906107a190611bf3565b91905055600381106107b6576107b5611c3b565b5b6003020160008201518160000190816107cf9190611a86565b5060208201518160010190816107e59190611a86565b506040820151816002015590505050565b565b6000600580549050905090565b60606040518060400160405280600b81526020017f4920616d20726561647921000000000000000000000000000000000000000000815250905090565b60046000600360009054906101000a900473ffffffffffffffffffffffffffffffffffffffff1673ffffffffffffffffffffffffffffffffffffffff1673ffffffffffffffffffffffffffffffffffffffff16815260200190815260200160002060003373ffffffffffffffffffffffffffffffffffffffff1673ffffffffffffffffffffffffffffffffffffffff16815260200190815260200160002060009054906101000a900460ff16600560008154811061090357610902611c3b565b5b906000526020600020019061094e576040517f08c379a00000000000000000000000000000000000000000000000000000000081526004016109459190611cee565b60405180910390fd5b508060015461095d9190611d10565b60018190555050565b600360009054906101000a900473ffffffffffffffffffffffffffffffffffffffff1681565b826006600001908161099e9190611a86565b5081600660010190816109b19190611a86565b5080600660020181905550505050565b806002546109cf9190611d44565b60028190555050565b600581815481106109e857600080fd5b906000526020600020016000915090508054610a03906118a9565b80601f0160208091040260200160405190810160405280929190818152602001828054610a2f906118a9565b8015610a7c5780601f10610a5157610100808354040283529160200191610a7c565b820191906000526020600020905b815481529060010190602001808311610a5f57829003601f168201915b505050505081565b60606040518060400160405280600b81526020017f3078427572616b556e616c000000000000000000000000000000000000000000815250905090565b610ac9610ff4565b60006006604051806060016040529081600082018054610ae8906118a9565b80601f0160208091040260200160405190810160405280929190818152602001828054610b14906118a9565b8015610b615780601f10610b3657610100808354040283529160200191610b61565b820191906000526020600020905b815481529060010190602001808311610b4457829003601f168201915b50505050508152602001600182018054610b7a906118a9565b80601f0160208091040260200160405190810160405280929190818152602001828054610ba6906118a9565b8015610bf35780601f10610bc857610100808354040283529160200191610bf3565b820191906000526020600020905b815481529060010190602001808311610bd657829003601f168201915b5050505050815260200160028201548152505090508091505090565b60046020528160005260406000206020528060005260406000206000915091509054906101000a900460ff1681565b6060600060135467ffffffffffffffff811115610c5e57610c5d61103f565b5b604051908082528060200260200182016040528015610c9757816020015b610c84610ff4565b815260200190600190039081610c7c5790505b50905060005b601354811015610e2957600a8160038110610cbb57610cba611c3b565b5b60030201604051806060016040529081600082018054610cda906118a9565b80601f0160208091040260200160405190810160405280929190818152602001828054610d06906118a9565b8015610d535780601f10610d2857610100808354040283529160200191610d53565b820191906000526020600020905b815481529060010190602001808311610d3657829003601f168201915b50505050508152602001600182018054610d6c906118a9565b80601f0160208091040260200160405190810160405280929190818152602001828054610d98906118a9565b8015610de55780601f10610dba57610100808354040283529160200191610de5565b820191906000526020600020905b815481529060010190602001808311610dc857829003601f168201915b50505050508152602001600282015481525050828281518110610e0b57610e0a611c3b565b5b60200260200101819052508080610e2190611bf3565b915050610c9d565b508091505090565b8060066000820151816000019081610e499190611a86565b506020820151816001019081610e5f9190611a86565b506040820151816002015590505050565b3373ffffffffffffffffffffffffffffffffffffffff16600360009054906101000a900473ffffffffffffffffffffffffffffffffffffffff1673ffffffffffffffffffffffffffffffffffffffff16146005600181548110610ed657610ed5611c3b565b5b9060005260206000200190610f21576040517f08c379a0000000000000000000000000000000000000000000000000000000008152600401610f189190611cee565b60405180910390fd5b50600160046000600360009054906101000a900473ffffffffffffffffffffffffffffffffffffffff1673ffffffffffffffffffffffffffffffffffffffff1673ffffffffffffffffffffffffffffffffffffffff16815260200190815260200160002060008373ffffffffffffffffffffffffffffffffffffffff1673ffffffffffffffffffffffffffffffffffffffff16815260200190815260200160002060006101000a81548160ff02191690831515021790555050565b600160008154610feb90611bf3565b91905081905550565b60405180606001604052806060815260200160608152602001600081525090565b6000604051905090565b600080fd5b600080fd5b600080fd5b6000601f19601f8301169050919050565b7f4e487b7100000000000000000000000000000000000000000000000000000000600052604160045260246000fd5b6110778261102e565b810181811067ffffffffffffffff821117156110965761109561103f565b5b80604052505050565b60006110a9611015565b90506110b5828261106e565b919050565b600080fd5b600080fd5b600080fd5b600067ffffffffffffffff8211156110e4576110e361103f565b5b6110ed8261102e565b9050602081019050919050565b82818337600083830152505050565b600061111c611117846110c9565b61109f565b905082815260208101848484011115611138576111376110c4565b5b6111438482856110fa565b509392505050565b600082601f8301126111605761115f6110bf565b5b8135611170848260208601611109565b91505092915050565b6000819050919050565b61118c81611179565b811461119757600080fd5b50565b6000813590506111a981611183565b92915050565b6000606082840312156111c5576111c4611029565b5b6111cf606061109f565b9050600082013567ffffffffffffffff8111156111ef576111ee6110ba565b5b6111fb8482850161114b565b600083015250602082013567ffffffffffffffff81111561121f5761121e6110ba565b5b61122b8482850161114b565b602083015250604061123f8482850161119a565b60408301525092915050565b6000602082840312156112615761126061101f565b5b600082013567ffffffffffffffff81111561127f5761127e611024565b5b61128b848285016111af565b91505092915050565b61129d81611179565b82525050565b60006020820190506112b86000830184611294565b92915050565b6000602082840312156112d4576112d361101f565b5b60006112e28482850161119a565b91505092915050565b600081519050919050565b600082825260208201905092915050565b60005b8381101561132557808201518184015260208101905061130a565b60008484015250505050565b600061133c826112eb565b61134681856112f6565b9350611356818560208601611307565b61135f8161102e565b840191505092915050565b600060608201905081810360008301526113848186611331565b905081810360208301526113988185611331565b90506113a76040830184611294565b949350505050565b60008115159050919050565b6113c4816113af565b82525050565b60006020820190506113df60008301846113bb565b92915050565b6113ee816113af565b81146113f957600080fd5b50565b60008135905061140b816113e5565b92915050565b6000602082840312156114275761142661101f565b5b6000611435848285016113fc565b91505092915050565b600073ffffffffffffffffffffffffffffffffffffffff82169050919050565b60006114698261143e565b9050919050565b6114798161145e565b811461148457600080fd5b50565b60008135905061149681611470565b92915050565b6000602082840312156114b2576114b161101f565b5b60006114c084828501611487565b91505092915050565b6000819050919050565b6114dc816114c9565b82525050565b60006020820190506114f760008301846114d3565b92915050565b600060208201905081810360008301526115178184611331565b905092915050565b6115288161145e565b82525050565b6000602082019050611543600083018461151f565b92915050565b6000806000606084860312156115625761156161101f565b5b600084013567ffffffffffffffff8111156115805761157f611024565b5b61158c8682870161114b565b935050602084013567ffffffffffffffff8111156115ad576115ac611024565b5b6115b98682870161114b565b92505060406115ca8682870161119a565b9150509250925092565b6115dd816114c9565b81146115e857600080fd5b50565b6000813590506115fa816115d4565b92915050565b6000602082840312156116165761161561101f565b5b6000611624848285016115eb565b91505092915050565b600082825260208201905092915050565b6000611649826112eb565b611653818561162d565b9350611663818560208601611307565b61166c8161102e565b840191505092915050565b61168081611179565b82525050565b600060608301600083015184820360008601526116a3828261163e565b915050602083015184820360208601526116bd828261163e565b91505060408301516116d26040860182611677565b508091505092915050565b600060208201905081810360008301526116f78184611686565b905092915050565b600080604083850312156117165761171561101f565b5b600061172485828601611487565b925050602061173585828601611487565b9150509250929050565b600081519050919050565b600082825260208201905092915050565b6000819050602082019050919050565b60006060830160008301518482036000860152611788828261163e565b915050602083015184820360208601526117a2828261163e565b91505060408301516117b76040860182611677565b508091505092915050565b60006117ce838361176b565b905092915050565b6000602082019050919050565b60006117ee8261173f565b6117f8818561174a565b93508360208202850161180a8561175b565b8060005b85811015611846578484038952815161182785826117c2565b9450611832836117d6565b925060208a0199505060018101905061180e565b50829750879550505050505092915050565b6000602082019050818103600083015261187281846117e3565b905092915050565b7f4e487b7100000000000000000000000000000000000000000000000000000000600052602260045260246000fd5b600060028204905060018216806118c157607f821691505b6020821081036118d4576118d361187a565b5b50919050565b60008190508160005260206000209050919050565b60006020601f8301049050919050565b600082821b905092915050565b60006008830261193c7fffffffffffffffffffffffffffffffffffffffffffffffffffffffffffffffff826118ff565b61194686836118ff565b95508019841693508086168417925050509392505050565b6000819050919050565b600061198361197e61197984611179565b61195e565b611179565b9050919050565b6000819050919050565b61199d83611968565b6119b16119a98261198a565b84845461190c565b825550505050565b600090565b6119c66119b9565b6119d1818484611994565b505050565b5b818110156119f5576119ea6000826119be565b6001810190506119d7565b5050565b601f821115611a3a57611a0b816118da565b611a14846118ef565b81016020851015611a23578190505b611a37611a2f856118ef565b8301826119d6565b50505b505050565b600082821c905092915050565b6000611a5d60001984600802611a3f565b1980831691505092915050565b6000611a768383611a4c565b9150826002028217905092915050565b611a8f826112eb565b67ffffffffffffffff811115611aa857611aa761103f565b5b611ab282546118a9565b611abd8282856119f9565b600060209050601f831160018114611af05760008415611ade578287015190505b611ae88582611a6a565b865550611b50565b601f198416611afe866118da565b60005b82811015611b2657848901518255600182019150602085019450602081019050611b01565b86831015611b435784890151611b3f601f891682611a4c565b8355505b6001600288020188555050505b505050505050565b7f486173206e6f20736c6f74000000000000000000000000000000000000000000600082015250565b6000611b8e600b836112f6565b9150611b9982611b58565b602082019050919050565b60006020820190508181036000830152611bbd81611b81565b9050919050565b7f4e487b7100000000000000000000000000000000000000000000000000000000600052601160045260246000fd5b6000611bfe82611179565b91507fffffffffffffffffffffffffffffffffffffffffffffffffffffffffffffffff8203611c3057611c2f611bc4565b5b600182019050919050565b7f4e487b7100000000000000000000000000000000000000000000000000000000600052603260045260246000fd5b60008154611c77816118a9565b611c8181866112f6565b94506001821660008114611c9c5760018114611cb257611ce5565b60ff198316865281151560200286019350611ce5565b611cbb856118da565b60005b83811015611cdd57815481890152600182019150602081019050611cbe565b808801955050505b50505092915050565b60006020820190508181036000830152611d088184611c6a565b905092915050565b6000611d1b82611179565b9150611d2683611179565b9250828201905080821115611d3e57611d3d611bc4565b5b92915050565b6000611d4f826114c9565b9150611d5a836114c9565b925082820190508281121560008312168382126000841215161715611d8257611d81611bc4565b5b9291505056fea26469706673582212204914519b70c3683e7ead56067a697b75d25cfeaf951618bcd2783918a9bf7c1f64736f6c63430008120033",
					"opcodes": "PUSH1 0x80 PUSH1 0x40 MSTORE CALLVALUE DUP1 ISZERO PUSH3 0x11 JUMPI PUSH1 0x0 DUP1 REVERT JUMPDEST POP CALLER PUSH1 0x3 PUSH1 0x0 PUSH2 0x100 EXP DUP2 SLOAD DUP2 PUSH20 0xFFFFFFFFFFFFFFFFFFFFFFFFFFFFFFFFFFFFFFFF MUL NOT AND SWAP1 DUP4 PUSH20 0xFFFFFFFFFFFFFFFFFFFFFFFFFFFFFFFFFFFFFFFF AND MUL OR SWAP1 SSTORE POP PUSH1 0x5 DUP1 PUSH1 0x1 DUP2 SLOAD ADD DUP1 DUP3 SSTORE DUP1 SWAP2 POP POP PUSH1 0x1 SWAP1 SUB SWAP1 PUSH1 0x0 MSTORE PUSH1 0x20 PUSH1 0x0 KECCAK256 ADD PUSH1 0x0 PUSH1 0x40 MLOAD DUP1 PUSH1 0x40 ADD PUSH1 0x40 MSTORE DUP1 PUSH1 0xE DUP2 MSTORE PUSH1 0x20 ADD PUSH32 0x6973206E6F7420616C6C6F776564000000000000000000000000000000000000 DUP2 MSTORE POP SWAP1 SWAP2 SWAP1 SWAP2 POP SWAP1 DUP2 PUSH3 0xBB SWAP2 SWAP1 PUSH3 0x40E JUMP JUMPDEST POP PUSH1 0x5 DUP1 PUSH1 0x1 DUP2 SLOAD ADD DUP1 DUP3 SSTORE DUP1 SWAP2 POP POP PUSH1 0x1 SWAP1 SUB SWAP1 PUSH1 0x0 MSTORE PUSH1 0x20 PUSH1 0x0 KECCAK256 ADD PUSH1 0x0 PUSH1 0x40 MLOAD DUP1 PUSH1 0x40 ADD PUSH1 0x40 MSTORE DUP1 PUSH1 0xA DUP2 MSTORE PUSH1 0x20 ADD PUSH32 0x6F6E6C79206F776E657200000000000000000000000000000000000000000000 DUP2 MSTORE POP SWAP1 SWAP2 SWAP1 SWAP2 POP SWAP1 DUP2 PUSH3 0x124 SWAP2 SWAP1 PUSH3 0x40E JUMP JUMPDEST POP PUSH1 0x5 DUP1 PUSH1 0x1 DUP2 SLOAD ADD DUP1 DUP3 SSTORE DUP1 SWAP2 POP POP PUSH1 0x1 SWAP1 SUB SWAP1 PUSH1 0x0 MSTORE PUSH1 0x20 PUSH1 0x0 KECCAK256 ADD PUSH1 0x0 PUSH1 0x40 MLOAD DUP1 PUSH1 0x40 ADD PUSH1 0x40 MSTORE DUP1 PUSH1 0xB DUP2 MSTORE PUSH1 0x20 ADD PUSH32 0x706C616365686F6C646572000000000000000000000000000000000000000000 DUP2 MSTORE POP SWAP1 SWAP2 SWAP1 SWAP2 POP SWAP1 DUP2 PUSH3 0x18D SWAP2 SWAP1 PUSH3 0x40E JUMP JUMPDEST POP PUSH3 0x4F5 JUMP JUMPDEST PUSH1 0x0 DUP2 MLOAD SWAP1 POP SWAP2 SWAP1 POP JUMP JUMPDEST PUSH32 0x4E487B7100000000000000000000000000000000000000000000000000000000 PUSH1 0x0 MSTORE PUSH1 0x41 PUSH1 0x4 MSTORE PUSH1 0x24 PUSH1 0x0 REVERT JUMPDEST PUSH32 0x4E487B7100000000000000000000000000000000000000000000000000000000 PUSH1 0x0 MSTORE PUSH1 0x22 PUSH1 0x4 MSTORE PUSH1 0x24 PUSH1 0x0 REVERT JUMPDEST PUSH1 0x0 PUSH1 0x2 DUP3 DIV SWAP1 POP PUSH1 0x1 DUP3 AND DUP1 PUSH3 0x216 JUMPI PUSH1 0x7F DUP3 AND SWAP2 POP JUMPDEST PUSH1 0x20 DUP3 LT DUP2 SUB PUSH3 0x22C JUMPI PUSH3 0x22B PUSH3 0x1CE JUMP JUMPDEST JUMPDEST POP SWAP2 SWAP1 POP JUMP JUMPDEST PUSH1 0x0 DUP2 SWAP1 POP DUP2 PUSH1 0x0 MSTORE PUSH1 0x20 PUSH1 0x0 KECCAK256 SWAP1 POP SWAP2 SWAP1 POP JUMP JUMPDEST PUSH1 0x0 PUSH1 0x20 PUSH1 0x1F DUP4 ADD DIV SWAP1 POP SWAP2 SWAP1 POP JUMP JUMPDEST PUSH1 0x0 DUP3 DUP3 SHL SWAP1 POP SWAP3 SWAP2 POP POP JUMP JUMPDEST PUSH1 0x0 PUSH1 0x8 DUP4 MUL PUSH3 0x296 PUSH32 0xFFFFFFFFFFFFFFFFFFFFFFFFFFFFFFFFFFFFFFFFFFFFFFFFFFFFFFFFFFFFFFFF DUP3 PUSH3 0x257 JUMP JUMPDEST PUSH3 0x2A2 DUP7 DUP4 PUSH3 0x257 JUMP JUMPDEST SWAP6 POP DUP1 NOT DUP5 AND SWAP4 POP DUP1 DUP7 AND DUP5 OR SWAP3 POP POP POP SWAP4 SWAP3 POP POP POP JUMP JUMPDEST PUSH1 0x0 DUP2 SWAP1 POP SWAP2 SWAP1 POP JUMP JUMPDEST PUSH1 0x0 DUP2 SWAP1 POP SWAP2 SWAP1 POP JUMP JUMPDEST PUSH1 0x0 PUSH3 0x2EF PUSH3 0x2E9 PUSH3 0x2E3 DUP5 PUSH3 0x2BA JUMP JUMPDEST PUSH3 0x2C4 JUMP JUMPDEST PUSH3 0x2BA JUMP JUMPDEST SWAP1 POP SWAP2 SWAP1 POP JUMP JUMPDEST PUSH1 0x0 DUP2 SWAP1 POP SWAP2 SWAP1 POP JUMP JUMPDEST PUSH3 0x30B DUP4 PUSH3 0x2CE JUMP JUMPDEST PUSH3 0x323 PUSH3 0x31A DUP3 PUSH3 0x2F6 JUMP JUMPDEST DUP5 DUP5 SLOAD PUSH3 0x264 JUMP JUMPDEST DUP3 SSTORE POP POP POP POP JUMP JUMPDEST PUSH1 0x0 SWAP1 JUMP JUMPDEST PUSH3 0x33A PUSH3 0x32B JUMP JUMPDEST PUSH3 0x347 DUP2 DUP5 DUP5 PUSH3 0x300 JUMP JUMPDEST POP POP POP JUMP JUMPDEST JUMPDEST DUP2 DUP2 LT ISZERO PUSH3 0x36F JUMPI PUSH3 0x363 PUSH1 0x0 DUP3 PUSH3 0x330 JUMP JUMPDEST PUSH1 0x1 DUP2 ADD SWAP1 POP PUSH3 0x34D JUMP JUMPDEST POP POP JUMP JUMPDEST PUSH1 0x1F DUP3 GT ISZERO PUSH3 0x3BE JUMPI PUSH3 0x388 DUP2 PUSH3 0x232 JUMP JUMPDEST PUSH3 0x393 DUP5 PUSH3 0x247 JUMP JUMPDEST DUP2 ADD PUSH1 0x20 DUP6 LT ISZERO PUSH3 0x3A3 JUMPI DUP2 SWAP1 POP JUMPDEST PUSH3 0x3BB PUSH3 0x3B2 DUP6 PUSH3 0x247 JUMP JUMPDEST DUP4 ADD DUP3 PUSH3 0x34C JUMP JUMPDEST POP POP JUMPDEST POP POP POP JUMP JUMPDEST PUSH1 0x0 DUP3 DUP3 SHR SWAP1 POP SWAP3 SWAP2 POP POP JUMP JUMPDEST PUSH1 0x0 PUSH3 0x3E3 PUSH1 0x0 NOT DUP5 PUSH1 0x8 MUL PUSH3 0x3C3 JUMP JUMPDEST NOT DUP1 DUP4 AND SWAP2 POP POP SWAP3 SWAP2 POP POP JUMP JUMPDEST PUSH1 0x0 PUSH3 0x3FE DUP4 DUP4 PUSH3 0x3D0 JUMP JUMPDEST SWAP2 POP DUP3 PUSH1 0x2 MUL DUP3 OR SWAP1 POP SWAP3 SWAP2 POP POP JUMP JUMPDEST PUSH3 0x419 DUP3 PUSH3 0x194 JUMP JUMPDEST PUSH8 0xFFFFFFFFFFFFFFFF DUP2 GT ISZERO PUSH3 0x435 JUMPI PUSH3 0x434 PUSH3 0x19F JUMP JUMPDEST JUMPDEST PUSH3 0x441 DUP3 SLOAD PUSH3 0x1FD JUMP JUMPDEST PUSH3 0x44E DUP3 DUP3 DUP6 PUSH3 0x373 JUMP JUMPDEST PUSH1 0x0 PUSH1 0x20 SWAP1 POP PUSH1 0x1F DUP4 GT PUSH1 0x1 DUP2 EQ PUSH3 0x486 JUMPI PUSH1 0x0 DUP5 ISZERO PUSH3 0x471 JUMPI DUP3 DUP8 ADD MLOAD SWAP1 POP JUMPDEST PUSH3 0x47D DUP6 DUP3 PUSH3 0x3F0 JUMP JUMPDEST DUP7 SSTORE POP PUSH3 0x4ED JUMP JUMPDEST PUSH1 0x1F NOT DUP5 AND PUSH3 0x496 DUP7 PUSH3 0x232 JUMP JUMPDEST PUSH1 0x0 JUMPDEST DUP3 DUP2 LT ISZERO PUSH3 0x4C0 JUMPI DUP5 DUP10 ADD MLOAD DUP3 SSTORE PUSH1 0x1 DUP3 ADD SWAP2 POP PUSH1 0x20 DUP6 ADD SWAP5 POP PUSH1 0x20 DUP2 ADD SWAP1 POP PUSH3 0x499 JUMP JUMPDEST DUP7 DUP4 LT ISZERO PUSH3 0x4E0 JUMPI DUP5 DUP10 ADD MLOAD PUSH3 0x4DC PUSH1 0x1F DUP10 AND DUP3 PUSH3 0x3D0 JUMP JUMPDEST DUP4 SSTORE POP JUMPDEST PUSH1 0x1 PUSH1 0x2 DUP9 MUL ADD DUP9 SSTORE POP POP POP JUMPDEST POP POP POP POP POP POP JUMP JUMPDEST PUSH2 0x1DBE DUP1 PUSH3 0x505 PUSH1 0x0 CODECOPY PUSH1 0x0 RETURN INVALID PUSH1 0x80 PUSH1 0x40 MSTORE CALLVALUE DUP1 ISZERO PUSH2 0x10 JUMPI PUSH1 0x0 DUP1 REVERT JUMPDEST POP PUSH1 0x4 CALLDATASIZE LT PUSH2 0x14C JUMPI PUSH1 0x0 CALLDATALOAD PUSH1 0xE0 SHR DUP1 PUSH4 0x7CF5DAB0 GT PUSH2 0xC3 JUMPI DUP1 PUSH4 0xDB613E81 GT PUSH2 0x7C JUMPI DUP1 PUSH4 0xDB613E81 EQ PUSH2 0x369 JUMPI DUP1 PUSH4 0xDD62ED3E EQ PUSH2 0x387 JUMPI DUP1 PUSH4 0xE9523C97 EQ PUSH2 0x3B7 JUMPI DUP1 PUSH4 0xF3009C90 EQ PUSH2 0x3D5 JUMPI DUP1 PUSH4 0xF6ACE8D7 EQ PUSH2 0x3F1 JUMPI DUP1 PUSH4 0xFFAC3B1D EQ PUSH2 0x40D JUMPI PUSH2 0x14C JUMP JUMPDEST DUP1 PUSH4 0x7CF5DAB0 EQ PUSH2 0x2A9 JUMPI DUP1 PUSH4 0x8DA5CB5B EQ PUSH2 0x2C5 JUMPI DUP1 PUSH4 0x9BEAD1F8 EQ PUSH2 0x2E3 JUMPI DUP1 PUSH4 0xBE7CB506 EQ PUSH2 0x2FF JUMPI DUP1 PUSH4 0xC539AB78 EQ PUSH2 0x31B JUMPI DUP1 PUSH4 0xDA91254C EQ PUSH2 0x34B JUMPI PUSH2 0x14C JUMP JUMPDEST DUP1 PUSH4 0x4FAB2BC9 GT PUSH2 0x115 JUMPI DUP1 PUSH4 0x4FAB2BC9 EQ PUSH2 0x1F7 JUMPI DUP1 PUSH4 0x5F3D8F4A EQ PUSH2 0x229 JUMPI DUP1 PUSH4 0x5FAAF352 EQ PUSH2 0x247 JUMPI DUP1 PUSH4 0x6710A559 EQ PUSH2 0x263 JUMPI DUP1 PUSH4 0x702051F0 EQ PUSH2 0x26D JUMPI DUP1 PUSH4 0x7C85CFC2 EQ PUSH2 0x28B JUMPI PUSH2 0x14C JUMP JUMPDEST DUP1 PUSH3 0x942A94 EQ PUSH2 0x151 JUMPI DUP1 PUSH4 0x6661ABD EQ PUSH2 0x16D JUMPI DUP1 PUSH4 0x14BFD6D0 EQ PUSH2 0x18B JUMPI DUP1 PUSH4 0x19E1FCA4 EQ PUSH2 0x1BD JUMPI DUP1 PUSH4 0x2BABAC22 EQ PUSH2 0x1DB JUMPI JUMPDEST PUSH1 0x0 DUP1 REVERT JUMPDEST PUSH2 0x16B PUSH1 0x4 DUP1 CALLDATASIZE SUB DUP2 ADD SWAP1 PUSH2 0x166 SWAP2 SWAP1 PUSH2 0x124B JUMP JUMPDEST PUSH2 0x417 JUMP JUMPDEST STOP JUMPDEST PUSH2 0x175 PUSH2 0x493 JUMP JUMPDEST PUSH1 0x40 MLOAD PUSH2 0x182 SWAP2 SWAP1 PUSH2 0x12A3 JUMP JUMPDEST PUSH1 0x40 MLOAD DUP1 SWAP2 SUB SWAP1 RETURN JUMPDEST PUSH2 0x1A5 PUSH1 0x4 DUP1 CALLDATASIZE SUB DUP2 ADD SWAP1 PUSH2 0x1A0 SWAP2 SWAP1 PUSH2 0x12BE JUMP JUMPDEST PUSH2 0x499 JUMP JUMPDEST PUSH1 0x40 MLOAD PUSH2 0x1B4 SWAP4 SWAP3 SWAP2 SWAP1 PUSH2 0x136A JUMP JUMPDEST PUSH1 0x40 MLOAD DUP1 SWAP2 SUB SWAP1 RETURN JUMPDEST PUSH2 0x1C5 PUSH2 0x5D9 JUMP JUMPDEST PUSH1 0x40 MLOAD PUSH2 0x1D2 SWAP2 SWAP1 PUSH2 0x13CA JUMP JUMPDEST PUSH1 0x40 MLOAD DUP1 SWAP2 SUB SWAP1 RETURN JUMPDEST PUSH2 0x1F5 PUSH1 0x4 DUP1 CALLDATASIZE SUB DUP2 ADD SWAP1 PUSH2 0x1F0 SWAP2 SWAP1 PUSH2 0x1411 JUMP JUMPDEST PUSH2 0x5EA JUMP JUMPDEST STOP JUMPDEST PUSH2 0x211 PUSH1 0x4 DUP1 CALLDATASIZE SUB DUP2 ADD SWAP1 PUSH2 0x20C SWAP2 SWAP1 PUSH2 0x149C JUMP JUMPDEST PUSH2 0x606 JUMP JUMPDEST PUSH1 0x40 MLOAD PUSH2 0x220 SWAP4 SWAP3 SWAP2 SWAP1 PUSH2 0x136A JUMP JUMPDEST PUSH1 0x40 MLOAD DUP1 SWAP2 SUB SWAP1 RETURN JUMPDEST PUSH2 0x231 PUSH2 0x740 JUMP JUMPDEST PUSH1 0x40 MLOAD PUSH2 0x23E SWAP2 SWAP1 PUSH2 0x14E2 JUMP JUMPDEST PUSH1 0x40 MLOAD DUP1 SWAP2 SUB SWAP1 RETURN JUMPDEST PUSH2 0x261 PUSH1 0x4 DUP1 CALLDATASIZE SUB DUP2 ADD SWAP1 PUSH2 0x25C SWAP2 SWAP1 PUSH2 0x124B JUMP JUMPDEST PUSH2 0x746 JUMP JUMPDEST STOP JUMPDEST PUSH2 0x26B PUSH2 0x7F6 JUMP JUMPDEST STOP JUMPDEST PUSH2 0x275 PUSH2 0x7F8 JUMP JUMPDEST PUSH1 0x40 MLOAD PUSH2 0x282 SWAP2 SWAP1 PUSH2 0x12A3 JUMP JUMPDEST PUSH1 0x40 MLOAD DUP1 SWAP2 SUB SWAP1 RETURN JUMPDEST PUSH2 0x293 PUSH2 0x805 JUMP JUMPDEST PUSH1 0x40 MLOAD PUSH2 0x2A0 SWAP2 SWAP1 PUSH2 0x14FD JUMP JUMPDEST PUSH1 0x40 MLOAD DUP1 SWAP2 SUB SWAP1 RETURN JUMPDEST PUSH2 0x2C3 PUSH1 0x4 DUP1 CALLDATASIZE SUB DUP2 ADD SWAP1 PUSH2 0x2BE SWAP2 SWAP1 PUSH2 0x12BE JUMP JUMPDEST PUSH2 0x842 JUMP JUMPDEST STOP JUMPDEST PUSH2 0x2CD PUSH2 0x966 JUMP JUMPDEST PUSH1 0x40 MLOAD PUSH2 0x2DA SWAP2 SWAP1 PUSH2 0x152E JUMP JUMPDEST PUSH1 0x40 MLOAD DUP1 SWAP2 SUB SWAP1 RETURN JUMPDEST PUSH2 0x2FD PUSH1 0x4 DUP1 CALLDATASIZE SUB DUP2 ADD SWAP1 PUSH2 0x2F8 SWAP2 SWAP1 PUSH2 0x1549 JUMP JUMPDEST PUSH2 0x98C JUMP JUMPDEST STOP JUMPDEST PUSH2 0x319 PUSH1 0x4 DUP1 CALLDATASIZE SUB DUP2 ADD SWAP1 PUSH2 0x314 SWAP2 SWAP1 PUSH2 0x1600 JUMP JUMPDEST PUSH2 0x9C1 JUMP JUMPDEST STOP JUMPDEST PUSH2 0x335 PUSH1 0x4 DUP1 CALLDATASIZE SUB DUP2 ADD SWAP1 PUSH2 0x330 SWAP2 SWAP1 PUSH2 0x12BE JUMP JUMPDEST PUSH2 0x9D8 JUMP JUMPDEST PUSH1 0x40 MLOAD PUSH2 0x342 SWAP2 SWAP1 PUSH2 0x14FD JUMP JUMPDEST PUSH1 0x40 MLOAD DUP1 SWAP2 SUB SWAP1 RETURN JUMPDEST PUSH2 0x353 PUSH2 0xA84 JUMP JUMPDEST PUSH1 0x40 MLOAD PUSH2 0x360 SWAP2 SWAP1 PUSH2 0x14FD JUMP JUMPDEST PUSH1 0x40 MLOAD DUP1 SWAP2 SUB SWAP1 RETURN JUMPDEST PUSH2 0x371 PUSH2 0xAC1 JUMP JUMPDEST PUSH1 0x40 MLOAD PUSH2 0x37E SWAP2 SWAP1 PUSH2 0x16DD JUMP JUMPDEST PUSH1 0x40 MLOAD DUP1 SWAP2 SUB SWAP1 RETURN JUMPDEST PUSH2 0x3A1 PUSH1 0x4 DUP1 CALLDATASIZE SUB DUP2 ADD SWAP1 PUSH2 0x39C SWAP2 SWAP1 PUSH2 0x16FF JUMP JUMPDEST PUSH2 0xC0F JUMP JUMPDEST PUSH1 0x40 MLOAD PUSH2 0x3AE SWAP2 SWAP1 PUSH2 0x13CA JUMP JUMPDEST PUSH1 0x40 MLOAD DUP1 SWAP2 SUB SWAP1 RETURN JUMPDEST PUSH2 0x3BF PUSH2 0xC3E JUMP JUMPDEST PUSH1 0x40 MLOAD PUSH2 0x3CC SWAP2 SWAP1 PUSH2 0x1858 JUMP JUMPDEST PUSH1 0x40 MLOAD DUP1 SWAP2 SUB SWAP1 RETURN JUMPDEST PUSH2 0x3EF PUSH1 0x4 DUP1 CALLDATASIZE SUB DUP2 ADD SWAP1 PUSH2 0x3EA SWAP2 SWAP1 PUSH2 0x124B JUMP JUMPDEST PUSH2 0xE31 JUMP JUMPDEST STOP JUMPDEST PUSH2 0x40B PUSH1 0x4 DUP1 CALLDATASIZE SUB DUP2 ADD SWAP1 PUSH2 0x406 SWAP2 SWAP1 PUSH2 0x149C JUMP JUMPDEST PUSH2 0xE70 JUMP JUMPDEST STOP JUMPDEST PUSH2 0x415 PUSH2 0xFDC JUMP JUMPDEST STOP JUMPDEST DUP1 PUSH1 0x9 PUSH1 0x0 CALLER PUSH20 0xFFFFFFFFFFFFFFFFFFFFFFFFFFFFFFFFFFFFFFFF AND PUSH20 0xFFFFFFFFFFFFFFFFFFFFFFFFFFFFFFFFFFFFFFFF AND DUP2 MSTORE PUSH1 0x20 ADD SWAP1 DUP2 MSTORE PUSH1 0x20 ADD PUSH1 0x0 KECCAK256 PUSH1 0x0 DUP3 ADD MLOAD DUP2 PUSH1 0x0 ADD SWAP1 DUP2 PUSH2 0x46C SWAP2 SWAP1 PUSH2 0x1A86 JUMP JUMPDEST POP PUSH1 0x20 DUP3 ADD MLOAD DUP2 PUSH1 0x1 ADD SWAP1 DUP2 PUSH2 0x482 SWAP2 SWAP1 PUSH2 0x1A86 JUMP JUMPDEST POP PUSH1 0x40 DUP3 ADD MLOAD DUP2 PUSH1 0x2 ADD SSTORE SWAP1 POP POP POP JUMP JUMPDEST PUSH1 0x1 SLOAD DUP2 JUMP JUMPDEST PUSH1 0xA DUP2 PUSH1 0x3 DUP2 LT PUSH2 0x4A9 JUMPI PUSH1 0x0 DUP1 REVERT JUMPDEST PUSH1 0x3 MUL ADD PUSH1 0x0 SWAP2 POP SWAP1 POP DUP1 PUSH1 0x0 ADD DUP1 SLOAD PUSH2 0x4C2 SWAP1 PUSH2 0x18A9 JUMP JUMPDEST DUP1 PUSH1 0x1F ADD PUSH1 0x20 DUP1 SWAP2 DIV MUL PUSH1 0x20 ADD PUSH1 0x40 MLOAD SWAP1 DUP2 ADD PUSH1 0x40 MSTORE DUP1 SWAP3 SWAP2 SWAP1 DUP2 DUP2 MSTORE PUSH1 0x20 ADD DUP3 DUP1 SLOAD PUSH2 0x4EE SWAP1 PUSH2 0x18A9 JUMP JUMPDEST DUP1 ISZERO PUSH2 0x53B JUMPI DUP1 PUSH1 0x1F LT PUSH2 0x510 JUMPI PUSH2 0x100 DUP1 DUP4 SLOAD DIV MUL DUP4 MSTORE SWAP2 PUSH1 0x20 ADD SWAP2 PUSH2 0x53B JUMP JUMPDEST DUP3 ADD SWAP2 SWAP1 PUSH1 0x0 MSTORE PUSH1 0x20 PUSH1 0x0 KECCAK256 SWAP1 JUMPDEST DUP2 SLOAD DUP2 MSTORE SWAP1 PUSH1 0x1 ADD SWAP1 PUSH1 0x20 ADD DUP1 DUP4 GT PUSH2 0x51E JUMPI DUP3 SWAP1 SUB PUSH1 0x1F AND DUP3 ADD SWAP2 JUMPDEST POP POP POP POP POP SWAP1 DUP1 PUSH1 0x1 ADD DUP1 SLOAD PUSH2 0x550 SWAP1 PUSH2 0x18A9 JUMP JUMPDEST DUP1 PUSH1 0x1F ADD PUSH1 0x20 DUP1 SWAP2 DIV MUL PUSH1 0x20 ADD PUSH1 0x40 MLOAD SWAP1 DUP2 ADD PUSH1 0x40 MSTORE DUP1 SWAP3 SWAP2 SWAP1 DUP2 DUP2 MSTORE PUSH1 0x20 ADD DUP3 DUP1 SLOAD PUSH2 0x57C SWAP1 PUSH2 0x18A9 JUMP JUMPDEST DUP1 ISZERO PUSH2 0x5C9 JUMPI DUP1 PUSH1 0x1F LT PUSH2 0x59E JUMPI PUSH2 0x100 DUP1 DUP4 SLOAD DIV MUL DUP4 MSTORE SWAP2 PUSH1 0x20 ADD SWAP2 PUSH2 0x5C9 JUMP JUMPDEST DUP3 ADD SWAP2 SWAP1 PUSH1 0x0 MSTORE PUSH1 0x20 PUSH1 0x0 KECCAK256 SWAP1 JUMPDEST DUP2 SLOAD DUP2 MSTORE SWAP1 PUSH1 0x1 ADD SWAP1 PUSH1 0x20 ADD DUP1 DUP4 GT PUSH2 0x5AC JUMPI DUP3 SWAP1 SUB PUSH1 0x1F AND DUP3 ADD SWAP2 JUMPDEST POP POP POP POP POP SWAP1 DUP1 PUSH1 0x2 ADD SLOAD SWAP1 POP DUP4 JUMP JUMPDEST PUSH1 0x0 DUP1 SLOAD SWAP1 PUSH2 0x100 EXP SWAP1 DIV PUSH1 0xFF AND DUP2 JUMP JUMPDEST DUP1 PUSH1 0x0 DUP1 PUSH2 0x100 EXP DUP2 SLOAD DUP2 PUSH1 0xFF MUL NOT AND SWAP1 DUP4 ISZERO ISZERO MUL OR SWAP1 SSTORE POP POP JUMP JUMPDEST PUSH1 0x9 PUSH1 0x20 MSTORE DUP1 PUSH1 0x0 MSTORE PUSH1 0x40 PUSH1 0x0 KECCAK256 PUSH1 0x0 SWAP2 POP SWAP1 POP DUP1 PUSH1 0x0 ADD DUP1 SLOAD PUSH2 0x629 SWAP1 PUSH2 0x18A9 JUMP JUMPDEST DUP1 PUSH1 0x1F ADD PUSH1 0x20 DUP1 SWAP2 DIV MUL PUSH1 0x20 ADD PUSH1 0x40 MLOAD SWAP1 DUP2 ADD PUSH1 0x40 MSTORE DUP1 SWAP3 SWAP2 SWAP1 DUP2 DUP2 MSTORE PUSH1 0x20 ADD DUP3 DUP1 SLOAD PUSH2 0x655 SWAP1 PUSH2 0x18A9 JUMP JUMPDEST DUP1 ISZERO PUSH2 0x6A2 JUMPI DUP1 PUSH1 0x1F LT PUSH2 0x677 JUMPI PUSH2 0x100 DUP1 DUP4 SLOAD DIV MUL DUP4 MSTORE SWAP2 PUSH1 0x20 ADD SWAP2 PUSH2 0x6A2 JUMP JUMPDEST DUP3 ADD SWAP2 SWAP1 PUSH1 0x0 MSTORE PUSH1 0x20 PUSH1 0x0 KECCAK256 SWAP1 JUMPDEST DUP2 SLOAD DUP2 MSTORE SWAP1 PUSH1 0x1 ADD SWAP1 PUSH1 0x20 ADD DUP1 DUP4 GT PUSH2 0x685 JUMPI DUP3 SWAP1 SUB PUSH1 0x1F AND DUP3 ADD SWAP2 JUMPDEST POP POP POP POP POP SWAP1 DUP1 PUSH1 0x1 ADD DUP1 SLOAD PUSH2 0x6B7 SWAP1 PUSH2 0x18A9 JUMP JUMPDEST DUP1 PUSH1 0x1F ADD PUSH1 0x20 DUP1 SWAP2 DIV MUL PUSH1 0x20 ADD PUSH1 0x40 MLOAD SWAP1 DUP2 ADD PUSH1 0x40 MSTORE DUP1 SWAP3 SWAP2 SWAP1 DUP2 DUP2 MSTORE PUSH1 0x20 ADD DUP3 DUP1 SLOAD PUSH2 0x6E3 SWAP1 PUSH2 0x18A9 JUMP JUMPDEST DUP1 ISZERO PUSH2 0x730 JUMPI DUP1 PUSH1 0x1F LT PUSH2 0x705 JUMPI PUSH2 0x100 DUP1 DUP4 SLOAD DIV MUL DUP4 MSTORE SWAP2 PUSH1 0x20 ADD SWAP2 PUSH2 0x730 JUMP JUMPDEST DUP3 ADD SWAP2 SWAP1 PUSH1 0x0 MSTORE PUSH1 0x20 PUSH1 0x0 KECCAK256 SWAP1 JUMPDEST DUP2 SLOAD DUP2 MSTORE SWAP1 PUSH1 0x1 ADD SWAP1 PUSH1 0x20 ADD DUP1 DUP4 GT PUSH2 0x713 JUMPI DUP3 SWAP1 SUB PUSH1 0x1F AND DUP3 ADD SWAP2 JUMPDEST POP POP POP POP POP SWAP1 DUP1 PUSH1 0x2 ADD SLOAD SWAP1 POP DUP4 JUMP JUMPDEST PUSH1 0x2 SLOAD DUP2 JUMP JUMPDEST PUSH1 0x3 PUSH1 0x13 SLOAD LT PUSH2 0x78B JUMPI PUSH1 0x40 MLOAD PUSH32 0x8C379A000000000000000000000000000000000000000000000000000000000 DUP2 MSTORE PUSH1 0x4 ADD PUSH2 0x782 SWAP1 PUSH2 0x1BA4 JUMP JUMPDEST PUSH1 0x40 MLOAD DUP1 SWAP2 SUB SWAP1 REVERT JUMPDEST DUP1 PUSH1 0xA PUSH1 0x13 PUSH1 0x0 DUP2 SLOAD DUP1 SWAP3 SWAP2 SWAP1 PUSH2 0x7A1 SWAP1 PUSH2 0x1BF3 JUMP JUMPDEST SWAP2 SWAP1 POP SSTORE PUSH1 0x3 DUP2 LT PUSH2 0x7B6 JUMPI PUSH2 0x7B5 PUSH2 0x1C3B JUMP JUMPDEST JUMPDEST PUSH1 0x3 MUL ADD PUSH1 0x0 DUP3 ADD MLOAD DUP2 PUSH1 0x0 ADD SWAP1 DUP2 PUSH2 0x7CF SWAP2 SWAP1 PUSH2 0x1A86 JUMP JUMPDEST POP PUSH1 0x20 DUP3 ADD MLOAD DUP2 PUSH1 0x1 ADD SWAP1 DUP2 PUSH2 0x7E5 SWAP2 SWAP1 PUSH2 0x1A86 JUMP JUMPDEST POP PUSH1 0x40 DUP3 ADD MLOAD DUP2 PUSH1 0x2 ADD SSTORE SWAP1 POP POP POP JUMP JUMPDEST JUMP JUMPDEST PUSH1 0x0 PUSH1 0x5 DUP1 SLOAD SWAP1 POP SWAP1 POP SWAP1 JUMP JUMPDEST PUSH1 0x60 PUSH1 0x40 MLOAD DUP1 PUSH1 0x40 ADD PUSH1 0x40 MSTORE DUP1 PUSH1 0xB DUP2 MSTORE PUSH1 0x20 ADD PUSH32 0x4920616D20726561647921000000000000000000000000000000000000000000 DUP2 MSTORE POP SWAP1 POP SWAP1 JUMP JUMPDEST PUSH1 0x4 PUSH1 0x0 PUSH1 0x3 PUSH1 0x0 SWAP1 SLOAD SWAP1 PUSH2 0x100 EXP SWAP1 DIV PUSH20 0xFFFFFFFFFFFFFFFFFFFFFFFFFFFFFFFFFFFFFFFF AND PUSH20 0xFFFFFFFFFFFFFFFFFFFFFFFFFFFFFFFFFFFFFFFF AND PUSH20 0xFFFFFFFFFFFFFFFFFFFFFFFFFFFFFFFFFFFFFFFF AND DUP2 MSTORE PUSH1 0x20 ADD SWAP1 DUP2 MSTORE PUSH1 0x20 ADD PUSH1 0x0 KECCAK256 PUSH1 0x0 CALLER PUSH20 0xFFFFFFFFFFFFFFFFFFFFFFFFFFFFFFFFFFFFFFFF AND PUSH20 0xFFFFFFFFFFFFFFFFFFFFFFFFFFFFFFFFFFFFFFFF AND DUP2 MSTORE PUSH1 0x20 ADD SWAP1 DUP2 MSTORE PUSH1 0x20 ADD PUSH1 0x0 KECCAK256 PUSH1 0x0 SWAP1 SLOAD SWAP1 PUSH2 0x100 EXP SWAP1 DIV PUSH1 0xFF AND PUSH1 0x5 PUSH1 0x0 DUP2 SLOAD DUP2 LT PUSH2 0x903 JUMPI PUSH2 0x902 PUSH2 0x1C3B JUMP JUMPDEST JUMPDEST SWAP1 PUSH1 0x0 MSTORE PUSH1 0x20 PUSH1 0x0 KECCAK256 ADD SWAP1 PUSH2 0x94E JUMPI PUSH1 0x40 MLOAD PUSH32 0x8C379A000000000000000000000000000000000000000000000000000000000 DUP2 MSTORE PUSH1 0x4 ADD PUSH2 0x945 SWAP2 SWAP1 PUSH2 0x1CEE JUMP JUMPDEST PUSH1 0x40 MLOAD DUP1 SWAP2 SUB SWAP1 REVERT JUMPDEST POP DUP1 PUSH1 0x1 SLOAD PUSH2 0x95D SWAP2 SWAP1 PUSH2 0x1D10 JUMP JUMPDEST PUSH1 0x1 DUP2 SWAP1 SSTORE POP POP JUMP JUMPDEST PUSH1 0x3 PUSH1 0x0 SWAP1 SLOAD SWAP1 PUSH2 0x100 EXP SWAP1 DIV PUSH20 0xFFFFFFFFFFFFFFFFFFFFFFFFFFFFFFFFFFFFFFFF AND DUP2 JUMP JUMPDEST DUP3 PUSH1 0x6 PUSH1 0x0 ADD SWAP1 DUP2 PUSH2 0x99E SWAP2 SWAP1 PUSH2 0x1A86 JUMP JUMPDEST POP DUP2 PUSH1 0x6 PUSH1 0x1 ADD SWAP1 DUP2 PUSH2 0x9B1 SWAP2 SWAP1 PUSH2 0x1A86 JUMP JUMPDEST POP DUP1 PUSH1 0x6 PUSH1 0x2 ADD DUP2 SWAP1 SSTORE POP POP POP POP JUMP JUMPDEST DUP1 PUSH1 0x2 SLOAD PUSH2 0x9CF SWAP2 SWAP1 PUSH2 0x1D44 JUMP JUMPDEST PUSH1 0x2 DUP2 SWAP1 SSTORE POP POP JUMP JUMPDEST PUSH1 0x5 DUP2 DUP2 SLOAD DUP2 LT PUSH2 0x9E8 JUMPI PUSH1 0x0 DUP1 REVERT JUMPDEST SWAP1 PUSH1 0x0 MSTORE PUSH1 0x20 PUSH1 0x0 KECCAK256 ADD PUSH1 0x0 SWAP2 POP SWAP1 POP DUP1 SLOAD PUSH2 0xA03 SWAP1 PUSH2 0x18A9 JUMP JUMPDEST DUP1 PUSH1 0x1F ADD PUSH1 0x20 DUP1 SWAP2 DIV MUL PUSH1 0x20 ADD PUSH1 0x40 MLOAD SWAP1 DUP2 ADD PUSH1 0x40 MSTORE DUP1 SWAP3 SWAP2 SWAP1 DUP2 DUP2 MSTORE PUSH1 0x20 ADD DUP3 DUP1 SLOAD PUSH2 0xA2F SWAP1 PUSH2 0x18A9 JUMP JUMPDEST DUP1 ISZERO PUSH2 0xA7C JUMPI DUP1 PUSH1 0x1F LT PUSH2 0xA51 JUMPI PUSH2 0x100 DUP1 DUP4 SLOAD DIV MUL DUP4 MSTORE SWAP2 PUSH1 0x20 ADD SWAP2 PUSH2 0xA7C JUMP JUMPDEST DUP3 ADD SWAP2 SWAP1 PUSH1 0x0 MSTORE PUSH1 0x20 PUSH1 0x0 KECCAK256 SWAP1 JUMPDEST DUP2 SLOAD DUP2 MSTORE SWAP1 PUSH1 0x1 ADD SWAP1 PUSH1 0x20 ADD DUP1 DUP4 GT PUSH2 0xA5F JUMPI DUP3 SWAP1 SUB PUSH1 0x1F AND DUP3 ADD SWAP2 JUMPDEST POP POP POP POP POP DUP2 JUMP JUMPDEST PUSH1 0x60 PUSH1 0x40 MLOAD DUP1 PUSH1 0x40 ADD PUSH1 0x40 MSTORE DUP1 PUSH1 0xB DUP2 MSTORE PUSH1 0x20 ADD PUSH32 0x3078427572616B556E616C000000000000000000000000000000000000000000 DUP2 MSTORE POP SWAP1 POP SWAP1 JUMP JUMPDEST PUSH2 0xAC9 PUSH2 0xFF4 JUMP JUMPDEST PUSH1 0x0 PUSH1 0x6 PUSH1 0x40 MLOAD DUP1 PUSH1 0x60 ADD PUSH1 0x40 MSTORE SWAP1 DUP2 PUSH1 0x0 DUP3 ADD DUP1 SLOAD PUSH2 0xAE8 SWAP1 PUSH2 0x18A9 JUMP JUMPDEST DUP1 PUSH1 0x1F ADD PUSH1 0x20 DUP1 SWAP2 DIV MUL PUSH1 0x20 ADD PUSH1 0x40 MLOAD SWAP1 DUP2 ADD PUSH1 0x40 MSTORE DUP1 SWAP3 SWAP2 SWAP1 DUP2 DUP2 MSTORE PUSH1 0x20 ADD DUP3 DUP1 SLOAD PUSH2 0xB14 SWAP1 PUSH2 0x18A9 JUMP JUMPDEST DUP1 ISZERO PUSH2 0xB61 JUMPI DUP1 PUSH1 0x1F LT PUSH2 0xB36 JUMPI PUSH2 0x100 DUP1 DUP4 SLOAD DIV MUL DUP4 MSTORE SWAP2 PUSH1 0x20 ADD SWAP2 PUSH2 0xB61 JUMP JUMPDEST DUP3 ADD SWAP2 SWAP1 PUSH1 0x0 MSTORE PUSH1 0x20 PUSH1 0x0 KECCAK256 SWAP1 JUMPDEST DUP2 SLOAD DUP2 MSTORE SWAP1 PUSH1 0x1 ADD SWAP1 PUSH1 0x20 ADD DUP1 DUP4 GT PUSH2 0xB44 JUMPI DUP3 SWAP1 SUB PUSH1 0x1F AND DUP3 ADD SWAP2 JUMPDEST POP POP POP POP POP DUP2 MSTORE PUSH1 0x20 ADD PUSH1 0x1 DUP3 ADD DUP1 SLOAD PUSH2 0xB7A SWAP1 PUSH2 0x18A9 JUMP JUMPDEST DUP1 PUSH1 0x1F ADD PUSH1 0x20 DUP1 SWAP2 DIV MUL PUSH1 0x20 ADD PUSH1 0x40 MLOAD SWAP1 DUP2 ADD PUSH1 0x40 MSTORE DUP1 SWAP3 SWAP2 SWAP1 DUP2 DUP2 MSTORE PUSH1 0x20 ADD DUP3 DUP1 SLOAD PUSH2 0xBA6 SWAP1 PUSH2 0x18A9 JUMP JUMPDEST DUP1 ISZERO PUSH2 0xBF3 JUMPI DUP1 PUSH1 0x1F LT PUSH2 0xBC8 JUMPI PUSH2 0x100 DUP1 DUP4 SLOAD DIV MUL DUP4 MSTORE SWAP2 PUSH1 0x20 ADD SWAP2 PUSH2 0xBF3 JUMP JUMPDEST DUP3 ADD SWAP2 SWAP1 PUSH1 0x0 MSTORE PUSH1 0x20 PUSH1 0x0 KECCAK256 SWAP1 JUMPDEST DUP2 SLOAD DUP2 MSTORE SWAP1 PUSH1 0x1 ADD SWAP1 PUSH1 0x20 ADD DUP1 DUP4 GT PUSH2 0xBD6 JUMPI DUP3 SWAP1 SUB PUSH1 0x1F AND DUP3 ADD SWAP2 JUMPDEST POP POP POP POP POP DUP2 MSTORE PUSH1 0x20 ADD PUSH1 0x2 DUP3 ADD SLOAD DUP2 MSTORE POP POP SWAP1 POP DUP1 SWAP2 POP POP SWAP1 JUMP JUMPDEST PUSH1 0x4 PUSH1 0x20 MSTORE DUP2 PUSH1 0x0 MSTORE PUSH1 0x40 PUSH1 0x0 KECCAK256 PUSH1 0x20 MSTORE DUP1 PUSH1 0x0 MSTORE PUSH1 0x40 PUSH1 0x0 KECCAK256 PUSH1 0x0 SWAP2 POP SWAP2 POP SWAP1 SLOAD SWAP1 PUSH2 0x100 EXP SWAP1 DIV PUSH1 0xFF AND DUP2 JUMP JUMPDEST PUSH1 0x60 PUSH1 0x0 PUSH1 0x13 SLOAD PUSH8 0xFFFFFFFFFFFFFFFF DUP2 GT ISZERO PUSH2 0xC5E JUMPI PUSH2 0xC5D PUSH2 0x103F JUMP JUMPDEST JUMPDEST PUSH1 0x40 MLOAD SWAP1 DUP1 DUP3 MSTORE DUP1 PUSH1 0x20 MUL PUSH1 0x20 ADD DUP3 ADD PUSH1 0x40 MSTORE DUP1 ISZERO PUSH2 0xC97 JUMPI DUP2 PUSH1 0x20 ADD JUMPDEST PUSH2 0xC84 PUSH2 0xFF4 JUMP JUMPDEST DUP2 MSTORE PUSH1 0x20 ADD SWAP1 PUSH1 0x1 SWAP1 SUB SWAP1 DUP2 PUSH2 0xC7C JUMPI SWAP1 POP JUMPDEST POP SWAP1 POP PUSH1 0x0 JUMPDEST PUSH1 0x13 SLOAD DUP2 LT ISZERO PUSH2 0xE29 JUMPI PUSH1 0xA DUP2 PUSH1 0x3 DUP2 LT PUSH2 0xCBB JUMPI PUSH2 0xCBA PUSH2 0x1C3B JUMP JUMPDEST JUMPDEST PUSH1 0x3 MUL ADD PUSH1 0x40 MLOAD DUP1 PUSH1 0x60 ADD PUSH1 0x40 MSTORE SWAP1 DUP2 PUSH1 0x0 DUP3 ADD DUP1 SLOAD PUSH2 0xCDA SWAP1 PUSH2 0x18A9 JUMP JUMPDEST DUP1 PUSH1 0x1F ADD PUSH1 0x20 DUP1 SWAP2 DIV MUL PUSH1 0x20 ADD PUSH1 0x40 MLOAD SWAP1 DUP2 ADD PUSH1 0x40 MSTORE DUP1 SWAP3 SWAP2 SWAP1 DUP2 DUP2 MSTORE PUSH1 0x20 ADD DUP3 DUP1 SLOAD PUSH2 0xD06 SWAP1 PUSH2 0x18A9 JUMP JUMPDEST DUP1 ISZERO PUSH2 0xD53 JUMPI DUP1 PUSH1 0x1F LT PUSH2 0xD28 JUMPI PUSH2 0x100 DUP1 DUP4 SLOAD DIV MUL DUP4 MSTORE SWAP2 PUSH1 0x20 ADD SWAP2 PUSH2 0xD53 JUMP JUMPDEST DUP3 ADD SWAP2 SWAP1 PUSH1 0x0 MSTORE PUSH1 0x20 PUSH1 0x0 KECCAK256 SWAP1 JUMPDEST DUP2 SLOAD DUP2 MSTORE SWAP1 PUSH1 0x1 ADD SWAP1 PUSH1 0x20 ADD DUP1 DUP4 GT PUSH2 0xD36 JUMPI DUP3 SWAP1 SUB PUSH1 0x1F AND DUP3 ADD SWAP2 JUMPDEST POP POP POP POP POP DUP2 MSTORE PUSH1 0x20 ADD PUSH1 0x1 DUP3 ADD DUP1 SLOAD PUSH2 0xD6C SWAP1 PUSH2 0x18A9 JUMP JUMPDEST DUP1 PUSH1 0x1F ADD PUSH1 0x20 DUP1 SWAP2 DIV MUL PUSH1 0x20 ADD PUSH1 0x40 MLOAD SWAP1 DUP2 ADD PUSH1 0x40 MSTORE DUP1 SWAP3 SWAP2 SWAP1 DUP2 DUP2 MSTORE PUSH1 0x20 ADD DUP3 DUP1 SLOAD PUSH2 0xD98 SWAP1 PUSH2 0x18A9 JUMP JUMPDEST DUP1 ISZERO PUSH2 0xDE5 JUMPI DUP1 PUSH1 0x1F LT PUSH2 0xDBA JUMPI PUSH2 0x100 DUP1 DUP4 SLOAD DIV MUL DUP4 MSTORE SWAP2 PUSH1 0x20 ADD SWAP2 PUSH2 0xDE5 JUMP JUMPDEST DUP3 ADD SWAP2 SWAP1 PUSH1 0x0 MSTORE PUSH1 0x20 PUSH1 0x0 KECCAK256 SWAP1 JUMPDEST DUP2 SLOAD DUP2 MSTORE SWAP1 PUSH1 0x1 ADD SWAP1 PUSH1 0x20 ADD DUP1 DUP4 GT PUSH2 0xDC8 JUMPI DUP3 SWAP1 SUB PUSH1 0x1F AND DUP3 ADD SWAP2 JUMPDEST POP POP POP POP POP DUP2 MSTORE PUSH1 0x20 ADD PUSH1 0x2 DUP3 ADD SLOAD DUP2 MSTORE POP POP DUP3 DUP3 DUP2 MLOAD DUP2 LT PUSH2 0xE0B JUMPI PUSH2 0xE0A PUSH2 0x1C3B JUMP JUMPDEST JUMPDEST PUSH1 0x20 MUL PUSH1 0x20 ADD ADD DUP2 SWAP1 MSTORE POP DUP1 DUP1 PUSH2 0xE21 SWAP1 PUSH2 0x1BF3 JUMP JUMPDEST SWAP2 POP POP PUSH2 0xC9D JUMP JUMPDEST POP DUP1 SWAP2 POP POP SWAP1 JUMP JUMPDEST DUP1 PUSH1 0x6 PUSH1 0x0 DUP3 ADD MLOAD DUP2 PUSH1 0x0 ADD SWAP1 DUP2 PUSH2 0xE49 SWAP2 SWAP1 PUSH2 0x1A86 JUMP JUMPDEST POP PUSH1 0x20 DUP3 ADD MLOAD DUP2 PUSH1 0x1 ADD SWAP1 DUP2 PUSH2 0xE5F SWAP2 SWAP1 PUSH2 0x1A86 JUMP JUMPDEST POP PUSH1 0x40 DUP3 ADD MLOAD DUP2 PUSH1 0x2 ADD SSTORE SWAP1 POP POP POP JUMP JUMPDEST CALLER PUSH20 0xFFFFFFFFFFFFFFFFFFFFFFFFFFFFFFFFFFFFFFFF AND PUSH1 0x3 PUSH1 0x0 SWAP1 SLOAD SWAP1 PUSH2 0x100 EXP SWAP1 DIV PUSH20 0xFFFFFFFFFFFFFFFFFFFFFFFFFFFFFFFFFFFFFFFF AND PUSH20 0xFFFFFFFFFFFFFFFFFFFFFFFFFFFFFFFFFFFFFFFF AND EQ PUSH1 0x5 PUSH1 0x1 DUP2 SLOAD DUP2 LT PUSH2 0xED6 JUMPI PUSH2 0xED5 PUSH2 0x1C3B JUMP JUMPDEST JUMPDEST SWAP1 PUSH1 0x0 MSTORE PUSH1 0x20 PUSH1 0x0 KECCAK256 ADD SWAP1 PUSH2 0xF21 JUMPI PUSH1 0x40 MLOAD PUSH32 0x8C379A000000000000000000000000000000000000000000000000000000000 DUP2 MSTORE PUSH1 0x4 ADD PUSH2 0xF18 SWAP2 SWAP1 PUSH2 0x1CEE JUMP JUMPDEST PUSH1 0x40 MLOAD DUP1 SWAP2 SUB SWAP1 REVERT JUMPDEST POP PUSH1 0x1 PUSH1 0x4 PUSH1 0x0 PUSH1 0x3 PUSH1 0x0 SWAP1 SLOAD SWAP1 PUSH2 0x100 EXP SWAP1 DIV PUSH20 0xFFFFFFFFFFFFFFFFFFFFFFFFFFFFFFFFFFFFFFFF AND PUSH20 0xFFFFFFFFFFFFFFFFFFFFFFFFFFFFFFFFFFFFFFFF AND PUSH20 0xFFFFFFFFFFFFFFFFFFFFFFFFFFFFFFFFFFFFFFFF AND DUP2 MSTORE PUSH1 0x20 ADD SWAP1 DUP2 MSTORE PUSH1 0x20 ADD PUSH1 0x0 KECCAK256 PUSH1 0x0 DUP4 PUSH20 0xFFFFFFFFFFFFFFFFFFFFFFFFFFFFFFFFFFFFFFFF AND PUSH20 0xFFFFFFFFFFFFFFFFFFFFFFFFFFFFFFFFFFFFFFFF AND DUP2 MSTORE PUSH1 0x20 ADD SWAP1 DUP2 MSTORE PUSH1 0x20 ADD PUSH1 0x0 KECCAK256 PUSH1 0x0 PUSH2 0x100 EXP DUP2 SLOAD DUP2 PUSH1 0xFF MUL NOT AND SWAP1 DUP4 ISZERO ISZERO MUL OR SWAP1 SSTORE POP POP JUMP JUMPDEST PUSH1 0x1 PUSH1 0x0 DUP2 SLOAD PUSH2 0xFEB SWAP1 PUSH2 0x1BF3 JUMP JUMPDEST SWAP2 SWAP1 POP DUP2 SWAP1 SSTORE POP JUMP JUMPDEST PUSH1 0x40 MLOAD DUP1 PUSH1 0x60 ADD PUSH1 0x40 MSTORE DUP1 PUSH1 0x60 DUP2 MSTORE PUSH1 0x20 ADD PUSH1 0x60 DUP2 MSTORE PUSH1 0x20 ADD PUSH1 0x0 DUP2 MSTORE POP SWAP1 JUMP JUMPDEST PUSH1 0x0 PUSH1 0x40 MLOAD SWAP1 POP SWAP1 JUMP JUMPDEST PUSH1 0x0 DUP1 REVERT JUMPDEST PUSH1 0x0 DUP1 REVERT JUMPDEST PUSH1 0x0 DUP1 REVERT JUMPDEST PUSH1 0x0 PUSH1 0x1F NOT PUSH1 0x1F DUP4 ADD AND SWAP1 POP SWAP2 SWAP1 POP JUMP JUMPDEST PUSH32 0x4E487B7100000000000000000000000000000000000000000000000000000000 PUSH1 0x0 MSTORE PUSH1 0x41 PUSH1 0x4 MSTORE PUSH1 0x24 PUSH1 0x0 REVERT JUMPDEST PUSH2 0x1077 DUP3 PUSH2 0x102E JUMP JUMPDEST DUP2 ADD DUP2 DUP2 LT PUSH8 0xFFFFFFFFFFFFFFFF DUP3 GT OR ISZERO PUSH2 0x1096 JUMPI PUSH2 0x1095 PUSH2 0x103F JUMP JUMPDEST JUMPDEST DUP1 PUSH1 0x40 MSTORE POP POP POP JUMP JUMPDEST PUSH1 0x0 PUSH2 0x10A9 PUSH2 0x1015 JUMP JUMPDEST SWAP1 POP PUSH2 0x10B5 DUP3 DUP3 PUSH2 0x106E JUMP JUMPDEST SWAP2 SWAP1 POP JUMP JUMPDEST PUSH1 0x0 DUP1 REVERT JUMPDEST PUSH1 0x0 DUP1 REVERT JUMPDEST PUSH1 0x0 DUP1 REVERT JUMPDEST PUSH1 0x0 PUSH8 0xFFFFFFFFFFFFFFFF DUP3 GT ISZERO PUSH2 0x10E4 JUMPI PUSH2 0x10E3 PUSH2 0x103F JUMP JUMPDEST JUMPDEST PUSH2 0x10ED DUP3 PUSH2 0x102E JUMP JUMPDEST SWAP1 POP PUSH1 0x20 DUP2 ADD SWAP1 POP SWAP2 SWAP1 POP JUMP JUMPDEST DUP3 DUP2 DUP4 CALLDATACOPY PUSH1 0x0 DUP4 DUP4 ADD MSTORE POP POP POP JUMP JUMPDEST PUSH1 0x0 PUSH2 0x111C PUSH2 0x1117 DUP5 PUSH2 0x10C9 JUMP JUMPDEST PUSH2 0x109F JUMP JUMPDEST SWAP1 POP DUP3 DUP2 MSTORE PUSH1 0x20 DUP2 ADD DUP5 DUP5 DUP5 ADD GT ISZERO PUSH2 0x1138 JUMPI PUSH2 0x1137 PUSH2 0x10C4 JUMP JUMPDEST JUMPDEST PUSH2 0x1143 DUP5 DUP3 DUP6 PUSH2 0x10FA JUMP JUMPDEST POP SWAP4 SWAP3 POP POP POP JUMP JUMPDEST PUSH1 0x0 DUP3 PUSH1 0x1F DUP4 ADD SLT PUSH2 0x1160 JUMPI PUSH2 0x115F PUSH2 0x10BF JUMP JUMPDEST JUMPDEST DUP2 CALLDATALOAD PUSH2 0x1170 DUP5 DUP3 PUSH1 0x20 DUP7 ADD PUSH2 0x1109 JUMP JUMPDEST SWAP2 POP POP SWAP3 SWAP2 POP POP JUMP JUMPDEST PUSH1 0x0 DUP2 SWAP1 POP SWAP2 SWAP1 POP JUMP JUMPDEST PUSH2 0x118C DUP2 PUSH2 0x1179 JUMP JUMPDEST DUP2 EQ PUSH2 0x1197 JUMPI PUSH1 0x0 DUP1 REVERT JUMPDEST POP JUMP JUMPDEST PUSH1 0x0 DUP2 CALLDATALOAD SWAP1 POP PUSH2 0x11A9 DUP2 PUSH2 0x1183 JUMP JUMPDEST SWAP3 SWAP2 POP POP JUMP JUMPDEST PUSH1 0x0 PUSH1 0x60 DUP3 DUP5 SUB SLT ISZERO PUSH2 0x11C5 JUMPI PUSH2 0x11C4 PUSH2 0x1029 JUMP JUMPDEST JUMPDEST PUSH2 0x11CF PUSH1 0x60 PUSH2 0x109F JUMP JUMPDEST SWAP1 POP PUSH1 0x0 DUP3 ADD CALLDATALOAD PUSH8 0xFFFFFFFFFFFFFFFF DUP2 GT ISZERO PUSH2 0x11EF JUMPI PUSH2 0x11EE PUSH2 0x10BA JUMP JUMPDEST JUMPDEST PUSH2 0x11FB DUP5 DUP3 DUP6 ADD PUSH2 0x114B JUMP JUMPDEST PUSH1 0x0 DUP4 ADD MSTORE POP PUSH1 0x20 DUP3 ADD CALLDATALOAD PUSH8 0xFFFFFFFFFFFFFFFF DUP2 GT ISZERO PUSH2 0x121F JUMPI PUSH2 0x121E PUSH2 0x10BA JUMP JUMPDEST JUMPDEST PUSH2 0x122B DUP5 DUP3 DUP6 ADD PUSH2 0x114B JUMP JUMPDEST PUSH1 0x20 DUP4 ADD MSTORE POP PUSH1 0x40 PUSH2 0x123F DUP5 DUP3 DUP6 ADD PUSH2 0x119A JUMP JUMPDEST PUSH1 0x40 DUP4 ADD MSTORE POP SWAP3 SWAP2 POP POP JUMP JUMPDEST PUSH1 0x0 PUSH1 0x20 DUP3 DUP5 SUB SLT ISZERO PUSH2 0x1261 JUMPI PUSH2 0x1260 PUSH2 0x101F JUMP JUMPDEST JUMPDEST PUSH1 0x0 DUP3 ADD CALLDATALOAD PUSH8 0xFFFFFFFFFFFFFFFF DUP2 GT ISZERO PUSH2 0x127F JUMPI PUSH2 0x127E PUSH2 0x1024 JUMP JUMPDEST JUMPDEST PUSH2 0x128B DUP5 DUP3 DUP6 ADD PUSH2 0x11AF JUMP JUMPDEST SWAP2 POP POP SWAP3 SWAP2 POP POP JUMP JUMPDEST PUSH2 0x129D DUP2 PUSH2 0x1179 JUMP JUMPDEST DUP3 MSTORE POP POP JUMP JUMPDEST PUSH1 0x0 PUSH1 0x20 DUP3 ADD SWAP1 POP PUSH2 0x12B8 PUSH1 0x0 DUP4 ADD DUP5 PUSH2 0x1294 JUMP JUMPDEST SWAP3 SWAP2 POP POP JUMP JUMPDEST PUSH1 0x0 PUSH1 0x20 DUP3 DUP5 SUB SLT ISZERO PUSH2 0x12D4 JUMPI PUSH2 0x12D3 PUSH2 0x101F JUMP JUMPDEST JUMPDEST PUSH1 0x0 PUSH2 0x12E2 DUP5 DUP3 DUP6 ADD PUSH2 0x119A JUMP JUMPDEST SWAP2 POP POP SWAP3 SWAP2 POP POP JUMP JUMPDEST PUSH1 0x0 DUP2 MLOAD SWAP1 POP SWAP2 SWAP1 POP JUMP JUMPDEST PUSH1 0x0 DUP3 DUP3 MSTORE PUSH1 0x20 DUP3 ADD SWAP1 POP SWAP3 SWAP2 POP POP JUMP JUMPDEST PUSH1 0x0 JUMPDEST DUP4 DUP2 LT ISZERO PUSH2 0x1325 JUMPI DUP1 DUP3 ADD MLOAD DUP2 DUP5 ADD MSTORE PUSH1 0x20 DUP2 ADD SWAP1 POP PUSH2 0x130A JUMP JUMPDEST PUSH1 0x0 DUP5 DUP5 ADD MSTORE POP POP POP POP JUMP JUMPDEST PUSH1 0x0 PUSH2 0x133C DUP3 PUSH2 0x12EB JUMP JUMPDEST PUSH2 0x1346 DUP2 DUP6 PUSH2 0x12F6 JUMP JUMPDEST SWAP4 POP PUSH2 0x1356 DUP2 DUP6 PUSH1 0x20 DUP7 ADD PUSH2 0x1307 JUMP JUMPDEST PUSH2 0x135F DUP2 PUSH2 0x102E JUMP JUMPDEST DUP5 ADD SWAP2 POP POP SWAP3 SWAP2 POP POP JUMP JUMPDEST PUSH1 0x0 PUSH1 0x60 DUP3 ADD SWAP1 POP DUP2 DUP2 SUB PUSH1 0x0 DUP4 ADD MSTORE PUSH2 0x1384 DUP2 DUP7 PUSH2 0x1331 JUMP JUMPDEST SWAP1 POP DUP2 DUP2 SUB PUSH1 0x20 DUP4 ADD MSTORE PUSH2 0x1398 DUP2 DUP6 PUSH2 0x1331 JUMP JUMPDEST SWAP1 POP PUSH2 0x13A7 PUSH1 0x40 DUP4 ADD DUP5 PUSH2 0x1294 JUMP JUMPDEST SWAP5 SWAP4 POP POP POP POP JUMP JUMPDEST PUSH1 0x0 DUP2 ISZERO ISZERO SWAP1 POP SWAP2 SWAP1 POP JUMP JUMPDEST PUSH2 0x13C4 DUP2 PUSH2 0x13AF JUMP JUMPDEST DUP3 MSTORE POP POP JUMP JUMPDEST PUSH1 0x0 PUSH1 0x20 DUP3 ADD SWAP1 POP PUSH2 0x13DF PUSH1 0x0 DUP4 ADD DUP5 PUSH2 0x13BB JUMP JUMPDEST SWAP3 SWAP2 POP POP JUMP JUMPDEST PUSH2 0x13EE DUP2 PUSH2 0x13AF JUMP JUMPDEST DUP2 EQ PUSH2 0x13F9 JUMPI PUSH1 0x0 DUP1 REVERT JUMPDEST POP JUMP JUMPDEST PUSH1 0x0 DUP2 CALLDATALOAD SWAP1 POP PUSH2 0x140B DUP2 PUSH2 0x13E5 JUMP JUMPDEST SWAP3 SWAP2 POP POP JUMP JUMPDEST PUSH1 0x0 PUSH1 0x20 DUP3 DUP5 SUB SLT ISZERO PUSH2 0x1427 JUMPI PUSH2 0x1426 PUSH2 0x101F JUMP JUMPDEST JUMPDEST PUSH1 0x0 PUSH2 0x1435 DUP5 DUP3 DUP6 ADD PUSH2 0x13FC JUMP JUMPDEST SWAP2 POP POP SWAP3 SWAP2 POP POP JUMP JUMPDEST PUSH1 0x0 PUSH20 0xFFFFFFFFFFFFFFFFFFFFFFFFFFFFFFFFFFFFFFFF DUP3 AND SWAP1 POP SWAP2 SWAP1 POP JUMP JUMPDEST PUSH1 0x0 PUSH2 0x1469 DUP3 PUSH2 0x143E JUMP JUMPDEST SWAP1 POP SWAP2 SWAP1 POP JUMP JUMPDEST PUSH2 0x1479 DUP2 PUSH2 0x145E JUMP JUMPDEST DUP2 EQ PUSH2 0x1484 JUMPI PUSH1 0x0 DUP1 REVERT JUMPDEST POP JUMP JUMPDEST PUSH1 0x0 DUP2 CALLDATALOAD SWAP1 POP PUSH2 0x1496 DUP2 PUSH2 0x1470 JUMP JUMPDEST SWAP3 SWAP2 POP POP JUMP JUMPDEST PUSH1 0x0 PUSH1 0x20 DUP3 DUP5 SUB SLT ISZERO PUSH2 0x14B2 JUMPI PUSH2 0x14B1 PUSH2 0x101F JUMP JUMPDEST JUMPDEST PUSH1 0x0 PUSH2 0x14C0 DUP5 DUP3 DUP6 ADD PUSH2 0x1487 JUMP JUMPDEST SWAP2 POP POP SWAP3 SWAP2 POP POP JUMP JUMPDEST PUSH1 0x0 DUP2 SWAP1 POP SWAP2 SWAP1 POP JUMP JUMPDEST PUSH2 0x14DC DUP2 PUSH2 0x14C9 JUMP JUMPDEST DUP3 MSTORE POP POP JUMP JUMPDEST PUSH1 0x0 PUSH1 0x20 DUP3 ADD SWAP1 POP PUSH2 0x14F7 PUSH1 0x0 DUP4 ADD DUP5 PUSH2 0x14D3 JUMP JUMPDEST SWAP3 SWAP2 POP POP JUMP JUMPDEST PUSH1 0x0 PUSH1 0x20 DUP3 ADD SWAP1 POP DUP2 DUP2 SUB PUSH1 0x0 DUP4 ADD MSTORE PUSH2 0x1517 DUP2 DUP5 PUSH2 0x1331 JUMP JUMPDEST SWAP1 POP SWAP3 SWAP2 POP POP JUMP JUMPDEST PUSH2 0x1528 DUP2 PUSH2 0x145E JUMP JUMPDEST DUP3 MSTORE POP POP JUMP JUMPDEST PUSH1 0x0 PUSH1 0x20 DUP3 ADD SWAP1 POP PUSH2 0x1543 PUSH1 0x0 DUP4 ADD DUP5 PUSH2 0x151F JUMP JUMPDEST SWAP3 SWAP2 POP POP JUMP JUMPDEST PUSH1 0x0 DUP1 PUSH1 0x0 PUSH1 0x60 DUP5 DUP7 SUB SLT ISZERO PUSH2 0x1562 JUMPI PUSH2 0x1561 PUSH2 0x101F JUMP JUMPDEST JUMPDEST PUSH1 0x0 DUP5 ADD CALLDATALOAD PUSH8 0xFFFFFFFFFFFFFFFF DUP2 GT ISZERO PUSH2 0x1580 JUMPI PUSH2 0x157F PUSH2 0x1024 JUMP JUMPDEST JUMPDEST PUSH2 0x158C DUP7 DUP3 DUP8 ADD PUSH2 0x114B JUMP JUMPDEST SWAP4 POP POP PUSH1 0x20 DUP5 ADD CALLDATALOAD PUSH8 0xFFFFFFFFFFFFFFFF DUP2 GT ISZERO PUSH2 0x15AD JUMPI PUSH2 0x15AC PUSH2 0x1024 JUMP JUMPDEST JUMPDEST PUSH2 0x15B9 DUP7 DUP3 DUP8 ADD PUSH2 0x114B JUMP JUMPDEST SWAP3 POP POP PUSH1 0x40 PUSH2 0x15CA DUP7 DUP3 DUP8 ADD PUSH2 0x119A JUMP JUMPDEST SWAP2 POP POP SWAP3 POP SWAP3 POP SWAP3 JUMP JUMPDEST PUSH2 0x15DD DUP2 PUSH2 0x14C9 JUMP JUMPDEST DUP2 EQ PUSH2 0x15E8 JUMPI PUSH1 0x0 DUP1 REVERT JUMPDEST POP JUMP JUMPDEST PUSH1 0x0 DUP2 CALLDATALOAD SWAP1 POP PUSH2 0x15FA DUP2 PUSH2 0x15D4 JUMP JUMPDEST SWAP3 SWAP2 POP POP JUMP JUMPDEST PUSH1 0x0 PUSH1 0x20 DUP3 DUP5 SUB SLT ISZERO PUSH2 0x1616 JUMPI PUSH2 0x1615 PUSH2 0x101F JUMP JUMPDEST JUMPDEST PUSH1 0x0 PUSH2 0x1624 DUP5 DUP3 DUP6 ADD PUSH2 0x15EB JUMP JUMPDEST SWAP2 POP POP SWAP3 SWAP2 POP POP JUMP JUMPDEST PUSH1 0x0 DUP3 DUP3 MSTORE PUSH1 0x20 DUP3 ADD SWAP1 POP SWAP3 SWAP2 POP POP JUMP JUMPDEST PUSH1 0x0 PUSH2 0x1649 DUP3 PUSH2 0x12EB JUMP JUMPDEST PUSH2 0x1653 DUP2 DUP6 PUSH2 0x162D JUMP JUMPDEST SWAP4 POP PUSH2 0x1663 DUP2 DUP6 PUSH1 0x20 DUP7 ADD PUSH2 0x1307 JUMP JUMPDEST PUSH2 0x166C DUP2 PUSH2 0x102E JUMP JUMPDEST DUP5 ADD SWAP2 POP POP SWAP3 SWAP2 POP POP JUMP JUMPDEST PUSH2 0x1680 DUP2 PUSH2 0x1179 JUMP JUMPDEST DUP3 MSTORE POP POP JUMP JUMPDEST PUSH1 0x0 PUSH1 0x60 DUP4 ADD PUSH1 0x0 DUP4 ADD MLOAD DUP5 DUP3 SUB PUSH1 0x0 DUP7 ADD MSTORE PUSH2 0x16A3 DUP3 DUP3 PUSH2 0x163E JUMP JUMPDEST SWAP2 POP POP PUSH1 0x20 DUP4 ADD MLOAD DUP5 DUP3 SUB PUSH1 0x20 DUP7 ADD MSTORE PUSH2 0x16BD DUP3 DUP3 PUSH2 0x163E JUMP JUMPDEST SWAP2 POP POP PUSH1 0x40 DUP4 ADD MLOAD PUSH2 0x16D2 PUSH1 0x40 DUP7 ADD DUP3 PUSH2 0x1677 JUMP JUMPDEST POP DUP1 SWAP2 POP POP SWAP3 SWAP2 POP POP JUMP JUMPDEST PUSH1 0x0 PUSH1 0x20 DUP3 ADD SWAP1 POP DUP2 DUP2 SUB PUSH1 0x0 DUP4 ADD MSTORE PUSH2 0x16F7 DUP2 DUP5 PUSH2 0x1686 JUMP JUMPDEST SWAP1 POP SWAP3 SWAP2 POP POP JUMP JUMPDEST PUSH1 0x0 DUP1 PUSH1 0x40 DUP4 DUP6 SUB SLT ISZERO PUSH2 0x1716 JUMPI PUSH2 0x1715 PUSH2 0x101F JUMP JUMPDEST JUMPDEST PUSH1 0x0 PUSH2 0x1724 DUP6 DUP3 DUP7 ADD PUSH2 0x1487 JUMP JUMPDEST SWAP3 POP POP PUSH1 0x20 PUSH2 0x1735 DUP6 DUP3 DUP7 ADD PUSH2 0x1487 JUMP JUMPDEST SWAP2 POP POP SWAP3 POP SWAP3 SWAP1 POP JUMP JUMPDEST PUSH1 0x0 DUP2 MLOAD SWAP1 POP SWAP2 SWAP1 POP JUMP JUMPDEST PUSH1 0x0 DUP3 DUP3 MSTORE PUSH1 0x20 DUP3 ADD SWAP1 POP SWAP3 SWAP2 POP POP JUMP JUMPDEST PUSH1 0x0 DUP2 SWAP1 POP PUSH1 0x20 DUP3 ADD SWAP1 POP SWAP2 SWAP1 POP JUMP JUMPDEST PUSH1 0x0 PUSH1 0x60 DUP4 ADD PUSH1 0x0 DUP4 ADD MLOAD DUP5 DUP3 SUB PUSH1 0x0 DUP7 ADD MSTORE PUSH2 0x1788 DUP3 DUP3 PUSH2 0x163E JUMP JUMPDEST SWAP2 POP POP PUSH1 0x20 DUP4 ADD MLOAD DUP5 DUP3 SUB PUSH1 0x20 DUP7 ADD MSTORE PUSH2 0x17A2 DUP3 DUP3 PUSH2 0x163E JUMP JUMPDEST SWAP2 POP POP PUSH1 0x40 DUP4 ADD MLOAD PUSH2 0x17B7 PUSH1 0x40 DUP7 ADD DUP3 PUSH2 0x1677 JUMP JUMPDEST POP DUP1 SWAP2 POP POP SWAP3 SWAP2 POP POP JUMP JUMPDEST PUSH1 0x0 PUSH2 0x17CE DUP4 DUP4 PUSH2 0x176B JUMP JUMPDEST SWAP1 POP SWAP3 SWAP2 POP POP JUMP JUMPDEST PUSH1 0x0 PUSH1 0x20 DUP3 ADD SWAP1 POP SWAP2 SWAP1 POP JUMP JUMPDEST PUSH1 0x0 PUSH2 0x17EE DUP3 PUSH2 0x173F JUMP JUMPDEST PUSH2 0x17F8 DUP2 DUP6 PUSH2 0x174A JUMP JUMPDEST SWAP4 POP DUP4 PUSH1 0x20 DUP3 MUL DUP6 ADD PUSH2 0x180A DUP6 PUSH2 0x175B JUMP JUMPDEST DUP1 PUSH1 0x0 JUMPDEST DUP6 DUP2 LT ISZERO PUSH2 0x1846 JUMPI DUP5 DUP5 SUB DUP10 MSTORE DUP2 MLOAD PUSH2 0x1827 DUP6 DUP3 PUSH2 0x17C2 JUMP JUMPDEST SWAP5 POP PUSH2 0x1832 DUP4 PUSH2 0x17D6 JUMP JUMPDEST SWAP3 POP PUSH1 0x20 DUP11 ADD SWAP10 POP POP PUSH1 0x1 DUP2 ADD SWAP1 POP PUSH2 0x180E JUMP JUMPDEST POP DUP3 SWAP8 POP DUP8 SWAP6 POP POP POP POP POP POP SWAP3 SWAP2 POP POP JUMP JUMPDEST PUSH1 0x0 PUSH1 0x20 DUP3 ADD SWAP1 POP DUP2 DUP2 SUB PUSH1 0x0 DUP4 ADD MSTORE PUSH2 0x1872 DUP2 DUP5 PUSH2 0x17E3 JUMP JUMPDEST SWAP1 POP SWAP3 SWAP2 POP POP JUMP JUMPDEST PUSH32 0x4E487B7100000000000000000000000000000000000000000000000000000000 PUSH1 0x0 MSTORE PUSH1 0x22 PUSH1 0x4 MSTORE PUSH1 0x24 PUSH1 0x0 REVERT JUMPDEST PUSH1 0x0 PUSH1 0x2 DUP3 DIV SWAP1 POP PUSH1 0x1 DUP3 AND DUP1 PUSH2 0x18C1 JUMPI PUSH1 0x7F DUP3 AND SWAP2 POP JUMPDEST PUSH1 0x20 DUP3 LT DUP2 SUB PUSH2 0x18D4 JUMPI PUSH2 0x18D3 PUSH2 0x187A JUMP JUMPDEST JUMPDEST POP SWAP2 SWAP1 POP JUMP JUMPDEST PUSH1 0x0 DUP2 SWAP1 POP DUP2 PUSH1 0x0 MSTORE PUSH1 0x20 PUSH1 0x0 KECCAK256 SWAP1 POP SWAP2 SWAP1 POP JUMP JUMPDEST PUSH1 0x0 PUSH1 0x20 PUSH1 0x1F DUP4 ADD DIV SWAP1 POP SWAP2 SWAP1 POP JUMP JUMPDEST PUSH1 0x0 DUP3 DUP3 SHL SWAP1 POP SWAP3 SWAP2 POP POP JUMP JUMPDEST PUSH1 0x0 PUSH1 0x8 DUP4 MUL PUSH2 0x193C PUSH32 0xFFFFFFFFFFFFFFFFFFFFFFFFFFFFFFFFFFFFFFFFFFFFFFFFFFFFFFFFFFFFFFFF DUP3 PUSH2 0x18FF JUMP JUMPDEST PUSH2 0x1946 DUP7 DUP4 PUSH2 0x18FF JUMP JUMPDEST SWAP6 POP DUP1 NOT DUP5 AND SWAP4 POP DUP1 DUP7 AND DUP5 OR SWAP3 POP POP POP SWAP4 SWAP3 POP POP POP JUMP JUMPDEST PUSH1 0x0 DUP2 SWAP1 POP SWAP2 SWAP1 POP JUMP JUMPDEST PUSH1 0x0 PUSH2 0x1983 PUSH2 0x197E PUSH2 0x1979 DUP5 PUSH2 0x1179 JUMP JUMPDEST PUSH2 0x195E JUMP JUMPDEST PUSH2 0x1179 JUMP JUMPDEST SWAP1 POP SWAP2 SWAP1 POP JUMP JUMPDEST PUSH1 0x0 DUP2 SWAP1 POP SWAP2 SWAP1 POP JUMP JUMPDEST PUSH2 0x199D DUP4 PUSH2 0x1968 JUMP JUMPDEST PUSH2 0x19B1 PUSH2 0x19A9 DUP3 PUSH2 0x198A JUMP JUMPDEST DUP5 DUP5 SLOAD PUSH2 0x190C JUMP JUMPDEST DUP3 SSTORE POP POP POP POP JUMP JUMPDEST PUSH1 0x0 SWAP1 JUMP JUMPDEST PUSH2 0x19C6 PUSH2 0x19B9 JUMP JUMPDEST PUSH2 0x19D1 DUP2 DUP5 DUP5 PUSH2 0x1994 JUMP JUMPDEST POP POP POP JUMP JUMPDEST JUMPDEST DUP2 DUP2 LT ISZERO PUSH2 0x19F5 JUMPI PUSH2 0x19EA PUSH1 0x0 DUP3 PUSH2 0x19BE JUMP JUMPDEST PUSH1 0x1 DUP2 ADD SWAP1 POP PUSH2 0x19D7 JUMP JUMPDEST POP POP JUMP JUMPDEST PUSH1 0x1F DUP3 GT ISZERO PUSH2 0x1A3A JUMPI PUSH2 0x1A0B DUP2 PUSH2 0x18DA JUMP JUMPDEST PUSH2 0x1A14 DUP5 PUSH2 0x18EF JUMP JUMPDEST DUP2 ADD PUSH1 0x20 DUP6 LT ISZERO PUSH2 0x1A23 JUMPI DUP2 SWAP1 POP JUMPDEST PUSH2 0x1A37 PUSH2 0x1A2F DUP6 PUSH2 0x18EF JUMP JUMPDEST DUP4 ADD DUP3 PUSH2 0x19D6 JUMP JUMPDEST POP POP JUMPDEST POP POP POP JUMP JUMPDEST PUSH1 0x0 DUP3 DUP3 SHR SWAP1 POP SWAP3 SWAP2 POP POP JUMP JUMPDEST PUSH1 0x0 PUSH2 0x1A5D PUSH1 0x0 NOT DUP5 PUSH1 0x8 MUL PUSH2 0x1A3F JUMP JUMPDEST NOT DUP1 DUP4 AND SWAP2 POP POP SWAP3 SWAP2 POP POP JUMP JUMPDEST PUSH1 0x0 PUSH2 0x1A76 DUP4 DUP4 PUSH2 0x1A4C JUMP JUMPDEST SWAP2 POP DUP3 PUSH1 0x2 MUL DUP3 OR SWAP1 POP SWAP3 SWAP2 POP POP JUMP JUMPDEST PUSH2 0x1A8F DUP3 PUSH2 0x12EB JUMP JUMPDEST PUSH8 0xFFFFFFFFFFFFFFFF DUP2 GT ISZERO PUSH2 0x1AA8 JUMPI PUSH2 0x1AA7 PUSH2 0x103F JUMP JUMPDEST JUMPDEST PUSH2 0x1AB2 DUP3 SLOAD PUSH2 0x18A9 JUMP JUMPDEST PUSH2 0x1ABD DUP3 DUP3 DUP6 PUSH2 0x19F9 JUMP JUMPDEST PUSH1 0x0 PUSH1 0x20 SWAP1 POP PUSH1 0x1F DUP4 GT PUSH1 0x1 DUP2 EQ PUSH2 0x1AF0 JUMPI PUSH1 0x0 DUP5 ISZERO PUSH2 0x1ADE JUMPI DUP3 DUP8 ADD MLOAD SWAP1 POP JUMPDEST PUSH2 0x1AE8 DUP6 DUP3 PUSH2 0x1A6A JUMP JUMPDEST DUP7 SSTORE POP PUSH2 0x1B50 JUMP JUMPDEST PUSH1 0x1F NOT DUP5 AND PUSH2 0x1AFE DUP7 PUSH2 0x18DA JUMP JUMPDEST PUSH1 0x0 JUMPDEST DUP3 DUP2 LT ISZERO PUSH2 0x1B26 JUMPI DUP5 DUP10 ADD MLOAD DUP3 SSTORE PUSH1 0x1 DUP3 ADD SWAP2 POP PUSH1 0x20 DUP6 ADD SWAP5 POP PUSH1 0x20 DUP2 ADD SWAP1 POP PUSH2 0x1B01 JUMP JUMPDEST DUP7 DUP4 LT ISZERO PUSH2 0x1B43 JUMPI DUP5 DUP10 ADD MLOAD PUSH2 0x1B3F PUSH1 0x1F DUP10 AND DUP3 PUSH2 0x1A4C JUMP JUMPDEST DUP4 SSTORE POP JUMPDEST PUSH1 0x1 PUSH1 0x2 DUP9 MUL ADD DUP9 SSTORE POP POP POP JUMPDEST POP POP POP POP POP POP JUMP JUMPDEST PUSH32 0x486173206E6F20736C6F74000000000000000000000000000000000000000000 PUSH1 0x0 DUP3 ADD MSTORE POP JUMP JUMPDEST PUSH1 0x0 PUSH2 0x1B8E PUSH1 0xB DUP4 PUSH2 0x12F6 JUMP JUMPDEST SWAP2 POP PUSH2 0x1B99 DUP3 PUSH2 0x1B58 JUMP JUMPDEST PUSH1 0x20 DUP3 ADD SWAP1 POP SWAP2 SWAP1 POP JUMP JUMPDEST PUSH1 0x0 PUSH1 0x20 DUP3 ADD SWAP1 POP DUP2 DUP2 SUB PUSH1 0x0 DUP4 ADD MSTORE PUSH2 0x1BBD DUP2 PUSH2 0x1B81 JUMP JUMPDEST SWAP1 POP SWAP2 SWAP1 POP JUMP JUMPDEST PUSH32 0x4E487B7100000000000000000000000000000000000000000000000000000000 PUSH1 0x0 MSTORE PUSH1 0x11 PUSH1 0x4 MSTORE PUSH1 0x24 PUSH1 0x0 REVERT JUMPDEST PUSH1 0x0 PUSH2 0x1BFE DUP3 PUSH2 0x1179 JUMP JUMPDEST SWAP2 POP PUSH32 0xFFFFFFFFFFFFFFFFFFFFFFFFFFFFFFFFFFFFFFFFFFFFFFFFFFFFFFFFFFFFFFFF DUP3 SUB PUSH2 0x1C30 JUMPI PUSH2 0x1C2F PUSH2 0x1BC4 JUMP JUMPDEST JUMPDEST PUSH1 0x1 DUP3 ADD SWAP1 POP SWAP2 SWAP1 POP JUMP JUMPDEST PUSH32 0x4E487B7100000000000000000000000000000000000000000000000000000000 PUSH1 0x0 MSTORE PUSH1 0x32 PUSH1 0x4 MSTORE PUSH1 0x24 PUSH1 0x0 REVERT JUMPDEST PUSH1 0x0 DUP2 SLOAD PUSH2 0x1C77 DUP2 PUSH2 0x18A9 JUMP JUMPDEST PUSH2 0x1C81 DUP2 DUP7 PUSH2 0x12F6 JUMP JUMPDEST SWAP5 POP PUSH1 0x1 DUP3 AND PUSH1 0x0 DUP2 EQ PUSH2 0x1C9C JUMPI PUSH1 0x1 DUP2 EQ PUSH2 0x1CB2 JUMPI PUSH2 0x1CE5 JUMP JUMPDEST PUSH1 0xFF NOT DUP4 AND DUP7 MSTORE DUP2 ISZERO ISZERO PUSH1 0x20 MUL DUP7 ADD SWAP4 POP PUSH2 0x1CE5 JUMP JUMPDEST PUSH2 0x1CBB DUP6 PUSH2 0x18DA JUMP JUMPDEST PUSH1 0x0 JUMPDEST DUP4 DUP2 LT ISZERO PUSH2 0x1CDD JUMPI DUP2 SLOAD DUP2 DUP10 ADD MSTORE PUSH1 0x1 DUP3 ADD SWAP2 POP PUSH1 0x20 DUP2 ADD SWAP1 POP PUSH2 0x1CBE JUMP JUMPDEST DUP1 DUP9 ADD SWAP6 POP POP POP JUMPDEST POP POP POP SWAP3 SWAP2 POP POP JUMP JUMPDEST PUSH1 0x0 PUSH1 0x20 DUP3 ADD SWAP1 POP DUP2 DUP2 SUB PUSH1 0x0 DUP4 ADD MSTORE PUSH2 0x1D08 DUP2 DUP5 PUSH2 0x1C6A JUMP JUMPDEST SWAP1 POP SWAP3 SWAP2 POP POP JUMP JUMPDEST PUSH1 0x0 PUSH2 0x1D1B DUP3 PUSH2 0x1179 JUMP JUMPDEST SWAP2 POP PUSH2 0x1D26 DUP4 PUSH2 0x1179 JUMP JUMPDEST SWAP3 POP DUP3 DUP3 ADD SWAP1 POP DUP1 DUP3 GT ISZERO PUSH2 0x1D3E JUMPI PUSH2 0x1D3D PUSH2 0x1BC4 JUMP JUMPDEST JUMPDEST SWAP3 SWAP2 POP POP JUMP JUMPDEST PUSH1 0x0 PUSH2 0x1D4F DUP3 PUSH2 0x14C9 JUMP JUMPDEST SWAP2 POP PUSH2 0x1D5A DUP4 PUSH2 0x14C9 JUMP JUMPDEST SWAP3 POP DUP3 DUP3 ADD SWAP1 POP DUP3 DUP2 SLT ISZERO PUSH1 0x0 DUP4 SLT AND DUP4 DUP3 SLT PUSH1 0x0 DUP5 SLT ISZERO AND OR ISZERO PUSH2 0x1D82 JUMPI PUSH2 0x1D81 PUSH2 0x1BC4 JUMP JUMPDEST JUMPDEST SWAP3 SWAP2 POP POP JUMP INVALID LOG2 PUSH5 0x6970667358 0x22 SLT KECCAK256 0x49 EQ MLOAD SWAP12 PUSH17 0xC3683E7EAD56067A697B75D25CFEAF9516 XOR 0xBC 0xD2 PUSH25 0x3918A9BF7C1F64736F6C634300081200330000000000000000 "
				},
				"gasEstimates": {
					"creation": {
						"codeDepositCost": "1522800",
						"executionCost": "infinite",
						"totalCost": "infinite"
					},
					"external": {
						"accountValues(address)": "infinite",
						"addAdmin((string,string,uint256))": "infinite",
						"admins(uint256)": "infinite",
						"allowance(address,address)": "infinite",
						"allowed()": "2558",
						"assignAllowance(address)": "infinite",
						"assignValue(string,string,uint256)": "infinite",
						"assignValue2((string,string,uint256))": "infinite",
						"assingAddressValues((string,string,uint256))": "infinite",
						"count()": "2475",
						"errorMessages(uint256)": "infinite",
						"extraMethod()": "233",
						"getAccount()": "infinite",
						"getAllAdmins()": "infinite",
						"getSizeOfErrorMessages()": "2556",
						"iAmReady()": "infinite",
						"increment(uint256)": "infinite",
						"oneIncrement()": "24627",
						"owner()": "2559",
						"setAllowed(bool)": "24791",
						"signedCount()": "2474",
						"signedIncrement(int256)": "infinite",
						"whoAmI()": "infinite"
					}
				},
				"methodIdentifiers": {
					"accountValues(address)": "4fab2bc9",
					"addAdmin((string,string,uint256))": "5faaf352",
					"admins(uint256)": "14bfd6d0",
					"allowance(address,address)": "dd62ed3e",
					"allowed()": "19e1fca4",
					"assignAllowance(address)": "f6ace8d7",
					"assignValue(string,string,uint256)": "9bead1f8",
					"assignValue2((string,string,uint256))": "f3009c90",
					"assingAddressValues((string,string,uint256))": "00942a94",
					"count()": "06661abd",
					"errorMessages(uint256)": "c539ab78",
					"extraMethod()": "6710a559",
					"getAccount()": "db613e81",
					"getAllAdmins()": "e9523c97",
					"getSizeOfErrorMessages()": "702051f0",
					"iAmReady()": "7c85cfc2",
					"increment(uint256)": "7cf5dab0",
					"oneIncrement()": "ffac3b1d",
					"owner()": "8da5cb5b",
					"setAllowed(bool)": "2babac22",
					"signedCount()": "5f3d8f4a",
					"signedIncrement(int256)": "be7cb506",
					"whoAmI()": "da91254c"
				}
			},
			"storageLayout": {
				"storage": [
					{
						"astId": 23,
						"contract": "contracts/SimpleContract.sol:SimpleContract",
						"label": "allowed",
						"offset": 0,
						"slot": "0",
						"type": "t_bool"
					},
					{
						"astId": 25,
						"contract": "contracts/SimpleContract.sol:SimpleContract",
						"label": "count",
						"offset": 0,
						"slot": "1",
						"type": "t_uint256"
					},
					{
						"astId": 27,
						"contract": "contracts/SimpleContract.sol:SimpleContract",
						"label": "signedCount",
						"offset": 0,
						"slot": "2",
						"type": "t_int256"
					},
					{
						"astId": 29,
						"contract": "contracts/SimpleContract.sol:SimpleContract",
						"label": "owner",
						"offset": 0,
						"slot": "3",
						"type": "t_address"
					},
					{
						"astId": 35,
						"contract": "contracts/SimpleContract.sol:SimpleContract",
						"label": "allowance",
						"offset": 0,
						"slot": "4",
						"type": "t_mapping(t_address,t_mapping(t_address,t_bool))"
					},
					{
						"astId": 38,
						"contract": "contracts/SimpleContract.sol:SimpleContract",
						"label": "errorMessages",
						"offset": 0,
						"slot": "5",
						"type": "t_array(t_string_storage)dyn_storage"
					},
					{
						"astId": 48,
						"contract": "contracts/SimpleContract.sol:SimpleContract",
						"label": "account",
						"offset": 0,
						"slot": "6",
						"type": "t_struct(Account)45_storage"
					},
					{
						"astId": 53,
						"contract": "contracts/SimpleContract.sol:SimpleContract",
						"label": "accountValues",
						"offset": 0,
						"slot": "9",
						"type": "t_mapping(t_address,t_struct(Account)45_storage)"
					},
					{
						"astId": 58,
						"contract": "contracts/SimpleContract.sol:SimpleContract",
						"label": "admins",
						"offset": 0,
						"slot": "10",
						"type": "t_array(t_struct(Account)45_storage)3_storage"
					},
					{
						"astId": 60,
						"contract": "contracts/SimpleContract.sol:SimpleContract",
						"label": "index",
						"offset": 0,
						"slot": "19",
						"type": "t_uint256"
					}
				],
				"types": {
					"t_address": {
						"encoding": "inplace",
						"label": "address",
						"numberOfBytes": "20"
					},
					"t_array(t_string_storage)dyn_storage": {
						"base": "t_string_storage",
						"encoding": "dynamic_array",
						"label": "string[]",
						"numberOfBytes": "32"
					},
					"t_array(t_struct(Account)45_storage)3_storage": {
						"base": "t_struct(Account)45_storage",
						"encoding": "inplace",
						"label": "struct SimpleContract.Account[3]",
						"numberOfBytes": "288"
					},
					"t_bool": {
						"encoding": "inplace",
						"label": "bool",
						"numberOfBytes": "1"
					},
					"t_int256": {
						"encoding": "inplace",
						"label": "int256",
						"numberOfBytes": "32"
					},
					"t_mapping(t_address,t_bool)": {
						"encoding": "mapping",
						"key": "t_address",
						"label": "mapping(address => bool)",
						"numberOfBytes": "32",
						"value": "t_bool"
					},
					"t_mapping(t_address,t_mapping(t_address,t_bool))": {
						"encoding": "mapping",
						"key": "t_address",
						"label": "mapping(address => mapping(address => bool))",
						"numberOfBytes": "32",
						"value": "t_mapping(t_address,t_bool)"
					},
					"t_mapping(t_address,t_struct(Account)45_storage)": {
						"encoding": "mapping",
						"key": "t_address",
						"label": "mapping(address => struct SimpleContract.Account)",
						"numberOfBytes": "32",
						"value": "t_struct(Account)45_storage"
					},
					"t_string_storage": {
						"encoding": "bytes",
						"label": "string",
						"numberOfBytes": "32"
					},
					"t_struct(Account)45_storage": {
						"encoding": "inplace",
						"label": "struct SimpleContract.Account",
						"members": [
							{
								"astId": 40,
								"contract": "contracts/SimpleContract.sol:SimpleContract",
								"label": "name",
								"offset": 0,
								"slot": "0",
								"type": "t_string_storage"
							},
							{
								"astId": 42,
								"contract": "contracts/SimpleContract.sol:SimpleContract",
								"label": "surname",
								"offset": 0,
								"slot": "1",
								"type": "t_string_storage"
							},
							{
								"astId": 44,
								"contract": "contracts/SimpleContract.sol:SimpleContract",
								"label": "balance",
								"offset": 0,
								"slot": "2",
								"type": "t_uint256"
							}
						],
						"numberOfBytes": "96"
					},
					"t_uint256": {
						"encoding": "inplace",
						"label": "uint256",
						"numberOfBytes": "32"
					}
				}
			},
			"userdoc": {
				"kind": "user",
				"methods": {},
				"version": 1
			}
		}
	}
}